{
  "contractName": "Card",
  "abi": [
    {
      "inputs": [],
      "stateMutability": "nonpayable",
      "type": "constructor"
    },
    {
      "anonymous": false,
      "inputs": [
        {
          "indexed": true,
          "internalType": "address",
          "name": "owner",
          "type": "address"
        },
        {
          "indexed": true,
          "internalType": "address",
          "name": "approved",
          "type": "address"
        },
        {
          "indexed": true,
          "internalType": "uint256",
          "name": "tokenId",
          "type": "uint256"
        }
      ],
      "name": "Approval",
      "type": "event"
    },
    {
      "anonymous": false,
      "inputs": [
        {
          "indexed": true,
          "internalType": "address",
          "name": "owner",
          "type": "address"
        },
        {
          "indexed": true,
          "internalType": "address",
          "name": "operator",
          "type": "address"
        },
        {
          "indexed": false,
          "internalType": "bool",
          "name": "approved",
          "type": "bool"
        }
      ],
      "name": "ApprovalForAll",
      "type": "event"
    },
    {
      "anonymous": false,
      "inputs": [
        {
          "indexed": true,
          "internalType": "address",
          "name": "from",
          "type": "address"
        },
        {
          "indexed": true,
          "internalType": "address",
          "name": "to",
          "type": "address"
        },
        {
          "indexed": true,
          "internalType": "uint256",
          "name": "tokenId",
          "type": "uint256"
        }
      ],
      "name": "Transfer",
      "type": "event"
    },
    {
      "inputs": [
        {
          "internalType": "address",
          "name": "to",
          "type": "address"
        },
        {
          "internalType": "uint256",
          "name": "tokenId",
          "type": "uint256"
        }
      ],
      "name": "approve",
      "outputs": [],
      "stateMutability": "nonpayable",
      "type": "function"
    },
    {
      "inputs": [
        {
          "internalType": "address",
          "name": "owner",
          "type": "address"
        }
      ],
      "name": "balanceOf",
      "outputs": [
        {
          "internalType": "uint256",
          "name": "",
          "type": "uint256"
        }
      ],
      "stateMutability": "view",
      "type": "function"
    },
    {
      "inputs": [],
      "name": "cardId",
      "outputs": [
        {
          "internalType": "uint256",
          "name": "_value",
          "type": "uint256"
        }
      ],
      "stateMutability": "view",
      "type": "function"
    },
    {
      "inputs": [
        {
          "internalType": "uint256",
          "name": "tokenId",
          "type": "uint256"
        }
      ],
      "name": "getApproved",
      "outputs": [
        {
          "internalType": "address",
          "name": "",
          "type": "address"
        }
      ],
      "stateMutability": "view",
      "type": "function"
    },
    {
      "inputs": [
        {
          "internalType": "address",
          "name": "owner",
          "type": "address"
        },
        {
          "internalType": "address",
          "name": "operator",
          "type": "address"
        }
      ],
      "name": "isApprovedForAll",
      "outputs": [
        {
          "internalType": "bool",
          "name": "",
          "type": "bool"
        }
      ],
      "stateMutability": "view",
      "type": "function"
    },
    {
      "inputs": [],
      "name": "name",
      "outputs": [
        {
          "internalType": "string",
          "name": "",
          "type": "string"
        }
      ],
      "stateMutability": "view",
      "type": "function"
    },
    {
      "inputs": [
        {
          "internalType": "uint256",
          "name": "tokenId",
          "type": "uint256"
        }
      ],
      "name": "ownerOf",
      "outputs": [
        {
          "internalType": "address",
          "name": "",
          "type": "address"
        }
      ],
      "stateMutability": "view",
      "type": "function"
    },
    {
      "inputs": [
        {
          "internalType": "address",
          "name": "from",
          "type": "address"
        },
        {
          "internalType": "address",
          "name": "to",
          "type": "address"
        },
        {
          "internalType": "uint256",
          "name": "tokenId",
          "type": "uint256"
        }
      ],
      "name": "safeTransferFrom",
      "outputs": [],
      "stateMutability": "nonpayable",
      "type": "function"
    },
    {
      "inputs": [
        {
          "internalType": "address",
          "name": "from",
          "type": "address"
        },
        {
          "internalType": "address",
          "name": "to",
          "type": "address"
        },
        {
          "internalType": "uint256",
          "name": "tokenId",
          "type": "uint256"
        },
        {
          "internalType": "bytes",
          "name": "data",
          "type": "bytes"
        }
      ],
      "name": "safeTransferFrom",
      "outputs": [],
      "stateMutability": "nonpayable",
      "type": "function"
    },
    {
      "inputs": [
        {
          "internalType": "address",
          "name": "operator",
          "type": "address"
        },
        {
          "internalType": "bool",
          "name": "approved",
          "type": "bool"
        }
      ],
      "name": "setApprovalForAll",
      "outputs": [],
      "stateMutability": "nonpayable",
      "type": "function"
    },
    {
      "inputs": [
        {
          "internalType": "bytes4",
          "name": "interfaceId",
          "type": "bytes4"
        }
      ],
      "name": "supportsInterface",
      "outputs": [
        {
          "internalType": "bool",
          "name": "",
          "type": "bool"
        }
      ],
      "stateMutability": "view",
      "type": "function"
    },
    {
      "inputs": [],
      "name": "symbol",
      "outputs": [
        {
          "internalType": "string",
          "name": "",
          "type": "string"
        }
      ],
      "stateMutability": "view",
      "type": "function"
    },
    {
      "inputs": [
        {
          "internalType": "uint256",
          "name": "tokenId",
          "type": "uint256"
        }
      ],
      "name": "tokenURI",
      "outputs": [
        {
          "internalType": "string",
          "name": "",
          "type": "string"
        }
      ],
      "stateMutability": "view",
      "type": "function"
    },
    {
      "inputs": [
        {
          "internalType": "address",
          "name": "from",
          "type": "address"
        },
        {
          "internalType": "address",
          "name": "to",
          "type": "address"
        },
        {
          "internalType": "uint256",
          "name": "tokenId",
          "type": "uint256"
        }
      ],
      "name": "transferFrom",
      "outputs": [],
      "stateMutability": "nonpayable",
      "type": "function"
    },
    {
      "inputs": [
        {
          "internalType": "address",
          "name": "to",
          "type": "address"
        }
      ],
      "name": "createCards",
      "outputs": [],
      "stateMutability": "nonpayable",
      "type": "function"
    }
  ],
  "bytecode": "0x60806040523480156200001157600080fd5b506040518060400160405280600481526020017f43617264000000000000000000000000000000000000000000000000000000008152506040518060400160405280600481526020017f4361726400000000000000000000000000000000000000000000000000000000815250816000908051906020019062000096929190620000e5565b508060019080519060200190620000af929190620000e5565b505050620000c96006620000cf60201b620009dc1760201c565b620001f9565b6001816000016000828254019250508190555050565b828054620000f390620001c4565b90600052602060002090601f01602090048101928262000117576000855562000163565b82601f106200013257805160ff191683800117855562000163565b8280016001018555821562000163579182015b828111156200016257825182559160200191906001019062000145565b5b50905062000172919062000176565b5090565b5b808211156200019157600081600090555060010162000177565b5090565b7f4e487b7100000000000000000000000000000000000000000000000000000000600052602260045260246000fd5b60006002820490506001821680620001dd57607f821691505b602082108103620001f357620001f262000195565b5b50919050565b61254780620002096000396000f3fe608060405234801561001057600080fd5b50600436106100f55760003560e01c806370a0823111610097578063b88d4fde11610066578063b88d4fde14610284578063c87b56dd146102a0578063e985e9c5146102d0578063f1f5be8914610300576100f5565b806370a08231146101fc57806395d89b411461022c57806399a9b29c1461024a578063a22cb46514610268576100f5565b8063095ea7b3116100d3578063095ea7b31461017857806323b872dd1461019457806342842e0e146101b05780636352211e146101cc576100f5565b806301ffc9a7146100fa57806306fdde031461012a578063081812fc14610148575b600080fd5b610114600480360381019061010f919061183a565b61031c565b6040516101219190611882565b60405180910390f35b6101326103fe565b60405161013f9190611936565b60405180910390f35b610162600480360381019061015d919061198e565b610490565b60405161016f91906119fc565b60405180910390f35b610192600480360381019061018d9190611a43565b6104d6565b005b6101ae60048036038101906101a99190611a83565b6105ed565b005b6101ca60048036038101906101c59190611a83565b61064d565b005b6101e660048036038101906101e1919061198e565b61066d565b6040516101f391906119fc565b60405180910390f35b61021660048036038101906102119190611ad6565b6106f3565b6040516102239190611b12565b60405180910390f35b6102346107aa565b6040516102419190611936565b60405180910390f35b61025261083c565b60405161025f9190611b12565b60405180910390f35b610282600480360381019061027d9190611b59565b610848565b005b61029e60048036038101906102999190611cce565b61085e565b005b6102ba60048036038101906102b5919061198e565b6108c0565b6040516102c79190611936565b60405180910390f35b6102ea60048036038101906102e59190611d51565b610928565b6040516102f79190611882565b60405180910390f35b61031a60048036038101906103159190611ad6565b6109bc565b005b60007f80ac58cd000000000000000000000000000000000000000000000000000000007bffffffffffffffffffffffffffffffffffffffffffffffffffffffff1916827bffffffffffffffffffffffffffffffffffffffffffffffffffffffff191614806103e757507f5b5e139f000000000000000000000000000000000000000000000000000000007bffffffffffffffffffffffffffffffffffffffffffffffffffffffff1916827bffffffffffffffffffffffffffffffffffffffffffffffffffffffff1916145b806103f757506103f6826109f2565b5b9050919050565b60606000805461040d90611dc0565b80601f016020809104026020016040519081016040528092919081815260200182805461043990611dc0565b80156104865780601f1061045b57610100808354040283529160200191610486565b820191906000526020600020905b81548152906001019060200180831161046957829003601f168201915b5050505050905090565b600061049b82610a5c565b6004600083815260200190815260200160002060009054906101000a900473ffffffffffffffffffffffffffffffffffffffff169050919050565b60006104e18261066d565b90508073ffffffffffffffffffffffffffffffffffffffff168373ffffffffffffffffffffffffffffffffffffffff1603610551576040517f08c379a000000000000000000000000000000000000000000000000000000000815260040161054890611e63565b60405180910390fd5b8073ffffffffffffffffffffffffffffffffffffffff16610570610aa7565b73ffffffffffffffffffffffffffffffffffffffff16148061059f575061059e81610599610aa7565b610928565b5b6105de576040517f08c379a00000000000000000000000000000000000000000000000000000000081526004016105d590611ef5565b60405180910390fd5b6105e88383610aaf565b505050565b6105fe6105f8610aa7565b82610b68565b61063d576040517f08c379a000000000000000000000000000000000000000000000000000000000815260040161063490611f87565b60405180910390fd5b610648838383610bfd565b505050565b6106688383836040518060200160405280600081525061085e565b505050565b60008061067983610ef6565b9050600073ffffffffffffffffffffffffffffffffffffffff168173ffffffffffffffffffffffffffffffffffffffff16036106ea576040517f08c379a00000000000000000000000000000000000000000000000000000000081526004016106e190611ff3565b60405180910390fd5b80915050919050565b60008073ffffffffffffffffffffffffffffffffffffffff168273ffffffffffffffffffffffffffffffffffffffff1603610763576040517f08c379a000000000000000000000000000000000000000000000000000000000815260040161075a90612085565b60405180910390fd5b600360008373ffffffffffffffffffffffffffffffffffffffff1673ffffffffffffffffffffffffffffffffffffffff168152602001908152602001600020549050919050565b6060600180546107b990611dc0565b80601f01602080910402602001604051908101604052809291908181526020018280546107e590611dc0565b80156108325780601f1061080757610100808354040283529160200191610832565b820191906000526020600020905b81548152906001019060200180831161081557829003601f168201915b5050505050905090565b60068060000154905081565b61085a610853610aa7565b8383610f33565b5050565b61086f610869610aa7565b83610b68565b6108ae576040517f08c379a00000000000000000000000000000000000000000000000000000000081526004016108a590611f87565b60405180910390fd5b6108ba8484848461109f565b50505050565b60606108cb82610a5c565b60006108d56110fb565b905060008151116108f55760405180602001604052806000815250610920565b806108ff84611112565b6040516020016109109291906120e1565b6040516020818303038152906040525b915050919050565b6000600560008473ffffffffffffffffffffffffffffffffffffffff1673ffffffffffffffffffffffffffffffffffffffff16815260200190815260200160002060008373ffffffffffffffffffffffffffffffffffffffff1673ffffffffffffffffffffffffffffffffffffffff16815260200190815260200160002060009054906101000a900460ff16905092915050565b6109c660066109dc565b6109d9816109d460066111e0565b6111ee565b50565b6001816000016000828254019250508190555050565b60007f01ffc9a7000000000000000000000000000000000000000000000000000000007bffffffffffffffffffffffffffffffffffffffffffffffffffffffff1916827bffffffffffffffffffffffffffffffffffffffffffffffffffffffff1916149050919050565b610a658161120c565b610aa4576040517f08c379a0000000000000000000000000000000000000000000000000000000008152600401610a9b90611ff3565b60405180910390fd5b50565b600033905090565b816004600083815260200190815260200160002060006101000a81548173ffffffffffffffffffffffffffffffffffffffff021916908373ffffffffffffffffffffffffffffffffffffffff160217905550808273ffffffffffffffffffffffffffffffffffffffff16610b228361066d565b73ffffffffffffffffffffffffffffffffffffffff167f8c5be1e5ebec7d5bd14f71427d1e84f3dd0314c0f7b2291e5b200ac8c7c3b92560405160405180910390a45050565b600080610b748361066d565b90508073ffffffffffffffffffffffffffffffffffffffff168473ffffffffffffffffffffffffffffffffffffffff161480610bb65750610bb58185610928565b5b80610bf457508373ffffffffffffffffffffffffffffffffffffffff16610bdc84610490565b73ffffffffffffffffffffffffffffffffffffffff16145b91505092915050565b8273ffffffffffffffffffffffffffffffffffffffff16610c1d8261066d565b73ffffffffffffffffffffffffffffffffffffffff1614610c73576040517f08c379a0000000000000000000000000000000000000000000000000000000008152600401610c6a90612177565b60405180910390fd5b600073ffffffffffffffffffffffffffffffffffffffff168273ffffffffffffffffffffffffffffffffffffffff1603610ce2576040517f08c379a0000000000000000000000000000000000000000000000000000000008152600401610cd990612209565b60405180910390fd5b610cef838383600161124d565b8273ffffffffffffffffffffffffffffffffffffffff16610d0f8261066d565b73ffffffffffffffffffffffffffffffffffffffff1614610d65576040517f08c379a0000000000000000000000000000000000000000000000000000000008152600401610d5c90612177565b60405180910390fd5b6004600082815260200190815260200160002060006101000a81549073ffffffffffffffffffffffffffffffffffffffff02191690556001600360008573ffffffffffffffffffffffffffffffffffffffff1673ffffffffffffffffffffffffffffffffffffffff168152602001908152602001600020600082825403925050819055506001600360008473ffffffffffffffffffffffffffffffffffffffff1673ffffffffffffffffffffffffffffffffffffffff16815260200190815260200160002060008282540192505081905550816002600083815260200190815260200160002060006101000a81548173ffffffffffffffffffffffffffffffffffffffff021916908373ffffffffffffffffffffffffffffffffffffffff160217905550808273ffffffffffffffffffffffffffffffffffffffff168473ffffffffffffffffffffffffffffffffffffffff167fddf252ad1be2c89b69c2b068fc378daa952ba7f163c4a11628f55a4df523b3ef60405160405180910390a4610ef18383836001611253565b505050565b60006002600083815260200190815260200160002060009054906101000a900473ffffffffffffffffffffffffffffffffffffffff169050919050565b8173ffffffffffffffffffffffffffffffffffffffff168373ffffffffffffffffffffffffffffffffffffffff1603610fa1576040517f08c379a0000000000000000000000000000000000000000000000000000000008152600401610f9890612275565b60405180910390fd5b80600560008573ffffffffffffffffffffffffffffffffffffffff1673ffffffffffffffffffffffffffffffffffffffff16815260200190815260200160002060008473ffffffffffffffffffffffffffffffffffffffff1673ffffffffffffffffffffffffffffffffffffffff16815260200190815260200160002060006101000a81548160ff0219169083151502179055508173ffffffffffffffffffffffffffffffffffffffff168373ffffffffffffffffffffffffffffffffffffffff167f17307eab39ab6107e8899845ad3d59bd9653f200f220920489ca2b5937696c31836040516110929190611882565b60405180910390a3505050565b6110aa848484610bfd565b6110b684848484611259565b6110f5576040517f08c379a00000000000000000000000000000000000000000000000000000000081526004016110ec90612307565b60405180910390fd5b50505050565b606060405180602001604052806000815250905090565b606060006001611121846113e0565b01905060008167ffffffffffffffff8111156111405761113f611ba3565b5b6040519080825280601f01601f1916602001820160405280156111725781602001600182028036833780820191505090505b509050600082602001820190505b6001156111d5578080600190039150507f3031323334353637383961626364656600000000000000000000000000000000600a86061a8153600a85816111c9576111c8612327565b5b04945060008503611180575b819350505050919050565b600081600001549050919050565b611208828260405180602001604052806000815250611533565b5050565b60008073ffffffffffffffffffffffffffffffffffffffff1661122e83610ef6565b73ffffffffffffffffffffffffffffffffffffffff1614159050919050565b50505050565b50505050565b600061127a8473ffffffffffffffffffffffffffffffffffffffff1661158e565b156113d3578373ffffffffffffffffffffffffffffffffffffffff1663150b7a026112a3610aa7565b8786866040518563ffffffff1660e01b81526004016112c594939291906123ab565b6020604051808303816000875af192505050801561130157506040513d601f19601f820116820180604052508101906112fe919061240c565b60015b611383573d8060008114611331576040519150601f19603f3d011682016040523d82523d6000602084013e611336565b606091505b50600081510361137b576040517f08c379a000000000000000000000000000000000000000000000000000000000815260040161137290612307565b60405180910390fd5b805181602001fd5b63150b7a0260e01b7bffffffffffffffffffffffffffffffffffffffffffffffffffffffff1916817bffffffffffffffffffffffffffffffffffffffffffffffffffffffff1916149150506113d8565b600190505b949350505050565b600080600090507a184f03e93ff9f4daa797ed6e38ed64bf6a1f010000000000000000831061143e577a184f03e93ff9f4daa797ed6e38ed64bf6a1f010000000000000000838161143457611433612327565b5b0492506040810190505b6d04ee2d6d415b85acef8100000000831061147b576d04ee2d6d415b85acef8100000000838161147157611470612327565b5b0492506020810190505b662386f26fc1000083106114aa57662386f26fc1000083816114a05761149f612327565b5b0492506010810190505b6305f5e10083106114d3576305f5e10083816114c9576114c8612327565b5b0492506008810190505b61271083106114f85761271083816114ee576114ed612327565b5b0492506004810190505b6064831061151b576064838161151157611510612327565b5b0492506002810190505b600a831061152a576001810190505b80915050919050565b61153d83836115b1565b61154a6000848484611259565b611589576040517f08c379a000000000000000000000000000000000000000000000000000000000815260040161158090612307565b60405180910390fd5b505050565b6000808273ffffffffffffffffffffffffffffffffffffffff163b119050919050565b600073ffffffffffffffffffffffffffffffffffffffff168273ffffffffffffffffffffffffffffffffffffffff1603611620576040517f08c379a000000000000000000000000000000000000000000000000000000000815260040161161790612485565b60405180910390fd5b6116298161120c565b15611669576040517f08c379a0000000000000000000000000000000000000000000000000000000008152600401611660906124f1565b60405180910390fd5b61167760008383600161124d565b6116808161120c565b156116c0576040517f08c379a00000000000000000000000000000000000000000000000000000000081526004016116b7906124f1565b60405180910390fd5b6001600360008473ffffffffffffffffffffffffffffffffffffffff1673ffffffffffffffffffffffffffffffffffffffff16815260200190815260200160002060008282540192505081905550816002600083815260200190815260200160002060006101000a81548173ffffffffffffffffffffffffffffffffffffffff021916908373ffffffffffffffffffffffffffffffffffffffff160217905550808273ffffffffffffffffffffffffffffffffffffffff16600073ffffffffffffffffffffffffffffffffffffffff167fddf252ad1be2c89b69c2b068fc378daa952ba7f163c4a11628f55a4df523b3ef60405160405180910390a46117ca600083836001611253565b5050565b6000604051905090565b600080fd5b600080fd5b60007fffffffff0000000000000000000000000000000000000000000000000000000082169050919050565b611817816117e2565b811461182257600080fd5b50565b6000813590506118348161180e565b92915050565b6000602082840312156118505761184f6117d8565b5b600061185e84828501611825565b91505092915050565b60008115159050919050565b61187c81611867565b82525050565b60006020820190506118976000830184611873565b92915050565b600081519050919050565b600082825260208201905092915050565b60005b838110156118d75780820151818401526020810190506118bc565b838111156118e6576000848401525b50505050565b6000601f19601f8301169050919050565b60006119088261189d565b61191281856118a8565b93506119228185602086016118b9565b61192b816118ec565b840191505092915050565b6000602082019050818103600083015261195081846118fd565b905092915050565b6000819050919050565b61196b81611958565b811461197657600080fd5b50565b60008135905061198881611962565b92915050565b6000602082840312156119a4576119a36117d8565b5b60006119b284828501611979565b91505092915050565b600073ffffffffffffffffffffffffffffffffffffffff82169050919050565b60006119e6826119bb565b9050919050565b6119f6816119db565b82525050565b6000602082019050611a1160008301846119ed565b92915050565b611a20816119db565b8114611a2b57600080fd5b50565b600081359050611a3d81611a17565b92915050565b60008060408385031215611a5a57611a596117d8565b5b6000611a6885828601611a2e565b9250506020611a7985828601611979565b9150509250929050565b600080600060608486031215611a9c57611a9b6117d8565b5b6000611aaa86828701611a2e565b9350506020611abb86828701611a2e565b9250506040611acc86828701611979565b9150509250925092565b600060208284031215611aec57611aeb6117d8565b5b6000611afa84828501611a2e565b91505092915050565b611b0c81611958565b82525050565b6000602082019050611b276000830184611b03565b92915050565b611b3681611867565b8114611b4157600080fd5b50565b600081359050611b5381611b2d565b92915050565b60008060408385031215611b7057611b6f6117d8565b5b6000611b7e85828601611a2e565b9250506020611b8f85828601611b44565b9150509250929050565b600080fd5b600080fd5b7f4e487b7100000000000000000000000000000000000000000000000000000000600052604160045260246000fd5b611bdb826118ec565b810181811067ffffffffffffffff82111715611bfa57611bf9611ba3565b5b80604052505050565b6000611c0d6117ce565b9050611c198282611bd2565b919050565b600067ffffffffffffffff821115611c3957611c38611ba3565b5b611c42826118ec565b9050602081019050919050565b82818337600083830152505050565b6000611c71611c6c84611c1e565b611c03565b905082815260208101848484011115611c8d57611c8c611b9e565b5b611c98848285611c4f565b509392505050565b600082601f830112611cb557611cb4611b99565b5b8135611cc5848260208601611c5e565b91505092915050565b60008060008060808587031215611ce857611ce76117d8565b5b6000611cf687828801611a2e565b9450506020611d0787828801611a2e565b9350506040611d1887828801611979565b925050606085013567ffffffffffffffff811115611d3957611d386117dd565b5b611d4587828801611ca0565b91505092959194509250565b60008060408385031215611d6857611d676117d8565b5b6000611d7685828601611a2e565b9250506020611d8785828601611a2e565b9150509250929050565b7f4e487b7100000000000000000000000000000000000000000000000000000000600052602260045260246000fd5b60006002820490506001821680611dd857607f821691505b602082108103611deb57611dea611d91565b5b50919050565b7f4552433732313a20617070726f76616c20746f2063757272656e74206f776e6560008201527f7200000000000000000000000000000000000000000000000000000000000000602082015250565b6000611e4d6021836118a8565b9150611e5882611df1565b604082019050919050565b60006020820190508181036000830152611e7c81611e40565b9050919050565b7f4552433732313a20617070726f76652063616c6c6572206973206e6f7420746f60008201527f6b656e206f776e6572206f7220617070726f76656420666f7220616c6c000000602082015250565b6000611edf603d836118a8565b9150611eea82611e83565b604082019050919050565b60006020820190508181036000830152611f0e81611ed2565b9050919050565b7f4552433732313a2063616c6c6572206973206e6f7420746f6b656e206f776e6560008201527f72206f7220617070726f76656400000000000000000000000000000000000000602082015250565b6000611f71602d836118a8565b9150611f7c82611f15565b604082019050919050565b60006020820190508181036000830152611fa081611f64565b9050919050565b7f4552433732313a20696e76616c696420746f6b656e2049440000000000000000600082015250565b6000611fdd6018836118a8565b9150611fe882611fa7565b602082019050919050565b6000602082019050818103600083015261200c81611fd0565b9050919050565b7f4552433732313a2061646472657373207a65726f206973206e6f74206120766160008201527f6c6964206f776e65720000000000000000000000000000000000000000000000602082015250565b600061206f6029836118a8565b915061207a82612013565b604082019050919050565b6000602082019050818103600083015261209e81612062565b9050919050565b600081905092915050565b60006120bb8261189d565b6120c581856120a5565b93506120d58185602086016118b9565b80840191505092915050565b60006120ed82856120b0565b91506120f982846120b0565b91508190509392505050565b7f4552433732313a207472616e736665722066726f6d20696e636f72726563742060008201527f6f776e6572000000000000000000000000000000000000000000000000000000602082015250565b60006121616025836118a8565b915061216c82612105565b604082019050919050565b6000602082019050818103600083015261219081612154565b9050919050565b7f4552433732313a207472616e7366657220746f20746865207a65726f2061646460008201527f7265737300000000000000000000000000000000000000000000000000000000602082015250565b60006121f36024836118a8565b91506121fe82612197565b604082019050919050565b60006020820190508181036000830152612222816121e6565b9050919050565b7f4552433732313a20617070726f766520746f2063616c6c657200000000000000600082015250565b600061225f6019836118a8565b915061226a82612229565b602082019050919050565b6000602082019050818103600083015261228e81612252565b9050919050565b7f4552433732313a207472616e7366657220746f206e6f6e20455243373231526560008201527f63656976657220696d706c656d656e7465720000000000000000000000000000602082015250565b60006122f16032836118a8565b91506122fc82612295565b604082019050919050565b60006020820190508181036000830152612320816122e4565b9050919050565b7f4e487b7100000000000000000000000000000000000000000000000000000000600052601260045260246000fd5b600081519050919050565b600082825260208201905092915050565b600061237d82612356565b6123878185612361565b93506123978185602086016118b9565b6123a0816118ec565b840191505092915050565b60006080820190506123c060008301876119ed565b6123cd60208301866119ed565b6123da6040830185611b03565b81810360608301526123ec8184612372565b905095945050505050565b6000815190506124068161180e565b92915050565b600060208284031215612422576124216117d8565b5b6000612430848285016123f7565b91505092915050565b7f4552433732313a206d696e7420746f20746865207a65726f2061646472657373600082015250565b600061246f6020836118a8565b915061247a82612439565b602082019050919050565b6000602082019050818103600083015261249e81612462565b9050919050565b7f4552433732313a20746f6b656e20616c7265616479206d696e74656400000000600082015250565b60006124db601c836118a8565b91506124e6826124a5565b602082019050919050565b6000602082019050818103600083015261250a816124ce565b905091905056fea264697066735822122076c58b95b37ef1a2eede4d8702387cc5659cc47045c08d0759b9bda95788af7564736f6c634300080d0033",
  "immutableReferences": {},
  "source": "// SPDX-License-Identifier: MIT\npragma solidity >=0.7.11 <0.9.0;\n\nimport \"@openzeppelin/contracts/token/ERC721/ERC721.sol\";\nimport \"@openzeppelin/contracts/utils/Counters.sol\";\n\n\n\ncontract Star is ERC721 {\n\n  using Counters for Counters.Counter;\n  Counters.Counter public starId;\n\n  constructor() ERC721(\"Star\", \"Star\") {\n    starId.increment();\n  }\n\n  function createStars(address to) public {\n    starId.increment();\n    _safeMint(to, starId.current());\n  }\n  \n}\n\n\n\ncontract Card is ERC721 {\n  \n  using Counters for Counters.Counter;\n  Counters.Counter public cardId;\n\n  constructor() ERC721(\"Card\", \"Card\") {\n    cardId.increment();\n  }\n\n\n  function createCards(address to) public {\n    cardId.increment();\n    _safeMint(to, cardId.current());\n  }\n  \n}\n",
  "sourcePath": "/home/pierson/Desktop/restricted_rock_paper_scissors/rrps_contracts/contracts/items.sol",
  "compiler": {
    "name": "solc",
    "version": "0.8.13+commit.abaa5c0e.Emscripten.clang"
  },
  "schemaVersion": "3.4.16",
  "updatedAt": "2023-09-27T02:35:53.680Z",
  "devdoc": {
    "kind": "dev",
    "methods": {
      "approve(address,uint256)": {
        "details": "See {IERC721-approve}."
      },
      "balanceOf(address)": {
        "details": "See {IERC721-balanceOf}."
      },
      "getApproved(uint256)": {
        "details": "See {IERC721-getApproved}."
      },
      "isApprovedForAll(address,address)": {
        "details": "See {IERC721-isApprovedForAll}."
      },
      "name()": {
        "details": "See {IERC721Metadata-name}."
      },
      "ownerOf(uint256)": {
        "details": "See {IERC721-ownerOf}."
      },
      "safeTransferFrom(address,address,uint256)": {
        "details": "See {IERC721-safeTransferFrom}."
      },
      "safeTransferFrom(address,address,uint256,bytes)": {
        "details": "See {IERC721-safeTransferFrom}."
      },
      "setApprovalForAll(address,bool)": {
        "details": "See {IERC721-setApprovalForAll}."
      },
      "supportsInterface(bytes4)": {
        "details": "See {IERC165-supportsInterface}."
      },
      "symbol()": {
        "details": "See {IERC721Metadata-symbol}."
      },
      "tokenURI(uint256)": {
        "details": "See {IERC721Metadata-tokenURI}."
      },
      "transferFrom(address,address,uint256)": {
        "details": "See {IERC721-transferFrom}."
      }
    },
    "version": 1
  },
  "userdoc": {
    "kind": "user",
    "methods": {},
    "version": 1
  }
}