{
  "contractName": "RRPS",
  "abi": [
    {
      "inputs": [],
      "name": "AddressAlreadyPlaying",
      "type": "error"
    },
    {
      "inputs": [],
      "name": "InsufficientStars",
      "type": "error"
    },
    {
      "inputs": [],
      "name": "InsufficientUncommittedTokens",
      "type": "error"
    },
    {
      "inputs": [],
      "name": "InvalidCardCombination",
      "type": "error"
    },
    {
      "inputs": [],
      "name": "MustBeRockPaperOrScissors",
      "type": "error"
    },
    {
      "inputs": [],
      "name": "NeedCopyOfCard",
      "type": "error"
    },
    {
      "inputs": [],
      "name": "NoOpenCommit",
      "type": "error"
    },
    {
      "inputs": [],
      "name": "NoSelfChallenge",
      "type": "error"
    },
    {
      "inputs": [],
      "name": "NotYetChallenged",
      "type": "error"
    },
    {
      "inputs": [],
      "name": "OtherPlayerAlreadyCommitted",
      "type": "error"
    },
    {
      "inputs": [],
      "name": "PlayerAlreadyChallenged",
      "type": "error"
    },
    {
      "inputs": [],
      "name": "PlayerNotFound",
      "type": "error"
    },
    {
      "inputs": [],
      "name": "PlayerStillHasCards",
      "type": "error"
    },
    {
      "anonymous": false,
      "inputs": [
        {
          "indexed": false,
          "internalType": "address",
          "name": "challenger",
          "type": "address"
        },
        {
          "indexed": false,
          "internalType": "address",
          "name": "challengee",
          "type": "address"
        }
      ],
      "name": "ChallengeCommit",
      "type": "event"
    },
    {
      "anonymous": false,
      "inputs": [
        {
          "indexed": false,
          "internalType": "address",
          "name": "challenger",
          "type": "address"
        },
        {
          "indexed": false,
          "internalType": "address",
          "name": "challengee",
          "type": "address"
        }
      ],
      "name": "ChallengerFailedHashOnce",
      "type": "event"
    },
    {
      "anonymous": false,
      "inputs": [
        {
          "indexed": false,
          "internalType": "address",
          "name": "challenger",
          "type": "address"
        },
        {
          "indexed": false,
          "internalType": "address",
          "name": "challengee",
          "type": "address"
        }
      ],
      "name": "ChallengerFailedHashTwice",
      "type": "event"
    },
    {
      "anonymous": false,
      "inputs": [
        {
          "indexed": false,
          "internalType": "address",
          "name": "challenger",
          "type": "address"
        },
        {
          "indexed": false,
          "internalType": "int8",
          "name": "challengerCard",
          "type": "int8"
        },
        {
          "indexed": false,
          "internalType": "address",
          "name": "challengee",
          "type": "address"
        },
        {
          "indexed": false,
          "internalType": "int8",
          "name": "challengeeCard",
          "type": "int8"
        }
      ],
      "name": "ChallengerLoses",
      "type": "event"
    },
    {
      "anonymous": false,
      "inputs": [
        {
          "indexed": false,
          "internalType": "address",
          "name": "challenger",
          "type": "address"
        },
        {
          "indexed": false,
          "internalType": "int8",
          "name": "challengerCard",
          "type": "int8"
        },
        {
          "indexed": false,
          "internalType": "address",
          "name": "challengee",
          "type": "address"
        },
        {
          "indexed": false,
          "internalType": "int8",
          "name": "challengeeCard",
          "type": "int8"
        }
      ],
      "name": "ChallengerWins",
      "type": "event"
    },
    {
      "anonymous": false,
      "inputs": [
        {
          "indexed": false,
          "internalType": "address",
          "name": "player1",
          "type": "address"
        },
        {
          "indexed": false,
          "internalType": "address",
          "name": "player2",
          "type": "address"
        }
      ],
      "name": "CommitCreated",
      "type": "event"
    },
    {
      "anonymous": false,
      "inputs": [
        {
          "indexed": false,
          "internalType": "address",
          "name": "player1",
          "type": "address"
        },
        {
          "indexed": false,
          "internalType": "address",
          "name": "player2",
          "type": "address"
        }
      ],
      "name": "CommitRemoved",
      "type": "event"
    },
    {
      "anonymous": false,
      "inputs": [
        {
          "indexed": false,
          "internalType": "address",
          "name": "player",
          "type": "address"
        },
        {
          "indexed": false,
          "internalType": "int8",
          "name": "card",
          "type": "int8"
        }
      ],
      "name": "Misplay",
      "type": "event"
    },
    {
      "anonymous": false,
      "inputs": [
        {
          "indexed": false,
          "internalType": "address",
          "name": "challenger",
          "type": "address"
        },
        {
          "indexed": false,
          "internalType": "address",
          "name": "challengee",
          "type": "address"
        }
      ],
      "name": "OpenCommit",
      "type": "event"
    },
    {
      "anonymous": false,
      "inputs": [
        {
          "indexed": false,
          "internalType": "address",
          "name": "challenger",
          "type": "address"
        },
        {
          "indexed": false,
          "internalType": "address",
          "name": "challengee",
          "type": "address"
        }
      ],
      "name": "OrphanedCommit",
      "type": "event"
    },
    {
      "anonymous": false,
      "inputs": [
        {
          "indexed": false,
          "internalType": "address",
          "name": "playerAddress",
          "type": "address"
        }
      ],
      "name": "PlayerCashedOut",
      "type": "event"
    },
    {
      "anonymous": false,
      "inputs": [
        {
          "indexed": false,
          "internalType": "address",
          "name": "playerAddress",
          "type": "address"
        }
      ],
      "name": "PlayerEliminated",
      "type": "event"
    },
    {
      "anonymous": false,
      "inputs": [
        {
          "indexed": false,
          "internalType": "address",
          "name": "playerAddress",
          "type": "address"
        },
        {
          "indexed": false,
          "internalType": "string",
          "name": "nickname",
          "type": "string"
        }
      ],
      "name": "PlayerJoined",
      "type": "event"
    },
    {
      "anonymous": false,
      "inputs": [
        {
          "indexed": false,
          "internalType": "address",
          "name": "playerAddress",
          "type": "address"
        }
      ],
      "name": "PlayerLeft",
      "type": "event"
    },
    {
      "anonymous": false,
      "inputs": [
        {
          "indexed": false,
          "internalType": "address",
          "name": "challenger",
          "type": "address"
        },
        {
          "indexed": false,
          "internalType": "int8",
          "name": "challengerCard",
          "type": "int8"
        },
        {
          "indexed": false,
          "internalType": "address",
          "name": "challengee",
          "type": "address"
        },
        {
          "indexed": false,
          "internalType": "int8",
          "name": "challengeeCard",
          "type": "int8"
        }
      ],
      "name": "Tie",
      "type": "event"
    },
    {
      "anonymous": false,
      "inputs": [
        {
          "indexed": false,
          "internalType": "address",
          "name": "requestSender",
          "type": "address"
        },
        {
          "indexed": false,
          "internalType": "address",
          "name": "requestee",
          "type": "address"
        },
        {
          "indexed": false,
          "internalType": "int8",
          "name": "tokenType",
          "type": "int8"
        },
        {
          "indexed": false,
          "internalType": "uint8",
          "name": "amount",
          "type": "uint8"
        }
      ],
      "name": "TransferApproved",
      "type": "event"
    },
    {
      "anonymous": false,
      "inputs": [
        {
          "indexed": false,
          "internalType": "address",
          "name": "requestSender",
          "type": "address"
        },
        {
          "indexed": false,
          "internalType": "address",
          "name": "requestee",
          "type": "address"
        },
        {
          "indexed": false,
          "internalType": "int8",
          "name": "tokenType",
          "type": "int8"
        },
        {
          "indexed": false,
          "internalType": "uint8",
          "name": "amount",
          "type": "uint8"
        }
      ],
      "name": "TransferRequest",
      "type": "event"
    },
    {
      "anonymous": false,
      "inputs": [
        {
          "indexed": false,
          "internalType": "address",
          "name": "challenger",
          "type": "address"
        },
        {
          "indexed": false,
          "internalType": "address",
          "name": "challengee",
          "type": "address"
        }
      ],
      "name": "WithdrawnChallengeCommit",
      "type": "event"
    },
    {
      "anonymous": false,
      "inputs": [
        {
          "indexed": false,
          "internalType": "address",
          "name": "challenger",
          "type": "address"
        },
        {
          "indexed": false,
          "internalType": "address",
          "name": "challengee",
          "type": "address"
        }
      ],
      "name": "WithdrawnOpenCommit",
      "type": "event"
    },
    {
      "inputs": [
        {
          "internalType": "address",
          "name": "",
          "type": "address"
        },
        {
          "internalType": "int8",
          "name": "",
          "type": "int8"
        }
      ],
      "name": "balances",
      "outputs": [
        {
          "internalType": "uint256",
          "name": "",
          "type": "uint256"
        }
      ],
      "stateMutability": "view",
      "type": "function",
      "constant": true
    },
    {
      "inputs": [
        {
          "internalType": "address",
          "name": "",
          "type": "address"
        }
      ],
      "name": "commitCount",
      "outputs": [
        {
          "internalType": "uint8",
          "name": "",
          "type": "uint8"
        }
      ],
      "stateMutability": "view",
      "type": "function",
      "constant": true
    },
    {
      "inputs": [
        {
          "internalType": "address",
          "name": "",
          "type": "address"
        },
        {
          "internalType": "address",
          "name": "",
          "type": "address"
        }
      ],
      "name": "commits",
      "outputs": [
        {
          "internalType": "bytes32",
          "name": "hash",
          "type": "bytes32"
        },
        {
          "internalType": "int8",
          "name": "cardType",
          "type": "int8"
        },
        {
          "internalType": "bool",
          "name": "exists",
          "type": "bool"
        },
        {
          "internalType": "bool",
          "name": "hashStrike",
          "type": "bool"
        },
        {
          "internalType": "uint256",
          "name": "blockNum",
          "type": "uint256"
        }
      ],
      "stateMutability": "view",
      "type": "function",
      "constant": true
    },
    {
      "inputs": [
        {
          "internalType": "address",
          "name": "",
          "type": "address"
        }
      ],
      "name": "players",
      "outputs": [
        {
          "internalType": "bool",
          "name": "",
          "type": "bool"
        }
      ],
      "stateMutability": "view",
      "type": "function",
      "constant": true
    },
    {
      "inputs": [
        {
          "internalType": "int8",
          "name": "",
          "type": "int8"
        }
      ],
      "name": "totals",
      "outputs": [
        {
          "internalType": "uint256",
          "name": "",
          "type": "uint256"
        }
      ],
      "stateMutability": "view",
      "type": "function",
      "constant": true
    },
    {
      "inputs": [
        {
          "internalType": "address",
          "name": "",
          "type": "address"
        }
      ],
      "name": "transferRequests",
      "outputs": [
        {
          "internalType": "address",
          "name": "requestee",
          "type": "address"
        },
        {
          "internalType": "int8",
          "name": "tokenType",
          "type": "int8"
        },
        {
          "internalType": "uint8",
          "name": "amount",
          "type": "uint8"
        }
      ],
      "stateMutability": "view",
      "type": "function",
      "constant": true
    },
    {
      "inputs": [
        {
          "internalType": "address",
          "name": "player",
          "type": "address"
        }
      ],
      "name": "playerExists",
      "outputs": [
        {
          "internalType": "bool",
          "name": "",
          "type": "bool"
        }
      ],
      "stateMutability": "view",
      "type": "function",
      "constant": true
    },
    {
      "inputs": [
        {
          "internalType": "string",
          "name": "nickname",
          "type": "string"
        }
      ],
      "name": "startGame",
      "outputs": [],
      "stateMutability": "nonpayable",
      "type": "function"
    },
    {
      "inputs": [],
      "name": "cashOut",
      "outputs": [],
      "stateMutability": "nonpayable",
      "type": "function"
    },
    {
      "inputs": [
        {
          "internalType": "address",
          "name": "challengee",
          "type": "address"
        },
        {
          "internalType": "bytes32",
          "name": "hash",
          "type": "bytes32"
        }
      ],
      "name": "challengeCommit",
      "outputs": [],
      "stateMutability": "nonpayable",
      "type": "function"
    },
    {
      "inputs": [
        {
          "internalType": "address",
          "name": "challenger",
          "type": "address"
        },
        {
          "internalType": "int8",
          "name": "cardType",
          "type": "int8"
        }
      ],
      "name": "openCommit",
      "outputs": [],
      "stateMutability": "nonpayable",
      "type": "function"
    },
    {
      "inputs": [
        {
          "internalType": "address",
          "name": "challengee",
          "type": "address"
        },
        {
          "internalType": "int8",
          "name": "cardType",
          "type": "int8"
        },
        {
          "internalType": "string",
          "name": "salt",
          "type": "string"
        }
      ],
      "name": "reveal",
      "outputs": [],
      "stateMutability": "nonpayable",
      "type": "function"
    },
    {
      "inputs": [
        {
          "internalType": "address",
          "name": "challengee",
          "type": "address"
        }
      ],
      "name": "withdrawChallenge",
      "outputs": [],
      "stateMutability": "nonpayable",
      "type": "function"
    },
    {
      "inputs": [
        {
          "internalType": "address",
          "name": "challenger",
          "type": "address"
        }
      ],
      "name": "timeOutWin",
      "outputs": [],
      "stateMutability": "nonpayable",
      "type": "function"
    },
    {
      "inputs": [
        {
          "internalType": "int8",
          "name": "cardType",
          "type": "int8"
        },
        {
          "internalType": "string",
          "name": "salt",
          "type": "string"
        }
      ],
      "name": "hashCommit",
      "outputs": [
        {
          "internalType": "bytes32",
          "name": "",
          "type": "bytes32"
        }
      ],
      "stateMutability": "view",
      "type": "function",
      "constant": true
    },
    {
      "inputs": [
        {
          "internalType": "address",
          "name": "account",
          "type": "address"
        }
      ],
      "name": "balanceOf",
      "outputs": [
        {
          "internalType": "uint256",
          "name": "",
          "type": "uint256"
        },
        {
          "internalType": "uint256",
          "name": "",
          "type": "uint256"
        },
        {
          "internalType": "uint256",
          "name": "",
          "type": "uint256"
        },
        {
          "internalType": "uint256",
          "name": "",
          "type": "uint256"
        }
      ],
      "stateMutability": "view",
      "type": "function",
      "constant": true
    },
    {
      "inputs": [],
      "name": "balanceOf",
      "outputs": [
        {
          "internalType": "uint256",
          "name": "",
          "type": "uint256"
        },
        {
          "internalType": "uint256",
          "name": "",
          "type": "uint256"
        },
        {
          "internalType": "uint256",
          "name": "",
          "type": "uint256"
        },
        {
          "internalType": "uint256",
          "name": "",
          "type": "uint256"
        }
      ],
      "stateMutability": "view",
      "type": "function",
      "constant": true
    },
    {
      "inputs": [
        {
          "internalType": "address",
          "name": "account",
          "type": "address"
        },
        {
          "internalType": "int8",
          "name": "id",
          "type": "int8"
        }
      ],
      "name": "balanceOf",
      "outputs": [
        {
          "internalType": "uint256",
          "name": "",
          "type": "uint256"
        }
      ],
      "stateMutability": "view",
      "type": "function",
      "constant": true
    },
    {
      "inputs": [
        {
          "internalType": "address",
          "name": "player",
          "type": "address"
        }
      ],
      "name": "totalCards",
      "outputs": [
        {
          "internalType": "uint256",
          "name": "",
          "type": "uint256"
        }
      ],
      "stateMutability": "view",
      "type": "function",
      "constant": true
    },
    {
      "inputs": [
        {
          "internalType": "address",
          "name": "requestee",
          "type": "address"
        },
        {
          "internalType": "int8",
          "name": "id",
          "type": "int8"
        },
        {
          "internalType": "uint8",
          "name": "amount",
          "type": "uint8"
        }
      ],
      "name": "requestTokenTake",
      "outputs": [],
      "stateMutability": "nonpayable",
      "type": "function"
    },
    {
      "inputs": [
        {
          "internalType": "address",
          "name": "requestSender",
          "type": "address"
        }
      ],
      "name": "approveTokenTake",
      "outputs": [],
      "stateMutability": "nonpayable",
      "type": "function"
    }
  ],
  "bytecode": "0x608060405234801561001057600080fd5b50615159806100206000396000f3fe608060405234801561001057600080fd5b50600436106101075760003560e01c806311b528bc1461010c578063172ed1bd146101285780632cd77d4c146101585780632df93b0b146101745780632e2a82ce146101905780633e810d97146101c0578063447a256e146101dc5780636212d91a146101f857806370a082311461022a578063722713f71461025d578063793cd71e1461027e57806389699f0a14610288578063a350d580146102b8578063b4faf732146102e8578063bb0dd4e01461031c578063bbe523001461034c578063c855ad601461037c578063d3cfaccc14610398578063d542c4d5146103c8578063e2eb41ff146103e4578063f7c0128d14610414575b600080fd5b610126600480360381019061012191906144f9565b610430565b005b610142600480360381019061013d91906145b1565b61073a565b60405161014f919061462a565b60405180910390f35b610172600480360381019061016d9190614645565b6107be565b005b61018e60048036038101906101899190614672565b61098b565b005b6101aa60048036038101906101a59190614645565b610e5e565b6040516101b791906146c1565b60405180910390f35b6101da60048036038101906101d59190614645565b610e7e565b005b6101f660048036038101906101f191906146dc565b611408565b005b610212600480360381019061020d9190614645565b6120eb565b6040516102219392919061476e565b60405180910390f35b610244600480360381019061023f9190614645565b61214f565b60405161025494939291906147be565b60405180910390f35b610265612190565b60405161027594939291906147be565b60405180910390f35b6102866121ad565b005b6102a2600480360381019061029d9190614803565b612517565b6040516102af9190614830565b60405180910390f35b6102d260048036038101906102cd9190614645565b61252f565b6040516102df9190614830565b60405180910390f35b61030260048036038101906102fd919061484b565b61256d565b6040516103139594939291906148a6565b60405180910390f35b61033660048036038101906103319190614672565b6125d7565b6040516103439190614830565b60405180910390f35b61036660048036038101906103619190614645565b612638565b60405161037391906148f9565b60405180910390f35b61039660048036038101906103919190614940565b61268d565b005b6103b260048036038101906103ad9190614672565b612bc2565b6040516103bf9190614830565b60405180910390f35b6103e260048036038101906103dd9190614ac1565b612be7565b005b6103fe60048036038101906103f99190614645565b612f8b565b60405161040b91906148f9565b60405180910390f35b61042e60048036038101906104299190614645565b612fab565b005b600015156000808573ffffffffffffffffffffffffffffffffffffffff1673ffffffffffffffffffffffffffffffffffffffff16815260200190815260200160002060009054906101000a900460ff161515036104b9576040517f2a645edb00000000000000000000000000000000000000000000000000000000815260040160405180910390fd5b3373ffffffffffffffffffffffffffffffffffffffff168373ffffffffffffffffffffffffffffffffffffffff160361051e576040517f6fcb561000000000000000000000000000000000000000000000000000000000815260040160405180910390fd5b8060ff16600560008573ffffffffffffffffffffffffffffffffffffffff1673ffffffffffffffffffffffffffffffffffffffff16815260200190815260200160002060009054906101000a900460ff1660ff1661057c85856125d7565b6105869190614b39565b10156105be576040517fe7cc977c00000000000000000000000000000000000000000000000000000000815260040160405180910390fd5b82600660003373ffffffffffffffffffffffffffffffffffffffff1673ffffffffffffffffffffffffffffffffffffffff16815260200190815260200160002060000160006101000a81548173ffffffffffffffffffffffffffffffffffffffff021916908373ffffffffffffffffffffffffffffffffffffffff16021790555081600660003373ffffffffffffffffffffffffffffffffffffffff1673ffffffffffffffffffffffffffffffffffffffff16815260200190815260200160002060000160146101000a81548160ff021916908360000b60ff16021790555080600660003373ffffffffffffffffffffffffffffffffffffffff1673ffffffffffffffffffffffffffffffffffffffff16815260200190815260200160002060000160156101000a81548160ff021916908360ff1602179055507f340b732059a4638c20ccb6de44ab5529e8faabc255a17abbdc615738367bccc93384848460405161072d9493929190614b6d565b60405180910390a1505050565b600060018460000b1280610751575060038460000b135b15610788576040517f5968cdba00000000000000000000000000000000000000000000000000000000815260040160405180910390fd5b3384848460405160200161079f9493929190614c60565b6040516020818303038152906040528051906020012090509392505050565b600360003373ffffffffffffffffffffffffffffffffffffffff1673ffffffffffffffffffffffffffffffffffffffff16815260200190815260200160002060008273ffffffffffffffffffffffffffffffffffffffff1673ffffffffffffffffffffffffffffffffffffffff16815260200190815260200160002060010160019054906101000a900460ff16610881576040517fa2aa7d6500000000000000000000000000000000000000000000000000000000815260040160405180910390fd5b600360008273ffffffffffffffffffffffffffffffffffffffff1673ffffffffffffffffffffffffffffffffffffffff16815260200190815260200160002060003373ffffffffffffffffffffffffffffffffffffffff1673ffffffffffffffffffffffffffffffffffffffff16815260200190815260200160002060010160019054906101000a900460ff1615610945576040517ff14a88ec00000000000000000000000000000000000000000000000000000000815260040160405180910390fd5b61094f3382613481565b7fcd3475a4ad944ce13610e120913425666d26ba8dcd71547c5180173424a8287c3382604051610980929190614c9b565b60405180910390a150565b600015156000803373ffffffffffffffffffffffffffffffffffffffff1673ffffffffffffffffffffffffffffffffffffffff16815260200190815260200160002060009054906101000a900460ff16151503610a14576040517f2a645edb00000000000000000000000000000000000000000000000000000000815260040160405180910390fd5b8173ffffffffffffffffffffffffffffffffffffffff163373ffffffffffffffffffffffffffffffffffffffff1603610a79576040517f6fcb561000000000000000000000000000000000000000000000000000000000815260040160405180910390fd5b600360008373ffffffffffffffffffffffffffffffffffffffff1673ffffffffffffffffffffffffffffffffffffffff16815260200190815260200160002060003373ffffffffffffffffffffffffffffffffffffffff1673ffffffffffffffffffffffffffffffffffffffff16815260200190815260200160002060010160019054906101000a900460ff16610b3c576040517fa2aa7d6500000000000000000000000000000000000000000000000000000000815260040160405180910390fd5b60018160000b1280610b51575060038160000b135b15610b88576040517f5968cdba00000000000000000000000000000000000000000000000000000000815260040160405180910390fd5b8173ffffffffffffffffffffffffffffffffffffffff163373ffffffffffffffffffffffffffffffffffffffff1603610bed576040517f6fcb561000000000000000000000000000000000000000000000000000000000815260040160405180910390fd5b6001610bf933836125d7565b1015610c31576040517fb59dc6be00000000000000000000000000000000000000000000000000000000815260040160405180910390fd5b6001600560003373ffffffffffffffffffffffffffffffffffffffff1673ffffffffffffffffffffffffffffffffffffffff16815260200190815260200160002060009054906101000a900460ff1660ff16610c8c3361252f565b610c969190614b39565b1015610cce576040517fe7cc977c00000000000000000000000000000000000000000000000000000000815260040160405180910390fd5b6001600560003373ffffffffffffffffffffffffffffffffffffffff1673ffffffffffffffffffffffffffffffffffffffff16815260200190815260200160002060009054906101000a900460ff1660ff16610d2b3360006125d7565b610d359190614b39565b1015610d6d576040517fe7cc977c00000000000000000000000000000000000000000000000000000000815260040160405180910390fd5b600015156000808473ffffffffffffffffffffffffffffffffffffffff1673ffffffffffffffffffffffffffffffffffffffff16815260200190815260200160002060009054906101000a900460ff16151503610e1657610dce8233613481565b610dd83383613481565b7f06b6c55da005c98e44e76e6acea5b74b2914f403753adcda3c8d8aba759b0eaa8233604051610e09929190614c9b565b60405180910390a1610e5a565b610e208282613690565b7ff9f96df79c431e54c117519d8a46c546ec0070ec3dc10e01eee8079025407fc38233604051610e51929190614c9b565b60405180910390a15b5050565b60056020528060005260406000206000915054906101000a900460ff1681565b600360003373ffffffffffffffffffffffffffffffffffffffff1673ffffffffffffffffffffffffffffffffffffffff16815260200190815260200160002060008273ffffffffffffffffffffffffffffffffffffffff1673ffffffffffffffffffffffffffffffffffffffff16815260200190815260200160002060010160019054906101000a900460ff16610f41576040517f38df4cfd00000000000000000000000000000000000000000000000000000000815260040160405180910390fd5b600360008273ffffffffffffffffffffffffffffffffffffffff1673ffffffffffffffffffffffffffffffffffffffff16815260200190815260200160002060003373ffffffffffffffffffffffffffffffffffffffff1673ffffffffffffffffffffffffffffffffffffffff16815260200190815260200160002060010160019054906101000a900460ff16611004576040517fa2aa7d6500000000000000000000000000000000000000000000000000000000815260040160405180910390fd5b600015156000808373ffffffffffffffffffffffffffffffffffffffff1673ffffffffffffffffffffffffffffffffffffffff16815260200190815260200160002060009054906101000a900460ff161515036110ad576110653382613481565b61106f8133613481565b7f06b6c55da005c98e44e76e6acea5b74b2914f403753adcda3c8d8aba759b0eaa33826040516110a0929190614c9b565b60405180910390a1611405565b6001436110ba9190614b39565b600360003373ffffffffffffffffffffffffffffffffffffffff1673ffffffffffffffffffffffffffffffffffffffff16815260200190815260200160002060008373ffffffffffffffffffffffffffffffffffffffff1673ffffffffffffffffffffffffffffffffffffffff1681526020019081526020016000206002015410156114045761114d8160006001613998565b61115a3360006001613b29565b60006111f233600360003373ffffffffffffffffffffffffffffffffffffffff1673ffffffffffffffffffffffffffffffffffffffff16815260200190815260200160002060008573ffffffffffffffffffffffffffffffffffffffff1673ffffffffffffffffffffffffffffffffffffffff16815260200190815260200160002060010160009054906101000a900460000b6125d7565b11156112915761129033600360003373ffffffffffffffffffffffffffffffffffffffff1673ffffffffffffffffffffffffffffffffffffffff16815260200190815260200160002060008473ffffffffffffffffffffffffffffffffffffffff1673ffffffffffffffffffffffffffffffffffffffff16815260200190815260200160002060010160009054906101000a900460000b6001613998565b5b61129b3382613481565b6112a58133613481565b6112ae81613c21565b7fbdff375e92783268ca4968f018d4d8f678c23bd41fb7c3b1020cb1de85faa20781600360008473ffffffffffffffffffffffffffffffffffffffff1673ffffffffffffffffffffffffffffffffffffffff16815260200190815260200160002060003373ffffffffffffffffffffffffffffffffffffffff1673ffffffffffffffffffffffffffffffffffffffff16815260200190815260200160002060010160009054906101000a900460000b33600360003373ffffffffffffffffffffffffffffffffffffffff1673ffffffffffffffffffffffffffffffffffffffff16815260200190815260200160002060008673ffffffffffffffffffffffffffffffffffffffff1673ffffffffffffffffffffffffffffffffffffffff16815260200190815260200160002060010160009054906101000a900460000b6040516113fb9493929190614cc4565b60405180910390a15b5b50565b8373ffffffffffffffffffffffffffffffffffffffff163373ffffffffffffffffffffffffffffffffffffffff160361146d576040517f6fcb561000000000000000000000000000000000000000000000000000000000815260040160405180910390fd5b600015156000803373ffffffffffffffffffffffffffffffffffffffff1673ffffffffffffffffffffffffffffffffffffffff16815260200190815260200160002060009054906101000a900460ff161515036114f6576040517f2a645edb00000000000000000000000000000000000000000000000000000000815260040160405180910390fd5b60018360000b128061150b575060038360000b135b15611542576040517f5968cdba00000000000000000000000000000000000000000000000000000000815260040160405180910390fd5b600360008573ffffffffffffffffffffffffffffffffffffffff1673ffffffffffffffffffffffffffffffffffffffff16815260200190815260200160002060003373ffffffffffffffffffffffffffffffffffffffff1673ffffffffffffffffffffffffffffffffffffffff16815260200190815260200160002060010160019054906101000a900460ff16611605576040517f38df4cfd00000000000000000000000000000000000000000000000000000000815260040160405180910390fd5b600360003373ffffffffffffffffffffffffffffffffffffffff1673ffffffffffffffffffffffffffffffffffffffff16815260200190815260200160002060008573ffffffffffffffffffffffffffffffffffffffff1673ffffffffffffffffffffffffffffffffffffffff16815260200190815260200160002060010160019054906101000a900460ff166116c8576040517fa2aa7d6500000000000000000000000000000000000000000000000000000000815260040160405180910390fd5b600015156000808673ffffffffffffffffffffffffffffffffffffffff1673ffffffffffffffffffffffffffffffffffffffff16815260200190815260200160002060009054906101000a900460ff16151503611771576117293385613481565b6117338433613481565b7f06b6c55da005c98e44e76e6acea5b74b2914f403753adcda3c8d8aba759b0eaa3385604051611764929190614c9b565b60405180910390a16120e5565b600080600360008773ffffffffffffffffffffffffffffffffffffffff1673ffffffffffffffffffffffffffffffffffffffff16815260200190815260200160002060003373ffffffffffffffffffffffffffffffffffffffff1673ffffffffffffffffffffffffffffffffffffffff16815260200190815260200160002060010160009054906101000a900460000b9050600360003373ffffffffffffffffffffffffffffffffffffffff1673ffffffffffffffffffffffffffffffffffffffff16815260200190815260200160002060008773ffffffffffffffffffffffffffffffffffffffff1673ffffffffffffffffffffffffffffffffffffffff1681526020019081526020016000206000015461188e86868661073a565b1480156118a4575060006118a233876125d7565b115b156118b157849150611a77565b600360003373ffffffffffffffffffffffffffffffffffffffff1673ffffffffffffffffffffffffffffffffffffffff16815260200190815260200160002060008773ffffffffffffffffffffffffffffffffffffffff1673ffffffffffffffffffffffffffffffffffffffff16815260200190815260200160002060010160029054906101000a900460ff16611a1a576001600360003373ffffffffffffffffffffffffffffffffffffffff1673ffffffffffffffffffffffffffffffffffffffff16815260200190815260200160002060008873ffffffffffffffffffffffffffffffffffffffff1673ffffffffffffffffffffffffffffffffffffffff16815260200190815260200160002060010160026101000a81548160ff0219169083151502179055507fee8073309115c3729855de26aad26354a4fdcd6fca9d4579b19cdd0d23b56b5f3387604051611a0b929190614c9b565b60405180910390a150506120e5565b7fad945360a905bcba857c54948aea8291bbd84165fe204dd1adfb591ad9a3af483387604051611a4b929190614c9b565b60405180910390a17fffffffffffffffffffffffffffffffffffffffffffffffffffffffffffffffff91505b60006001611a8533856125d7565b1015611aaf577fffffffffffffffffffffffffffffffffffffffffffffffffffffffffffffffff92505b6001611abb88846125d7565b1015611ae5577fffffffffffffffffffffffffffffffffffffffffffffffffffffffffffffffff91505b7fffffffffffffffffffffffffffffffffffffffffffffffffffffffffffffffff8360000b148015611b3957507fffffffffffffffffffffffffffffffffffffffffffffffffffffffffffffffff8260000b145b15611b475760049050611cfa565b7fffffffffffffffffffffffffffffffffffffffffffffffffffffffffffffffff8360000b03611b7a5760039050611cf9565b7fffffffffffffffffffffffffffffffffffffffffffffffffffffffffffffffff8260000b03611bad5760059050611cf8565b8160000b8360000b03611bc35760019050611cf7565b600160000b8360000b148015611bdf5750600360000b8260000b145b15611bed5760029050611cf6565b600360000b8360000b148015611c095750600260000b8260000b145b15611c175760029050611cf5565b600260000b8360000b148015611c335750600160000b8260000b145b15611c415760029050611cf4565b600160000b8360000b148015611c5d5750600260000b8260000b145b15611c6b5760009050611cf3565b600260000b8360000b148015611c875750600360000b8260000b145b15611c955760009050611cf2565b600360000b8360000b148015611cb15750600160000b8260000b145b15611cbf5760009050611cf1565b6040517f4fc4919600000000000000000000000000000000000000000000000000000000815260040160405180910390fd5b5b5b5b5b5b5b5b5b5b60036005811115611d0e57611d0d614d09565b5b816005811115611d2157611d20614d09565b5b03611d7057611d3287836001613f93565b7fa52b74e3f02b31cc99618bb61a044368a494d8dbfb34d5195c3dbb0f2613d3bf3384604051611d63929190614d38565b60405180910390a1611ea3565b600580811115611d8357611d82614d09565b5b816005811115611d9657611d95614d09565b5b03611de557611da733846001613f93565b7fa52b74e3f02b31cc99618bb61a044368a494d8dbfb34d5195c3dbb0f2613d3bf8783604051611dd8929190614d38565b60405180910390a1611ea2565b60046005811115611df957611df8614d09565b5b816005811115611e0c57611e0b614d09565b5b03611e88577fa52b74e3f02b31cc99618bb61a044368a494d8dbfb34d5195c3dbb0f2613d3bf3384604051611e42929190614d38565b60405180910390a17fa52b74e3f02b31cc99618bb61a044368a494d8dbfb34d5195c3dbb0f2613d3bf8783604051611e7b929190614d38565b60405180910390a1611ea1565b611e9433846001613f93565b611ea087836001613f93565b5b5b5b60006005811115611eb757611eb6614d09565b5b816005811115611eca57611ec9614d09565b5b1480611efa575060036005811115611ee557611ee4614d09565b5b816005811115611ef857611ef7614d09565b5b145b15611f5757611f0c3360006001613998565b611f198760006001613b29565b7fbdff375e92783268ca4968f018d4d8f678c23bd41fb7c3b1020cb1de85faa20733848985604051611f4e9493929190614cc4565b60405180910390a15b60026005811115611f6b57611f6a614d09565b5b816005811115611f7e57611f7d614d09565b5b1480611fad5750600580811115611f9857611f97614d09565b5b816005811115611fab57611faa614d09565b5b145b1561200a57611fbf8760006001613998565b611fcc3360006001613b29565b7f9825ca239d3a61779e374a98b6560cca8a40d6c9356c270abce83d3941dfe6f8338489856040516120019493929190614cc4565b60405180910390a15b6004600581111561201e5761201d614d09565b5b81600581111561203157612030614d09565b5b03612051576120433360006001613998565b6120508760006001613998565b5b6001600581111561206557612064614d09565b5b81600581111561207857612077614d09565b5b036120bb577f8a3e623b2adf02a3f9751ad36b25f26ede5e961785806acc87928281c30bd348338489856040516120b29493929190614cc4565b60405180910390a15b6120c53388613481565b6120cf8733613481565b6120d833613c21565b6120e187613c21565b5050505b50505050565b60066020528060005260406000206000915090508060000160009054906101000a900473ffffffffffffffffffffffffffffffffffffffff16908060000160149054906101000a900460000b908060000160159054906101000a900460ff16905083565b6000806000806121608560006125d7565b61216b8660016125d7565b6121768760026125d7565b6121818860036125d7565b93509350935093509193509193565b60008060008061219f3361214f565b935093509350935090919293565b60006121b83361252f565b11156121f0576040517f7ce8de2400000000000000000000000000000000000000000000000000000000815260040160405180910390fd5b60036121fd3360006125d7565b1015612235576040517fbfe0f5c600000000000000000000000000000000000000000000000000000000815260040160405180910390fd5b61224b3360006122463360006125d7565b613998565b60008060003373ffffffffffffffffffffffffffffffffffffffff1673ffffffffffffffffffffffffffffffffffffffff16815260200190815260200160002060006101000a81548160ff021916908315150217905550600660003373ffffffffffffffffffffffffffffffffffffffff1673ffffffffffffffffffffffffffffffffffffffff168152602001908152602001600020600080820160006101000a81549073ffffffffffffffffffffffffffffffffffffffff02191690556000820160146101000a81549060ff02191690556000820160156101000a81549060ff0219169055505060005b600460003373ffffffffffffffffffffffffffffffffffffffff1673ffffffffffffffffffffffffffffffffffffffff168152602001908152602001600020805490508160ff1610156124a65761240b33600460003373ffffffffffffffffffffffffffffffffffffffff1673ffffffffffffffffffffffffffffffffffffffff1681526020019081526020016000208360ff16815481106123db576123da614d61565b5b9060005260206000200160009054906101000a900473ffffffffffffffffffffffffffffffffffffffff16613481565b612493600460003373ffffffffffffffffffffffffffffffffffffffff1673ffffffffffffffffffffffffffffffffffffffff1681526020019081526020016000208260ff168154811061246257612461614d61565b5b9060005260206000200160009054906101000a900473ffffffffffffffffffffffffffffffffffffffff1633613481565b808061249e90614d90565b915050612336565b507f3e73e523f34a5ca25bee44a76e449c7de4b5c06dbdfc679c07f27f27a2e42261336040516124d69190614db9565b60405180910390a17f282b6298c0318f5d7d7f2483a6823972bdbe9d2798bcfe461159151be7d7b9693360405161250d9190614db9565b60405180910390a1565b60026020528060005260406000206000915090505481565b600061253c8260036125d7565b6125478360026125d7565b6125528460016125d7565b61255c9190614dd4565b6125669190614dd4565b9050919050565b6003602052816000526040600020602052806000526040600020600091509150508060000154908060010160009054906101000a900460000b908060010160019054906101000a900460ff16908060010160029054906101000a900460ff16908060020154905085565b6000600160008473ffffffffffffffffffffffffffffffffffffffff1673ffffffffffffffffffffffffffffffffffffffff16815260200190815260200160002060008360000b60000b815260200190815260200160002054905092915050565b60008060008373ffffffffffffffffffffffffffffffffffffffff1673ffffffffffffffffffffffffffffffffffffffff16815260200190815260200160002060009054906101000a900460ff169050919050565b600015156000803373ffffffffffffffffffffffffffffffffffffffff1673ffffffffffffffffffffffffffffffffffffffff16815260200190815260200160002060009054906101000a900460ff16151503612716576040517f2a645edb00000000000000000000000000000000000000000000000000000000815260040160405180910390fd5b8173ffffffffffffffffffffffffffffffffffffffff163373ffffffffffffffffffffffffffffffffffffffff160361277b576040517f6fcb561000000000000000000000000000000000000000000000000000000000815260040160405180910390fd5b6001600560003373ffffffffffffffffffffffffffffffffffffffff1673ffffffffffffffffffffffffffffffffffffffff16815260200190815260200160002060009054906101000a900460ff1660ff166127d63361252f565b6127e09190614b39565b1015612818576040517fe7cc977c00000000000000000000000000000000000000000000000000000000815260040160405180910390fd5b6001600560008473ffffffffffffffffffffffffffffffffffffffff1673ffffffffffffffffffffffffffffffffffffffff16815260200190815260200160002060009054906101000a900460ff1660ff166128738461252f565b61287d9190614b39565b10156128b5576040517fe7cc977c00000000000000000000000000000000000000000000000000000000815260040160405180910390fd5b6001600560003373ffffffffffffffffffffffffffffffffffffffff1673ffffffffffffffffffffffffffffffffffffffff16815260200190815260200160002060009054906101000a900460ff1660ff166129123360006125d7565b61291c9190614b39565b1015612954576040517fe7cc977c00000000000000000000000000000000000000000000000000000000815260040160405180910390fd5b6001600560008473ffffffffffffffffffffffffffffffffffffffff1673ffffffffffffffffffffffffffffffffffffffff16815260200190815260200160002060009054906101000a900460ff1660ff166129b18460006125d7565b6129bb9190614b39565b10156129f3576040517fe7cc977c00000000000000000000000000000000000000000000000000000000815260040160405180910390fd5b600360008373ffffffffffffffffffffffffffffffffffffffff1673ffffffffffffffffffffffffffffffffffffffff16815260200190815260200160002060003373ffffffffffffffffffffffffffffffffffffffff1673ffffffffffffffffffffffffffffffffffffffff16815260200190815260200160002060010160019054906101000a900460ff1615612ab7576040517f0becbe0d00000000000000000000000000000000000000000000000000000000815260040160405180910390fd5b600360003373ffffffffffffffffffffffffffffffffffffffff1673ffffffffffffffffffffffffffffffffffffffff16815260200190815260200160002060008373ffffffffffffffffffffffffffffffffffffffff1673ffffffffffffffffffffffffffffffffffffffff16815260200190815260200160002060010160019054906101000a900460ff1615612b7b576040517f0becbe0d00000000000000000000000000000000000000000000000000000000815260040160405180910390fd5b612b858282614124565b7fa3bf888d12bc12843a9f7e2696a235c1965193c71ae15cf751e5abcf05d709c23383604051612bb6929190614c9b565b60405180910390a15050565b6001602052816000526040600020602052806000526040600020600091509150505481565b600115156000803373ffffffffffffffffffffffffffffffffffffffff1673ffffffffffffffffffffffffffffffffffffffff16815260200190815260200160002060009054906101000a900460ff16151503612c70576040517fb4b038b200000000000000000000000000000000000000000000000000000000815260040160405180910390fd5b60016000803373ffffffffffffffffffffffffffffffffffffffff1673ffffffffffffffffffffffffffffffffffffffff16815260200190815260200160002060006101000a81548160ff02191690831515021790555060005b600460003373ffffffffffffffffffffffffffffffffffffffff1673ffffffffffffffffffffffffffffffffffffffff168152602001908152602001600020805490508160ff161015612e3a57612d9f33600460003373ffffffffffffffffffffffffffffffffffffffff1673ffffffffffffffffffffffffffffffffffffffff1681526020019081526020016000208360ff1681548110612d6f57612d6e614d61565b5b9060005260206000200160009054906101000a900473ffffffffffffffffffffffffffffffffffffffff16613481565b612e27600460003373ffffffffffffffffffffffffffffffffffffffff1673ffffffffffffffffffffffffffffffffffffffff1681526020019081526020016000208260ff1681548110612df657612df5614d61565b5b9060005260206000200160009054906101000a900473ffffffffffffffffffffffffffffffffffffffff1633613481565b8080612e3290614d90565b915050612cca565b50600560003373ffffffffffffffffffffffffffffffffffffffff1673ffffffffffffffffffffffffffffffffffffffff16815260200190815260200160002060006101000a81549060ff0219169055600660003373ffffffffffffffffffffffffffffffffffffffff1673ffffffffffffffffffffffffffffffffffffffff168152602001908152602001600020600080820160006101000a81549073ffffffffffffffffffffffffffffffffffffffff02191690556000820160146101000a81549060ff02191690556000820160156101000a81549060ff02191690555050612f283360006003613b29565b612f353360016004613b29565b612f423360026004613b29565b612f4f3360036004613b29565b7fb46af3c568709a25575d501b270c4768aef802b1e39fb922a8f21cb385e2ae9b3382604051612f80929190614eb2565b60405180910390a150565b60006020528060005260406000206000915054906101000a900460ff1681565b600015156000808373ffffffffffffffffffffffffffffffffffffffff1673ffffffffffffffffffffffffffffffffffffffff16815260200190815260200160002060009054906101000a900460ff16151503613034576040517f2a645edb00000000000000000000000000000000000000000000000000000000815260040160405180910390fd5b3373ffffffffffffffffffffffffffffffffffffffff16600660008373ffffffffffffffffffffffffffffffffffffffff1673ffffffffffffffffffffffffffffffffffffffff16815260200190815260200160002060000160009054906101000a900473ffffffffffffffffffffffffffffffffffffffff1673ffffffffffffffffffffffffffffffffffffffff1614613104576040517f08c379a00000000000000000000000000000000000000000000000000000000081526004016130fb90614f2e565b60405180910390fd5b600660008273ffffffffffffffffffffffffffffffffffffffff1673ffffffffffffffffffffffffffffffffffffffff16815260200190815260200160002060000160159054906101000a900460ff1660ff16600560003373ffffffffffffffffffffffffffffffffffffffff1673ffffffffffffffffffffffffffffffffffffffff16815260200190815260200160002060009054906101000a900460ff1660ff1661320033600660008673ffffffffffffffffffffffffffffffffffffffff1673ffffffffffffffffffffffffffffffffffffffff16815260200190815260200160002060000160149054906101000a900460000b6125d7565b61320a9190614b39565b1015613242576040517fe7cc977c00000000000000000000000000000000000000000000000000000000815260040160405180910390fd5b6132ee81600660008473ffffffffffffffffffffffffffffffffffffffff1673ffffffffffffffffffffffffffffffffffffffff16815260200190815260200160002060000160149054906101000a900460000b600660008573ffffffffffffffffffffffffffffffffffffffff1673ffffffffffffffffffffffffffffffffffffffff16815260200190815260200160002060000160159054906101000a900460ff1660ff16613b29565b61339a33600660008473ffffffffffffffffffffffffffffffffffffffff1673ffffffffffffffffffffffffffffffffffffffff16815260200190815260200160002060000160149054906101000a900460000b600660008573ffffffffffffffffffffffffffffffffffffffff1673ffffffffffffffffffffffffffffffffffffffff16815260200190815260200160002060000160159054906101000a900460ff1660ff16613998565b7f5ad58e5de6ee1ed07cc7f66b48c9423058c1305b87f02709ef2d2ec3f5d53f788133600660008573ffffffffffffffffffffffffffffffffffffffff1673ffffffffffffffffffffffffffffffffffffffff16815260200190815260200160002060000160149054906101000a900460000b600660008673ffffffffffffffffffffffffffffffffffffffff1673ffffffffffffffffffffffffffffffffffffffff16815260200190815260200160002060000160159054906101000a900460ff1660405161346d9493929190614b6d565b60405180910390a161347e33613c21565b50565b600360008373ffffffffffffffffffffffffffffffffffffffff1673ffffffffffffffffffffffffffffffffffffffff16815260200190815260200160002060008273ffffffffffffffffffffffffffffffffffffffff1673ffffffffffffffffffffffffffffffffffffffff16815260200190815260200160002060010160019054906101000a900460ff161561368c57600360008373ffffffffffffffffffffffffffffffffffffffff1673ffffffffffffffffffffffffffffffffffffffff16815260200190815260200160002060008273ffffffffffffffffffffffffffffffffffffffff1673ffffffffffffffffffffffffffffffffffffffff1681526020019081526020016000206000808201600090556001820160006101000a81549060ff02191690556001820160016101000a81549060ff02191690556001820160026101000a81549060ff0219169055600282016000905550506001600560008473ffffffffffffffffffffffffffffffffffffffff1673ffffffffffffffffffffffffffffffffffffffff16815260200190815260200160002060008282829054906101000a900460ff1661363a9190614f4e565b92506101000a81548160ff021916908360ff1602179055507f7598c7e2083bb604d4deff395892e56f5abbcf49f1a63f5dfdb3cced349cf1d28282604051613683929190614c9b565b60405180910390a15b5050565b80600360003373ffffffffffffffffffffffffffffffffffffffff1673ffffffffffffffffffffffffffffffffffffffff16815260200190815260200160002060008473ffffffffffffffffffffffffffffffffffffffff1673ffffffffffffffffffffffffffffffffffffffff16815260200190815260200160002060010160006101000a81548160ff021916908360000b60ff1602179055506001600360003373ffffffffffffffffffffffffffffffffffffffff1673ffffffffffffffffffffffffffffffffffffffff16815260200190815260200160002060008473ffffffffffffffffffffffffffffffffffffffff1673ffffffffffffffffffffffffffffffffffffffff16815260200190815260200160002060010160016101000a81548160ff02191690831515021790555043600360003373ffffffffffffffffffffffffffffffffffffffff1673ffffffffffffffffffffffffffffffffffffffff16815260200190815260200160002060008473ffffffffffffffffffffffffffffffffffffffff1673ffffffffffffffffffffffffffffffffffffffff16815260200190815260200160002060020181905550600460003373ffffffffffffffffffffffffffffffffffffffff1673ffffffffffffffffffffffffffffffffffffffff168152602001908152602001600020829080600181540180825580915050600190039060005260206000200160009091909190916101000a81548173ffffffffffffffffffffffffffffffffffffffff021916908373ffffffffffffffffffffffffffffffffffffffff1602179055506001600560003373ffffffffffffffffffffffffffffffffffffffff1673ffffffffffffffffffffffffffffffffffffffff16815260200190815260200160002060008282829054906101000a900460ff166139439190614f82565b92506101000a81548160ff021916908360ff1602179055507f588aa82e78a451ffaa3fd1273ebe8a85484fc5d6d5367643a11427d7f6598e4d338360405161398c929190614c9b565b60405180910390a15050565b60008260000b1215806139af575060038260000b13155b6139ee576040517f08c379a00000000000000000000000000000000000000000000000000000000081526004016139e590615005565b60405180910390fd5b80600160008573ffffffffffffffffffffffffffffffffffffffff1673ffffffffffffffffffffffffffffffffffffffff16815260200190815260200160002060008460000b60000b8152602001908152602001600020541015613a87576040517f08c379a0000000000000000000000000000000000000000000000000000000008152600401613a7e90615097565b60405180910390fd5b80600160008573ffffffffffffffffffffffffffffffffffffffff1673ffffffffffffffffffffffffffffffffffffffff16815260200190815260200160002060008460000b60000b81526020019081526020016000206000828254613aed9190614b39565b9250508190555080600260008460000b60000b81526020019081526020016000206000828254613b1d9190614b39565b92505081905550505050565b60008260000b121580613b40575060038260000b13155b613b7f576040517f08c379a0000000000000000000000000000000000000000000000000000000008152600401613b7690615005565b60405180910390fd5b80600160008573ffffffffffffffffffffffffffffffffffffffff1673ffffffffffffffffffffffffffffffffffffffff16815260200190815260200160002060008460000b60000b81526020019081526020016000206000828254613be59190614dd4565b9250508190555080600260008460000b60000b81526020019081526020016000206000828254613c159190614dd4565b92505081905550505050565b6001613c2e8260006125d7565b1015613f9057613c4a816001613c458460016125d7565b613998565b613c60816002613c5b8460026125d7565b613998565b613c76816003613c718460036125d7565b613998565b60008060008373ffffffffffffffffffffffffffffffffffffffff1673ffffffffffffffffffffffffffffffffffffffff16815260200190815260200160002060006101000a81548160ff02191690831515021790555060005b600460008373ffffffffffffffffffffffffffffffffffffffff1673ffffffffffffffffffffffffffffffffffffffff168152602001908152602001600020805490508160ff161015613e4057613da582600460008573ffffffffffffffffffffffffffffffffffffffff1673ffffffffffffffffffffffffffffffffffffffff1681526020019081526020016000208360ff1681548110613d7557613d74614d61565b5b9060005260206000200160009054906101000a900473ffffffffffffffffffffffffffffffffffffffff16613481565b613e2d600460008473ffffffffffffffffffffffffffffffffffffffff1673ffffffffffffffffffffffffffffffffffffffff1681526020019081526020016000208260ff1681548110613dfc57613dfb614d61565b5b9060005260206000200160009054906101000a900473ffffffffffffffffffffffffffffffffffffffff1683613481565b8080613e3890614d90565b915050613cd0565b50600560008273ffffffffffffffffffffffffffffffffffffffff1673ffffffffffffffffffffffffffffffffffffffff16815260200190815260200160002060006101000a81549060ff0219169055600660008273ffffffffffffffffffffffffffffffffffffffff1673ffffffffffffffffffffffffffffffffffffffff168152602001908152602001600020600080820160006101000a81549073ffffffffffffffffffffffffffffffffffffffff02191690556000820160146101000a81549060ff02191690556000820160156101000a81549060ff021916905550507f9ab74d043ba19fd15c3afcaf30decddeff525822b002d45e80c80ac800d41a2981604051613f509190614db9565b60405180910390a17f282b6298c0318f5d7d7f2483a6823972bdbe9d2798bcfe461159151be7d7b96981604051613f879190614db9565b60405180910390a15b50565b60018260000b121580613faa575060038260000b13155b613fe9576040517f08c379a0000000000000000000000000000000000000000000000000000000008152600401613fe090615103565b60405180910390fd5b80600160008573ffffffffffffffffffffffffffffffffffffffff1673ffffffffffffffffffffffffffffffffffffffff16815260200190815260200160002060008460000b60000b8152602001908152602001600020541015614082576040517f08c379a000000000000000000000000000000000000000000000000000000000815260040161407990615097565b60405180910390fd5b80600160008573ffffffffffffffffffffffffffffffffffffffff1673ffffffffffffffffffffffffffffffffffffffff16815260200190815260200160002060008460000b60000b815260200190815260200160002060008282546140e89190614b39565b9250508190555080600260008460000b60000b815260200190815260200160002060008282546141189190614b39565b92505081905550505050565b80600360003373ffffffffffffffffffffffffffffffffffffffff1673ffffffffffffffffffffffffffffffffffffffff16815260200190815260200160002060008473ffffffffffffffffffffffffffffffffffffffff1673ffffffffffffffffffffffffffffffffffffffff168152602001908152602001600020600001819055506001600360003373ffffffffffffffffffffffffffffffffffffffff1673ffffffffffffffffffffffffffffffffffffffff16815260200190815260200160002060008473ffffffffffffffffffffffffffffffffffffffff1673ffffffffffffffffffffffffffffffffffffffff16815260200190815260200160002060010160016101000a81548160ff02191690831515021790555043600360003373ffffffffffffffffffffffffffffffffffffffff1673ffffffffffffffffffffffffffffffffffffffff16815260200190815260200160002060008473ffffffffffffffffffffffffffffffffffffffff1673ffffffffffffffffffffffffffffffffffffffff16815260200190815260200160002060020181905550600460003373ffffffffffffffffffffffffffffffffffffffff1673ffffffffffffffffffffffffffffffffffffffff168152602001908152602001600020829080600181540180825580915050600190039060005260206000200160009091909190916101000a81548173ffffffffffffffffffffffffffffffffffffffff021916908373ffffffffffffffffffffffffffffffffffffffff1602179055506001600560003373ffffffffffffffffffffffffffffffffffffffff1673ffffffffffffffffffffffffffffffffffffffff16815260200190815260200160002060008282829054906101000a900460ff166143c09190614f82565b92506101000a81548160ff021916908360ff1602179055507f588aa82e78a451ffaa3fd1273ebe8a85484fc5d6d5367643a11427d7f6598e4d3383604051614409929190614c9b565b60405180910390a15050565b6000604051905090565b600080fd5b600080fd5b600073ffffffffffffffffffffffffffffffffffffffff82169050919050565b600061445482614429565b9050919050565b61446481614449565b811461446f57600080fd5b50565b6000813590506144818161445b565b92915050565b60008160000b9050919050565b61449d81614487565b81146144a857600080fd5b50565b6000813590506144ba81614494565b92915050565b600060ff82169050919050565b6144d6816144c0565b81146144e157600080fd5b50565b6000813590506144f3816144cd565b92915050565b6000806000606084860312156145125761451161441f565b5b600061452086828701614472565b9350506020614531868287016144ab565b9250506040614542868287016144e4565b9150509250925092565b600080fd5b600080fd5b600080fd5b60008083601f8401126145715761457061454c565b5b8235905067ffffffffffffffff81111561458e5761458d614551565b5b6020830191508360018202830111156145aa576145a9614556565b5b9250929050565b6000806000604084860312156145ca576145c961441f565b5b60006145d8868287016144ab565b935050602084013567ffffffffffffffff8111156145f9576145f8614424565b5b6146058682870161455b565b92509250509250925092565b6000819050919050565b61462481614611565b82525050565b600060208201905061463f600083018461461b565b92915050565b60006020828403121561465b5761465a61441f565b5b600061466984828501614472565b91505092915050565b600080604083850312156146895761468861441f565b5b600061469785828601614472565b92505060206146a8858286016144ab565b9150509250929050565b6146bb816144c0565b82525050565b60006020820190506146d660008301846146b2565b92915050565b600080600080606085870312156146f6576146f561441f565b5b600061470487828801614472565b9450506020614715878288016144ab565b935050604085013567ffffffffffffffff81111561473657614735614424565b5b6147428782880161455b565b925092505092959194509250565b61475981614449565b82525050565b61476881614487565b82525050565b60006060820190506147836000830186614750565b614790602083018561475f565b61479d60408301846146b2565b949350505050565b6000819050919050565b6147b8816147a5565b82525050565b60006080820190506147d360008301876147af565b6147e060208301866147af565b6147ed60408301856147af565b6147fa60608301846147af565b95945050505050565b6000602082840312156148195761481861441f565b5b6000614827848285016144ab565b91505092915050565b600060208201905061484560008301846147af565b92915050565b600080604083850312156148625761486161441f565b5b600061487085828601614472565b925050602061488185828601614472565b9150509250929050565b60008115159050919050565b6148a08161488b565b82525050565b600060a0820190506148bb600083018861461b565b6148c8602083018761475f565b6148d56040830186614897565b6148e26060830185614897565b6148ef60808301846147af565b9695505050505050565b600060208201905061490e6000830184614897565b92915050565b61491d81614611565b811461492857600080fd5b50565b60008135905061493a81614914565b92915050565b600080604083850312156149575761495661441f565b5b600061496585828601614472565b92505060206149768582860161492b565b9150509250929050565b600080fd5b6000601f19601f8301169050919050565b7f4e487b7100000000000000000000000000000000000000000000000000000000600052604160045260246000fd5b6149ce82614985565b810181811067ffffffffffffffff821117156149ed576149ec614996565b5b80604052505050565b6000614a00614415565b9050614a0c82826149c5565b919050565b600067ffffffffffffffff821115614a2c57614a2b614996565b5b614a3582614985565b9050602081019050919050565b82818337600083830152505050565b6000614a64614a5f84614a11565b6149f6565b905082815260208101848484011115614a8057614a7f614980565b5b614a8b848285614a42565b509392505050565b600082601f830112614aa857614aa761454c565b5b8135614ab8848260208601614a51565b91505092915050565b600060208284031215614ad757614ad661441f565b5b600082013567ffffffffffffffff811115614af557614af4614424565b5b614b0184828501614a93565b91505092915050565b7f4e487b7100000000000000000000000000000000000000000000000000000000600052601160045260246000fd5b6000614b44826147a5565b9150614b4f836147a5565b925082821015614b6257614b61614b0a565b5b828203905092915050565b6000608082019050614b826000830187614750565b614b8f6020830186614750565b614b9c604083018561475f565b614ba960608301846146b2565b95945050505050565b60008160601b9050919050565b6000614bca82614bb2565b9050919050565b6000614bdc82614bbf565b9050919050565b614bf4614bef82614449565b614bd1565b82525050565b60008160f81b9050919050565b6000614c1282614bfa565b9050919050565b614c2a614c2582614487565b614c07565b82525050565b600081905092915050565b6000614c478385614c30565b9350614c54838584614a42565b82840190509392505050565b6000614c6c8287614be3565b601482019150614c7c8286614c19565b600182019150614c8d828486614c3b565b915081905095945050505050565b6000604082019050614cb06000830185614750565b614cbd6020830184614750565b9392505050565b6000608082019050614cd96000830187614750565b614ce6602083018661475f565b614cf36040830185614750565b614d00606083018461475f565b95945050505050565b7f4e487b7100000000000000000000000000000000000000000000000000000000600052602160045260246000fd5b6000604082019050614d4d6000830185614750565b614d5a602083018461475f565b9392505050565b7f4e487b7100000000000000000000000000000000000000000000000000000000600052603260045260246000fd5b6000614d9b826144c0565b915060ff8203614dae57614dad614b0a565b5b600182019050919050565b6000602082019050614dce6000830184614750565b92915050565b6000614ddf826147a5565b9150614dea836147a5565b9250827fffffffffffffffffffffffffffffffffffffffffffffffffffffffffffffffff03821115614e1f57614e1e614b0a565b5b828201905092915050565b600081519050919050565b600082825260208201905092915050565b60005b83811015614e64578082015181840152602081019050614e49565b83811115614e73576000848401525b50505050565b6000614e8482614e2a565b614e8e8185614e35565b9350614e9e818560208601614e46565b614ea781614985565b840191505092915050565b6000604082019050614ec76000830185614750565b8181036020830152614ed98184614e79565b90509392505050565b7f4e6f20726571756573742066726f6d207468617420706c617965722e00000000600082015250565b6000614f18601c83614e35565b9150614f2382614ee2565b602082019050919050565b60006020820190508181036000830152614f4781614f0b565b9050919050565b6000614f59826144c0565b9150614f64836144c0565b925082821015614f7757614f76614b0a565b5b828203905092915050565b6000614f8d826144c0565b9150614f98836144c0565b92508260ff03821115614fae57614fad614b0a565b5b828201905092915050565b7f496e76616c696420746f6b656e2049442e000000000000000000000000000000600082015250565b6000614fef601183614e35565b9150614ffa82614fb9565b602082019050919050565b6000602082019050818103600083015261501e81614fe2565b9050919050565b7f546f6b656e2062616c616e63652063616e6e6f7420676f2062656c6f77207a6560008201527f726f2e0000000000000000000000000000000000000000000000000000000000602082015250565b6000615081602383614e35565b915061508c82615025565b604082019050919050565b600060208201905081810360008301526150b081615074565b9050919050565b7f496e76616c696420636172642049442e00000000000000000000000000000000600082015250565b60006150ed601083614e35565b91506150f8826150b7565b602082019050919050565b6000602082019050818103600083015261511c816150e0565b905091905056fea264697066735822122053a59745f11139ac013a425642704735c8c65b41f4216a31ca0d54a61b3f329e64736f6c634300080d0033",
  "immutableReferences": {},
  "source": "// SPDX-License-Identifier: MIT\npragma solidity ^0.8.9;\n\nimport \"@openzeppelin/contracts/access/Ownable.sol\";\n\n/*\nTODO LIST:\n\n- Re-implement payable tag on startGame function\n\n- Implement cashing out stars from the contract's account -- 0.03 Eth per star on a 0.1 Eth buyin?\n\n- Replace block duration test value of 1 with the intended value of 5000\n\n- Create separate commit trackers for each kind of card (rock, paper, scissors) so that \n  players can't commit to a challenge with a card they don't have, and so that players\n  can't trade away cards they (might) have committed to a challenge.\n\n- Test trading logic\n\n*/\n\ncontract RRPS {\n\n    error AddressAlreadyPlaying();          // Address is already playing the game\n    error PlayerNotFound();                 // Address is not currently playing the game\n    error InsufficientUncommittedTokens();  // Player has insufficient tokens remaining that aren't already committed to a challenge\n    error PlayerStillHasCards();            // Player still has cards remaining\n    error InsufficientStars();              // Player has less than 3 stars remaining\n    error NoSelfChallenge();                // Player cannot challenge themselves\n    error PlayerAlreadyChallenged();        // Player has already challenged the other player\n    error NotYetChallenged();               // Player has not yet been challenged by the other player\n    error MustBeRockPaperOrScissors();      // Card type must be 1, 2, or 3\n    error NeedCopyOfCard();                 // Player must have at least one copy of the card they're trying to commit\n    error NoOpenCommit();                   // Player has not yet made an open commit to the other player's challenge\n    error InvalidCardCombination();         // Invalid card combination\n    error OtherPlayerAlreadyCommitted();    // Other player has already made an open commit to the challenge\n\n    event PlayerJoined(address playerAddress, string nickname);                                                 // A player has joined the game for any reason\n    event PlayerLeft(address playerAddress);                                                                    // A player has left the game for any reason\n    event PlayerEliminated(address playerAddress);                                                              // Player has lost all of their stars\n    event PlayerCashedOut(address playerAddress);                                                               // Player voluntarily cashes out\n    event ChallengeCommit(address challenger, address challengee);                                              // Challenger has issued a challenge to challengee\n    event OpenCommit(address challenger, address challengee);                                                   // Challengee has made an open commit to challenger's challenge\n    event ChallengerWins(address challenger, int8 challengerCard, address challengee, int8 challengeeCard);     // Challenger has won the challenge against challengee\n    event ChallengerLoses(address challenger, int8 challengerCard, address challengee, int8 challengeeCard);    // Challengee has won the challenge against challenger\n    event Tie(address challenger, int8 challengerCard, address challengee, int8 challengeeCard);                // Challenger and challengee have tied\n    event Misplay(address player, int8 card);                                                                   // Player has misplayed a card\n    event WithdrawnChallengeCommit(address challenger, address challengee);                                     // Challenger has withdrawn their challenge to challengee\n    event WithdrawnOpenCommit(address challenger, address challengee);                                          // Challengee has withdrawn their open commit to challenger\n    event CommitCreated(address player1, address player2);                                                      // Commit has been created for any reason\n    event CommitRemoved(address player1, address player2);                                                      // Commit has been removed for any reason\n    event OrphanedCommit(address challenger, address challengee);                                               // Player left unresolved commit behind\n    event ChallengerFailedHashOnce(address challenger, address challengee);                                     // Challenger failed to solve hash once\n    event ChallengerFailedHashTwice(address challenger, address challengee);                                    // Challenger failed to solve hash twice (auto-loss of star with no card burnt)\n    event TransferRequest(address requestSender, address requestee, int8 tokenType, uint8 amount);               // Player has requested a token transfer \n    event TransferApproved(address requestSender, address requestee, int8 tokenType, uint8 amount);              // Player has approved a token transfer           \n\n    int8 constant STAR = 0;\n    int8 constant ROCK = 1; \n    int8 constant PAPER = 2;\n    int8 constant SCISSORS = 3;\n\n    struct commit {\n        bytes32 hash;\n        int8 cardType;\n        bool exists;\n        bool hashStrike; \n        uint blockNum;\n    }\n\n    struct transferRequest {\n        address requestee;\n        int8 tokenType;\n        uint8 amount;\n    }\n\n    enum GameResult {\n        Challenger_Loses,\n        Tie,\n        Challenger_Wins,\n        Misplay_Challenger_Loses,   // Result if the challenger doesn't possess a card of the type they committed\n        Misplay_Tie,                // Result if neither player posesses the card they committed\n        Misplay_Challenger_Wins     // Result if the challengee doesn't possess a card of the type they committed\n    }\n\n    mapping (address => bool) public players;                          // Tracks whether a player is active in the game\n    mapping (address => mapping (int8 => uint)) public balances;       // Tracks each player's balance of each token type\n    mapping (int8 => uint) public totals;                              // Tracks the total supply of each token type\n    mapping (address => mapping (address => commit)) public commits;   // Tracks each player's commits against other players\n    mapping (address => address[]) commitArray;                        // This is merely used to re-initialize the commits mapping when a player leaves the game\n    mapping (address => uint8) public commitCount;                     // Tracks the number of games a player is currently committed to\n    mapping (address => transferRequest) public transferRequests;      // Tracks transfer requests\n\n    function playerExists(address player) public view returns(bool) {\n        return players[player];\n    }\n\n    function incrementToken(address player, int8 id, uint amount) internal {\n        require(id >= 0 || id <= 3, \"Invalid token ID.\");\n        balances[player][id] += amount;\n        totals[id] += amount;\n    }\n\n    function decrementToken(address player, int8 id, uint amount) internal {\n        require(id >= 0 || id <= 3, \"Invalid token ID.\");\n        require(balances[player][id] >= amount, \"Token balance cannot go below zero.\");\n        balances[player][id] -= amount;\n        totals[id] -= amount;\n    }\n\n    function decrementCard(address player, int8 id, uint amount) internal {\n        require(id >= 1 || id <= 3, \"Invalid card ID.\");\n        require(balances[player][id] >= amount, \"Token balance cannot go below zero.\");\n        balances[player][id] -= amount;\n        totals[id] -= amount;\n    }\n\n    // This function is written from the perspective of the challenger\n    function issueCommit(address challengee, bytes32 hash) internal {\n        commits[msg.sender][challengee].hash = hash;                        // Add hash to commits mapping\n        commits[msg.sender][challengee].exists = true;                      // Set commits mapping to exist\n        commits[msg.sender][challengee].blockNum = block.number;            // Add blocknumber \n        commitArray[msg.sender].push(challengee);                           // Add challengee to array of addresses committed against\n        commitCount[msg.sender] += 1;                                       // Increment commitCount for challenger \n        emit CommitCreated(msg.sender, challengee);\n    }\n\n    // This function is written from the perspective of the challengee\n    function issueCommit(address challenger, int8 cardType) internal {\n        // Set commits mapping challengee -> challenger -> cardType\n        commits[msg.sender][challenger].cardType = cardType;                // Add cardType to commits mapping\n        commits[msg.sender][challenger].exists = true;                      // Set commits mapping to exist\n        commits[msg.sender][challenger].blockNum = block.number;            // Add blocknumber \n        commitArray[msg.sender].push(challenger);                           // Add challenger to array of addresses committed against \n        commitCount[msg.sender] += 1;                                       // Increment commitCount for challengee \n        emit CommitCreated(msg.sender, challenger);\n    }\n\n    function removeCommit(address fromPlayer, address toPlayer) internal {\n        if (commits[fromPlayer][toPlayer].exists){\n            delete commits[fromPlayer][toPlayer];\n            commitCount[fromPlayer] -= 1;\n            emit CommitRemoved(fromPlayer, toPlayer);\n        }\n    }\n\n    function startGame(string memory nickname) public /* payable */ {\n        // require(msg.value >= 0.1 ether); // Check payment\n        if (players[msg.sender] == true) {revert AddressAlreadyPlaying();}  // Ensure that address is not currently playing the game\n        players[msg.sender] = true;                                         // Log the address as playing the game\n        for (uint8 i=0; i<commitArray[msg.sender].length; i++){\n            removeCommit(msg.sender, commitArray[msg.sender][i]);           // Delete any existing outgoing commits\n            removeCommit(commitArray[msg.sender][i], msg.sender);           // Delete any existing incoming commits\n        }\n        delete commitCount[msg.sender];                                     // Delete commits count\n        delete transferRequests[msg.sender];                                // Delete transfer requests\n        incrementToken(msg.sender, STAR, 3);                                // Give player fresh set of cards and stars\n        incrementToken(msg.sender, ROCK, 4);\n        incrementToken(msg.sender, PAPER, 4);\n        incrementToken(msg.sender, SCISSORS, 4);\n        emit PlayerJoined(msg.sender, nickname);\n    }\n\n    function gameOverCheck(address player) internal {\n        if (balanceOf(player, STAR) < 1){                                   // Check if player has no stars remaining\n            decrementToken(player, ROCK, balanceOf(player, ROCK));          // Remove remaining rock cards\n            decrementToken(player, PAPER, balanceOf(player, PAPER));        // Remove remaining paper cards\n            decrementToken(player, SCISSORS, balanceOf(player, SCISSORS));  // Remove remaining scissors cards\n            players[player] = false;                                        // Deregister player\n            for (uint8 i=0; i<commitArray[player].length; i++){\n                removeCommit(player, commitArray[player][i]);               // Delete any existing outgoing commits\n                removeCommit(commitArray[player][i], player);               // Delete any existing incoming commits\n            }\n            delete commitCount[player];                                     // Delete any existing commits count\n            delete transferRequests[player];                                // Delete transfer requests                                                                \n\n            emit PlayerEliminated(player);\n            emit PlayerLeft(player);\n        }\n    }\n\n    function cashOut() public {\n        if (totalCards(msg.sender) > 0) {revert PlayerStillHasCards();}     // Check that player has no cards remaining\n        if (balanceOf(msg.sender, STAR) < 3) {revert InsufficientStars();}  // Check that player has 3 or more stars remaining\n        decrementToken(msg.sender, STAR, balanceOf(msg.sender, STAR));      // Remove remaining stars\n        players[msg.sender] = false;                                        // Deregister player\n        delete transferRequests[msg.sender];                                // Delete transfer requests\n        for (uint8 i=0; i<commitArray[msg.sender].length; i++){\n            removeCommit(msg.sender, commitArray[msg.sender][i]);           // Delete any existing outgoing commits\n            removeCommit(commitArray[msg.sender][i], msg.sender);           // Delete any existing incoming commits\n        }\n        emit PlayerCashedOut(msg.sender);\n        emit PlayerLeft(msg.sender);\n    }\n\n    // This function is written from the perspective of the challenger\n    function challengeCommit(address challengee, bytes32 hash) public {\n        if (players[msg.sender] == false) {revert PlayerNotFound();}                    // Check that player is in the game \n        if (msg.sender == challengee) {revert NoSelfChallenge();}                       // Check that challenger and challengee are different accounts\n        if ((totalCards(msg.sender) - commitCount[msg.sender]) < 1) {revert InsufficientUncommittedTokens();}         // Check for uncommitted challenger card\n        if ((totalCards(challengee) - commitCount[challengee]) < 1) {revert InsufficientUncommittedTokens();}         // Check for uncommitted challengee card\n        if ((balanceOf(msg.sender, STAR) - commitCount[msg.sender]) < 1) {revert InsufficientUncommittedTokens();}    // Check for uncommitted challenger star\n        if ((balanceOf(challengee, STAR) - commitCount[challengee]) < 1) {revert InsufficientUncommittedTokens();}    // Check for uncommitted challengee star\n        if (commits[challengee][msg.sender].exists) {revert PlayerAlreadyChallenged();} // Check for open challenge against challengee\n        if (commits[msg.sender][challengee].exists) {revert PlayerAlreadyChallenged();} // Check for open challenge against challenger\n        issueCommit(challengee, hash);                                                  // Set commit mapping and increment commitCount for challenger \n        emit ChallengeCommit(msg.sender, challengee);\n    }\n\n    // This function is written from the perspective of the challengee\n    function openCommit(address challenger, int8 cardType) public {\n        if (players[msg.sender] == false) {revert PlayerNotFound();}                // Check that player is in the game \n        if (msg.sender == challenger) {revert NoSelfChallenge();}                   // Check that challenger and challengee are different accounts\n        if (!commits[challenger][msg.sender].exists) {revert NotYetChallenged();}   // Check that challengee has been challenged by challenger\n        if (cardType < 1 || cardType > 3) {revert MustBeRockPaperOrScissors();}     // Check that cardType is one of ROCK (1), PAPER (2), SCISSORS (3)\n        if (msg.sender == challenger) {revert NoSelfChallenge();}                   // Check that challenger and challengee are different accounts\n        if (balanceOf(msg.sender, cardType) < 1) {revert NeedCopyOfCard();}         // Check that challengee has at least one copy of the card to be committed\n        if ((totalCards(msg.sender) - commitCount[msg.sender]) < 1) {revert InsufficientUncommittedTokens();}         // Check challengee's uncommitted cards\n        if ((balanceOf(msg.sender, STAR) - commitCount[msg.sender]) < 1) {revert InsufficientUncommittedTokens();}    // Check challengee's uncommitted stars\n        if (players[challenger] == false){                                          // Check to see if challenger is still in the game.\n            removeCommit(challenger, msg.sender);                                   // If they are not, withdraw the challenge and end function early\n            removeCommit(msg.sender, challenger);\n            emit OrphanedCommit(challenger, msg.sender);\n            return ();\n        }\n        issueCommit(challenger, cardType);                                           // Set commit mapping and increment commitCount for challengee\n        emit OpenCommit(challenger, msg.sender);\n    }\n\n    // Written from the perspective of the challenger, who must now reveal their card by proving their hash\n    function reveal(address challengee, int8 cardType, string calldata salt) public {\n        if (msg.sender == challengee) {revert NoSelfChallenge();}                   // Check that challenger isn't revealing against themselves\n        if (players[msg.sender] == false) {revert PlayerNotFound();}                // Check that player is in the game \n        if (cardType < 1 || cardType > 3) {revert MustBeRockPaperOrScissors();}     // Check that cardType is one of ROCK (1), PAPER (2), SCISSORS (3)\n        if (!commits[challengee][msg.sender].exists) {revert NoOpenCommit();}       // Check that challengee has made an open commit to challenger's challenge\n        if (!commits[msg.sender][challengee].exists) {revert NotYetChallenged();}   // Check that challenger has challenged challengee\n\n        if (players[challengee] == false){                                          // Check to see if challengee is still in the game. \n            removeCommit(msg.sender, challengee);                                   // If they are not, withdraw the challenge and end function early.\n            removeCommit(challengee, msg.sender);\n            emit OrphanedCommit(msg.sender, challengee);\n            return ();\n        }\n\n        int8 challengerCard;                                                        // Initialize challenger's card variable\n        int8 challengeeCard = commits[challengee][msg.sender].cardType;             // Get the challengee's card\n\n        // Check that challenger's hash is solved using the card type and salt.\n        if (\n            hashCommit(cardType, salt) == commits[msg.sender][challengee].hash && \n            balanceOf(msg.sender, cardType) > 0\n        ){\n            challengerCard = cardType;                                              // If the hash matches, accept the card type as the challenger's card\n        } else if (!commits[msg.sender][challengee].hashStrike) {\n            commits[msg.sender][challengee].hashStrike = true;                      // If the hash doesn't match, strike the hash once,\n            emit ChallengerFailedHashOnce(msg.sender, challengee);                  // and then end the function early\n            return ();\n        } else {\n            emit ChallengerFailedHashTwice(msg.sender, challengee);                 // If the hash doesn't match and has already been struck once,\n            challengerCard = -1;                                                     // Set challengerCard to 0, which indicates a misplay \n        }\n        \n\n        GameResult gameResult;\n        if (balanceOf(msg.sender, challengerCard) < 1)  {challengerCard = -1;}       // Ensure that challenger is in possession of a card of the type they committed\n        if (balanceOf(challengee, challengeeCard) < 1)  {challengeeCard = -1;}       // Ensure that challengee is in possession of a card of the type they committed\n\n        // Determine Winner\n        if      (challengerCard == -1 && challengeeCard == -1)          {gameResult = GameResult.Misplay_Tie;}\n        else if (challengerCard == -1)                                  {gameResult = GameResult.Misplay_Challenger_Loses;}\n        else if (challengeeCard == -1)                                  {gameResult = GameResult.Misplay_Challenger_Wins;}\n        else if (challengerCard == challengeeCard)                      {gameResult = GameResult.Tie;}\n        else if (challengerCard == ROCK && challengeeCard == SCISSORS)  {gameResult = GameResult.Challenger_Wins;}\n        else if (challengerCard == SCISSORS && challengeeCard == PAPER) {gameResult = GameResult.Challenger_Wins;}\n        else if (challengerCard == PAPER && challengeeCard == ROCK)     {gameResult = GameResult.Challenger_Wins;}\n        else if (challengerCard == ROCK && challengeeCard == PAPER)     {gameResult = GameResult.Challenger_Loses;}\n        else if (challengerCard == PAPER && challengeeCard == SCISSORS) {gameResult = GameResult.Challenger_Loses;}\n        else if (challengerCard == SCISSORS && challengeeCard == ROCK)  {gameResult = GameResult.Challenger_Loses;}\n        else {revert InvalidCardCombination();}\n\n        // CARD HANDLING:\n        // If the outcome is legitimate, burn both cards used, otherwise, only burn the legit card.\n        if      (gameResult == GameResult.Misplay_Challenger_Loses)     {decrementCard(challengee, challengeeCard, 1);  emit Misplay(msg.sender, challengerCard);}\n        else if (gameResult == GameResult.Misplay_Challenger_Wins)      {decrementCard(msg.sender, challengerCard, 1);  emit Misplay(challengee, challengeeCard);}\n        else if (gameResult == GameResult.Misplay_Tie)                  {emit Misplay(msg.sender, challengerCard);      emit Misplay(challengee, challengeeCard);}\n        else {\n            decrementCard(msg.sender, challengerCard, 1);\n            decrementCard(challengee, challengeeCard, 1);\n        }\n\n        // STAR HANDLING:\n        // If there's a winner, move one star from loser to winner\n        if (gameResult == GameResult.Challenger_Loses || gameResult == GameResult.Misplay_Challenger_Loses){\n            decrementToken(msg.sender, STAR, 1);\n            incrementToken(challengee, STAR, 1);\n            emit ChallengerLoses(msg.sender, challengerCard, challengee, challengeeCard);\n        }\n        if (gameResult == GameResult.Challenger_Wins || gameResult == GameResult.Misplay_Challenger_Wins){\n            decrementToken(challengee, STAR, 1);\n            incrementToken(msg.sender, STAR, 1);\n            emit ChallengerWins(msg.sender, challengerCard, challengee, challengeeCard);\n        }\n        // If the result is a double misplay, burn one star from both participants.\n        if (gameResult == GameResult.Misplay_Tie) {\n            decrementToken(msg.sender, STAR, 1);\n            decrementToken(challengee, STAR, 1);\n            // Don't emit anything here, as misplay events have already been emitted during the CARD HANDLING step above. \n        }\n        // If the result is a legitimate tie, no stars change hands\n        if (gameResult == GameResult.Tie) {\n            emit Tie(msg.sender, challengerCard, challengee, challengeeCard);\n        }\n\n        // Remove both commits\n        removeCommit(msg.sender, challengee);\n        removeCommit(challengee, msg.sender);\n\n        // Check for Game Over for both players\n        gameOverCheck(msg.sender);\n        gameOverCheck(challengee);\n    }\n\n    function withdrawChallenge(address challengee) public {\n        if (!commits[msg.sender][challengee].exists) {revert NotYetChallenged();}               // Ensure that challenger has challenged challengee\n        if (commits[challengee][msg.sender].exists) {revert OtherPlayerAlreadyCommitted();}     // Ensure no open commit from other player yet exists\n        removeCommit(msg.sender, challengee);                                                   // Remove the commit\n        emit WithdrawnChallengeCommit(msg.sender, challengee);\n    }\n\n    /* \n    After thinking about it, there shouldn't ever be a valid reason to withdraw an open commit.\n    Either the original challenger reveals, or the challengee uses the timeout win.\n    */\n    // function withdrawOpenCommit(address challenger) public {\n    //     if (!commits[msg.sender][challenger].exists) {revert NoOpenCommit();}       // Check that challengee has made an open commit to challenger's challenge\n    //     if (!commits[challenger][msg.sender].exists) {revert NotYetChallenged();}   // Check that challenger has challenged challengee\n    //     removeCommit(challenger, msg.sender);                                       // Remove the open commit\n    //     emit WithdrawnOpenCommit(challenger, msg.sender);\n    // }\n\n    function timeOutWin(address challenger) public {\n        if (!commits[msg.sender][challenger].exists) {revert NoOpenCommit();}       // Check that challengee has made an open commit to challenger's challenge\n        if (!commits[challenger][msg.sender].exists) {revert NotYetChallenged();}   // Check that challenger has challenged challengee\n\n        if (players[challenger] == false){                                          // Check to see if challenger is still in the game. \n            removeCommit(msg.sender, challenger);                                   // If they are not, withdraw the challenge and end function early.\n            removeCommit(challenger, msg.sender);\n            emit OrphanedCommit(msg.sender, challenger);\n            return ();\n        }\n\n        if (commits[msg.sender][challenger].blockNum < (block.number - 1 /*Change this to 5000 for deployment*/)){ // Check if 5000 blocks have elapsed\n            decrementToken(challenger, STAR, 1);                                        // Challenger loses a star\n            incrementToken(msg.sender, STAR, 1);                                        // Challengee gains a star\n            if (balanceOf(msg.sender, commits[msg.sender][challenger].cardType) > 0){   // If challengee has a copy of the card they committed...\n                decrementToken(msg.sender, commits[msg.sender][challenger].cardType, 1);// ... challengee burns their card; challenger does not.\n            }\n            removeCommit(msg.sender, challenger);                                       // Remove the open commit\n            removeCommit(challenger, msg.sender);                                       // Remove the initial commit\n            gameOverCheck(challenger);\n            emit ChallengerLoses(challenger, commits[challenger][msg.sender].cardType, msg.sender, commits[msg.sender][challenger].cardType);\n        }\n    }\n\n    function hashCommit(int8 cardType, string calldata salt) public view returns(bytes32) {\n        if(cardType < 1 || cardType > 3) {revert MustBeRockPaperOrScissors();}\n        return keccak256(abi.encodePacked(msg.sender, cardType, salt));\n    }\n\n    // function contractBalance() public view returns(uint) {\n    //     return(address(this).balance);\n    // }\n\n    function balanceOf(address account, int8 id) public view returns(uint) {\n        return(balances[account][id]);\n    }\n    \n    function balanceOf(address account) public view returns(uint, uint, uint, uint) {\n        return (\n            balanceOf(account, 0),\n            balanceOf(account, 1),\n            balanceOf(account, 2),\n            balanceOf(account, 3)\n        );\n    }\n\n    function balanceOf() public view returns(uint, uint, uint, uint) {\n        return(balanceOf(msg.sender));\n    }\n\n    function totalCards(address player) public view returns (uint) {\n        return(\n            balanceOf(player, ROCK) + \n            balanceOf(player, PAPER) + \n            balanceOf(player, SCISSORS)\n        );\n    }\n\n    // Players can only have one token take request at a time; token take requests ALWAYS send tokens FROM requestee TO requester.\n    // In other words, you can request other players give you their tokens, but you cannot request that other players take yours.\n    function requestTokenTake(address requestee, int8 id, uint8 amount) public {\n        if (players[requestee] == false) {revert PlayerNotFound();}                 // Check that requestee is in the game \n        if (requestee == msg.sender) {revert NoSelfChallenge();}                    // Check that requester and requestee are different accounts\n        if ((balanceOf(requestee, id) - commitCount[requestee]) < amount) {revert InsufficientUncommittedTokens();} // Check for sufficient uncommitted requestee tokens\n        transferRequests[msg.sender].requestee = requestee;                         // Set requestee\n        transferRequests[msg.sender].tokenType = id;                                // Set token type\n        transferRequests[msg.sender].amount = amount;                               // Set amount\n        emit TransferRequest(msg.sender, requestee, id, amount);                       \n    }\n\n    function approveTokenTake(address requestSender) public {\n        if (players[requestSender] == false) {revert PlayerNotFound();}             // Check that requestSender is in the game \n        require(transferRequests[requestSender].requestee == msg.sender, \"No request from that player.\"); // Check that requester's request is to requestee\n\n        if (\n            (balanceOf(msg.sender, transferRequests[requestSender].tokenType) \n            - commitCount[msg.sender]) < transferRequests[requestSender].amount\n            ) {revert InsufficientUncommittedTokens();} // Check for sufficient uncommitted requestee tokens\n\n        incrementToken(requestSender, transferRequests[requestSender].tokenType, transferRequests[requestSender].amount);   // Increment requester's token balance\n        decrementToken(msg.sender, transferRequests[requestSender].tokenType, transferRequests[requestSender].amount);      // Decrement requestee's token balance\n        emit TransferApproved(requestSender, msg.sender, transferRequests[requestSender].tokenType, transferRequests[requestSender].amount); \n        gameOverCheck(msg.sender);\n    }\n}\n",
  "sourcePath": "/home/pierson/Desktop/restricted_rock_paper_scissors/rrps_contracts/contracts/rrps.sol",
  "compiler": {
    "name": "solc",
    "version": "0.8.13+commit.abaa5c0e.Emscripten.clang"
  },
  "schemaVersion": "3.4.16",
  "updatedAt": "2023-10-25T22:19:09.792Z",
  "networkType": "ethereum",
  "devdoc": {
    "kind": "dev",
    "methods": {},
    "version": 1
  },
  "userdoc": {
    "kind": "user",
    "methods": {},
    "version": 1
  }
}