{
  "contractName": "RRPS",
  "abi": [
    {
      "inputs": [],
      "stateMutability": "nonpayable",
      "type": "constructor"
    },
    {
      "anonymous": false,
      "inputs": [
        {
          "indexed": true,
          "internalType": "address",
          "name": "account",
          "type": "address"
        },
        {
          "indexed": true,
          "internalType": "address",
          "name": "operator",
          "type": "address"
        },
        {
          "indexed": false,
          "internalType": "bool",
          "name": "approved",
          "type": "bool"
        }
      ],
      "name": "ApprovalForAll",
      "type": "event"
    },
    {
      "anonymous": false,
      "inputs": [
        {
          "indexed": true,
          "internalType": "address",
          "name": "previousOwner",
          "type": "address"
        },
        {
          "indexed": true,
          "internalType": "address",
          "name": "newOwner",
          "type": "address"
        }
      ],
      "name": "OwnershipTransferred",
      "type": "event"
    },
    {
      "anonymous": false,
      "inputs": [
        {
          "indexed": false,
          "internalType": "address",
          "name": "missingPlayer",
          "type": "address"
        },
        {
          "indexed": false,
          "internalType": "string",
          "name": "message",
          "type": "string"
        }
      ],
      "name": "PlayerNotFound",
      "type": "event"
    },
    {
      "anonymous": false,
      "inputs": [
        {
          "indexed": true,
          "internalType": "address",
          "name": "operator",
          "type": "address"
        },
        {
          "indexed": true,
          "internalType": "address",
          "name": "from",
          "type": "address"
        },
        {
          "indexed": true,
          "internalType": "address",
          "name": "to",
          "type": "address"
        },
        {
          "indexed": false,
          "internalType": "uint256[]",
          "name": "ids",
          "type": "uint256[]"
        },
        {
          "indexed": false,
          "internalType": "uint256[]",
          "name": "values",
          "type": "uint256[]"
        }
      ],
      "name": "TransferBatch",
      "type": "event"
    },
    {
      "anonymous": false,
      "inputs": [
        {
          "indexed": true,
          "internalType": "address",
          "name": "operator",
          "type": "address"
        },
        {
          "indexed": true,
          "internalType": "address",
          "name": "from",
          "type": "address"
        },
        {
          "indexed": true,
          "internalType": "address",
          "name": "to",
          "type": "address"
        },
        {
          "indexed": false,
          "internalType": "uint256",
          "name": "id",
          "type": "uint256"
        },
        {
          "indexed": false,
          "internalType": "uint256",
          "name": "value",
          "type": "uint256"
        }
      ],
      "name": "TransferSingle",
      "type": "event"
    },
    {
      "anonymous": false,
      "inputs": [
        {
          "indexed": false,
          "internalType": "string",
          "name": "value",
          "type": "string"
        },
        {
          "indexed": true,
          "internalType": "uint256",
          "name": "id",
          "type": "uint256"
        }
      ],
      "name": "URI",
      "type": "event"
    },
    {
      "inputs": [],
      "name": "PAPER",
      "outputs": [
        {
          "internalType": "uint256",
          "name": "",
          "type": "uint256"
        }
      ],
      "stateMutability": "view",
      "type": "function"
    },
    {
      "inputs": [],
      "name": "ROCK",
      "outputs": [
        {
          "internalType": "uint256",
          "name": "",
          "type": "uint256"
        }
      ],
      "stateMutability": "view",
      "type": "function"
    },
    {
      "inputs": [],
      "name": "SCISSORS",
      "outputs": [
        {
          "internalType": "uint256",
          "name": "",
          "type": "uint256"
        }
      ],
      "stateMutability": "view",
      "type": "function"
    },
    {
      "inputs": [],
      "name": "STAR",
      "outputs": [
        {
          "internalType": "uint256",
          "name": "",
          "type": "uint256"
        }
      ],
      "stateMutability": "view",
      "type": "function"
    },
    {
      "inputs": [
        {
          "internalType": "address",
          "name": "account",
          "type": "address"
        },
        {
          "internalType": "uint256",
          "name": "id",
          "type": "uint256"
        }
      ],
      "name": "balanceOf",
      "outputs": [
        {
          "internalType": "uint256",
          "name": "",
          "type": "uint256"
        }
      ],
      "stateMutability": "view",
      "type": "function"
    },
    {
      "inputs": [
        {
          "internalType": "string",
          "name": "nickname",
          "type": "string"
        }
      ],
      "name": "balanceOf",
      "outputs": [
        {
          "internalType": "uint256",
          "name": "",
          "type": "uint256"
        },
        {
          "internalType": "uint256",
          "name": "",
          "type": "uint256"
        },
        {
          "internalType": "uint256",
          "name": "",
          "type": "uint256"
        },
        {
          "internalType": "uint256",
          "name": "",
          "type": "uint256"
        }
      ],
      "stateMutability": "view",
      "type": "function"
    },
    {
      "inputs": [
        {
          "internalType": "address",
          "name": "account",
          "type": "address"
        }
      ],
      "name": "balanceOf",
      "outputs": [
        {
          "internalType": "uint256",
          "name": "",
          "type": "uint256"
        },
        {
          "internalType": "uint256",
          "name": "",
          "type": "uint256"
        },
        {
          "internalType": "uint256",
          "name": "",
          "type": "uint256"
        },
        {
          "internalType": "uint256",
          "name": "",
          "type": "uint256"
        }
      ],
      "stateMutability": "view",
      "type": "function"
    },
    {
      "inputs": [],
      "name": "balanceOf",
      "outputs": [
        {
          "internalType": "uint256",
          "name": "",
          "type": "uint256"
        },
        {
          "internalType": "uint256",
          "name": "",
          "type": "uint256"
        },
        {
          "internalType": "uint256",
          "name": "",
          "type": "uint256"
        },
        {
          "internalType": "uint256",
          "name": "",
          "type": "uint256"
        }
      ],
      "stateMutability": "view",
      "type": "function"
    },
    {
      "inputs": [
        {
          "internalType": "address[]",
          "name": "accounts",
          "type": "address[]"
        },
        {
          "internalType": "uint256[]",
          "name": "ids",
          "type": "uint256[]"
        }
      ],
      "name": "balanceOfBatch",
      "outputs": [
        {
          "internalType": "uint256[]",
          "name": "",
          "type": "uint256[]"
        }
      ],
      "stateMutability": "view",
      "type": "function"
    },
    {
      "inputs": [],
      "name": "contractBalance",
      "outputs": [
        {
          "internalType": "uint256",
          "name": "",
          "type": "uint256"
        }
      ],
      "stateMutability": "view",
      "type": "function"
    },
    {
      "inputs": [
        {
          "internalType": "address",
          "name": "account",
          "type": "address"
        },
        {
          "internalType": "address",
          "name": "operator",
          "type": "address"
        }
      ],
      "name": "isApprovedForAll",
      "outputs": [
        {
          "internalType": "bool",
          "name": "",
          "type": "bool"
        }
      ],
      "stateMutability": "view",
      "type": "function"
    },
    {
      "inputs": [],
      "name": "owner",
      "outputs": [
        {
          "internalType": "address",
          "name": "",
          "type": "address"
        }
      ],
      "stateMutability": "view",
      "type": "function"
    },
    {
      "inputs": [],
      "name": "renounceOwnership",
      "outputs": [],
      "stateMutability": "nonpayable",
      "type": "function"
    },
    {
      "inputs": [
        {
          "internalType": "address",
          "name": "operator",
          "type": "address"
        },
        {
          "internalType": "bool",
          "name": "approved",
          "type": "bool"
        }
      ],
      "name": "setApprovalForAll",
      "outputs": [],
      "stateMutability": "nonpayable",
      "type": "function"
    },
    {
      "inputs": [
        {
          "internalType": "bytes4",
          "name": "interfaceId",
          "type": "bytes4"
        }
      ],
      "name": "supportsInterface",
      "outputs": [
        {
          "internalType": "bool",
          "name": "",
          "type": "bool"
        }
      ],
      "stateMutability": "view",
      "type": "function"
    },
    {
      "inputs": [
        {
          "internalType": "address",
          "name": "player",
          "type": "address"
        }
      ],
      "name": "totalCards",
      "outputs": [
        {
          "internalType": "uint256",
          "name": "",
          "type": "uint256"
        }
      ],
      "stateMutability": "view",
      "type": "function"
    },
    {
      "inputs": [
        {
          "internalType": "address",
          "name": "newOwner",
          "type": "address"
        }
      ],
      "name": "transferOwnership",
      "outputs": [],
      "stateMutability": "nonpayable",
      "type": "function"
    },
    {
      "inputs": [
        {
          "internalType": "uint256",
          "name": "",
          "type": "uint256"
        }
      ],
      "name": "uri",
      "outputs": [
        {
          "internalType": "string",
          "name": "",
          "type": "string"
        }
      ],
      "stateMutability": "view",
      "type": "function"
    },
    {
      "inputs": [
        {
          "internalType": "string",
          "name": "nickname",
          "type": "string"
        }
      ],
      "name": "startGame",
      "outputs": [],
      "stateMutability": "nonpayable",
      "type": "function"
    },
    {
      "inputs": [],
      "name": "cashOut",
      "outputs": [],
      "stateMutability": "nonpayable",
      "type": "function"
    },
    {
      "inputs": [
        {
          "internalType": "string",
          "name": "challengeeNickname",
          "type": "string"
        },
        {
          "internalType": "bytes32",
          "name": "hash",
          "type": "bytes32"
        }
      ],
      "name": "challengeCommit",
      "outputs": [],
      "stateMutability": "nonpayable",
      "type": "function"
    },
    {
      "inputs": [
        {
          "internalType": "address",
          "name": "challengee",
          "type": "address"
        },
        {
          "internalType": "bytes32",
          "name": "hash",
          "type": "bytes32"
        }
      ],
      "name": "challengeCommit",
      "outputs": [],
      "stateMutability": "nonpayable",
      "type": "function"
    },
    {
      "inputs": [
        {
          "internalType": "address",
          "name": "challenger",
          "type": "address"
        },
        {
          "internalType": "uint256",
          "name": "cardType",
          "type": "uint256"
        }
      ],
      "name": "openCommit",
      "outputs": [],
      "stateMutability": "nonpayable",
      "type": "function"
    },
    {
      "inputs": [
        {
          "internalType": "string",
          "name": "challengerNickname",
          "type": "string"
        },
        {
          "internalType": "uint256",
          "name": "cardType",
          "type": "uint256"
        }
      ],
      "name": "openCommit",
      "outputs": [],
      "stateMutability": "nonpayable",
      "type": "function"
    },
    {
      "inputs": [
        {
          "internalType": "address",
          "name": "challengee",
          "type": "address"
        },
        {
          "internalType": "uint256",
          "name": "cardType",
          "type": "uint256"
        },
        {
          "internalType": "string",
          "name": "salt",
          "type": "string"
        }
      ],
      "name": "reveal",
      "outputs": [
        {
          "internalType": "string",
          "name": "",
          "type": "string"
        }
      ],
      "stateMutability": "nonpayable",
      "type": "function"
    },
    {
      "inputs": [
        {
          "internalType": "string",
          "name": "challengeeNickname",
          "type": "string"
        },
        {
          "internalType": "uint256",
          "name": "cardType",
          "type": "uint256"
        },
        {
          "internalType": "string",
          "name": "salt",
          "type": "string"
        }
      ],
      "name": "reveal",
      "outputs": [],
      "stateMutability": "nonpayable",
      "type": "function"
    },
    {
      "inputs": [
        {
          "internalType": "address",
          "name": "challengee",
          "type": "address"
        }
      ],
      "name": "withdrawChallenge",
      "outputs": [],
      "stateMutability": "nonpayable",
      "type": "function"
    },
    {
      "inputs": [
        {
          "internalType": "string",
          "name": "challengeeNickname",
          "type": "string"
        }
      ],
      "name": "withdrawChallenge",
      "outputs": [],
      "stateMutability": "nonpayable",
      "type": "function"
    },
    {
      "inputs": [
        {
          "internalType": "string",
          "name": "challengerNickname",
          "type": "string"
        }
      ],
      "name": "withdrawOpenCommit",
      "outputs": [],
      "stateMutability": "nonpayable",
      "type": "function"
    },
    {
      "inputs": [
        {
          "internalType": "address",
          "name": "challenger",
          "type": "address"
        }
      ],
      "name": "withdrawOpenCommit",
      "outputs": [],
      "stateMutability": "nonpayable",
      "type": "function"
    },
    {
      "inputs": [
        {
          "internalType": "uint256",
          "name": "cardType",
          "type": "uint256"
        },
        {
          "internalType": "string",
          "name": "salt",
          "type": "string"
        }
      ],
      "name": "hashCommit",
      "outputs": [
        {
          "internalType": "bytes32",
          "name": "",
          "type": "bytes32"
        }
      ],
      "stateMutability": "view",
      "type": "function"
    },
    {
      "inputs": [
        {
          "internalType": "address",
          "name": "from",
          "type": "address"
        },
        {
          "internalType": "address",
          "name": "to",
          "type": "address"
        },
        {
          "internalType": "uint256",
          "name": "id",
          "type": "uint256"
        },
        {
          "internalType": "uint256",
          "name": "value",
          "type": "uint256"
        },
        {
          "internalType": "bytes",
          "name": "data",
          "type": "bytes"
        }
      ],
      "name": "safeTransferFrom",
      "outputs": [],
      "stateMutability": "pure",
      "type": "function"
    },
    {
      "inputs": [
        {
          "internalType": "address",
          "name": "from",
          "type": "address"
        },
        {
          "internalType": "address",
          "name": "to",
          "type": "address"
        },
        {
          "internalType": "uint256[]",
          "name": "ids",
          "type": "uint256[]"
        },
        {
          "internalType": "uint256[]",
          "name": "values",
          "type": "uint256[]"
        },
        {
          "internalType": "bytes",
          "name": "data",
          "type": "bytes"
        }
      ],
      "name": "safeBatchTransferFrom",
      "outputs": [],
      "stateMutability": "pure",
      "type": "function"
    }
  ],
  "bytecode": "0x60806040523480156200001157600080fd5b506040518060200160405280600081525062000033816200005a60201b60201c565b5062000054620000486200007660201b60201c565b6200007e60201b60201c565b62000258565b80600290805190602001906200007292919062000144565b5050565b600033905090565b6000600360009054906101000a900473ffffffffffffffffffffffffffffffffffffffff16905081600360006101000a81548173ffffffffffffffffffffffffffffffffffffffff021916908373ffffffffffffffffffffffffffffffffffffffff1602179055508173ffffffffffffffffffffffffffffffffffffffff168173ffffffffffffffffffffffffffffffffffffffff167f8be0079c531659141344cd1fd0a4f28419497f9722a3daafe3b4186f6b6457e060405160405180910390a35050565b828054620001529062000223565b90600052602060002090601f016020900481019282620001765760008555620001c2565b82601f106200019157805160ff1916838001178555620001c2565b82800160010185558215620001c2579182015b82811115620001c1578251825591602001919060010190620001a4565b5b509050620001d19190620001d5565b5090565b5b80821115620001f0576000816000905550600101620001d6565b5090565b7f4e487b7100000000000000000000000000000000000000000000000000000000600052602260045260246000fd5b600060028204905060018216806200023c57607f821691505b602082108103620002525762000251620001f4565b5b50919050565b6166a680620002686000396000f3fe608060405234801561001057600080fd5b50600436106101fa5760003560e01c80637ce4f3771161011a578063aa924469116100ad578063c855ad601161007c578063c855ad60146105b6578063d542c4d5146105d2578063e985e9c5146105ee578063f242432a1461061e578063f2fde38b1461063a576101fa565b8063aa9244691461052c578063b357a0281461055c578063b93e0e391461057a578063c44d6f8714610598576101fa565b806397cd77dd116100e957806397cd77dd146104a6578063a22cb465146104c2578063a350d580146104de578063a4d89e771461050e576101fa565b80637ce4f3771461043257806389ce0c381461044e5780638b7afe2e1461046a5780638da5cb5b14610488576101fa565b80632eb2c2d61161019257806370a082311161016157806370a08231146103ca578063715018a6146103fd578063722713f714610407578063793cd71e14610428576101fa565b80632eb2c2d61461032f578063332774ef1461034b57806335ee5f87146103675780634e1273f41461039a576101fa565b80630c2929a3116101ce5780630c2929a3146102975780630e89341c146102c757806314d7d46d146102f75780632cd77d4c14610313576101fa565b8062fdd58e146101ff57806301ffc9a71461022f57806305d0735e1461025f57806309748bf01461027b575b600080fd5b61021960048036038101906102149190614052565b610656565b60405161022691906140a1565b60405180910390f35b61024960048036038101906102449190614114565b61071e565b604051610256919061415c565b60405180910390f35b610279600480360381019061027491906142bd565b610800565b005b61029560048036038101906102909190614052565b61084a565b005b6102b160048036038101906102ac9190614366565b610e73565b6040516102be9190614462565b60405180910390f35b6102e160048036038101906102dc9190614484565b611b3c565b6040516102ee9190614462565b60405180910390f35b610311600480360381019061030c91906144b1565b611bd0565b005b61032d600480360381019061032891906144b1565b611d7f565b005b61034960048036038101906103449190614642565b611fcb565b005b61036560048036038101906103609190614747565b612006565b005b610381600480360381019061037c91906142bd565b6120ff565b60405161039194939291906147a3565b60405180910390f35b6103b460048036038101906103af91906148ab565b61215b565b6040516103c191906149e1565b60405180910390f35b6103e460048036038101906103df91906144b1565b612274565b6040516103f494939291906147a3565b60405180910390f35b6104056122b5565b005b61040f6122c9565b60405161041f94939291906147a3565b60405180910390f35b6104306122e6565b005b61044c600480360381019061044791906142bd565b612481565b005b61046860048036038101906104639190614a03565b6124cb565b005b6104726125c4565b60405161047f91906140a1565b60405180910390f35b6104906125cc565b60405161049d9190614a6e565b60405180910390f35b6104c060048036038101906104bb9190614a89565b6125f6565b005b6104dc60048036038101906104d79190614b45565b6126f4565b005b6104f860048036038101906104f391906144b1565b61270a565b60405161050591906140a1565b60405180910390f35b610516612748565b60405161052391906140a1565b60405180910390f35b61054660048036038101906105419190614b85565b61274d565b6040516105539190614bf4565b60405180910390f35b6105646127d3565b60405161057191906140a1565b60405180910390f35b6105826127d8565b60405161058f91906140a1565b60405180910390f35b6105a06127dd565b6040516105ad91906140a1565b60405180910390f35b6105d060048036038101906105cb9190614c0f565b6127e2565b005b6105ec60048036038101906105e791906142bd565b612f4b565b005b61060860048036038101906106039190614c4f565b61320b565b604051610615919061415c565b60405180910390f35b61063860048036038101906106339190614c8f565b61329f565b005b610654600480360381019061064f91906144b1565b6132da565b005b60008073ffffffffffffffffffffffffffffffffffffffff168373ffffffffffffffffffffffffffffffffffffffff16036106c6576040517f08c379a00000000000000000000000000000000000000000000000000000000081526004016106bd90614d98565b60405180910390fd5b60008083815260200190815260200160002060008473ffffffffffffffffffffffffffffffffffffffff1673ffffffffffffffffffffffffffffffffffffffff16815260200190815260200160002054905092915050565b60007fd9b67a26000000000000000000000000000000000000000000000000000000007bffffffffffffffffffffffffffffffffffffffffffffffffffffffff1916827bffffffffffffffffffffffffffffffffffffffffffffffffffffffff191614806107e957507f0e89341c000000000000000000000000000000000000000000000000000000007bffffffffffffffffffffffffffffffffffffffffffffffffffffffff1916827bffffffffffffffffffffffffffffffffffffffffffffffffffffffff1916145b806107f957506107f88261335d565b5b9050919050565b6108476005826040516108139190614df4565b908152602001604051809103902060009054906101000a900473ffffffffffffffffffffffffffffffffffffffff16611bd0565b50565b600760008373ffffffffffffffffffffffffffffffffffffffff1673ffffffffffffffffffffffffffffffffffffffff16815260200190815260200160002060003373ffffffffffffffffffffffffffffffffffffffff1673ffffffffffffffffffffffffffffffffffffffff16815260200190815260200160002060020160009054906101000a900460ff166108e057600080fd5b60001515600460008473ffffffffffffffffffffffffffffffffffffffff1673ffffffffffffffffffffffffffffffffffffffff16815260200190815260200160002060009054906101000a900460ff16151503610a2f57600760008373ffffffffffffffffffffffffffffffffffffffff1673ffffffffffffffffffffffffffffffffffffffff16815260200190815260200160002060003373ffffffffffffffffffffffffffffffffffffffff1673ffffffffffffffffffffffffffffffffffffffff16815260200190815260200160002060008082016000905560018201600090556002820160006101000a81549060ff02191690556002820160016101000a81549060ff0219169055600382016000905550507f62689bd641651e7db089088672eb8082a888114eee2c01c8e7bf04f2b5b7b3ea82604051610a269190614e7d565b60405180910390a15b600081118015610a3f5750600481105b610a7e576040517f08c379a0000000000000000000000000000000000000000000000000000000008152600401610a7590614f43565b60405180910390fd5b8173ffffffffffffffffffffffffffffffffffffffff163373ffffffffffffffffffffffffffffffffffffffff1603610aec576040517f08c379a0000000000000000000000000000000000000000000000000000000008152600401610ae390614faf565b60405180910390fd5b6000610af9336000610656565b11610b39576040517f08c379a0000000000000000000000000000000000000000000000000000000008152600401610b3090615041565b60405180910390fd5b6000610b443361270a565b11610b84576040517f08c379a0000000000000000000000000000000000000000000000000000000008152600401610b7b906150d3565b60405180910390fd5b6000600860003373ffffffffffffffffffffffffffffffffffffffff1673ffffffffffffffffffffffffffffffffffffffff16815260200190815260200160002054610bcf3361270a565b610bd99190615122565b11610c19576040517f08c379a0000000000000000000000000000000000000000000000000000000008152600401610c10906151ee565b60405180910390fd5b6000600860003373ffffffffffffffffffffffffffffffffffffffff1673ffffffffffffffffffffffffffffffffffffffff16815260200190815260200160002054610c66336000610656565b610c709190615122565b11610cb0576040517f08c379a0000000000000000000000000000000000000000000000000000000008152600401610ca7906152a6565b60405180910390fd5b6000610cbc3383610656565b11610cfc576040517f08c379a0000000000000000000000000000000000000000000000000000000008152600401610cf39061535e565b60405180910390fd5b80600760003373ffffffffffffffffffffffffffffffffffffffff1673ffffffffffffffffffffffffffffffffffffffff16815260200190815260200160002060008473ffffffffffffffffffffffffffffffffffffffff1673ffffffffffffffffffffffffffffffffffffffff168152602001908152602001600020600101819055506001600760003373ffffffffffffffffffffffffffffffffffffffff1673ffffffffffffffffffffffffffffffffffffffff16815260200190815260200160002060008473ffffffffffffffffffffffffffffffffffffffff1673ffffffffffffffffffffffffffffffffffffffff16815260200190815260200160002060020160006101000a81548160ff0219169083151502179055506001600860003373ffffffffffffffffffffffffffffffffffffffff1673ffffffffffffffffffffffffffffffffffffffff1681526020019081526020016000206000828254610e68919061537e565b925050819055505050565b6060600084118015610e855750600484105b610ec4576040517f08c379a0000000000000000000000000000000000000000000000000000000008152600401610ebb90614f43565b60405180910390fd5b600760003373ffffffffffffffffffffffffffffffffffffffff1673ffffffffffffffffffffffffffffffffffffffff16815260200190815260200160002060008673ffffffffffffffffffffffffffffffffffffffff1673ffffffffffffffffffffffffffffffffffffffff16815260200190815260200160002060020160009054906101000a900460ff16610f90576040517f08c379a0000000000000000000000000000000000000000000000000000000008152600401610f8790615446565b60405180910390fd5b600760008673ffffffffffffffffffffffffffffffffffffffff1673ffffffffffffffffffffffffffffffffffffffff16815260200190815260200160002060003373ffffffffffffffffffffffffffffffffffffffff1673ffffffffffffffffffffffffffffffffffffffff16815260200190815260200160002060020160009054906101000a900460ff1661105c576040517f08c379a0000000000000000000000000000000000000000000000000000000008152600401611053906154d8565b60405180910390fd5b60001515600460008773ffffffffffffffffffffffffffffffffffffffff1673ffffffffffffffffffffffffffffffffffffffff16815260200190815260200160002060009054906101000a900460ff1615150361126a57600760008673ffffffffffffffffffffffffffffffffffffffff1673ffffffffffffffffffffffffffffffffffffffff16815260200190815260200160002060003373ffffffffffffffffffffffffffffffffffffffff1673ffffffffffffffffffffffffffffffffffffffff16815260200190815260200160002060008082016000905560018201600090556002820160006101000a81549060ff02191690556002820160016101000a81549060ff021916905560038201600090555050600760003373ffffffffffffffffffffffffffffffffffffffff1673ffffffffffffffffffffffffffffffffffffffff16815260200190815260200160002060008673ffffffffffffffffffffffffffffffffffffffff1673ffffffffffffffffffffffffffffffffffffffff16815260200190815260200160002060008082016000905560018201600090556002820160006101000a81549060ff02191690556002820160016101000a81549060ff0219169055600382016000905550507f62689bd641651e7db089088672eb8082a888114eee2c01c8e7bf04f2b5b7b3ea856040516112619190614e7d565b60405180910390a15b8473ffffffffffffffffffffffffffffffffffffffff163373ffffffffffffffffffffffffffffffffffffffff16036112d8576040517f08c379a00000000000000000000000000000000000000000000000000000000081526004016112cf9061556a565b60405180910390fd5b6000600760003373ffffffffffffffffffffffffffffffffffffffff1673ffffffffffffffffffffffffffffffffffffffff16815260200190815260200160002060008773ffffffffffffffffffffffffffffffffffffffff1673ffffffffffffffffffffffffffffffffffffffff1681526020019081526020016000206000015461136586868661274d565b14801561137b575060006113793387610656565b115b15611388578490506114d7565b600760003373ffffffffffffffffffffffffffffffffffffffff1673ffffffffffffffffffffffffffffffffffffffff16815260200190815260200160002060008773ffffffffffffffffffffffffffffffffffffffff1673ffffffffffffffffffffffffffffffffffffffff16815260200190815260200160002060020160019054906101000a900460ff166114d2576001600760003373ffffffffffffffffffffffffffffffffffffffff1673ffffffffffffffffffffffffffffffffffffffff16815260200190815260200160002060008873ffffffffffffffffffffffffffffffffffffffff1673ffffffffffffffffffffffffffffffffffffffff16815260200190815260200160002060020160016101000a81548160ff0219169083151502179055506040518060c00160405280609f81526020016165d2609f9139915050611b34565b600090505b6000600760008873ffffffffffffffffffffffffffffffffffffffff1673ffffffffffffffffffffffffffffffffffffffff16815260200190815260200160002060003373ffffffffffffffffffffffffffffffffffffffff1673ffffffffffffffffffffffffffffffffffffffff168152602001908152602001600020600101549050600060016115693385610656565b101561157457600092505b60016115808984610656565b101561158b57600091505b60008314801561159b5750600082145b156115a957600490506116d3565b600083036115ba57600390506116d2565b600082036115cb57600590506116d1565b8183036115db57600190506116d0565b6001831480156115eb5750600382145b156115f957600290506116cf565b6003831480156116095750600282145b1561161757600290506116ce565b6002831480156116275750600182145b1561163557600290506116cd565b6001831480156116455750600282145b1561165357600090506116cc565b6002831480156116635750600382145b1561167157600090506116cb565b6003831480156116815750600182145b1561168f57600090506116ca565b6040517f08c379a00000000000000000000000000000000000000000000000000000000081526004016116c1906155fc565b60405180910390fd5b5b5b5b5b5b5b5b5b5b600360058111156116e7576116e661561c565b5b8160058111156116fa576116f961561c565b5b036117105761170b888360016133c7565b611766565b6005808111156117235761172261561c565b5b8160058111156117365761173561561c565b5b0361174c57611747338460016133c7565b611765565b611758338460016133c7565b611764888360016133c7565b5b5b6000600581111561177a5761177961561c565b5b81600581111561178d5761178c61561c565b5b14806117bd5750600360058111156117a8576117a761561c565b5b8160058111156117bb576117ba61561c565b5b145b156117ed576117cf33600060016133c7565b6117ec88600060016040518060200160405280600081525061360d565b5b600260058111156118015761180061561c565b5b8160058111156118145761181361561c565b5b1480611843575060058081111561182e5761182d61561c565b5b8160058111156118415761184061561c565b5b145b156118735761185588600060016133c7565b61187233600060016040518060200160405280600081525061360d565b5b600460058111156118875761188661561c565b5b81600581111561189a5761189961561c565b5b036118ba576118ac33600060016133c7565b6118b988600060016133c7565b5b600760003373ffffffffffffffffffffffffffffffffffffffff1673ffffffffffffffffffffffffffffffffffffffff16815260200190815260200160002060008973ffffffffffffffffffffffffffffffffffffffff1673ffffffffffffffffffffffffffffffffffffffff16815260200190815260200160002060008082016000905560018201600090556002820160006101000a81549060ff02191690556002820160016101000a81549060ff021916905560038201600090555050600760008973ffffffffffffffffffffffffffffffffffffffff1673ffffffffffffffffffffffffffffffffffffffff16815260200190815260200160002060003373ffffffffffffffffffffffffffffffffffffffff1673ffffffffffffffffffffffffffffffffffffffff16815260200190815260200160002060008082016000905560018201600090556002820160006101000a81549060ff02191690556002820160016101000a81549060ff0219169055600382016000905550506001600860003373ffffffffffffffffffffffffffffffffffffffff1673ffffffffffffffffffffffffffffffffffffffff1681526020019081526020016000206000828254611a889190615122565b925050819055506001600860008a73ffffffffffffffffffffffffffffffffffffffff1673ffffffffffffffffffffffffffffffffffffffff1681526020019081526020016000206000828254611adf9190615122565b92505081905550611aef3361361f565b611af88861361f565b6040518060400160405280600f81526020017f4d6174636820636f6d706c65746521000000000000000000000000000000000081525093505050505b949350505050565b606060028054611b4b9061567a565b80601f0160208091040260200160405190810160405280929190818152602001828054611b779061567a565b8015611bc45780601f10611b9957610100808354040283529160200191611bc4565b820191906000526020600020905b815481529060010190602001808311611ba757829003601f168201915b50505050509050919050565b600760003373ffffffffffffffffffffffffffffffffffffffff1673ffffffffffffffffffffffffffffffffffffffff16815260200190815260200160002060008273ffffffffffffffffffffffffffffffffffffffff1673ffffffffffffffffffffffffffffffffffffffff16815260200190815260200160002060020160009054906101000a900460ff16611c6657600080fd5b600760003373ffffffffffffffffffffffffffffffffffffffff1673ffffffffffffffffffffffffffffffffffffffff16815260200190815260200160002060008273ffffffffffffffffffffffffffffffffffffffff1673ffffffffffffffffffffffffffffffffffffffff16815260200190815260200160002060008082016000905560018201600090556002820160006101000a81549060ff02191690556002820160016101000a81549060ff0219169055600382016000905550506001600860003373ffffffffffffffffffffffffffffffffffffffff1673ffffffffffffffffffffffffffffffffffffffff1681526020019081526020016000206000828254611d759190615122565b9250508190555050565b600760003373ffffffffffffffffffffffffffffffffffffffff1673ffffffffffffffffffffffffffffffffffffffff16815260200190815260200160002060008273ffffffffffffffffffffffffffffffffffffffff1673ffffffffffffffffffffffffffffffffffffffff16815260200190815260200160002060020160009054906101000a900460ff16611e1557600080fd5b60001515600760008373ffffffffffffffffffffffffffffffffffffffff1673ffffffffffffffffffffffffffffffffffffffff16815260200190815260200160002060003373ffffffffffffffffffffffffffffffffffffffff1673ffffffffffffffffffffffffffffffffffffffff16815260200190815260200160002060020160009054906101000a900460ff16151514611eb257600080fd5b600760003373ffffffffffffffffffffffffffffffffffffffff1673ffffffffffffffffffffffffffffffffffffffff16815260200190815260200160002060008273ffffffffffffffffffffffffffffffffffffffff1673ffffffffffffffffffffffffffffffffffffffff16815260200190815260200160002060008082016000905560018201600090556002820160006101000a81549060ff02191690556002820160016101000a81549060ff0219169055600382016000905550506001600860003373ffffffffffffffffffffffffffffffffffffffff1673ffffffffffffffffffffffffffffffffffffffff1681526020019081526020016000206000828254611fc19190615122565b9250508190555050565b6040517f08c379a0000000000000000000000000000000000000000000000000000000008152600401611ffd9061571d565b60405180910390fd5b600073ffffffffffffffffffffffffffffffffffffffff1660058360405161202e9190614df4565b908152602001604051809103902060009054906101000a900473ffffffffffffffffffffffffffffffffffffffff1673ffffffffffffffffffffffffffffffffffffffff16036120b3576040517f08c379a00000000000000000000000000000000000000000000000000000000081526004016120aa906157af565b60405180910390fd5b6120fb6005836040516120c69190614df4565b908152602001604051809103902060009054906101000a900473ffffffffffffffffffffffffffffffffffffffff16826127e2565b5050565b60008060008061214c6005866040516121189190614df4565b908152602001604051809103902060009054906101000a900473ffffffffffffffffffffffffffffffffffffffff16612274565b93509350935093509193509193565b606081518351146121a1576040517f08c379a000000000000000000000000000000000000000000000000000000000815260040161219890615841565b60405180910390fd5b6000835167ffffffffffffffff8111156121be576121bd614192565b5b6040519080825280602002602001820160405280156121ec5781602001602082028036833780820191505090505b50905060005b84518110156122695761223985828151811061221157612210615861565b5b602002602001015185838151811061222c5761222b615861565b5b6020026020010151610656565b82828151811061224c5761224b615861565b5b6020026020010181815250508061226290615890565b90506121f2565b508091505092915050565b600080600080612285856000610656565b612290866001610656565b61229b876002610656565b6122a6886003610656565b93509350935093509193509193565b6122bd61381b565b6122c76000613899565b565b6000806000806122d833612274565b935093509350935090919293565b60016122f13361270a565b106122fb57600080fd5b6002612308336000610656565b1161231257600080fd5b612328336000612323336000610656565b6133c7565b60006005600660003373ffffffffffffffffffffffffffffffffffffffff1673ffffffffffffffffffffffffffffffffffffffff168152602001908152602001600020604051612378919061596c565b908152602001604051809103902060006101000a81548173ffffffffffffffffffffffffffffffffffffffff021916908373ffffffffffffffffffffffffffffffffffffffff16021790555060405180602001604052806000815250600660003373ffffffffffffffffffffffffffffffffffffffff1673ffffffffffffffffffffffffffffffffffffffff1681526020019081526020016000209080519060200190612426929190613f07565b506000600460003373ffffffffffffffffffffffffffffffffffffffff1673ffffffffffffffffffffffffffffffffffffffff16815260200190815260200160002060006101000a81548160ff021916908315150217905550565b6124c86005826040516124949190614df4565b908152602001604051809103902060009054906101000a900473ffffffffffffffffffffffffffffffffffffffff16611d7f565b50565b600073ffffffffffffffffffffffffffffffffffffffff166005836040516124f39190614df4565b908152602001604051809103902060009054906101000a900473ffffffffffffffffffffffffffffffffffffffff1673ffffffffffffffffffffffffffffffffffffffff1603612578576040517f08c379a000000000000000000000000000000000000000000000000000000000815260040161256f906157af565b60405180910390fd5b6125c060058360405161258b9190614df4565b908152602001604051809103902060009054906101000a900473ffffffffffffffffffffffffffffffffffffffff168261084a565b5050565b600047905090565b6000600360009054906101000a900473ffffffffffffffffffffffffffffffffffffffff16905090565b600073ffffffffffffffffffffffffffffffffffffffff1660058560405161261e9190614df4565b908152602001604051809103902060009054906101000a900473ffffffffffffffffffffffffffffffffffffffff1673ffffffffffffffffffffffffffffffffffffffff16036126a3576040517f08c379a000000000000000000000000000000000000000000000000000000000815260040161269a906157af565b60405180910390fd5b6126ed6005856040516126b69190614df4565b908152602001604051809103902060009054906101000a900473ffffffffffffffffffffffffffffffffffffffff16848484610e73565b5050505050565b6127066126ff61395f565b8383613967565b5050565b6000612717826003610656565b612722836002610656565b61272d846001610656565b612737919061537e565b612741919061537e565b9050919050565b600081565b6000808411801561275e5750600484105b61279d576040517f08c379a0000000000000000000000000000000000000000000000000000000008152600401612794906159f5565b60405180910390fd5b338484846040516020016127b49493929190615aa3565b6040516020818303038152906040528051906020012090509392505050565b600381565b600181565b600281565b600460008373ffffffffffffffffffffffffffffffffffffffff1673ffffffffffffffffffffffffffffffffffffffff16815260200190815260200160002060009054906101000a900460ff1661283857600080fd5b8173ffffffffffffffffffffffffffffffffffffffff163373ffffffffffffffffffffffffffffffffffffffff16036128a6576040517f08c379a000000000000000000000000000000000000000000000000000000000815260040161289d90614faf565b60405180910390fd5b60006128b3336000610656565b116128f3576040517f08c379a00000000000000000000000000000000000000000000000000000000081526004016128ea90615041565b60405180910390fd5b60006128fe3361270a565b1161293e576040517f08c379a0000000000000000000000000000000000000000000000000000000008152600401612935906150d3565b60405180910390fd5b600061294b836000610656565b1161298b576040517f08c379a000000000000000000000000000000000000000000000000000000000815260040161298290615b50565b60405180910390fd5b60006129968361270a565b116129d6576040517f08c379a00000000000000000000000000000000000000000000000000000000081526004016129cd90615be2565b60405180910390fd5b6000600860003373ffffffffffffffffffffffffffffffffffffffff1673ffffffffffffffffffffffffffffffffffffffff16815260200190815260200160002054612a213361270a565b612a2b9190615122565b11612a6b576040517f08c379a0000000000000000000000000000000000000000000000000000000008152600401612a62906151ee565b60405180910390fd5b6000600860003373ffffffffffffffffffffffffffffffffffffffff1673ffffffffffffffffffffffffffffffffffffffff16815260200190815260200160002054612ab8336000610656565b612ac29190615122565b11612b02576040517f08c379a0000000000000000000000000000000000000000000000000000000008152600401612af9906152a6565b60405180910390fd5b6000600860008473ffffffffffffffffffffffffffffffffffffffff1673ffffffffffffffffffffffffffffffffffffffff16815260200190815260200160002054612b4d8461270a565b612b579190615122565b11612b97576040517f08c379a0000000000000000000000000000000000000000000000000000000008152600401612b8e90615c74565b60405180910390fd5b6000600860008473ffffffffffffffffffffffffffffffffffffffff1673ffffffffffffffffffffffffffffffffffffffff16815260200190815260200160002054612be4846000610656565b612bee9190615122565b11612c2e576040517f08c379a0000000000000000000000000000000000000000000000000000000008152600401612c2590615d06565b60405180910390fd5b60001515600760008473ffffffffffffffffffffffffffffffffffffffff1673ffffffffffffffffffffffffffffffffffffffff16815260200190815260200160002060003373ffffffffffffffffffffffffffffffffffffffff1673ffffffffffffffffffffffffffffffffffffffff16815260200190815260200160002060020160009054906101000a900460ff16151514612d01576040517f08c379a0000000000000000000000000000000000000000000000000000000008152600401612cf890615d98565b60405180910390fd5b60001515600760003373ffffffffffffffffffffffffffffffffffffffff1673ffffffffffffffffffffffffffffffffffffffff16815260200190815260200160002060008473ffffffffffffffffffffffffffffffffffffffff1673ffffffffffffffffffffffffffffffffffffffff16815260200190815260200160002060020160009054906101000a900460ff16151514612dd4576040517f08c379a0000000000000000000000000000000000000000000000000000000008152600401612dcb90615e2a565b60405180910390fd5b80600760003373ffffffffffffffffffffffffffffffffffffffff1673ffffffffffffffffffffffffffffffffffffffff16815260200190815260200160002060008473ffffffffffffffffffffffffffffffffffffffff1673ffffffffffffffffffffffffffffffffffffffff168152602001908152602001600020600001819055506001600760003373ffffffffffffffffffffffffffffffffffffffff1673ffffffffffffffffffffffffffffffffffffffff16815260200190815260200160002060008473ffffffffffffffffffffffffffffffffffffffff1673ffffffffffffffffffffffffffffffffffffffff16815260200190815260200160002060020160006101000a81548160ff0219169083151502179055506001600860003373ffffffffffffffffffffffffffffffffffffffff1673ffffffffffffffffffffffffffffffffffffffff1681526020019081526020016000206000828254612f40919061537e565b925050819055505050565b600073ffffffffffffffffffffffffffffffffffffffff16600582604051612f739190614df4565b908152602001604051809103902060009054906101000a900473ffffffffffffffffffffffffffffffffffffffff1673ffffffffffffffffffffffffffffffffffffffff1614612ff8576040517f08c379a0000000000000000000000000000000000000000000000000000000008152600401612fef90615e96565b60405180910390fd5b60001515600460003373ffffffffffffffffffffffffffffffffffffffff1673ffffffffffffffffffffffffffffffffffffffff16815260200190815260200160002060009054906101000a900460ff1615151461308b576040517f08c379a000000000000000000000000000000000000000000000000000000000815260040161308290615f02565b60405180910390fd5b6001600460003373ffffffffffffffffffffffffffffffffffffffff1673ffffffffffffffffffffffffffffffffffffffff16815260200190815260200160002060006101000a81548160ff021916908315150217905550336005826040516130f49190614df4565b908152602001604051809103902060006101000a81548173ffffffffffffffffffffffffffffffffffffffff021916908373ffffffffffffffffffffffffffffffffffffffff16021790555080600660003373ffffffffffffffffffffffffffffffffffffffff1673ffffffffffffffffffffffffffffffffffffffff1681526020019081526020016000209080519060200190613193929190613f07565b506131b133600160046040518060200160405280600081525061360d565b6131ce33600260046040518060200160405280600081525061360d565b6131eb33600360046040518060200160405280600081525061360d565b61320833600060036040518060200160405280600081525061360d565b50565b6000600160008473ffffffffffffffffffffffffffffffffffffffff1673ffffffffffffffffffffffffffffffffffffffff16815260200190815260200160002060008373ffffffffffffffffffffffffffffffffffffffff1673ffffffffffffffffffffffffffffffffffffffff16815260200190815260200160002060009054906101000a900460ff16905092915050565b6040517f08c379a00000000000000000000000000000000000000000000000000000000081526004016132d19061571d565b60405180910390fd5b6132e261381b565b600073ffffffffffffffffffffffffffffffffffffffff168173ffffffffffffffffffffffffffffffffffffffff1603613351576040517f08c379a000000000000000000000000000000000000000000000000000000000815260040161334890615f94565b60405180910390fd5b61335a81613899565b50565b60007f01ffc9a7000000000000000000000000000000000000000000000000000000007bffffffffffffffffffffffffffffffffffffffffffffffffffffffff1916827bffffffffffffffffffffffffffffffffffffffffffffffffffffffff1916149050919050565b600073ffffffffffffffffffffffffffffffffffffffff168373ffffffffffffffffffffffffffffffffffffffff1603613436576040517f08c379a000000000000000000000000000000000000000000000000000000000815260040161342d90616026565b60405180910390fd5b600061344061395f565b9050600061344d84613ad3565b9050600061345a84613ad3565b905061347a83876000858560405180602001604052806000815250613b4d565b600080600087815260200190815260200160002060008873ffffffffffffffffffffffffffffffffffffffff1673ffffffffffffffffffffffffffffffffffffffff16815260200190815260200160002054905084811015613511576040517f08c379a0000000000000000000000000000000000000000000000000000000008152600401613508906160b8565b60405180910390fd5b84810360008088815260200190815260200160002060008973ffffffffffffffffffffffffffffffffffffffff1673ffffffffffffffffffffffffffffffffffffffff16815260200190815260200160002081905550600073ffffffffffffffffffffffffffffffffffffffff168773ffffffffffffffffffffffffffffffffffffffff168573ffffffffffffffffffffffffffffffffffffffff167fc3d58168c5ae7397731d063d5bbf3d657854427343f4c083240f7aacaa2d0f6289896040516135de9291906160d8565b60405180910390a461360484886000868660405180602001604052806000815250613b55565b50505050505050565b61361984848484613b5d565b50505050565b600061362c826000610656565b0361381857600061363e826000610656565b1461367e576040517f08c379a00000000000000000000000000000000000000000000000000000000081526004016136759061614d565b60405180910390fd5b61369481600161368f846001610656565b6133c7565b6136aa8160026136a5846002610656565b6133c7565b6136c08160036136bb846003610656565b6133c7565b60006005600660008473ffffffffffffffffffffffffffffffffffffffff1673ffffffffffffffffffffffffffffffffffffffff168152602001908152602001600020604051613710919061596c565b908152602001604051809103902060006101000a81548173ffffffffffffffffffffffffffffffffffffffff021916908373ffffffffffffffffffffffffffffffffffffffff16021790555060405180602001604052806000815250600660008373ffffffffffffffffffffffffffffffffffffffff1673ffffffffffffffffffffffffffffffffffffffff16815260200190815260200160002090805190602001906137be929190613f07565b506000600460008373ffffffffffffffffffffffffffffffffffffffff1673ffffffffffffffffffffffffffffffffffffffff16815260200190815260200160002060006101000a81548160ff0219169083151502179055505b50565b61382361395f565b73ffffffffffffffffffffffffffffffffffffffff166138416125cc565b73ffffffffffffffffffffffffffffffffffffffff1614613897576040517f08c379a000000000000000000000000000000000000000000000000000000000815260040161388e906161b9565b60405180910390fd5b565b6000600360009054906101000a900473ffffffffffffffffffffffffffffffffffffffff16905081600360006101000a81548173ffffffffffffffffffffffffffffffffffffffff021916908373ffffffffffffffffffffffffffffffffffffffff1602179055508173ffffffffffffffffffffffffffffffffffffffff168173ffffffffffffffffffffffffffffffffffffffff167f8be0079c531659141344cd1fd0a4f28419497f9722a3daafe3b4186f6b6457e060405160405180910390a35050565b600033905090565b8173ffffffffffffffffffffffffffffffffffffffff168373ffffffffffffffffffffffffffffffffffffffff16036139d5576040517f08c379a00000000000000000000000000000000000000000000000000000000081526004016139cc9061624b565b60405180910390fd5b80600160008573ffffffffffffffffffffffffffffffffffffffff1673ffffffffffffffffffffffffffffffffffffffff16815260200190815260200160002060008473ffffffffffffffffffffffffffffffffffffffff1673ffffffffffffffffffffffffffffffffffffffff16815260200190815260200160002060006101000a81548160ff0219169083151502179055508173ffffffffffffffffffffffffffffffffffffffff168373ffffffffffffffffffffffffffffffffffffffff167f17307eab39ab6107e8899845ad3d59bd9653f200f220920489ca2b5937696c3183604051613ac6919061415c565b60405180910390a3505050565b60606000600167ffffffffffffffff811115613af257613af1614192565b5b604051908082528060200260200182016040528015613b205781602001602082028036833780820191505090505b5090508281600081518110613b3857613b37615861565b5b60200260200101818152505080915050919050565b505050505050565b505050505050565b600073ffffffffffffffffffffffffffffffffffffffff168473ffffffffffffffffffffffffffffffffffffffff1603613bcc576040517f08c379a0000000000000000000000000000000000000000000000000000000008152600401613bc3906162dd565b60405180910390fd5b6000613bd661395f565b90506000613be385613ad3565b90506000613bf085613ad3565b9050613c0183600089858589613b4d565b8460008088815260200190815260200160002060008973ffffffffffffffffffffffffffffffffffffffff1673ffffffffffffffffffffffffffffffffffffffff1681526020019081526020016000206000828254613c60919061537e565b925050819055508673ffffffffffffffffffffffffffffffffffffffff16600073ffffffffffffffffffffffffffffffffffffffff168473ffffffffffffffffffffffffffffffffffffffff167fc3d58168c5ae7397731d063d5bbf3d657854427343f4c083240f7aacaa2d0f628989604051613cde9291906160d8565b60405180910390a4613cf583600089858589613b55565b613d0483600089898989613d0d565b50505050505050565b613d2c8473ffffffffffffffffffffffffffffffffffffffff16613ee4565b15613edc578373ffffffffffffffffffffffffffffffffffffffff1663f23a6e6187878686866040518663ffffffff1660e01b8152600401613d72959493929190616352565b6020604051808303816000875af1925050508015613dae57506040513d601f19601f82011682018060405250810190613dab91906163c1565b60015b613e5357613dba6163fb565b806308c379a003613e165750613dce61641d565b80613dd95750613e18565b806040517f08c379a0000000000000000000000000000000000000000000000000000000008152600401613e0d9190614462565b60405180910390fd5b505b6040517f08c379a0000000000000000000000000000000000000000000000000000000008152600401613e4a9061651f565b60405180910390fd5b63f23a6e6160e01b7bffffffffffffffffffffffffffffffffffffffffffffffffffffffff1916817bffffffffffffffffffffffffffffffffffffffffffffffffffffffff191614613eda576040517f08c379a0000000000000000000000000000000000000000000000000000000008152600401613ed1906165b1565b60405180910390fd5b505b505050505050565b6000808273ffffffffffffffffffffffffffffffffffffffff163b119050919050565b828054613f139061567a565b90600052602060002090601f016020900481019282613f355760008555613f7c565b82601f10613f4e57805160ff1916838001178555613f7c565b82800160010185558215613f7c579182015b82811115613f7b578251825591602001919060010190613f60565b5b509050613f899190613f8d565b5090565b5b80821115613fa6576000816000905550600101613f8e565b5090565b6000604051905090565b600080fd5b600080fd5b600073ffffffffffffffffffffffffffffffffffffffff82169050919050565b6000613fe982613fbe565b9050919050565b613ff981613fde565b811461400457600080fd5b50565b60008135905061401681613ff0565b92915050565b6000819050919050565b61402f8161401c565b811461403a57600080fd5b50565b60008135905061404c81614026565b92915050565b6000806040838503121561406957614068613fb4565b5b600061407785828601614007565b92505060206140888582860161403d565b9150509250929050565b61409b8161401c565b82525050565b60006020820190506140b66000830184614092565b92915050565b60007fffffffff0000000000000000000000000000000000000000000000000000000082169050919050565b6140f1816140bc565b81146140fc57600080fd5b50565b60008135905061410e816140e8565b92915050565b60006020828403121561412a57614129613fb4565b5b6000614138848285016140ff565b91505092915050565b60008115159050919050565b61415681614141565b82525050565b6000602082019050614171600083018461414d565b92915050565b600080fd5b600080fd5b6000601f19601f8301169050919050565b7f4e487b7100000000000000000000000000000000000000000000000000000000600052604160045260246000fd5b6141ca82614181565b810181811067ffffffffffffffff821117156141e9576141e8614192565b5b80604052505050565b60006141fc613faa565b905061420882826141c1565b919050565b600067ffffffffffffffff82111561422857614227614192565b5b61423182614181565b9050602081019050919050565b82818337600083830152505050565b600061426061425b8461420d565b6141f2565b90508281526020810184848401111561427c5761427b61417c565b5b61428784828561423e565b509392505050565b600082601f8301126142a4576142a3614177565b5b81356142b484826020860161424d565b91505092915050565b6000602082840312156142d3576142d2613fb4565b5b600082013567ffffffffffffffff8111156142f1576142f0613fb9565b5b6142fd8482850161428f565b91505092915050565b600080fd5b600080fd5b60008083601f84011261432657614325614177565b5b8235905067ffffffffffffffff81111561434357614342614306565b5b60208301915083600182028301111561435f5761435e61430b565b5b9250929050565b600080600080606085870312156143805761437f613fb4565b5b600061438e87828801614007565b945050602061439f8782880161403d565b935050604085013567ffffffffffffffff8111156143c0576143bf613fb9565b5b6143cc87828801614310565b925092505092959194509250565b600081519050919050565b600082825260208201905092915050565b60005b838110156144145780820151818401526020810190506143f9565b83811115614423576000848401525b50505050565b6000614434826143da565b61443e81856143e5565b935061444e8185602086016143f6565b61445781614181565b840191505092915050565b6000602082019050818103600083015261447c8184614429565b905092915050565b60006020828403121561449a57614499613fb4565b5b60006144a88482850161403d565b91505092915050565b6000602082840312156144c7576144c6613fb4565b5b60006144d584828501614007565b91505092915050565b600067ffffffffffffffff8211156144f9576144f8614192565b5b602082029050602081019050919050565b600061451d614518846144de565b6141f2565b905080838252602082019050602084028301858111156145405761453f61430b565b5b835b818110156145695780614555888261403d565b845260208401935050602081019050614542565b5050509392505050565b600082601f83011261458857614587614177565b5b813561459884826020860161450a565b91505092915050565b600067ffffffffffffffff8211156145bc576145bb614192565b5b6145c582614181565b9050602081019050919050565b60006145e56145e0846145a1565b6141f2565b9050828152602081018484840111156146015761460061417c565b5b61460c84828561423e565b509392505050565b600082601f83011261462957614628614177565b5b81356146398482602086016145d2565b91505092915050565b600080600080600060a0868803121561465e5761465d613fb4565b5b600061466c88828901614007565b955050602061467d88828901614007565b945050604086013567ffffffffffffffff81111561469e5761469d613fb9565b5b6146aa88828901614573565b935050606086013567ffffffffffffffff8111156146cb576146ca613fb9565b5b6146d788828901614573565b925050608086013567ffffffffffffffff8111156146f8576146f7613fb9565b5b61470488828901614614565b9150509295509295909350565b6000819050919050565b61472481614711565b811461472f57600080fd5b50565b6000813590506147418161471b565b92915050565b6000806040838503121561475e5761475d613fb4565b5b600083013567ffffffffffffffff81111561477c5761477b613fb9565b5b6147888582860161428f565b925050602061479985828601614732565b9150509250929050565b60006080820190506147b86000830187614092565b6147c56020830186614092565b6147d26040830185614092565b6147df6060830184614092565b95945050505050565b600067ffffffffffffffff82111561480357614802614192565b5b602082029050602081019050919050565b6000614827614822846147e8565b6141f2565b9050808382526020820190506020840283018581111561484a5761484961430b565b5b835b81811015614873578061485f8882614007565b84526020840193505060208101905061484c565b5050509392505050565b600082601f83011261489257614891614177565b5b81356148a2848260208601614814565b91505092915050565b600080604083850312156148c2576148c1613fb4565b5b600083013567ffffffffffffffff8111156148e0576148df613fb9565b5b6148ec8582860161487d565b925050602083013567ffffffffffffffff81111561490d5761490c613fb9565b5b61491985828601614573565b9150509250929050565b600081519050919050565b600082825260208201905092915050565b6000819050602082019050919050565b6149588161401c565b82525050565b600061496a838361494f565b60208301905092915050565b6000602082019050919050565b600061498e82614923565b614998818561492e565b93506149a38361493f565b8060005b838110156149d45781516149bb888261495e565b97506149c683614976565b9250506001810190506149a7565b5085935050505092915050565b600060208201905081810360008301526149fb8184614983565b905092915050565b60008060408385031215614a1a57614a19613fb4565b5b600083013567ffffffffffffffff811115614a3857614a37613fb9565b5b614a448582860161428f565b9250506020614a558582860161403d565b9150509250929050565b614a6881613fde565b82525050565b6000602082019050614a836000830184614a5f565b92915050565b60008060008060608587031215614aa357614aa2613fb4565b5b600085013567ffffffffffffffff811115614ac157614ac0613fb9565b5b614acd8782880161428f565b9450506020614ade8782880161403d565b935050604085013567ffffffffffffffff811115614aff57614afe613fb9565b5b614b0b87828801614310565b925092505092959194509250565b614b2281614141565b8114614b2d57600080fd5b50565b600081359050614b3f81614b19565b92915050565b60008060408385031215614b5c57614b5b613fb4565b5b6000614b6a85828601614007565b9250506020614b7b85828601614b30565b9150509250929050565b600080600060408486031215614b9e57614b9d613fb4565b5b6000614bac8682870161403d565b935050602084013567ffffffffffffffff811115614bcd57614bcc613fb9565b5b614bd986828701614310565b92509250509250925092565b614bee81614711565b82525050565b6000602082019050614c096000830184614be5565b92915050565b60008060408385031215614c2657614c25613fb4565b5b6000614c3485828601614007565b9250506020614c4585828601614732565b9150509250929050565b60008060408385031215614c6657614c65613fb4565b5b6000614c7485828601614007565b9250506020614c8585828601614007565b9150509250929050565b600080600080600060a08688031215614cab57614caa613fb4565b5b6000614cb988828901614007565b9550506020614cca88828901614007565b9450506040614cdb8882890161403d565b9350506060614cec8882890161403d565b925050608086013567ffffffffffffffff811115614d0d57614d0c613fb9565b5b614d1988828901614614565b9150509295509295909350565b7f455243313135353a2061646472657373207a65726f206973206e6f742061207660008201527f616c6964206f776e657200000000000000000000000000000000000000000000602082015250565b6000614d82602a836143e5565b9150614d8d82614d26565b604082019050919050565b60006020820190508181036000830152614db181614d75565b9050919050565b600081905092915050565b6000614dce826143da565b614dd88185614db8565b9350614de88185602086016143f6565b80840191505092915050565b6000614e008284614dc3565b915081905092915050565b7f506c61796572206e6f7420666f756e64212052656d6f76696e67206368616c6c60008201527f656e67652e2e2e00000000000000000000000000000000000000000000000000602082015250565b6000614e676027836143e5565b9150614e7282614e0b565b604082019050919050565b6000604082019050614e926000830184614a5f565b8181036020830152614ea381614e5a565b905092915050565b7f6361726454797065206d75737420626520312c20322c206f7220332028636f7260008201527f726573706f6e64696e6720746f20524f434b2c2050415045522c20616e64205360208201527f434953534f52532c20726573706563746976656c792e00000000000000000000604082015250565b6000614f2d6056836143e5565b9150614f3882614eab565b606082019050919050565b60006020820190508181036000830152614f5c81614f20565b9050919050565b7f596f752063616e6e6f74206368616c6c656e676520796f757273656c66210000600082015250565b6000614f99601e836143e5565b9150614fa482614f63565b602082019050919050565b60006020820190508181036000830152614fc881614f8c565b9050919050565b7f5265717569726573207468617420796f752068617665206174206c656173742060008201527f6f6e6520737461722e0000000000000000000000000000000000000000000000602082015250565b600061502b6029836143e5565b915061503682614fcf565b604082019050919050565b6000602082019050818103600083015261505a8161501e565b9050919050565b7f5265717569726573207468617420796f752068617665206174206c656173742060008201527f6f6e65206361726420746f206368616c6c656e676520776974682e0000000000602082015250565b60006150bd603b836143e5565b91506150c882615061565b604082019050919050565b600060208201905081810360008301526150ec816150b0565b9050919050565b7f4e487b7100000000000000000000000000000000000000000000000000000000600052601160045260246000fd5b600061512d8261401c565b91506151388361401c565b92508282101561514b5761514a6150f3565b5b828203905092915050565b7f5265717569726573207468617420796f752068617665206174206c656173742060008201527f6f6e6520756e636f6d6d6974746564206361726420746f206368616c6c656e6760208201527f6520776974682e00000000000000000000000000000000000000000000000000604082015250565b60006151d86047836143e5565b91506151e382615156565b606082019050919050565b60006020820190508181036000830152615207816151cb565b9050919050565b7f5265717569726573207468617420796f752068617665206174206c656173742060008201527f6f6e6520756e636f6d6d6974746564207374617220746f206368616c6c656e6760208201527f6520776974682e00000000000000000000000000000000000000000000000000604082015250565b60006152906047836143e5565b915061529b8261520e565b606082019050919050565b600060208201905081810360008301526152bf81615283565b9050919050565b7f5265717569726573207468617420796f752068617665206174206c656173742060008201527f6f6e6520636f7079206f6620746865206361726420796f75277265207472796960208201527f6e6720746f20636f6d6d69742e00000000000000000000000000000000000000604082015250565b6000615348604d836143e5565b9150615353826152c6565b606082019050919050565b600060208201905081810360008301526153778161533b565b9050919050565b60006153898261401c565b91506153948361401c565b9250827fffffffffffffffffffffffffffffffffffffffffffffffffffffffffffffffff038211156153c9576153c86150f3565b5b828201905092915050565b7f596f7520686176656e2774206368616c6c656e676564207468697320706c617960008201527f6572207965742e00000000000000000000000000000000000000000000000000602082015250565b60006154306027836143e5565b915061543b826153d4565b604082019050919050565b6000602082019050818103600083015261545f81615423565b9050919050565b7f5468697320706c61796572206861736e27742079657420726573706f6e64656460008201527f20746f20796f7572206368616c6c656e67652e00000000000000000000000000602082015250565b60006154c26033836143e5565b91506154cd82615466565b604082019050919050565b600060208201905081810360008301526154f1816154b5565b9050919050565b7f596f752063616e6e6f742072657665616c20616761696e737420796f7572736560008201527f6c66210000000000000000000000000000000000000000000000000000000000602082015250565b60006155546023836143e5565b915061555f826154f8565b604082019050919050565b6000602082019050818103600083015261558381615547565b9050919050565b7f496e76616c6964206361726420636f6d62696e6174696f6e3b20736f6d65746860008201527f696e672077656e742077726f6e67210000000000000000000000000000000000602082015250565b60006155e6602f836143e5565b91506155f18261558a565b604082019050919050565b60006020820190508181036000830152615615816155d9565b9050919050565b7f4e487b7100000000000000000000000000000000000000000000000000000000600052602160045260246000fd5b7f4e487b7100000000000000000000000000000000000000000000000000000000600052602260045260246000fd5b6000600282049050600182168061569257607f821691505b6020821081036156a5576156a461564b565b5b50919050565b7f45524331313535205472616e73666572207374616e646172647320646973616260008201527f6c656420666f7220746869732067616d652e0000000000000000000000000000602082015250565b60006157076032836143e5565b9150615712826156ab565b604082019050919050565b60006020820190508181036000830152615736816156fa565b9050919050565b7f54686174206e69636b6e616d652069736e2774206173736f636961746564207760008201527f69746820616e2061637469766520706c61796572210000000000000000000000602082015250565b60006157996035836143e5565b91506157a48261573d565b604082019050919050565b600060208201905081810360008301526157c88161578c565b9050919050565b7f455243313135353a206163636f756e747320616e6420696473206c656e67746860008201527f206d69736d617463680000000000000000000000000000000000000000000000602082015250565b600061582b6029836143e5565b9150615836826157cf565b604082019050919050565b6000602082019050818103600083015261585a8161581e565b9050919050565b7f4e487b7100000000000000000000000000000000000000000000000000000000600052603260045260246000fd5b600061589b8261401c565b91507fffffffffffffffffffffffffffffffffffffffffffffffffffffffffffffffff82036158cd576158cc6150f3565b5b600182019050919050565b60008190508160005260206000209050919050565b600081546158fa8161567a565b6159048186614db8565b9450600182166000811461591f576001811461593057615963565b60ff19831686528186019350615963565b615939856158d8565b60005b8381101561595b5781548189015260018201915060208101905061593c565b838801955050505b50505092915050565b600061597882846158ed565b915081905092915050565b7f506c6561736520656e74657220612076616c696420636172642074797065202860008201527f6964206d75737420626520312c20322c206f722033292e000000000000000000602082015250565b60006159df6037836143e5565b91506159ea82615983565b604082019050919050565b60006020820190508181036000830152615a0e816159d2565b9050919050565b60008160601b9050919050565b6000615a2d82615a15565b9050919050565b6000615a3f82615a22565b9050919050565b615a57615a5282613fde565b615a34565b82525050565b6000819050919050565b615a78615a738261401c565b615a5d565b82525050565b6000615a8a8385614db8565b9350615a9783858461423e565b82840190509392505050565b6000615aaf8287615a46565b601482019150615abf8286615a67565b602082019150615ad0828486615a7e565b915081905095945050505050565b7f5265717569726573207468617420746865206368616c6c656e6765652068617360008201527f206174206c65617374206f6e6520737461722e00000000000000000000000000602082015250565b6000615b3a6033836143e5565b9150615b4582615ade565b604082019050919050565b60006020820190508181036000830152615b6981615b2d565b9050919050565b7f52657175697265732074686174206368616c6c656e676565206861732061742060008201527f6c65617374206f6e6520636172642e0000000000000000000000000000000000602082015250565b6000615bcc602f836143e5565b9150615bd782615b70565b604082019050919050565b60006020820190508181036000830152615bfb81615bbf565b9050919050565b7f52657175697265732074686174206368616c6c656e676565206861732061742060008201527f6c65617374206f6e6520756e636f6d6d697474656420636172642e0000000000602082015250565b6000615c5e603b836143e5565b9150615c6982615c02565b604082019050919050565b60006020820190508181036000830152615c8d81615c51565b9050919050565b7f52657175697265732074686174206368616c6c656e676565206861732061742060008201527f6c65617374206f6e6520756e636f6d6d697474656420737461722e0000000000602082015250565b6000615cf0603b836143e5565b9150615cfb82615c94565b604082019050919050565b60006020820190508181036000830152615d1f81615ce3565b9050919050565b7f4368616c6c656e67656520616c72656164792068617320616e206f70656e206360008201527f68616c6c656e676520616761696e737420796f752e0000000000000000000000602082015250565b6000615d826035836143e5565b9150615d8d82615d26565b604082019050919050565b60006020820190508181036000830152615db181615d75565b9050919050565b7f596f7520616c7265616479206861766520616e206f70656e206368616c6c656e60008201527f676520616761696e7374206368616c6c656e6765652e00000000000000000000602082015250565b6000615e146036836143e5565b9150615e1f82615db8565b604082019050919050565b60006020820190508181036000830152615e4381615e07565b9050919050565b7f4e69636b6e616d6520616c726561647920657869737473000000000000000000600082015250565b6000615e806017836143e5565b9150615e8b82615e4a565b602082019050919050565b60006020820190508181036000830152615eaf81615e73565b9050919050565b7f4164647265737320697320616c726561647920706c6179696e672e0000000000600082015250565b6000615eec601b836143e5565b9150615ef782615eb6565b602082019050919050565b60006020820190508181036000830152615f1b81615edf565b9050919050565b7f4f776e61626c653a206e6577206f776e657220697320746865207a65726f206160008201527f6464726573730000000000000000000000000000000000000000000000000000602082015250565b6000615f7e6026836143e5565b9150615f8982615f22565b604082019050919050565b60006020820190508181036000830152615fad81615f71565b9050919050565b7f455243313135353a206275726e2066726f6d20746865207a65726f206164647260008201527f6573730000000000000000000000000000000000000000000000000000000000602082015250565b60006160106023836143e5565b915061601b82615fb4565b604082019050919050565b6000602082019050818103600083015261603f81616003565b9050919050565b7f455243313135353a206275726e20616d6f756e7420657863656564732062616c60008201527f616e636500000000000000000000000000000000000000000000000000000000602082015250565b60006160a26024836143e5565b91506160ad82616046565b604082019050919050565b600060208201905081810360008301526160d181616095565b9050919050565b60006040820190506160ed6000830185614092565b6160fa6020830184614092565b9392505050565b7f5468697320706c61796572207374696c6c206861732073746172732100000000600082015250565b6000616137601c836143e5565b915061614282616101565b602082019050919050565b600060208201905081810360008301526161668161612a565b9050919050565b7f4f776e61626c653a2063616c6c6572206973206e6f7420746865206f776e6572600082015250565b60006161a36020836143e5565b91506161ae8261616d565b602082019050919050565b600060208201905081810360008301526161d281616196565b9050919050565b7f455243313135353a2073657474696e6720617070726f76616c2073746174757360008201527f20666f722073656c660000000000000000000000000000000000000000000000602082015250565b60006162356029836143e5565b9150616240826161d9565b604082019050919050565b6000602082019050818103600083015261626481616228565b9050919050565b7f455243313135353a206d696e7420746f20746865207a65726f2061646472657360008201527f7300000000000000000000000000000000000000000000000000000000000000602082015250565b60006162c76021836143e5565b91506162d28261626b565b604082019050919050565b600060208201905081810360008301526162f6816162ba565b9050919050565b600081519050919050565b600082825260208201905092915050565b6000616324826162fd565b61632e8185616308565b935061633e8185602086016143f6565b61634781614181565b840191505092915050565b600060a0820190506163676000830188614a5f565b6163746020830187614a5f565b6163816040830186614092565b61638e6060830185614092565b81810360808301526163a08184616319565b90509695505050505050565b6000815190506163bb816140e8565b92915050565b6000602082840312156163d7576163d6613fb4565b5b60006163e5848285016163ac565b91505092915050565b60008160e01c9050919050565b600060033d111561641a5760046000803e6164176000516163ee565b90505b90565b600060443d106164aa5761642f613faa565b60043d036004823e80513d602482011167ffffffffffffffff821117156164575750506164aa565b808201805167ffffffffffffffff81111561647557505050506164aa565b80602083010160043d0385018111156164925750505050506164aa565b6164a1826020018501866141c1565b82955050505050505b90565b7f455243313135353a207472616e7366657220746f206e6f6e2d4552433131353560008201527f526563656976657220696d706c656d656e746572000000000000000000000000602082015250565b60006165096034836143e5565b9150616514826164ad565b604082019050919050565b60006020820190508181036000830152616538816164fc565b9050919050565b7f455243313135353a204552433131353552656365697665722072656a6563746560008201527f6420746f6b656e73000000000000000000000000000000000000000000000000602082015250565b600061659b6028836143e5565b91506165a68261653f565b604082019050919050565b600060208201905081810360008301526165ca8161658e565b905091905056fe4368616c6c656e676572206661696c656420746f20726570726f64756365206861736820666f72206120636172642074686579206f776e20696e2073756666696369656e74207175616e746974792e20537472696b65206973737565642e20416e6f74686572206661696c7572652077696c6c20726573756c7420696e206175746f6d617469632077696e20666f7220746865206368616c6c656e6765652ea2646970667358221220720a6cd3a8f726a96cff8e055ab984ffe27059d1ae87a1b8b98d62774b740c8664736f6c634300080d0033",
  "immutableReferences": {},
  "source": "// SPDX-License-Identifier: MIT\npragma solidity ^0.8.9;\n\nimport \"@openzeppelin/contracts/token/ERC1155/ERC1155.sol\";\nimport \"@openzeppelin/contracts/access/Ownable.sol\";\nimport \"@openzeppelin/contracts/token/ERC1155/extensions/ERC1155Burnable.sol\";\nimport \"./BalanceCheckers.sol\";\n\n\n/*\nTODO LIST:\n\n- Make the standard ERC1155 \"SafeTransfer\" function private/internal and create a wrapper\n  that allows players to trade stars but does not allow for players to trade their last star.\n    - **OR**, as an alternative to the above; allow players to trade away their last star, \n      but every trade checks for 0 stars and calls gameOver() if any player ends up with 0.\n\n- Add block number logging and logic for allowing chalengees to automatically win if the \n  challenger doesn't reveal in a reasonable timeframe\n\n- \n\n*/\n\n\ncontract RRPS is ERC1155, Ownable, BalanceCheckers {\n    constructor() ERC1155(\"\") {}\n\n    // Nested mapping allows rapid identification of who is challenging whom\n    // TODO: REPLACE BOOL WITH HASH OR THE STRUCT??\n\n    struct commit {\n        bytes32 hash;\n        uint cardType;\n        bool exists;\n        bool hashStrike; \n        uint blockNum;\n    }\n\n    mapping (address => mapping (address => commit)) challenges;\n    mapping (address => uint) challengesCount;\n\n    function startGame(string memory nickname) public /* payable */ {\n        // Check payment\n        // require(msg.value >= 0.1 ether);\n        // Ensure that nickname is unique\n        require(nicknamesToAddresses[nickname] == address(0), \"Nickname already exists\");\n        // Ensure that address is not currently playing the game\n        require(players[msg.sender] == false, \"Address is already playing.\");\n        // Log the address as playing the game\n        players[msg.sender] = true; \n        // Associate the nickname \n        nicknamesToAddresses[nickname] = msg.sender;\n        addressesToNicknames[msg.sender] = nickname;\n        // nicknameList.push(nickname);\n\n        // Mint new set of cards\n        mint(msg.sender, ROCK, 4, \"\");\n        mint(msg.sender, PAPER, 4, \"\");\n        mint(msg.sender, SCISSORS, 4, \"\");\n        \n        // Mint new set of stars\n        mint(msg.sender, STAR, 3, \"\");\n    }\n\n\n    function gameOverCheck(address player) internal {\n        //Check if player has no stars remaining\n        if (balanceOf(player, STAR) == 0){\n            // DOUBLE check!\n            require(balanceOf(player, STAR) == 0, \"This player still has stars!\");\n\n            //Burn remaining cards\n            _burn(player, ROCK, balanceOf(player, ROCK));\n            _burn(player, PAPER, balanceOf(player, PAPER));\n            _burn(player, SCISSORS, balanceOf(player, SCISSORS));\n\n            //De-register address and nickname\n            nicknamesToAddresses[addressesToNicknames[player]] = address(0);\n            addressesToNicknames[player] = \"\";\n            players[player] = false;\n        }\n    }\n\n    function cashOut() public {\n        // Check that player has no cards remaining\n        require(totalCards(msg.sender) < 1);\n        // Check that player has 3 or more stars remaining\n        require(balanceOf(msg.sender, STAR) > 2);\n\n        // TODO: Implement cashing out stars from the contract's account -- 0.03 Eth per star on a 0.1 Eth buyin?\n        // For now, just burn the remaining stars\n        _burn(msg.sender, STAR, balanceOf(msg.sender, STAR)); \n\n        //De-register address and nickname\n        nicknamesToAddresses[addressesToNicknames[msg.sender]] = address(0);\n        addressesToNicknames[msg.sender] = \"\";\n        players[msg.sender] = false;\n    }\n\n\n\n    function challengeCommit(string memory challengeeNickname, bytes32 hash) public {\n        require(nicknamesToAddresses[challengeeNickname] != address(0), \"That nickname isn't associated with an active player!\");\n        challengeCommit(nicknamesToAddresses[challengeeNickname], hash);\n    }\n\n    // This function is written from the perspective of the challenger\n    function challengeCommit(address challengee, bytes32 hash) public {\n\n        // Check that player is in the game \n        require(players[challengee]);\n\n        // Check that challenger and challengee are different accounts\n        require(msg.sender != challengee, \"You cannot challenge yourself!\");\n\n        // Check that challenger has at least one star and at least one card remaining\n        require(balanceOf(msg.sender, STAR) > 0, \"Requires that you have at least one star.\");\n        require(totalCards(msg.sender) > 0, \"Requires that you have at least one card to challenge with.\");\n\n        // Check that challengee has at least one star and at least one card remaining\n        require(balanceOf(challengee, STAR) > 0, \"Requires that the challengee has at least one star.\");\n        require(totalCards(challengee) > 0, \"Requires that challengee has at least one card.\");\n\n        // Check that challenger has at least one card and at least one star not already committed to a challenge\n        require((totalCards(msg.sender) - challengesCount[msg.sender]) > 0, \"Requires that you have at least one uncommitted card to challenge with.\");\n        require((balanceOf(msg.sender, STAR) - challengesCount[msg.sender]) > 0, \"Requires that you have at least one uncommitted star to challenge with.\");\n\n        // Check that challengee has at least one card and at least one star not already committed to a challenge\n        require((totalCards(challengee) - challengesCount[challengee]) > 0, \"Requires that challengee has at least one uncommitted card.\");\n        require((balanceOf(challengee, STAR) - challengesCount[challengee]) > 0, \"Requires that challengee has at least one uncommitted star.\");\n\n        // Check that challengee doesn't have an open challenge against challenger\n        require(challenges[challengee][msg.sender].exists == false, \"Challengee already has an open challenge against you.\");\n        // Check that challenger doesn't have an open challenge against challengee\n        require(challenges[msg.sender][challengee].exists == false, \"You already have an open challenge against challengee.\");\n\n        // Set challenges mapping challenger -> challengee -> cardType and increment challengeCount for challenger \n        challenges[msg.sender][challengee].hash = hash;\n        challenges[msg.sender][challengee].exists = true;\n        challengesCount[msg.sender] += 1;\n        \n    }\n\n    event PlayerNotFound(address missingPlayer, string message);\n\n    function openCommit(string memory challengerNickname, uint cardType) public {\n        require(nicknamesToAddresses[challengerNickname] != address(0), \"That nickname isn't associated with an active player!\");\n        openCommit(nicknamesToAddresses[challengerNickname], cardType);\n    }\n\n    // This function is written from the perspective of the challengee\n    function openCommit(address challenger, uint cardType) public{\n\n        // Check that challengee has been challenged by challenger\n        require(challenges[challenger][msg.sender].exists);\n\n        // Check to see if challenger is still in the game. If they are not, withdraw the challenge and end function early\n        if (players[challenger] == false){\n            delete challenges[challenger][msg.sender];\n            emit PlayerNotFound(challenger, \"Player not found! Removing challenge...\");\n        }\n\n        // Check that cardType is one of ROCK (1), PAPER (2), SCISSORS (3)\n        require(cardType > 0 && cardType < 4, \"cardType must be 1, 2, or 3 (corresponding to ROCK, PAPER, and SCISSORS, respectively.\");\n\n        // Check that challenger and challengee are different accounts\n        require(msg.sender != challenger, \"You cannot challenge yourself!\");\n\n        // Check that challengee has at least one star and at least one card remaining\n        require(balanceOf(msg.sender, STAR) > 0, \"Requires that you have at least one star.\");\n        require(totalCards(msg.sender) > 0, \"Requires that you have at least one card to challenge with.\");\n\n        // Check that challengee has at least one card and at least one star not already committed to a challenge\n        require((totalCards(msg.sender) - challengesCount[msg.sender]) > 0, \"Requires that you have at least one uncommitted card to challenge with.\");\n        require((balanceOf(msg.sender, STAR) - challengesCount[msg.sender]) > 0, \"Requires that you have at least one uncommitted star to challenge with.\");\n\n        // Check that challengee has at least one copy of the card they're trying to commit\n        require(balanceOf(msg.sender, cardType) > 0, \"Requires that you have at least one copy of the card you're trying to commit.\");\n\n\n        // Set challenges mapping challengee -> challenger -> cardType\n        challenges[msg.sender][challenger].cardType = cardType;\n        challenges[msg.sender][challenger].exists = true;\n\n        // Increment challengeCount for challengee \n        challengesCount[msg.sender] += 1;\n    }\n\n    enum GameResult {\n        Challenger_Loses,\n        Tie,\n        Challenger_Wins,\n        Misplay_Challenger_Loses,   // Result if the challenger doesn't possess a card of the type they committed\n        Misplay_Tie,                // Result if neither player posesses the card they committed\n        Misplay_Challenger_Wins     // Result if the challengee doesn't possess a card of the type they committed\n    }\n\n    function reveal(string memory challengeeNickname, uint cardType, string calldata salt) public {\n        require(nicknamesToAddresses[challengeeNickname] != address(0), \"That nickname isn't associated with an active player!\");\n        reveal(nicknamesToAddresses[challengeeNickname], cardType, salt);\n    }\n\n    // Written from the perspective of the challenger, who must now reveal their card by proving their hash\n    function reveal(address challengee, uint cardType, string calldata salt) public returns(string memory) {\n\n        // Check that cardType is one of ROCK (1), PAPER (2), SCISSORS (3)\n        require(cardType > 0 && cardType < 4, \"cardType must be 1, 2, or 3 (corresponding to ROCK, PAPER, and SCISSORS, respectively.\");\n\n        // Check to ensure that an open commit from the challengee exists against the challenger's challenge\n        require(challenges[msg.sender][challengee].exists, \"You haven't challenged this player yet.\");\n        require(challenges[challengee][msg.sender].exists, \"This player hasn't yet responded to your challenge.\");\n\n        // Check to see if challengee is still in the game. If they are not, withdraw the challenge and end function early\n        if (players[challengee] == false){\n            delete challenges[challengee][msg.sender];\n            delete challenges[msg.sender][challengee];\n            emit PlayerNotFound(challengee, \"Player not found! Removing challenge...\");\n        }\n\n        // Check that challenger isn't revealing against themselves\n        require(msg.sender != challengee, \"You cannot reveal against yourself!\");\n\n        // Check that challenger's hash is solved using the card type and salt.\n        // If they fail to do so, they get a hash strike and the function returns.\n        uint challengerCard;\n\n        if (hashCommit(cardType, salt) == challenges[msg.sender][challengee].hash && balanceOf(msg.sender, cardType) > 0){\n            challengerCard = cardType;\n        } else if (!challenges[msg.sender][challengee].hashStrike) {\n            challenges[msg.sender][challengee].hashStrike = true;\n            return (\"Challenger failed to reproduce hash for a card they own in sufficient quantity. Strike issued. Another failure will result in automatic win for the challengee.\");\n        } else {\n            challengerCard = 0;\n        }\n        \n        \n        uint challengeeCard = challenges[challengee][msg.sender].cardType;\n        \n        GameResult gameResult;\n\n        // Ensure that challengee is in possession of the card they committed; \n        // if they're not, change card type to 0, representing a misplay.\n        if (balanceOf(msg.sender, challengerCard) < 1)  {challengerCard = 0;}\n        if (balanceOf(challengee, challengeeCard) < 1)  {challengeeCard = 0;}\n\n        // Determine Winner\n        if      (challengerCard == 0 && challengeeCard == 0)            {gameResult = GameResult.Misplay_Tie;}\n        else if (challengerCard == 0)                                   {gameResult = GameResult.Misplay_Challenger_Loses;}\n        else if (challengeeCard == 0)                                   {gameResult = GameResult.Misplay_Challenger_Wins;}\n        else if (challengerCard == challengeeCard)                      {gameResult = GameResult.Tie;}\n        else if (challengerCard == ROCK && challengeeCard == SCISSORS)  {gameResult = GameResult.Challenger_Wins;}\n        else if (challengerCard == SCISSORS && challengeeCard == PAPER) {gameResult = GameResult.Challenger_Wins;}\n        else if (challengerCard == PAPER && challengeeCard == ROCK)     {gameResult = GameResult.Challenger_Wins;}\n        else if (challengerCard == ROCK && challengeeCard == PAPER)     {gameResult = GameResult.Challenger_Loses;}\n        else if (challengerCard == PAPER && challengeeCard == SCISSORS) {gameResult = GameResult.Challenger_Loses;}\n        else if (challengerCard == SCISSORS && challengeeCard == ROCK)  {gameResult = GameResult.Challenger_Loses;}\n        else {revert(\"Invalid card combination; something went wrong!\");}\n\n        // If the outcome is legitimate, burn both cards used, otherwise, only burn the legit cards.\n\n        if      (gameResult == GameResult.Misplay_Challenger_Loses)     {_burn(challengee, challengeeCard, 1);}\n        else if (gameResult == GameResult.Misplay_Challenger_Wins)      {_burn(msg.sender, challengerCard, 1);}\n        else {\n            _burn(msg.sender, challengerCard, 1);\n            _burn(challengee, challengeeCard, 1);\n        }\n\n\n        // If there's a winner, move one star from loser to winner\n        if (gameResult == GameResult.Challenger_Loses || gameResult == GameResult.Misplay_Challenger_Loses){\n            _burn(msg.sender, STAR, 1);\n            mint(challengee, STAR, 1, \"\");\n        }\n        if (gameResult == GameResult.Challenger_Wins || gameResult == GameResult.Misplay_Challenger_Wins){\n            _burn(challengee, STAR, 1);\n            mint(msg.sender, STAR, 1, \"\");\n        }\n        // If the result is a double misplay, burn one star from both participants.\n        if (gameResult == GameResult.Misplay_Tie) {\n            _burn(msg.sender, STAR, 1);\n            _burn(challengee, STAR, 1);\n        }\n\n        // Set challenges mapping for both address orderings to false or 0??\n        delete challenges[msg.sender][challengee];\n        delete challenges[challengee][msg.sender];\n\n        // Decrement challengeCount for both participants\n        challengesCount[msg.sender] -= 1;\n        challengesCount[challengee] -= 1;\n\n        // Check for Game Over for both players\n        gameOverCheck(msg.sender);\n        gameOverCheck(challengee);\n\n        return(\"Match complete!\");\n    }\n\n    function withdrawChallenge(string memory challengeeNickname) public {\n        withdrawChallenge(nicknamesToAddresses[challengeeNickname]);\n    }\n\n    function withdrawChallenge(address challengee) public {\n        \n        // Check that player has an ongoing challenge against another player\n        require(challenges[msg.sender][challengee].exists);\n\n        // Ensure that the other player hasn't yet made an open commit to the challenge\n        require(challenges[challengee][msg.sender].exists == false);\n\n        // Withdraw the challenge by deregistering and decrementing challengesCount\n        delete challenges[msg.sender][challengee];\n        challengesCount[msg.sender] -= 1;\n\n    }\n\n    function withdrawOpenCommit(string memory challengerNickname) public {\n        withdrawOpenCommit(nicknamesToAddresses[challengerNickname]);\n    }\n\n    function withdrawOpenCommit(address challenger) public {\n\n        // Check that sender has made an open commit against another player's ongoing challenge\n        require(challenges[msg.sender][challenger].exists);\n\n        // There shouldn't be any need to ensure that the reveal hasn't happened yet, as the challenge \n        // will be deregistered as soon as the reveal occurs\n\n        // Withdraw the open commit by deregistering and decrementing challengesCount\n        delete challenges[msg.sender][challenger];\n        challengesCount[msg.sender] -= 1;\n    }\n\n\n\n    function setURI(string memory newuri) internal {\n        _setURI(newuri);\n    }\n\n    function mint(address account, uint256 id, uint256 amount, bytes memory data)\n        internal\n    {\n        _mint(account, id, amount, data);\n    }\n\n    function mintBatch(address to, uint256[] memory ids, uint256[] memory amounts, bytes memory data)\n        internal\n    {\n        _mintBatch(to, ids, amounts, data);\n    }\n\n    // Pure has function\n    function hashCommit(uint cardType, string calldata salt) public view returns(bytes32) {\n        require((cardType > 0) && (cardType < 4), \"Please enter a valid card type (id must be 1, 2, or 3).\");\n        return keccak256(abi.encodePacked(msg.sender, cardType, salt));\n    }\n\n    // Transfer Overrides\n\n    function safeTransferFrom(address from, address to, uint256 id, uint256 value, bytes memory data) public pure override {\n        revert(\"ERC1155 Transfer standards disabled for this game.\");\n    }\n    function safeBatchTransferFrom(address from,address to,uint256[] memory ids,uint256[] memory values,bytes memory data) public pure override {\n        revert(\"ERC1155 Transfer standards disabled for this game.\");\n    }\n\n}\n",
  "sourcePath": "/home/pierson/Desktop/restricted_rock_paper_scissors/rrps_contracts/contracts/rrps.sol",
  "compiler": {
    "name": "solc",
    "version": "0.8.13+commit.abaa5c0e.Emscripten.clang"
  },
  "schemaVersion": "3.4.16",
  "updatedAt": "2023-09-29T19:39:25.638Z",
  "devdoc": {
    "kind": "dev",
    "methods": {
      "balanceOf(address,uint256)": {
        "details": "See {IERC1155-balanceOf}. Requirements: - `account` cannot be the zero address."
      },
      "balanceOfBatch(address[],uint256[])": {
        "details": "See {IERC1155-balanceOfBatch}. Requirements: - `accounts` and `ids` must have the same length."
      },
      "isApprovedForAll(address,address)": {
        "details": "See {IERC1155-isApprovedForAll}."
      },
      "owner()": {
        "details": "Returns the address of the current owner."
      },
      "renounceOwnership()": {
        "details": "Leaves the contract without owner. It will not be possible to call `onlyOwner` functions. Can only be called by the current owner. NOTE: Renouncing ownership will leave the contract without an owner, thereby disabling any functionality that is only available to the owner."
      },
      "setApprovalForAll(address,bool)": {
        "details": "See {IERC1155-setApprovalForAll}."
      },
      "supportsInterface(bytes4)": {
        "details": "See {IERC165-supportsInterface}."
      },
      "transferOwnership(address)": {
        "details": "Transfers ownership of the contract to a new account (`newOwner`). Can only be called by the current owner."
      },
      "uri(uint256)": {
        "details": "See {IERC1155MetadataURI-uri}. This implementation returns the same URI for *all* token types. It relies on the token type ID substitution mechanism https://eips.ethereum.org/EIPS/eip-1155#metadata[defined in the EIP]. Clients calling this function must replace the `\\{id\\}` substring with the actual token type ID."
      }
    },
    "version": 1
  },
  "userdoc": {
    "kind": "user",
    "methods": {},
    "version": 1
  }
}