{
  "contractName": "RRPS",
  "abi": [
    {
      "inputs": [],
      "stateMutability": "nonpayable",
      "type": "constructor"
    },
    {
      "inputs": [],
      "name": "AddressAlreadyPlaying",
      "type": "error"
    },
    {
      "inputs": [],
      "name": "InsufficientStars",
      "type": "error"
    },
    {
      "inputs": [],
      "name": "InvalidCardCombination",
      "type": "error"
    },
    {
      "inputs": [],
      "name": "MustBeRockPaperOrScissors",
      "type": "error"
    },
    {
      "inputs": [],
      "name": "NeedCopyOfCard",
      "type": "error"
    },
    {
      "inputs": [],
      "name": "NoOpenCommit",
      "type": "error"
    },
    {
      "inputs": [],
      "name": "NoSelfChallenge",
      "type": "error"
    },
    {
      "inputs": [],
      "name": "NotYetChallenged",
      "type": "error"
    },
    {
      "inputs": [],
      "name": "OtherPlayerAlreadyCommitted",
      "type": "error"
    },
    {
      "inputs": [],
      "name": "PlayerAlreadyChallenged",
      "type": "error"
    },
    {
      "inputs": [],
      "name": "PlayerHasNoCards",
      "type": "error"
    },
    {
      "inputs": [],
      "name": "PlayerHasNoStars",
      "type": "error"
    },
    {
      "inputs": [],
      "name": "PlayerHasNoUncommittedCards",
      "type": "error"
    },
    {
      "inputs": [],
      "name": "PlayerHasNoUncommittedStars",
      "type": "error"
    },
    {
      "inputs": [],
      "name": "PlayerNotFound",
      "type": "error"
    },
    {
      "inputs": [],
      "name": "PlayerStillHasCards",
      "type": "error"
    },
    {
      "inputs": [],
      "name": "PlayerStillHasStars",
      "type": "error"
    },
    {
      "anonymous": false,
      "inputs": [
        {
          "indexed": true,
          "internalType": "address",
          "name": "account",
          "type": "address"
        },
        {
          "indexed": true,
          "internalType": "address",
          "name": "operator",
          "type": "address"
        },
        {
          "indexed": false,
          "internalType": "bool",
          "name": "approved",
          "type": "bool"
        }
      ],
      "name": "ApprovalForAll",
      "type": "event"
    },
    {
      "anonymous": false,
      "inputs": [
        {
          "indexed": false,
          "internalType": "address",
          "name": "challenger",
          "type": "address"
        },
        {
          "indexed": false,
          "internalType": "address",
          "name": "challengee",
          "type": "address"
        }
      ],
      "name": "ChallengeCommit",
      "type": "event"
    },
    {
      "anonymous": false,
      "inputs": [
        {
          "indexed": false,
          "internalType": "address",
          "name": "challenger",
          "type": "address"
        },
        {
          "indexed": false,
          "internalType": "address",
          "name": "challengee",
          "type": "address"
        }
      ],
      "name": "ChallengerFailedHashOnce",
      "type": "event"
    },
    {
      "anonymous": false,
      "inputs": [
        {
          "indexed": false,
          "internalType": "address",
          "name": "challenger",
          "type": "address"
        },
        {
          "indexed": false,
          "internalType": "address",
          "name": "challengee",
          "type": "address"
        }
      ],
      "name": "ChallengerFailedHashTwice",
      "type": "event"
    },
    {
      "anonymous": false,
      "inputs": [
        {
          "indexed": false,
          "internalType": "address",
          "name": "challenger",
          "type": "address"
        },
        {
          "indexed": false,
          "internalType": "uint256",
          "name": "challengerCard",
          "type": "uint256"
        },
        {
          "indexed": false,
          "internalType": "address",
          "name": "challengee",
          "type": "address"
        },
        {
          "indexed": false,
          "internalType": "uint256",
          "name": "challengeeCard",
          "type": "uint256"
        }
      ],
      "name": "ChallengerLoses",
      "type": "event"
    },
    {
      "anonymous": false,
      "inputs": [
        {
          "indexed": false,
          "internalType": "address",
          "name": "challenger",
          "type": "address"
        },
        {
          "indexed": false,
          "internalType": "uint256",
          "name": "challengerCard",
          "type": "uint256"
        },
        {
          "indexed": false,
          "internalType": "address",
          "name": "challengee",
          "type": "address"
        },
        {
          "indexed": false,
          "internalType": "uint256",
          "name": "challengeeCard",
          "type": "uint256"
        }
      ],
      "name": "ChallengerWins",
      "type": "event"
    },
    {
      "anonymous": false,
      "inputs": [
        {
          "indexed": false,
          "internalType": "address",
          "name": "player",
          "type": "address"
        },
        {
          "indexed": false,
          "internalType": "uint256",
          "name": "card",
          "type": "uint256"
        }
      ],
      "name": "Misplay",
      "type": "event"
    },
    {
      "anonymous": false,
      "inputs": [
        {
          "indexed": false,
          "internalType": "address",
          "name": "challenger",
          "type": "address"
        },
        {
          "indexed": false,
          "internalType": "address",
          "name": "challengee",
          "type": "address"
        }
      ],
      "name": "OpenCommit",
      "type": "event"
    },
    {
      "anonymous": false,
      "inputs": [
        {
          "indexed": false,
          "internalType": "address",
          "name": "challenger",
          "type": "address"
        },
        {
          "indexed": false,
          "internalType": "address",
          "name": "challengee",
          "type": "address"
        }
      ],
      "name": "OrphanedChallenge",
      "type": "event"
    },
    {
      "anonymous": false,
      "inputs": [
        {
          "indexed": true,
          "internalType": "address",
          "name": "previousOwner",
          "type": "address"
        },
        {
          "indexed": true,
          "internalType": "address",
          "name": "newOwner",
          "type": "address"
        }
      ],
      "name": "OwnershipTransferred",
      "type": "event"
    },
    {
      "anonymous": false,
      "inputs": [
        {
          "indexed": false,
          "internalType": "address",
          "name": "playerAddress",
          "type": "address"
        }
      ],
      "name": "PlayerCashedOut",
      "type": "event"
    },
    {
      "anonymous": false,
      "inputs": [
        {
          "indexed": false,
          "internalType": "address",
          "name": "playerAddress",
          "type": "address"
        }
      ],
      "name": "PlayerEliminated",
      "type": "event"
    },
    {
      "anonymous": false,
      "inputs": [
        {
          "indexed": false,
          "internalType": "address",
          "name": "playerAddress",
          "type": "address"
        },
        {
          "indexed": false,
          "internalType": "string",
          "name": "nickname",
          "type": "string"
        }
      ],
      "name": "PlayerJoined",
      "type": "event"
    },
    {
      "anonymous": false,
      "inputs": [
        {
          "indexed": false,
          "internalType": "address",
          "name": "playerAddress",
          "type": "address"
        }
      ],
      "name": "PlayerLeft",
      "type": "event"
    },
    {
      "anonymous": false,
      "inputs": [
        {
          "indexed": false,
          "internalType": "address",
          "name": "challenger",
          "type": "address"
        },
        {
          "indexed": false,
          "internalType": "uint256",
          "name": "challengerCard",
          "type": "uint256"
        },
        {
          "indexed": false,
          "internalType": "address",
          "name": "challengee",
          "type": "address"
        },
        {
          "indexed": false,
          "internalType": "uint256",
          "name": "challengeeCard",
          "type": "uint256"
        }
      ],
      "name": "Tie",
      "type": "event"
    },
    {
      "anonymous": false,
      "inputs": [
        {
          "indexed": false,
          "internalType": "address",
          "name": "from",
          "type": "address"
        },
        {
          "indexed": false,
          "internalType": "address",
          "name": "to",
          "type": "address"
        },
        {
          "indexed": false,
          "internalType": "uint256",
          "name": "id",
          "type": "uint256"
        },
        {
          "indexed": false,
          "internalType": "uint256",
          "name": "amount",
          "type": "uint256"
        }
      ],
      "name": "TokenTransfer",
      "type": "event"
    },
    {
      "anonymous": false,
      "inputs": [
        {
          "indexed": true,
          "internalType": "address",
          "name": "operator",
          "type": "address"
        },
        {
          "indexed": true,
          "internalType": "address",
          "name": "from",
          "type": "address"
        },
        {
          "indexed": true,
          "internalType": "address",
          "name": "to",
          "type": "address"
        },
        {
          "indexed": false,
          "internalType": "uint256[]",
          "name": "ids",
          "type": "uint256[]"
        },
        {
          "indexed": false,
          "internalType": "uint256[]",
          "name": "values",
          "type": "uint256[]"
        }
      ],
      "name": "TransferBatch",
      "type": "event"
    },
    {
      "anonymous": false,
      "inputs": [
        {
          "indexed": true,
          "internalType": "address",
          "name": "operator",
          "type": "address"
        },
        {
          "indexed": true,
          "internalType": "address",
          "name": "from",
          "type": "address"
        },
        {
          "indexed": true,
          "internalType": "address",
          "name": "to",
          "type": "address"
        },
        {
          "indexed": false,
          "internalType": "uint256",
          "name": "id",
          "type": "uint256"
        },
        {
          "indexed": false,
          "internalType": "uint256",
          "name": "value",
          "type": "uint256"
        }
      ],
      "name": "TransferSingle",
      "type": "event"
    },
    {
      "anonymous": false,
      "inputs": [
        {
          "indexed": false,
          "internalType": "string",
          "name": "value",
          "type": "string"
        },
        {
          "indexed": true,
          "internalType": "uint256",
          "name": "id",
          "type": "uint256"
        }
      ],
      "name": "URI",
      "type": "event"
    },
    {
      "anonymous": false,
      "inputs": [
        {
          "indexed": false,
          "internalType": "address",
          "name": "challenger",
          "type": "address"
        },
        {
          "indexed": false,
          "internalType": "address",
          "name": "challengee",
          "type": "address"
        }
      ],
      "name": "WithdrawnChallengeCommit",
      "type": "event"
    },
    {
      "anonymous": false,
      "inputs": [
        {
          "indexed": false,
          "internalType": "address",
          "name": "challenger",
          "type": "address"
        },
        {
          "indexed": false,
          "internalType": "address",
          "name": "challengee",
          "type": "address"
        }
      ],
      "name": "WithdrawnOpenCommit",
      "type": "event"
    },
    {
      "inputs": [],
      "name": "PAPER",
      "outputs": [
        {
          "internalType": "uint256",
          "name": "",
          "type": "uint256"
        }
      ],
      "stateMutability": "view",
      "type": "function",
      "constant": true
    },
    {
      "inputs": [],
      "name": "ROCK",
      "outputs": [
        {
          "internalType": "uint256",
          "name": "",
          "type": "uint256"
        }
      ],
      "stateMutability": "view",
      "type": "function",
      "constant": true
    },
    {
      "inputs": [],
      "name": "SCISSORS",
      "outputs": [
        {
          "internalType": "uint256",
          "name": "",
          "type": "uint256"
        }
      ],
      "stateMutability": "view",
      "type": "function",
      "constant": true
    },
    {
      "inputs": [],
      "name": "STAR",
      "outputs": [
        {
          "internalType": "uint256",
          "name": "",
          "type": "uint256"
        }
      ],
      "stateMutability": "view",
      "type": "function",
      "constant": true
    },
    {
      "inputs": [
        {
          "internalType": "address",
          "name": "account",
          "type": "address"
        },
        {
          "internalType": "uint256",
          "name": "id",
          "type": "uint256"
        }
      ],
      "name": "balanceOf",
      "outputs": [
        {
          "internalType": "uint256",
          "name": "",
          "type": "uint256"
        }
      ],
      "stateMutability": "view",
      "type": "function",
      "constant": true
    },
    {
      "inputs": [
        {
          "internalType": "address",
          "name": "account",
          "type": "address"
        }
      ],
      "name": "balanceOf",
      "outputs": [
        {
          "internalType": "uint256",
          "name": "",
          "type": "uint256"
        },
        {
          "internalType": "uint256",
          "name": "",
          "type": "uint256"
        },
        {
          "internalType": "uint256",
          "name": "",
          "type": "uint256"
        },
        {
          "internalType": "uint256",
          "name": "",
          "type": "uint256"
        }
      ],
      "stateMutability": "view",
      "type": "function",
      "constant": true
    },
    {
      "inputs": [],
      "name": "balanceOf",
      "outputs": [
        {
          "internalType": "uint256",
          "name": "",
          "type": "uint256"
        },
        {
          "internalType": "uint256",
          "name": "",
          "type": "uint256"
        },
        {
          "internalType": "uint256",
          "name": "",
          "type": "uint256"
        },
        {
          "internalType": "uint256",
          "name": "",
          "type": "uint256"
        }
      ],
      "stateMutability": "view",
      "type": "function",
      "constant": true
    },
    {
      "inputs": [
        {
          "internalType": "address[]",
          "name": "accounts",
          "type": "address[]"
        },
        {
          "internalType": "uint256[]",
          "name": "ids",
          "type": "uint256[]"
        }
      ],
      "name": "balanceOfBatch",
      "outputs": [
        {
          "internalType": "uint256[]",
          "name": "",
          "type": "uint256[]"
        }
      ],
      "stateMutability": "view",
      "type": "function",
      "constant": true
    },
    {
      "inputs": [],
      "name": "contractBalance",
      "outputs": [
        {
          "internalType": "uint256",
          "name": "",
          "type": "uint256"
        }
      ],
      "stateMutability": "view",
      "type": "function",
      "constant": true
    },
    {
      "inputs": [
        {
          "internalType": "address",
          "name": "account",
          "type": "address"
        },
        {
          "internalType": "address",
          "name": "operator",
          "type": "address"
        }
      ],
      "name": "isApprovedForAll",
      "outputs": [
        {
          "internalType": "bool",
          "name": "",
          "type": "bool"
        }
      ],
      "stateMutability": "view",
      "type": "function",
      "constant": true
    },
    {
      "inputs": [],
      "name": "owner",
      "outputs": [
        {
          "internalType": "address",
          "name": "",
          "type": "address"
        }
      ],
      "stateMutability": "view",
      "type": "function",
      "constant": true
    },
    {
      "inputs": [],
      "name": "renounceOwnership",
      "outputs": [],
      "stateMutability": "nonpayable",
      "type": "function"
    },
    {
      "inputs": [
        {
          "internalType": "address",
          "name": "operator",
          "type": "address"
        },
        {
          "internalType": "bool",
          "name": "approved",
          "type": "bool"
        }
      ],
      "name": "setApprovalForAll",
      "outputs": [],
      "stateMutability": "nonpayable",
      "type": "function"
    },
    {
      "inputs": [
        {
          "internalType": "bytes4",
          "name": "interfaceId",
          "type": "bytes4"
        }
      ],
      "name": "supportsInterface",
      "outputs": [
        {
          "internalType": "bool",
          "name": "",
          "type": "bool"
        }
      ],
      "stateMutability": "view",
      "type": "function",
      "constant": true
    },
    {
      "inputs": [
        {
          "internalType": "address",
          "name": "player",
          "type": "address"
        }
      ],
      "name": "totalCards",
      "outputs": [
        {
          "internalType": "uint256",
          "name": "",
          "type": "uint256"
        }
      ],
      "stateMutability": "view",
      "type": "function",
      "constant": true
    },
    {
      "inputs": [
        {
          "internalType": "address",
          "name": "newOwner",
          "type": "address"
        }
      ],
      "name": "transferOwnership",
      "outputs": [],
      "stateMutability": "nonpayable",
      "type": "function"
    },
    {
      "inputs": [
        {
          "internalType": "uint256",
          "name": "",
          "type": "uint256"
        }
      ],
      "name": "uri",
      "outputs": [
        {
          "internalType": "string",
          "name": "",
          "type": "string"
        }
      ],
      "stateMutability": "view",
      "type": "function",
      "constant": true
    },
    {
      "inputs": [
        {
          "internalType": "string",
          "name": "nickname",
          "type": "string"
        }
      ],
      "name": "startGame",
      "outputs": [],
      "stateMutability": "nonpayable",
      "type": "function"
    },
    {
      "inputs": [],
      "name": "cashOut",
      "outputs": [],
      "stateMutability": "nonpayable",
      "type": "function"
    },
    {
      "inputs": [
        {
          "internalType": "address",
          "name": "challengee",
          "type": "address"
        },
        {
          "internalType": "bytes32",
          "name": "hash",
          "type": "bytes32"
        }
      ],
      "name": "challengeCommit",
      "outputs": [],
      "stateMutability": "nonpayable",
      "type": "function"
    },
    {
      "inputs": [
        {
          "internalType": "address",
          "name": "challenger",
          "type": "address"
        },
        {
          "internalType": "uint256",
          "name": "cardType",
          "type": "uint256"
        }
      ],
      "name": "openCommit",
      "outputs": [],
      "stateMutability": "nonpayable",
      "type": "function"
    },
    {
      "inputs": [
        {
          "internalType": "address",
          "name": "challengee",
          "type": "address"
        },
        {
          "internalType": "uint256",
          "name": "cardType",
          "type": "uint256"
        },
        {
          "internalType": "string",
          "name": "salt",
          "type": "string"
        }
      ],
      "name": "reveal",
      "outputs": [],
      "stateMutability": "nonpayable",
      "type": "function"
    },
    {
      "inputs": [
        {
          "internalType": "address",
          "name": "challengee",
          "type": "address"
        }
      ],
      "name": "withdrawChallenge",
      "outputs": [],
      "stateMutability": "nonpayable",
      "type": "function"
    },
    {
      "inputs": [
        {
          "internalType": "address",
          "name": "challenger",
          "type": "address"
        }
      ],
      "name": "withdrawOpenCommit",
      "outputs": [],
      "stateMutability": "nonpayable",
      "type": "function"
    },
    {
      "inputs": [
        {
          "internalType": "uint256",
          "name": "cardType",
          "type": "uint256"
        },
        {
          "internalType": "string",
          "name": "salt",
          "type": "string"
        }
      ],
      "name": "hashCommit",
      "outputs": [
        {
          "internalType": "bytes32",
          "name": "",
          "type": "bytes32"
        }
      ],
      "stateMutability": "view",
      "type": "function",
      "constant": true
    },
    {
      "inputs": [
        {
          "internalType": "address",
          "name": "from",
          "type": "address"
        },
        {
          "internalType": "address",
          "name": "to",
          "type": "address"
        },
        {
          "internalType": "uint256",
          "name": "id",
          "type": "uint256"
        },
        {
          "internalType": "uint256",
          "name": "amount",
          "type": "uint256"
        },
        {
          "internalType": "bytes",
          "name": "data",
          "type": "bytes"
        }
      ],
      "name": "safeTransferFrom",
      "outputs": [],
      "stateMutability": "nonpayable",
      "type": "function"
    },
    {
      "inputs": [
        {
          "internalType": "address",
          "name": "from",
          "type": "address"
        },
        {
          "internalType": "address",
          "name": "to",
          "type": "address"
        },
        {
          "internalType": "uint256[]",
          "name": "ids",
          "type": "uint256[]"
        },
        {
          "internalType": "uint256[]",
          "name": "amounts",
          "type": "uint256[]"
        },
        {
          "internalType": "bytes",
          "name": "data",
          "type": "bytes"
        }
      ],
      "name": "safeBatchTransferFrom",
      "outputs": [],
      "stateMutability": "nonpayable",
      "type": "function"
    }
  ],
  "bytecode": "0x608060405260405180602001604052806000815250600790805190602001906200002b92919062000217565b50604051806020016040528060008152506008908051906020019062000053929190620002a8565b503480156200006157600080fd5b5060088054620000719062000387565b80601f01602080910402602001604051908101604052809291908181526020018280546200009f9062000387565b8015620000f05780601f10620000c457610100808354040283529160200191620000f0565b820191906000526020600020905b815481529060010190602001808311620000d257829003601f168201915b505050505062000106816200012d60201b60201c565b50620001276200011b6200014960201b60201c565b6200015160201b60201c565b620003bc565b806002908051906020019062000145929190620002a8565b5050565b600033905090565b6000600360009054906101000a900473ffffffffffffffffffffffffffffffffffffffff16905081600360006101000a81548173ffffffffffffffffffffffffffffffffffffffff021916908373ffffffffffffffffffffffffffffffffffffffff1602179055508173ffffffffffffffffffffffffffffffffffffffff168173ffffffffffffffffffffffffffffffffffffffff167f8be0079c531659141344cd1fd0a4f28419497f9722a3daafe3b4186f6b6457e060405160405180910390a35050565b828054620002259062000387565b90600052602060002090601f01602090048101928262000249576000855562000295565b82601f106200026457805160ff191683800117855562000295565b8280016001018555821562000295579182015b828111156200029457825182559160200191906001019062000277565b5b509050620002a4919062000339565b5090565b828054620002b69062000387565b90600052602060002090601f016020900481019282620002da576000855562000326565b82601f10620002f557805160ff191683800117855562000326565b8280016001018555821562000326579182015b828111156200032557825182559160200191906001019062000308565b5b50905062000335919062000339565b5090565b5b80821115620003545760008160009055506001016200033a565b5090565b7f4e487b7100000000000000000000000000000000000000000000000000000000600052602260045260246000fd5b60006002820490506001821680620003a057607f821691505b602082108103620003b657620003b562000358565b5b50919050565b615f5180620003cc6000396000f3fe608060405234801561001057600080fd5b50600436106101485760003560e01c8062fdd58e1461014d57806301ffc9a71461017d57806309748bf0146101ad5780630c2929a3146101c95780630e89341c146101e557806314d7d46d146102155780632cd77d4c146102315780632eb2c2d61461024d5780634e1273f41461026957806370a0823114610299578063715018a6146102cc578063722713f7146102d6578063793cd71e146102f75780638b7afe2e146103015780638da5cb5b1461031f578063a22cb4651461033d578063a350d58014610359578063a4d89e7714610389578063aa924469146103a7578063b357a028146103d7578063b93e0e39146103f5578063c44d6f8714610413578063c855ad6014610431578063d542c4d51461044d578063e985e9c514610469578063f242432a14610499578063f2fde38b146104b5575b600080fd5b61016760048036038101906101629190614679565b6104d1565b60405161017491906146c8565b60405180910390f35b6101976004803603810190610192919061473b565b610599565b6040516101a49190614783565b60405180910390f35b6101c760048036038101906101c29190614679565b61067b565b005b6101e360048036038101906101de9190614803565b610cd9565b005b6101ff60048036038101906101fa9190614877565b611d35565b60405161020c919061493d565b60405180910390f35b61022f600480360381019061022a919061495f565b611dc9565b005b61024b6004803603810190610246919061495f565b611fde565b005b61026760048036038101906102629190614b7f565b6122b7565b005b610283600480360381019061027e9190614d11565b6122cb565b6040516102909190614e47565b60405180910390f35b6102b360048036038101906102ae919061495f565b6123e4565b6040516102c39493929190614e69565b60405180910390f35b6102d4612425565b005b6102de612439565b6040516102ee9493929190614e69565b60405180910390f35b6102ff612456565b005b6103096125bc565b60405161031691906146c8565b60405180910390f35b6103276125c4565b6040516103349190614ebd565b60405180910390f35b61035760048036038101906103529190614f04565b6125ee565b005b610373600480360381019061036e919061495f565b612604565b60405161038091906146c8565b60405180910390f35b610391612642565b60405161039e91906146c8565b60405180910390f35b6103c160048036038101906103bc9190614f44565b612647565b6040516103ce9190614fbd565b60405180910390f35b6103df6126c5565b6040516103ec91906146c8565b60405180910390f35b6103fd6126ca565b60405161040a91906146c8565b60405180910390f35b61041b6126cf565b60405161042891906146c8565b60405180910390f35b61044b60048036038101906104469190615004565b6126d4565b005b610467600480360381019061046291906150e5565b612e3f565b005b610483600480360381019061047e919061512e565b613202565b6040516104909190614783565b60405180910390f35b6104b360048036038101906104ae919061516e565b613296565b005b6104cf60048036038101906104ca919061495f565b6132aa565b005b60008073ffffffffffffffffffffffffffffffffffffffff168373ffffffffffffffffffffffffffffffffffffffff1603610541576040517f08c379a000000000000000000000000000000000000000000000000000000000815260040161053890615277565b60405180910390fd5b60008083815260200190815260200160002060008473ffffffffffffffffffffffffffffffffffffffff1673ffffffffffffffffffffffffffffffffffffffff16815260200190815260200160002054905092915050565b60007fd9b67a26000000000000000000000000000000000000000000000000000000007bffffffffffffffffffffffffffffffffffffffffffffffffffffffff1916827bffffffffffffffffffffffffffffffffffffffffffffffffffffffff1916148061066457507f0e89341c000000000000000000000000000000000000000000000000000000007bffffffffffffffffffffffffffffffffffffffffffffffffffffffff1916827bffffffffffffffffffffffffffffffffffffffffffffffffffffffff1916145b8061067457506106738261332d565b5b9050919050565b60001515600460003373ffffffffffffffffffffffffffffffffffffffff1673ffffffffffffffffffffffffffffffffffffffff16815260200190815260200160002060009054906101000a900460ff16151503610705576040517f2a645edb00000000000000000000000000000000000000000000000000000000815260040160405180910390fd5b600560008373ffffffffffffffffffffffffffffffffffffffff1673ffffffffffffffffffffffffffffffffffffffff16815260200190815260200160002060003373ffffffffffffffffffffffffffffffffffffffff1673ffffffffffffffffffffffffffffffffffffffff16815260200190815260200160002060020160009054906101000a900460ff166107c8576040517fa2aa7d6500000000000000000000000000000000000000000000000000000000815260040160405180910390fd5b60001515600460008473ffffffffffffffffffffffffffffffffffffffff1673ffffffffffffffffffffffffffffffffffffffff16815260200190815260200160002060009054906101000a900460ff1615150361091d57600560008373ffffffffffffffffffffffffffffffffffffffff1673ffffffffffffffffffffffffffffffffffffffff16815260200190815260200160002060003373ffffffffffffffffffffffffffffffffffffffff1673ffffffffffffffffffffffffffffffffffffffff16815260200190815260200160002060008082016000905560018201600090556002820160006101000a81549060ff02191690556002820160016101000a81549060ff0219169055600382016000905550507f5db717b8d3c4f24e2364d373a33ce6c2cbca992bd54a1b7f88a82bbe04699a048233604051610910929190615297565b60405180910390a1610cd5565b600181108061092c5750600381115b15610963576040517f5968cdba00000000000000000000000000000000000000000000000000000000815260040160405180910390fd5b8173ffffffffffffffffffffffffffffffffffffffff163373ffffffffffffffffffffffffffffffffffffffff16036109c8576040517f6fcb561000000000000000000000000000000000000000000000000000000000815260040160405180910390fd5b6001600660003373ffffffffffffffffffffffffffffffffffffffff1673ffffffffffffffffffffffffffffffffffffffff16815260200190815260200160002054610a1333612604565b610a1d91906152ef565b1015610a55576040517f3fb13d7100000000000000000000000000000000000000000000000000000000815260040160405180910390fd5b6001600660003373ffffffffffffffffffffffffffffffffffffffff1673ffffffffffffffffffffffffffffffffffffffff16815260200190815260200160002054610aa23360006104d1565b610aac91906152ef565b1015610ae4576040517f6ac7a1ce00000000000000000000000000000000000000000000000000000000815260040160405180910390fd5b6001610af033836104d1565b1015610b28576040517fb59dc6be00000000000000000000000000000000000000000000000000000000815260040160405180910390fd5b80600560003373ffffffffffffffffffffffffffffffffffffffff1673ffffffffffffffffffffffffffffffffffffffff16815260200190815260200160002060008473ffffffffffffffffffffffffffffffffffffffff1673ffffffffffffffffffffffffffffffffffffffff168152602001908152602001600020600101819055506001600560003373ffffffffffffffffffffffffffffffffffffffff1673ffffffffffffffffffffffffffffffffffffffff16815260200190815260200160002060008473ffffffffffffffffffffffffffffffffffffffff1673ffffffffffffffffffffffffffffffffffffffff16815260200190815260200160002060020160006101000a81548160ff0219169083151502179055506001600660003373ffffffffffffffffffffffffffffffffffffffff1673ffffffffffffffffffffffffffffffffffffffff1681526020019081526020016000206000828254610c949190615323565b925050819055507ff9f96df79c431e54c117519d8a46c546ec0070ec3dc10e01eee8079025407fc38233604051610ccc929190615297565b60405180910390a15b5050565b60001515600460003373ffffffffffffffffffffffffffffffffffffffff1673ffffffffffffffffffffffffffffffffffffffff16815260200190815260200160002060009054906101000a900460ff16151503610d63576040517f2a645edb00000000000000000000000000000000000000000000000000000000815260040160405180910390fd5b6001831080610d725750600383115b15610da9576040517f5968cdba00000000000000000000000000000000000000000000000000000000815260040160405180910390fd5b600560008573ffffffffffffffffffffffffffffffffffffffff1673ffffffffffffffffffffffffffffffffffffffff16815260200190815260200160002060003373ffffffffffffffffffffffffffffffffffffffff1673ffffffffffffffffffffffffffffffffffffffff16815260200190815260200160002060020160009054906101000a900460ff16610e6c576040517fa2aa7d6500000000000000000000000000000000000000000000000000000000815260040160405180910390fd5b600560003373ffffffffffffffffffffffffffffffffffffffff1673ffffffffffffffffffffffffffffffffffffffff16815260200190815260200160002060008573ffffffffffffffffffffffffffffffffffffffff1673ffffffffffffffffffffffffffffffffffffffff16815260200190815260200160002060020160009054906101000a900460ff16610f2f576040517f38df4cfd00000000000000000000000000000000000000000000000000000000815260040160405180910390fd5b60001515600460008673ffffffffffffffffffffffffffffffffffffffff1673ffffffffffffffffffffffffffffffffffffffff16815260200190815260200160002060009054906101000a900460ff1615150361119a57600560008573ffffffffffffffffffffffffffffffffffffffff1673ffffffffffffffffffffffffffffffffffffffff16815260200190815260200160002060003373ffffffffffffffffffffffffffffffffffffffff1673ffffffffffffffffffffffffffffffffffffffff16815260200190815260200160002060008082016000905560018201600090556002820160006101000a81549060ff02191690556002820160016101000a81549060ff021916905560038201600090555050600560003373ffffffffffffffffffffffffffffffffffffffff1673ffffffffffffffffffffffffffffffffffffffff16815260200190815260200160002060008573ffffffffffffffffffffffffffffffffffffffff1673ffffffffffffffffffffffffffffffffffffffff16815260200190815260200160002060008082016000905560018201600090556002820160006101000a81549060ff02191690556002820160016101000a81549060ff0219169055600382016000905550506001600660003373ffffffffffffffffffffffffffffffffffffffff1673ffffffffffffffffffffffffffffffffffffffff168152602001908152602001600020600082825461115591906152ef565b925050819055507f5db717b8d3c4f24e2364d373a33ce6c2cbca992bd54a1b7f88a82bbe04699a04338560405161118d929190615297565b60405180910390a1611d2f565b8373ffffffffffffffffffffffffffffffffffffffff163373ffffffffffffffffffffffffffffffffffffffff16036111ff576040517f6fcb561000000000000000000000000000000000000000000000000000000000815260040160405180910390fd5b6000600560003373ffffffffffffffffffffffffffffffffffffffff1673ffffffffffffffffffffffffffffffffffffffff16815260200190815260200160002060008673ffffffffffffffffffffffffffffffffffffffff1673ffffffffffffffffffffffffffffffffffffffff1681526020019081526020016000206000015461128c858585612647565b1480156112a2575060006112a033866104d1565b115b156112af57839050611455565b600560003373ffffffffffffffffffffffffffffffffffffffff1673ffffffffffffffffffffffffffffffffffffffff16815260200190815260200160002060008673ffffffffffffffffffffffffffffffffffffffff1673ffffffffffffffffffffffffffffffffffffffff16815260200190815260200160002060020160019054906101000a900460ff16611417576001600560003373ffffffffffffffffffffffffffffffffffffffff1673ffffffffffffffffffffffffffffffffffffffff16815260200190815260200160002060008773ffffffffffffffffffffffffffffffffffffffff1673ffffffffffffffffffffffffffffffffffffffff16815260200190815260200160002060020160016101000a81548160ff0219169083151502179055507fee8073309115c3729855de26aad26354a4fdcd6fca9d4579b19cdd0d23b56b5f3386604051611409929190615297565b60405180910390a150611d2f565b7fad945360a905bcba857c54948aea8291bbd84165fe204dd1adfb591ad9a3af483386604051611448929190615297565b60405180910390a1600090505b6000600560008773ffffffffffffffffffffffffffffffffffffffff1673ffffffffffffffffffffffffffffffffffffffff16815260200190815260200160002060003373ffffffffffffffffffffffffffffffffffffffff1673ffffffffffffffffffffffffffffffffffffffff168152602001908152602001600020600101549050600060016114e733856104d1565b10156114f257600092505b60016114fe88846104d1565b101561150957600091505b6000831480156115195750600082145b156115275760049050611648565b600083036115385760039050611647565b600082036115495760059050611646565b8183036115595760019050611645565b6001831480156115695750600382145b156115775760029050611644565b6003831480156115875750600282145b156115955760029050611643565b6002831480156115a55750600182145b156115b35760029050611642565b6001831480156115c35750600282145b156115d15760009050611641565b6002831480156115e15750600382145b156115ef5760009050611640565b6003831480156115ff5750600182145b1561160d576000905061163f565b6040517f4fc4919600000000000000000000000000000000000000000000000000000000815260040160405180910390fd5b5b5b5b5b5b5b5b5b5b6003600581111561165c5761165b615379565b5b81600581111561166f5761166e615379565b5b036116be5761168087836001613397565b7f86bd36c89fc7071c548b2f2c73da0b94f09020cd866d2f9da1135e427be8aa8733846040516116b19291906153a8565b60405180910390a161174d565b6005808111156116d1576116d0615379565b5b8160058111156116e4576116e3615379565b5b03611733576116f533846001613397565b7f86bd36c89fc7071c548b2f2c73da0b94f09020cd866d2f9da1135e427be8aa8787836040516117269291906153a8565b60405180910390a161174c565b61173f33846001613397565b61174b87836001613397565b5b5b6000600581111561176157611760615379565b5b81600581111561177457611773615379565b5b14806117a457506003600581111561178f5761178e615379565b5b8160058111156117a2576117a1615379565b5b145b1561188c576117b63360006001613397565b61184e8760006001600780546117cb90615400565b80601f01602080910402602001604051908101604052809291908181526020018280546117f790615400565b80156118445780601f1061181957610100808354040283529160200191611844565b820191906000526020600020905b81548152906001019060200180831161182757829003601f168201915b50505050506135dd565b7fce9b0424e0b422537c46eab63a90a1a32a39403bd68139bf3c7d71918e4c8e90338489856040516118839493929190615431565b60405180910390a15b600260058111156118a05761189f615379565b5b8160058111156118b3576118b2615379565b5b14806118e257506005808111156118cd576118cc615379565b5b8160058111156118e0576118df615379565b5b145b156119ca576118f48760006001613397565b61198c33600060016007805461190990615400565b80601f016020809104026020016040519081016040528092919081815260200182805461193590615400565b80156119825780601f1061195757610100808354040283529160200191611982565b820191906000526020600020905b81548152906001019060200180831161196557829003601f168201915b50505050506135dd565b7f1cb4919468664ff4814439a36d46548b40cabf91a99cbc3f2e821cbaddd5def5338489856040516119c19493929190615431565b60405180910390a15b600460058111156119de576119dd615379565b5b8160058111156119f1576119f0615379565b5b03611a8357611a033360006001613397565b611a108760006001613397565b7f86bd36c89fc7071c548b2f2c73da0b94f09020cd866d2f9da1135e427be8aa873384604051611a419291906153a8565b60405180910390a17f86bd36c89fc7071c548b2f2c73da0b94f09020cd866d2f9da1135e427be8aa878783604051611a7a9291906153a8565b60405180910390a15b60016005811115611a9757611a96615379565b5b816005811115611aaa57611aa9615379565b5b03611aed577fecd650a7aba0abd1c6a38d6972d75c6267162e1a06197e3d4ecd751fc5ed23ba33848985604051611ae49493929190615431565b60405180910390a15b600560003373ffffffffffffffffffffffffffffffffffffffff1673ffffffffffffffffffffffffffffffffffffffff16815260200190815260200160002060008873ffffffffffffffffffffffffffffffffffffffff1673ffffffffffffffffffffffffffffffffffffffff16815260200190815260200160002060008082016000905560018201600090556002820160006101000a81549060ff02191690556002820160016101000a81549060ff021916905560038201600090555050600560008873ffffffffffffffffffffffffffffffffffffffff1673ffffffffffffffffffffffffffffffffffffffff16815260200190815260200160002060003373ffffffffffffffffffffffffffffffffffffffff1673ffffffffffffffffffffffffffffffffffffffff16815260200190815260200160002060008082016000905560018201600090556002820160006101000a81549060ff02191690556002820160016101000a81549060ff0219169055600382016000905550506001600660003373ffffffffffffffffffffffffffffffffffffffff1673ffffffffffffffffffffffffffffffffffffffff1681526020019081526020016000206000828254611cbb91906152ef565b925050819055506001600660008973ffffffffffffffffffffffffffffffffffffffff1673ffffffffffffffffffffffffffffffffffffffff1681526020019081526020016000206000828254611d1291906152ef565b92505081905550611d22336135ef565b611d2b876135ef565b5050505b50505050565b606060028054611d4490615400565b80601f0160208091040260200160405190810160405280929190818152602001828054611d7090615400565b8015611dbd5780601f10611d9257610100808354040283529160200191611dbd565b820191906000526020600020905b815481529060010190602001808311611da057829003601f168201915b50505050509050919050565b600560003373ffffffffffffffffffffffffffffffffffffffff1673ffffffffffffffffffffffffffffffffffffffff16815260200190815260200160002060008273ffffffffffffffffffffffffffffffffffffffff1673ffffffffffffffffffffffffffffffffffffffff16815260200190815260200160002060020160009054906101000a900460ff16611e8c576040517fa2aa7d6500000000000000000000000000000000000000000000000000000000815260040160405180910390fd5b600560003373ffffffffffffffffffffffffffffffffffffffff1673ffffffffffffffffffffffffffffffffffffffff16815260200190815260200160002060008273ffffffffffffffffffffffffffffffffffffffff1673ffffffffffffffffffffffffffffffffffffffff16815260200190815260200160002060008082016000905560018201600090556002820160006101000a81549060ff02191690556002820160016101000a81549060ff0219169055600382016000905550506001600660003373ffffffffffffffffffffffffffffffffffffffff1673ffffffffffffffffffffffffffffffffffffffff1681526020019081526020016000206000828254611f9b91906152ef565b925050819055507f9cf1d1a93d4bc09874aa208d080b49ac77aa9b9e64dd8bdac9f6f1f9d814fc008133604051611fd3929190615297565b60405180910390a150565b600560003373ffffffffffffffffffffffffffffffffffffffff1673ffffffffffffffffffffffffffffffffffffffff16815260200190815260200160002060008273ffffffffffffffffffffffffffffffffffffffff1673ffffffffffffffffffffffffffffffffffffffff16815260200190815260200160002060020160009054906101000a900460ff166120a1576040517fa2aa7d6500000000000000000000000000000000000000000000000000000000815260040160405180910390fd5b600560008273ffffffffffffffffffffffffffffffffffffffff1673ffffffffffffffffffffffffffffffffffffffff16815260200190815260200160002060003373ffffffffffffffffffffffffffffffffffffffff1673ffffffffffffffffffffffffffffffffffffffff16815260200190815260200160002060020160009054906101000a900460ff1615612165576040517ff14a88ec00000000000000000000000000000000000000000000000000000000815260040160405180910390fd5b600560003373ffffffffffffffffffffffffffffffffffffffff1673ffffffffffffffffffffffffffffffffffffffff16815260200190815260200160002060008273ffffffffffffffffffffffffffffffffffffffff1673ffffffffffffffffffffffffffffffffffffffff16815260200190815260200160002060008082016000905560018201600090556002820160006101000a81549060ff02191690556002820160016101000a81549060ff0219169055600382016000905550506001600660003373ffffffffffffffffffffffffffffffffffffffff1673ffffffffffffffffffffffffffffffffffffffff168152602001908152602001600020600082825461227491906152ef565b925050819055507fcd3475a4ad944ce13610e120913425666d26ba8dcd71547c5180173424a8287c33826040516122ac929190615297565b60405180910390a150565b6122c48585858585613752565b5050505050565b60608151835114612311576040517f08c379a0000000000000000000000000000000000000000000000000000000008152600401612308906154e8565b60405180910390fd5b6000835167ffffffffffffffff81111561232e5761232d61498c565b5b60405190808252806020026020018201604052801561235c5781602001602082028036833780820191505090505b50905060005b84518110156123d9576123a985828151811061238157612380615508565b5b602002602001015185838151811061239c5761239b615508565b5b60200260200101516104d1565b8282815181106123bc576123bb615508565b5b602002602001018181525050806123d290615537565b9050612362565b508091505092915050565b6000806000806123f58560006104d1565b6124008660016104d1565b61240b8760026104d1565b6124168860036104d1565b93509350935093509193509193565b61242d613a73565b6124376000613af1565b565b600080600080612448336123e4565b935093509350935090919293565b600061246133612604565b1115612499576040517f7ce8de2400000000000000000000000000000000000000000000000000000000815260040160405180910390fd5b60036124a63360006104d1565b10156124de576040517fbfe0f5c600000000000000000000000000000000000000000000000000000000815260040160405180910390fd5b6124f43360006124ef3360006104d1565b613397565b6000600460003373ffffffffffffffffffffffffffffffffffffffff1673ffffffffffffffffffffffffffffffffffffffff16815260200190815260200160002060006101000a81548160ff0219169083151502179055507f3e73e523f34a5ca25bee44a76e449c7de4b5c06dbdfc679c07f27f27a2e422613360405161257b9190614ebd565b60405180910390a17f282b6298c0318f5d7d7f2483a6823972bdbe9d2798bcfe461159151be7d7b969336040516125b29190614ebd565b60405180910390a1565b600047905090565b6000600360009054906101000a900473ffffffffffffffffffffffffffffffffffffffff16905090565b6126006125f9613bb7565b8383613bbf565b5050565b60006126118260036104d1565b61261c8360026104d1565b6126278460016104d1565b6126319190615323565b61263b9190615323565b9050919050565b600081565b600060018410806126585750600384115b1561268f576040517f5968cdba00000000000000000000000000000000000000000000000000000000815260040160405180910390fd5b338484846040516020016126a69493929190615618565b6040516020818303038152906040528051906020012090509392505050565b600381565b600181565b600281565b60001515600460003373ffffffffffffffffffffffffffffffffffffffff1673ffffffffffffffffffffffffffffffffffffffff16815260200190815260200160002060009054906101000a900460ff1615150361275e576040517f2a645edb00000000000000000000000000000000000000000000000000000000815260040160405180910390fd5b8173ffffffffffffffffffffffffffffffffffffffff163373ffffffffffffffffffffffffffffffffffffffff16036127c3576040517f6fcb561000000000000000000000000000000000000000000000000000000000815260040160405180910390fd5b60006127d03360006104d1565b03612807576040517f32a07fb500000000000000000000000000000000000000000000000000000000815260040160405180910390fd5b600061281233612604565b03612849576040517ff0b8343800000000000000000000000000000000000000000000000000000000815260040160405180910390fd5b60006128568360006104d1565b0361288d576040517f32a07fb500000000000000000000000000000000000000000000000000000000815260040160405180910390fd5b600061289883612604565b036128cf576040517ff0b8343800000000000000000000000000000000000000000000000000000000815260040160405180910390fd5b6001600660003373ffffffffffffffffffffffffffffffffffffffff1673ffffffffffffffffffffffffffffffffffffffff1681526020019081526020016000205461291a33612604565b61292491906152ef565b101561295c576040517f3fb13d7100000000000000000000000000000000000000000000000000000000815260040160405180910390fd5b6001600660003373ffffffffffffffffffffffffffffffffffffffff1673ffffffffffffffffffffffffffffffffffffffff168152602001908152602001600020546129a93360006104d1565b6129b391906152ef565b10156129eb576040517f6ac7a1ce00000000000000000000000000000000000000000000000000000000815260040160405180910390fd5b6001600660008473ffffffffffffffffffffffffffffffffffffffff1673ffffffffffffffffffffffffffffffffffffffff16815260200190815260200160002054612a3684612604565b612a4091906152ef565b1015612a78576040517f3fb13d7100000000000000000000000000000000000000000000000000000000815260040160405180910390fd5b6001600660008473ffffffffffffffffffffffffffffffffffffffff1673ffffffffffffffffffffffffffffffffffffffff16815260200190815260200160002054612ac58460006104d1565b612acf91906152ef565b1015612b07576040517f6ac7a1ce00000000000000000000000000000000000000000000000000000000815260040160405180910390fd5b600560008373ffffffffffffffffffffffffffffffffffffffff1673ffffffffffffffffffffffffffffffffffffffff16815260200190815260200160002060003373ffffffffffffffffffffffffffffffffffffffff1673ffffffffffffffffffffffffffffffffffffffff16815260200190815260200160002060020160009054906101000a900460ff1615612bcb576040517f0becbe0d00000000000000000000000000000000000000000000000000000000815260040160405180910390fd5b600560003373ffffffffffffffffffffffffffffffffffffffff1673ffffffffffffffffffffffffffffffffffffffff16815260200190815260200160002060008373ffffffffffffffffffffffffffffffffffffffff1673ffffffffffffffffffffffffffffffffffffffff16815260200190815260200160002060020160009054906101000a900460ff1615612c8f576040517f0becbe0d00000000000000000000000000000000000000000000000000000000815260040160405180910390fd5b80600560003373ffffffffffffffffffffffffffffffffffffffff1673ffffffffffffffffffffffffffffffffffffffff16815260200190815260200160002060008473ffffffffffffffffffffffffffffffffffffffff1673ffffffffffffffffffffffffffffffffffffffff168152602001908152602001600020600001819055506001600560003373ffffffffffffffffffffffffffffffffffffffff1673ffffffffffffffffffffffffffffffffffffffff16815260200190815260200160002060008473ffffffffffffffffffffffffffffffffffffffff1673ffffffffffffffffffffffffffffffffffffffff16815260200190815260200160002060020160006101000a81548160ff0219169083151502179055506001600660003373ffffffffffffffffffffffffffffffffffffffff1673ffffffffffffffffffffffffffffffffffffffff1681526020019081526020016000206000828254612dfb9190615323565b925050819055507fa3bf888d12bc12843a9f7e2696a235c1965193c71ae15cf751e5abcf05d709c23383604051612e33929190615297565b60405180910390a15050565b60011515600460003373ffffffffffffffffffffffffffffffffffffffff1673ffffffffffffffffffffffffffffffffffffffff16815260200190815260200160002060009054906101000a900460ff16151503612ec9576040517fb4b038b200000000000000000000000000000000000000000000000000000000815260040160405180910390fd5b6001600460003373ffffffffffffffffffffffffffffffffffffffff1673ffffffffffffffffffffffffffffffffffffffff16815260200190815260200160002060006101000a81548160ff0219169083151502179055506000600660003373ffffffffffffffffffffffffffffffffffffffff1673ffffffffffffffffffffffffffffffffffffffff168152602001908152602001600020819055507fb46af3c568709a25575d501b270c4768aef802b1e39fb922a8f21cb385e2ae9b3382604051612f97929190615653565b60405180910390a1613037336001600460078054612fb490615400565b80601f0160208091040260200160405190810160405280929190818152602001828054612fe090615400565b801561302d5780601f106130025761010080835404028352916020019161302d565b820191906000526020600020905b81548152906001019060200180831161301057829003601f168201915b50505050506135dd565b6130cf33600260046007805461304c90615400565b80601f016020809104026020016040519081016040528092919081815260200182805461307890615400565b80156130c55780601f1061309a576101008083540402835291602001916130c5565b820191906000526020600020905b8154815290600101906020018083116130a857829003601f168201915b50505050506135dd565b6131673360036004600780546130e490615400565b80601f016020809104026020016040519081016040528092919081815260200182805461311090615400565b801561315d5780601f106131325761010080835404028352916020019161315d565b820191906000526020600020905b81548152906001019060200180831161314057829003601f168201915b50505050506135dd565b6131ff33600060036007805461317c90615400565b80601f01602080910402602001604051908101604052809291908181526020018280546131a890615400565b80156131f55780601f106131ca576101008083540402835291602001916131f5565b820191906000526020600020905b8154815290600101906020018083116131d857829003601f168201915b50505050506135dd565b50565b6000600160008473ffffffffffffffffffffffffffffffffffffffff1673ffffffffffffffffffffffffffffffffffffffff16815260200190815260200160002060008373ffffffffffffffffffffffffffffffffffffffff1673ffffffffffffffffffffffffffffffffffffffff16815260200190815260200160002060009054906101000a900460ff16905092915050565b6132a38585858585613d2b565b5050505050565b6132b2613a73565b600073ffffffffffffffffffffffffffffffffffffffff168173ffffffffffffffffffffffffffffffffffffffff1603613321576040517f08c379a0000000000000000000000000000000000000000000000000000000008152600401613318906156f5565b60405180910390fd5b61332a81613af1565b50565b60007f01ffc9a7000000000000000000000000000000000000000000000000000000007bffffffffffffffffffffffffffffffffffffffffffffffffffffffff1916827bffffffffffffffffffffffffffffffffffffffffffffffffffffffff1916149050919050565b600073ffffffffffffffffffffffffffffffffffffffff168373ffffffffffffffffffffffffffffffffffffffff1603613406576040517f08c379a00000000000000000000000000000000000000000000000000000000081526004016133fd90615787565b60405180910390fd5b6000613410613bb7565b9050600061341d84613fc6565b9050600061342a84613fc6565b905061344a83876000858560405180602001604052806000815250614040565b600080600087815260200190815260200160002060008873ffffffffffffffffffffffffffffffffffffffff1673ffffffffffffffffffffffffffffffffffffffff168152602001908152602001600020549050848110156134e1576040517f08c379a00000000000000000000000000000000000000000000000000000000081526004016134d890615819565b60405180910390fd5b84810360008088815260200190815260200160002060008973ffffffffffffffffffffffffffffffffffffffff1673ffffffffffffffffffffffffffffffffffffffff16815260200190815260200160002081905550600073ffffffffffffffffffffffffffffffffffffffff168773ffffffffffffffffffffffffffffffffffffffff168573ffffffffffffffffffffffffffffffffffffffff167fc3d58168c5ae7397731d063d5bbf3d657854427343f4c083240f7aacaa2d0f6289896040516135ae929190615839565b60405180910390a46135d484886000868660405180602001604052806000815250614048565b50505050505050565b6135e984848484614050565b50505050565b60006135fc8260006104d1565b0361374f57600061360e8260006104d1565b1115613646576040517f0ad200f800000000000000000000000000000000000000000000000000000000815260040160405180910390fd5b61365c8160016136578460016104d1565b613397565b61367281600261366d8460026104d1565b613397565b6136888160036136838460036104d1565b613397565b6000600460008373ffffffffffffffffffffffffffffffffffffffff1673ffffffffffffffffffffffffffffffffffffffff16815260200190815260200160002060006101000a81548160ff0219169083151502179055507f9ab74d043ba19fd15c3afcaf30decddeff525822b002d45e80c80ac800d41a298160405161370f9190614ebd565b60405180910390a17f282b6298c0318f5d7d7f2483a6823972bdbe9d2798bcfe461159151be7d7b969816040516137469190614ebd565b60405180910390a15b50565b8151835114613796576040517f08c379a000000000000000000000000000000000000000000000000000000000815260040161378d906158d4565b60405180910390fd5b600073ffffffffffffffffffffffffffffffffffffffff168473ffffffffffffffffffffffffffffffffffffffff1603613805576040517f08c379a00000000000000000000000000000000000000000000000000000000081526004016137fc90615966565b60405180910390fd5b600061380f613bb7565b905061381f818787878787614040565b60005b84518110156139d05760008582815181106138405761383f615508565b5b60200260200101519050600085838151811061385f5761385e615508565b5b60200260200101519050600080600084815260200190815260200160002060008b73ffffffffffffffffffffffffffffffffffffffff1673ffffffffffffffffffffffffffffffffffffffff16815260200190815260200160002054905081811015613900576040517f08c379a00000000000000000000000000000000000000000000000000000000081526004016138f7906159f8565b60405180910390fd5b81810360008085815260200190815260200160002060008c73ffffffffffffffffffffffffffffffffffffffff1673ffffffffffffffffffffffffffffffffffffffff168152602001908152602001600020819055508160008085815260200190815260200160002060008b73ffffffffffffffffffffffffffffffffffffffff1673ffffffffffffffffffffffffffffffffffffffff16815260200190815260200160002060008282546139b59190615323565b92505081905550505050806139c990615537565b9050613822565b508473ffffffffffffffffffffffffffffffffffffffff168673ffffffffffffffffffffffffffffffffffffffff168273ffffffffffffffffffffffffffffffffffffffff167f4a39dc06d4c0dbc64b70af90fd698a233a518aa5d07e595d983b8c0526c8f7fb8787604051613a47929190615a18565b60405180910390a4613a5d818787878787614048565b613a6b818787878787614200565b505050505050565b613a7b613bb7565b73ffffffffffffffffffffffffffffffffffffffff16613a996125c4565b73ffffffffffffffffffffffffffffffffffffffff1614613aef576040517f08c379a0000000000000000000000000000000000000000000000000000000008152600401613ae690615a9b565b60405180910390fd5b565b6000600360009054906101000a900473ffffffffffffffffffffffffffffffffffffffff16905081600360006101000a81548173ffffffffffffffffffffffffffffffffffffffff021916908373ffffffffffffffffffffffffffffffffffffffff1602179055508173ffffffffffffffffffffffffffffffffffffffff168173ffffffffffffffffffffffffffffffffffffffff167f8be0079c531659141344cd1fd0a4f28419497f9722a3daafe3b4186f6b6457e060405160405180910390a35050565b600033905090565b8173ffffffffffffffffffffffffffffffffffffffff168373ffffffffffffffffffffffffffffffffffffffff1603613c2d576040517f08c379a0000000000000000000000000000000000000000000000000000000008152600401613c2490615b2d565b60405180910390fd5b80600160008573ffffffffffffffffffffffffffffffffffffffff1673ffffffffffffffffffffffffffffffffffffffff16815260200190815260200160002060008473ffffffffffffffffffffffffffffffffffffffff1673ffffffffffffffffffffffffffffffffffffffff16815260200190815260200160002060006101000a81548160ff0219169083151502179055508173ffffffffffffffffffffffffffffffffffffffff168373ffffffffffffffffffffffffffffffffffffffff167f17307eab39ab6107e8899845ad3d59bd9653f200f220920489ca2b5937696c3183604051613d1e9190614783565b60405180910390a3505050565b600073ffffffffffffffffffffffffffffffffffffffff168473ffffffffffffffffffffffffffffffffffffffff1603613d9a576040517f08c379a0000000000000000000000000000000000000000000000000000000008152600401613d9190615966565b60405180910390fd5b6000613da4613bb7565b90506000613db185613fc6565b90506000613dbe85613fc6565b9050613dce838989858589614040565b600080600088815260200190815260200160002060008a73ffffffffffffffffffffffffffffffffffffffff1673ffffffffffffffffffffffffffffffffffffffff16815260200190815260200160002054905085811015613e65576040517f08c379a0000000000000000000000000000000000000000000000000000000008152600401613e5c906159f8565b60405180910390fd5b85810360008089815260200190815260200160002060008b73ffffffffffffffffffffffffffffffffffffffff1673ffffffffffffffffffffffffffffffffffffffff168152602001908152602001600020819055508560008089815260200190815260200160002060008a73ffffffffffffffffffffffffffffffffffffffff1673ffffffffffffffffffffffffffffffffffffffff1681526020019081526020016000206000828254613f1a9190615323565b925050819055508773ffffffffffffffffffffffffffffffffffffffff168973ffffffffffffffffffffffffffffffffffffffff168573ffffffffffffffffffffffffffffffffffffffff167fc3d58168c5ae7397731d063d5bbf3d657854427343f4c083240f7aacaa2d0f628a8a604051613f97929190615839565b60405180910390a4613fad848a8a86868a614048565b613fbb848a8a8a8a8a6143d7565b505050505050505050565b60606000600167ffffffffffffffff811115613fe557613fe461498c565b5b6040519080825280602002602001820160405280156140135781602001602082028036833780820191505090505b509050828160008151811061402b5761402a615508565b5b60200260200101818152505080915050919050565b505050505050565b505050505050565b600073ffffffffffffffffffffffffffffffffffffffff168473ffffffffffffffffffffffffffffffffffffffff16036140bf576040517f08c379a00000000000000000000000000000000000000000000000000000000081526004016140b690615bbf565b60405180910390fd5b60006140c9613bb7565b905060006140d685613fc6565b905060006140e385613fc6565b90506140f483600089858589614040565b8460008088815260200190815260200160002060008973ffffffffffffffffffffffffffffffffffffffff1673ffffffffffffffffffffffffffffffffffffffff16815260200190815260200160002060008282546141539190615323565b925050819055508673ffffffffffffffffffffffffffffffffffffffff16600073ffffffffffffffffffffffffffffffffffffffff168473ffffffffffffffffffffffffffffffffffffffff167fc3d58168c5ae7397731d063d5bbf3d657854427343f4c083240f7aacaa2d0f6289896040516141d1929190615839565b60405180910390a46141e883600089858589614048565b6141f7836000898989896143d7565b50505050505050565b61421f8473ffffffffffffffffffffffffffffffffffffffff166145ae565b156143cf578373ffffffffffffffffffffffffffffffffffffffff1663bc197c8187878686866040518663ffffffff1660e01b8152600401614265959493929190615c34565b6020604051808303816000875af19250505080156142a157506040513d601f19601f8201168201806040525081019061429e9190615cb1565b60015b614346576142ad615ceb565b806308c379a00361430957506142c1615d0d565b806142cc575061430b565b806040517f08c379a0000000000000000000000000000000000000000000000000000000008152600401614300919061493d565b60405180910390fd5b505b6040517f08c379a000000000000000000000000000000000000000000000000000000000815260040161433d90615e0f565b60405180910390fd5b63bc197c8160e01b7bffffffffffffffffffffffffffffffffffffffffffffffffffffffff1916817bffffffffffffffffffffffffffffffffffffffffffffffffffffffff1916146143cd576040517f08c379a00000000000000000000000000000000000000000000000000000000081526004016143c490615ea1565b60405180910390fd5b505b505050505050565b6143f68473ffffffffffffffffffffffffffffffffffffffff166145ae565b156145a6578373ffffffffffffffffffffffffffffffffffffffff1663f23a6e6187878686866040518663ffffffff1660e01b815260040161443c959493929190615ec1565b6020604051808303816000875af192505050801561447857506040513d601f19601f820116820180604052508101906144759190615cb1565b60015b61451d57614484615ceb565b806308c379a0036144e05750614498615d0d565b806144a357506144e2565b806040517f08c379a00000000000000000000000000000000000000000000000000000000081526004016144d7919061493d565b60405180910390fd5b505b6040517f08c379a000000000000000000000000000000000000000000000000000000000815260040161451490615e0f565b60405180910390fd5b63f23a6e6160e01b7bffffffffffffffffffffffffffffffffffffffffffffffffffffffff1916817bffffffffffffffffffffffffffffffffffffffffffffffffffffffff1916146145a4576040517f08c379a000000000000000000000000000000000000000000000000000000000815260040161459b90615ea1565b60405180910390fd5b505b505050505050565b6000808273ffffffffffffffffffffffffffffffffffffffff163b119050919050565b6000604051905090565b600080fd5b600080fd5b600073ffffffffffffffffffffffffffffffffffffffff82169050919050565b6000614610826145e5565b9050919050565b61462081614605565b811461462b57600080fd5b50565b60008135905061463d81614617565b92915050565b6000819050919050565b61465681614643565b811461466157600080fd5b50565b6000813590506146738161464d565b92915050565b600080604083850312156146905761468f6145db565b5b600061469e8582860161462e565b92505060206146af85828601614664565b9150509250929050565b6146c281614643565b82525050565b60006020820190506146dd60008301846146b9565b92915050565b60007fffffffff0000000000000000000000000000000000000000000000000000000082169050919050565b614718816146e3565b811461472357600080fd5b50565b6000813590506147358161470f565b92915050565b600060208284031215614751576147506145db565b5b600061475f84828501614726565b91505092915050565b60008115159050919050565b61477d81614768565b82525050565b60006020820190506147986000830184614774565b92915050565b600080fd5b600080fd5b600080fd5b60008083601f8401126147c3576147c261479e565b5b8235905067ffffffffffffffff8111156147e0576147df6147a3565b5b6020830191508360018202830111156147fc576147fb6147a8565b5b9250929050565b6000806000806060858703121561481d5761481c6145db565b5b600061482b8782880161462e565b945050602061483c87828801614664565b935050604085013567ffffffffffffffff81111561485d5761485c6145e0565b5b614869878288016147ad565b925092505092959194509250565b60006020828403121561488d5761488c6145db565b5b600061489b84828501614664565b91505092915050565b600081519050919050565b600082825260208201905092915050565b60005b838110156148de5780820151818401526020810190506148c3565b838111156148ed576000848401525b50505050565b6000601f19601f8301169050919050565b600061490f826148a4565b61491981856148af565b93506149298185602086016148c0565b614932816148f3565b840191505092915050565b600060208201905081810360008301526149578184614904565b905092915050565b600060208284031215614975576149746145db565b5b60006149838482850161462e565b91505092915050565b7f4e487b7100000000000000000000000000000000000000000000000000000000600052604160045260246000fd5b6149c4826148f3565b810181811067ffffffffffffffff821117156149e3576149e261498c565b5b80604052505050565b60006149f66145d1565b9050614a0282826149bb565b919050565b600067ffffffffffffffff821115614a2257614a2161498c565b5b602082029050602081019050919050565b6000614a46614a4184614a07565b6149ec565b90508083825260208201905060208402830185811115614a6957614a686147a8565b5b835b81811015614a925780614a7e8882614664565b845260208401935050602081019050614a6b565b5050509392505050565b600082601f830112614ab157614ab061479e565b5b8135614ac1848260208601614a33565b91505092915050565b600080fd5b600067ffffffffffffffff821115614aea57614ae961498c565b5b614af3826148f3565b9050602081019050919050565b82818337600083830152505050565b6000614b22614b1d84614acf565b6149ec565b905082815260208101848484011115614b3e57614b3d614aca565b5b614b49848285614b00565b509392505050565b600082601f830112614b6657614b6561479e565b5b8135614b76848260208601614b0f565b91505092915050565b600080600080600060a08688031215614b9b57614b9a6145db565b5b6000614ba98882890161462e565b9550506020614bba8882890161462e565b945050604086013567ffffffffffffffff811115614bdb57614bda6145e0565b5b614be788828901614a9c565b935050606086013567ffffffffffffffff811115614c0857614c076145e0565b5b614c1488828901614a9c565b925050608086013567ffffffffffffffff811115614c3557614c346145e0565b5b614c4188828901614b51565b9150509295509295909350565b600067ffffffffffffffff821115614c6957614c6861498c565b5b602082029050602081019050919050565b6000614c8d614c8884614c4e565b6149ec565b90508083825260208201905060208402830185811115614cb057614caf6147a8565b5b835b81811015614cd95780614cc5888261462e565b845260208401935050602081019050614cb2565b5050509392505050565b600082601f830112614cf857614cf761479e565b5b8135614d08848260208601614c7a565b91505092915050565b60008060408385031215614d2857614d276145db565b5b600083013567ffffffffffffffff811115614d4657614d456145e0565b5b614d5285828601614ce3565b925050602083013567ffffffffffffffff811115614d7357614d726145e0565b5b614d7f85828601614a9c565b9150509250929050565b600081519050919050565b600082825260208201905092915050565b6000819050602082019050919050565b614dbe81614643565b82525050565b6000614dd08383614db5565b60208301905092915050565b6000602082019050919050565b6000614df482614d89565b614dfe8185614d94565b9350614e0983614da5565b8060005b83811015614e3a578151614e218882614dc4565b9750614e2c83614ddc565b925050600181019050614e0d565b5085935050505092915050565b60006020820190508181036000830152614e618184614de9565b905092915050565b6000608082019050614e7e60008301876146b9565b614e8b60208301866146b9565b614e9860408301856146b9565b614ea560608301846146b9565b95945050505050565b614eb781614605565b82525050565b6000602082019050614ed26000830184614eae565b92915050565b614ee181614768565b8114614eec57600080fd5b50565b600081359050614efe81614ed8565b92915050565b60008060408385031215614f1b57614f1a6145db565b5b6000614f298582860161462e565b9250506020614f3a85828601614eef565b9150509250929050565b600080600060408486031215614f5d57614f5c6145db565b5b6000614f6b86828701614664565b935050602084013567ffffffffffffffff811115614f8c57614f8b6145e0565b5b614f98868287016147ad565b92509250509250925092565b6000819050919050565b614fb781614fa4565b82525050565b6000602082019050614fd26000830184614fae565b92915050565b614fe181614fa4565b8114614fec57600080fd5b50565b600081359050614ffe81614fd8565b92915050565b6000806040838503121561501b5761501a6145db565b5b60006150298582860161462e565b925050602061503a85828601614fef565b9150509250929050565b600067ffffffffffffffff82111561505f5761505e61498c565b5b615068826148f3565b9050602081019050919050565b600061508861508384615044565b6149ec565b9050828152602081018484840111156150a4576150a3614aca565b5b6150af848285614b00565b509392505050565b600082601f8301126150cc576150cb61479e565b5b81356150dc848260208601615075565b91505092915050565b6000602082840312156150fb576150fa6145db565b5b600082013567ffffffffffffffff811115615119576151186145e0565b5b615125848285016150b7565b91505092915050565b60008060408385031215615145576151446145db565b5b60006151538582860161462e565b92505060206151648582860161462e565b9150509250929050565b600080600080600060a0868803121561518a576151896145db565b5b60006151988882890161462e565b95505060206151a98882890161462e565b94505060406151ba88828901614664565b93505060606151cb88828901614664565b925050608086013567ffffffffffffffff8111156151ec576151eb6145e0565b5b6151f888828901614b51565b9150509295509295909350565b7f455243313135353a2061646472657373207a65726f206973206e6f742061207660008201527f616c6964206f776e657200000000000000000000000000000000000000000000602082015250565b6000615261602a836148af565b915061526c82615205565b604082019050919050565b6000602082019050818103600083015261529081615254565b9050919050565b60006040820190506152ac6000830185614eae565b6152b96020830184614eae565b9392505050565b7f4e487b7100000000000000000000000000000000000000000000000000000000600052601160045260246000fd5b60006152fa82614643565b915061530583614643565b925082821015615318576153176152c0565b5b828203905092915050565b600061532e82614643565b915061533983614643565b9250827fffffffffffffffffffffffffffffffffffffffffffffffffffffffffffffffff0382111561536e5761536d6152c0565b5b828201905092915050565b7f4e487b7100000000000000000000000000000000000000000000000000000000600052602160045260246000fd5b60006040820190506153bd6000830185614eae565b6153ca60208301846146b9565b9392505050565b7f4e487b7100000000000000000000000000000000000000000000000000000000600052602260045260246000fd5b6000600282049050600182168061541857607f821691505b60208210810361542b5761542a6153d1565b5b50919050565b60006080820190506154466000830187614eae565b61545360208301866146b9565b6154606040830185614eae565b61546d60608301846146b9565b95945050505050565b7f455243313135353a206163636f756e747320616e6420696473206c656e67746860008201527f206d69736d617463680000000000000000000000000000000000000000000000602082015250565b60006154d26029836148af565b91506154dd82615476565b604082019050919050565b60006020820190508181036000830152615501816154c5565b9050919050565b7f4e487b7100000000000000000000000000000000000000000000000000000000600052603260045260246000fd5b600061554282614643565b91507fffffffffffffffffffffffffffffffffffffffffffffffffffffffffffffffff8203615574576155736152c0565b5b600182019050919050565b60008160601b9050919050565b60006155978261557f565b9050919050565b60006155a98261558c565b9050919050565b6155c16155bc82614605565b61559e565b82525050565b6000819050919050565b6155e26155dd82614643565b6155c7565b82525050565b600081905092915050565b60006155ff83856155e8565b935061560c838584614b00565b82840190509392505050565b600061562482876155b0565b60148201915061563482866155d1565b6020820191506156458284866155f3565b915081905095945050505050565b60006040820190506156686000830185614eae565b818103602083015261567a8184614904565b90509392505050565b7f4f776e61626c653a206e6577206f776e657220697320746865207a65726f206160008201527f6464726573730000000000000000000000000000000000000000000000000000602082015250565b60006156df6026836148af565b91506156ea82615683565b604082019050919050565b6000602082019050818103600083015261570e816156d2565b9050919050565b7f455243313135353a206275726e2066726f6d20746865207a65726f206164647260008201527f6573730000000000000000000000000000000000000000000000000000000000602082015250565b60006157716023836148af565b915061577c82615715565b604082019050919050565b600060208201905081810360008301526157a081615764565b9050919050565b7f455243313135353a206275726e20616d6f756e7420657863656564732062616c60008201527f616e636500000000000000000000000000000000000000000000000000000000602082015250565b60006158036024836148af565b915061580e826157a7565b604082019050919050565b60006020820190508181036000830152615832816157f6565b9050919050565b600060408201905061584e60008301856146b9565b61585b60208301846146b9565b9392505050565b7f455243313135353a2069647320616e6420616d6f756e7473206c656e6774682060008201527f6d69736d61746368000000000000000000000000000000000000000000000000602082015250565b60006158be6028836148af565b91506158c982615862565b604082019050919050565b600060208201905081810360008301526158ed816158b1565b9050919050565b7f455243313135353a207472616e7366657220746f20746865207a65726f20616460008201527f6472657373000000000000000000000000000000000000000000000000000000602082015250565b60006159506025836148af565b915061595b826158f4565b604082019050919050565b6000602082019050818103600083015261597f81615943565b9050919050565b7f455243313135353a20696e73756666696369656e742062616c616e636520666f60008201527f72207472616e7366657200000000000000000000000000000000000000000000602082015250565b60006159e2602a836148af565b91506159ed82615986565b604082019050919050565b60006020820190508181036000830152615a11816159d5565b9050919050565b60006040820190508181036000830152615a328185614de9565b90508181036020830152615a468184614de9565b90509392505050565b7f4f776e61626c653a2063616c6c6572206973206e6f7420746865206f776e6572600082015250565b6000615a856020836148af565b9150615a9082615a4f565b602082019050919050565b60006020820190508181036000830152615ab481615a78565b9050919050565b7f455243313135353a2073657474696e6720617070726f76616c2073746174757360008201527f20666f722073656c660000000000000000000000000000000000000000000000602082015250565b6000615b176029836148af565b9150615b2282615abb565b604082019050919050565b60006020820190508181036000830152615b4681615b0a565b9050919050565b7f455243313135353a206d696e7420746f20746865207a65726f2061646472657360008201527f7300000000000000000000000000000000000000000000000000000000000000602082015250565b6000615ba96021836148af565b9150615bb482615b4d565b604082019050919050565b60006020820190508181036000830152615bd881615b9c565b9050919050565b600081519050919050565b600082825260208201905092915050565b6000615c0682615bdf565b615c108185615bea565b9350615c208185602086016148c0565b615c29816148f3565b840191505092915050565b600060a082019050615c496000830188614eae565b615c566020830187614eae565b8181036040830152615c688186614de9565b90508181036060830152615c7c8185614de9565b90508181036080830152615c908184615bfb565b90509695505050505050565b600081519050615cab8161470f565b92915050565b600060208284031215615cc757615cc66145db565b5b6000615cd584828501615c9c565b91505092915050565b60008160e01c9050919050565b600060033d1115615d0a5760046000803e615d07600051615cde565b90505b90565b600060443d10615d9a57615d1f6145d1565b60043d036004823e80513d602482011167ffffffffffffffff82111715615d47575050615d9a565b808201805167ffffffffffffffff811115615d655750505050615d9a565b80602083010160043d038501811115615d82575050505050615d9a565b615d91826020018501866149bb565b82955050505050505b90565b7f455243313135353a207472616e7366657220746f206e6f6e2d4552433131353560008201527f526563656976657220696d706c656d656e746572000000000000000000000000602082015250565b6000615df96034836148af565b9150615e0482615d9d565b604082019050919050565b60006020820190508181036000830152615e2881615dec565b9050919050565b7f455243313135353a204552433131353552656365697665722072656a6563746560008201527f6420746f6b656e73000000000000000000000000000000000000000000000000602082015250565b6000615e8b6028836148af565b9150615e9682615e2f565b604082019050919050565b60006020820190508181036000830152615eba81615e7e565b9050919050565b600060a082019050615ed66000830188614eae565b615ee36020830187614eae565b615ef060408301866146b9565b615efd60608301856146b9565b8181036080830152615f0f8184615bfb565b9050969550505050505056fea2646970667358221220317138a47df35fe9c635dc0ca08f5429a64b8513c919082029fd57a47856716a64736f6c634300080d0033",
  "immutableReferences": {},
  "source": "// SPDX-License-Identifier: MIT\npragma solidity ^0.8.9;\n\nimport \"@openzeppelin/contracts/token/ERC1155/ERC1155.sol\";\nimport \"@openzeppelin/contracts/access/Ownable.sol\";\nimport \"@openzeppelin/contracts/token/ERC1155/extensions/ERC1155Burnable.sol\";\nimport \"./BalanceCheckers.sol\";\n\n\n/*\nTODO LIST:\n\n- Make the standard ERC1155 \"SafeTransfer\" function private/internal and create a wrapper\n  that allows players to trade stars but does not allow for players to trade their last star.\n    - **OR**, as an alternative to the above; allow players to trade away their last star, \n      but every trade checks for 0 stars and calls gameOver() if any player ends up with 0.\n\n- Add block number logging and logic for allowing chalengees to automatically win if the \n  challenger doesn't reveal in a reasonable timeframe\n\n- Create separate commit trackers for each kind of card (rock, paper, scissors) so that \n  players can't commit to a challenge with a card they don't have, and so that players\n  can't trade away cards they (might) have committed to a challenge.\n\n*/\n\n\ncontract RRPS is ERC1155, Ownable, BalanceCheckers {\n    constructor() ERC1155(emptyString) {}\n\n    struct commit {\n        bytes32 hash;\n        uint cardType;\n        bool exists;\n        bool hashStrike; \n        uint blockNum;\n    }\n\n    enum GameResult {\n        Challenger_Loses,\n        Tie,\n        Challenger_Wins,\n        Misplay_Challenger_Loses,   // Result if the challenger doesn't possess a card of the type they committed\n        Misplay_Tie,                // Result if neither player posesses the card they committed\n        Misplay_Challenger_Wins     // Result if the challengee doesn't possess a card of the type they committed\n    }\n\n    mapping (address => bool) players;\n    mapping (address => mapping (address => commit)) challenges;\n    mapping (address => uint) challengesCount;\n    \n    error AddressAlreadyPlaying();\n    error PlayerNotFound();\n    error PlayerHasNoStars();\n    error PlayerHasNoCards();\n    error PlayerHasNoUncommittedCards();\n    error PlayerHasNoUncommittedStars();\n    error PlayerStillHasStars();\n    error PlayerStillHasCards();\n    error InsufficientStars();\n    error NoSelfChallenge();\n    error PlayerAlreadyChallenged();\n    error NotYetChallenged();\n    error MustBeRockPaperOrScissors();\n    error NeedCopyOfCard();\n    error NoOpenCommit();\n    error InvalidCardCombination();\n    error OtherPlayerAlreadyCommitted();\n\n    event PlayerJoined(address playerAddress, string nickname);\n    event PlayerLeft(address playerAddress); // A player has left the game for any reason\n    event PlayerEliminated(address playerAddress);  // Player has lost all of their stars\n    event PlayerCashedOut(address playerAddress); // Player voluntarily cashes out\n    \n    event ChallengeCommit(address challenger, address challengee); // Challenger has issued a challenge to challengee\n    event OpenCommit(address challenger, address challengee); // Challengee has made an open commit to challenger's challenge\n\n    event ChallengerWins(address challenger, uint challengerCard, address challengee, uint challengeeCard); // Challenger has won the challenge against challengee\n    event ChallengerLoses(address challenger, uint challengerCard, address challengee, uint challengeeCard); // Challengee has won the challenge against challenger\n    event Tie(address challenger, uint challengerCard, address challengee, uint challengeeCard); // Challenger and challengee have tied\n    event Misplay(address player, uint card); // Player has misplayed a card\n\n    event WithdrawnChallengeCommit(address challenger, address challengee); // Challenger has withdrawn their challenge to challengee\n    event WithdrawnOpenCommit(address challenger, address challengee); // Challengee has withdrawn their open commit to challenger\n    \n    event OrphanedChallenge(address challenger, address challengee); // Player left unresolved challenges behind\n    event ChallengerFailedHashOnce(address challenger, address challengee); // Challenger failed to solve hash once\n    event ChallengerFailedHashTwice(address challenger, address challengee); // Challenger failed to solve hash twice (auto-loss of star with no card burnt)\n\n    event TokenTransfer(address from, address to, uint256 id, uint256 amount); // ERC1155 Transfer event\n\n    bytes emptyData = \"\";\n    string emptyString = \"\";\n\n    function startGame(string memory nickname) public /* payable */ {\n        // Check payment\n        // require(msg.value >= 0.1 ether);\n        // Ensure that address is not currently playing the game\n        if (players[msg.sender] == true) {revert AddressAlreadyPlaying();}\n        // Log the address as playing the game\n        players[msg.sender] = true; \n        // Set challenges count to zero;\n        challengesCount[msg.sender] = 0;\n\n\n        // Emit event\n        emit PlayerJoined(msg.sender, nickname);\n\n        // Mint new set of cards\n        mint(msg.sender, ROCK, 4, emptyData);\n        mint(msg.sender, PAPER, 4, emptyData);\n        mint(msg.sender, SCISSORS, 4, emptyData);\n        \n        // Mint new set of stars\n        mint(msg.sender, STAR, 3, emptyData);\n    }\n\n    function gameOverCheck(address player) internal {\n        //Check if player has no stars remaining\n        if (balanceOf(player, STAR) == 0){\n            // DOUBLE check!\n            if (balanceOf(player, STAR) > 0) {revert PlayerStillHasStars();}\n\n            //Burn remaining cards\n            _burn(player, ROCK, balanceOf(player, ROCK));\n            _burn(player, PAPER, balanceOf(player, PAPER));\n            _burn(player, SCISSORS, balanceOf(player, SCISSORS));\n\n\n            players[player] = false;\n            emit PlayerEliminated(player);\n            emit PlayerLeft(player);\n        }\n    }\n\n    function cashOut() public {\n        // Check that player has no cards remaining\n        if (totalCards(msg.sender) > 0) {revert PlayerStillHasCards();}\n        // Check that player has 3 or more stars remaining\n        if (balanceOf(msg.sender, STAR) < 3) {revert InsufficientStars();}\n\n        // TODO: Implement cashing out stars from the contract's account -- 0.03 Eth per star on a 0.1 Eth buyin?\n        // For now, just burn the remaining stars\n        _burn(msg.sender, STAR, balanceOf(msg.sender, STAR)); \n\n        players[msg.sender] = false;\n        emit PlayerCashedOut(msg.sender);\n        emit PlayerLeft(msg.sender);\n    }\n\n    // This function is written from the perspective of the challenger\n    function challengeCommit(address challengee, bytes32 hash) public {\n\n        // Check that player is in the game \n        if (players[msg.sender] == false) {revert PlayerNotFound();}\n\n        // Check that challenger and challengee are different accounts\n        if (msg.sender == challengee) {revert NoSelfChallenge();}\n\n        // Check that challenger has at least one star and at least one card remaining\n        if (balanceOf(msg.sender, STAR) == 0) {revert PlayerHasNoStars();}\n        if (totalCards(msg.sender) == 0) {revert PlayerHasNoCards();}\n        \n        // Check that challengee has at least one star and at least one card remaining\n        if (balanceOf(challengee, STAR) == 0) {revert PlayerHasNoStars();}\n        if (totalCards(challengee) == 0) {revert PlayerHasNoCards();}\n\n        // Check that challenger has at least one card and at least one star not already committed to a challenge\n        if ((totalCards(msg.sender) - challengesCount[msg.sender]) < 1) {revert PlayerHasNoUncommittedCards();}\n        if ((balanceOf(msg.sender, STAR) - challengesCount[msg.sender]) < 1) {revert PlayerHasNoUncommittedStars();}\n\n        // Check that challengee has at least one card and at least one star not already committed to a challenge\n        if ((totalCards(challengee) - challengesCount[challengee]) < 1) {revert PlayerHasNoUncommittedCards();}\n        if ((balanceOf(challengee, STAR) - challengesCount[challengee]) < 1) {revert PlayerHasNoUncommittedStars();}\n\n        // Check that challengee doesn't have an open challenge against challenger and vise versa\n        if (challenges[challengee][msg.sender].exists) {revert PlayerAlreadyChallenged();}\n        if (challenges[msg.sender][challengee].exists) {revert PlayerAlreadyChallenged();}\n\n        // Set challenges mapping challenger -> challengee -> cardType and increment challengeCount for challenger \n        challenges[msg.sender][challengee].hash = hash;\n        challenges[msg.sender][challengee].exists = true;\n        challengesCount[msg.sender] += 1;\n\n        emit ChallengeCommit(msg.sender, challengee);\n    }\n\n    // This function is written from the perspective of the challengee\n    function openCommit(address challenger, uint cardType) public{\n\n        // Check that player is in the game \n        if (players[msg.sender] == false) {revert PlayerNotFound();}\n\n        // Check that challengee has been challenged by challenger\n        if (!challenges[challenger][msg.sender].exists) {revert NotYetChallenged();}\n\n        // Check to see if challenger is still in the game. If they are not, withdraw the challenge and end function early\n        if (players[challenger] == false){\n            delete challenges[challenger][msg.sender];\n            emit OrphanedChallenge(challenger, msg.sender);\n            return ();\n        }\n\n        // Check that cardType is one of ROCK (1), PAPER (2), SCISSORS (3)\n        if(cardType < 1 || cardType > 3) {revert MustBeRockPaperOrScissors();}\n\n        // Check that challenger and challengee are different accounts\n        if (msg.sender == challenger) {revert NoSelfChallenge();}\n\n        // Check that challengee has at least one card and at least one star not already committed to a challenge\n        if ((totalCards(msg.sender) - challengesCount[msg.sender]) < 1) {revert PlayerHasNoUncommittedCards();}\n        if ((balanceOf(msg.sender, STAR) - challengesCount[msg.sender]) < 1) {revert PlayerHasNoUncommittedStars();}\n\n        // Check that challengee has at least one copy of the card they're trying to commit\n        if(balanceOf(msg.sender, cardType) < 1) {revert NeedCopyOfCard();}\n\n        // Set challenges mapping challengee -> challenger -> cardType\n        challenges[msg.sender][challenger].cardType = cardType;\n        challenges[msg.sender][challenger].exists = true;\n\n        // Increment challengeCount for challengee \n        challengesCount[msg.sender] += 1;\n\n        emit OpenCommit(challenger, msg.sender);\n    }\n\n    // Written from the perspective of the challenger, who must now reveal their card by proving their hash\n    function reveal(address challengee, uint cardType, string calldata salt) public {\n\n        // Check that player is in the game \n        if (players[msg.sender] == false) {revert PlayerNotFound();}\n\n        // Check that cardType is one of ROCK (1), PAPER (2), SCISSORS (3)\n        if(cardType < 1 || cardType > 3) {revert MustBeRockPaperOrScissors();}\n\n        // Check to ensure that an open commit from the challengee exists against the challenger's challenge (which also needs to exist)\n        if(!challenges[challengee][msg.sender].exists) {revert NotYetChallenged();}\n        if(!challenges[msg.sender][challengee].exists) {revert NoOpenCommit();}\n\n        // Check to see if challengee is still in the game. If they are not, withdraw the challenge and end function early\n        if (players[challengee] == false){\n            delete challenges[challengee][msg.sender];\n            delete challenges[msg.sender][challengee];\n            challengesCount[msg.sender] -= 1;\n            emit OrphanedChallenge(msg.sender, challengee);\n            return ();\n        }\n\n        // Check that challenger isn't revealing against themselves\n        if (msg.sender == challengee) {revert NoSelfChallenge();}\n\n        // Check that challenger's hash is solved using the card type and salt.\n        // If they fail to do so, they get a hash strike and the function returns.\n        uint challengerCard;\n\n        if (hashCommit(cardType, salt) == challenges[msg.sender][challengee].hash && balanceOf(msg.sender, cardType) > 0){\n            challengerCard = cardType;\n        } else if (!challenges[msg.sender][challengee].hashStrike) {\n            challenges[msg.sender][challengee].hashStrike = true;\n            emit ChallengerFailedHashOnce(msg.sender, challengee);\n            return ();\n        } else {\n            emit ChallengerFailedHashTwice(msg.sender, challengee);\n            challengerCard = 0;\n        }\n        \n        uint challengeeCard = challenges[challengee][msg.sender].cardType;\n        \n        GameResult gameResult;\n\n        // Ensure that challengee is in possession of the card they committed; \n        // if they're not, change card type to 0, representing a misplay.\n        if (balanceOf(msg.sender, challengerCard) < 1)  {challengerCard = 0;}\n        if (balanceOf(challengee, challengeeCard) < 1)  {challengeeCard = 0;}\n\n        // Determine Winner\n        if      (challengerCard == 0 && challengeeCard == 0)            {gameResult = GameResult.Misplay_Tie;}\n        else if (challengerCard == 0)                                   {gameResult = GameResult.Misplay_Challenger_Loses;}\n        else if (challengeeCard == 0)                                   {gameResult = GameResult.Misplay_Challenger_Wins;}\n        else if (challengerCard == challengeeCard)                      {gameResult = GameResult.Tie;}\n        else if (challengerCard == ROCK && challengeeCard == SCISSORS)  {gameResult = GameResult.Challenger_Wins;}\n        else if (challengerCard == SCISSORS && challengeeCard == PAPER) {gameResult = GameResult.Challenger_Wins;}\n        else if (challengerCard == PAPER && challengeeCard == ROCK)     {gameResult = GameResult.Challenger_Wins;}\n        else if (challengerCard == ROCK && challengeeCard == PAPER)     {gameResult = GameResult.Challenger_Loses;}\n        else if (challengerCard == PAPER && challengeeCard == SCISSORS) {gameResult = GameResult.Challenger_Loses;}\n        else if (challengerCard == SCISSORS && challengeeCard == ROCK)  {gameResult = GameResult.Challenger_Loses;}\n        else {revert InvalidCardCombination();}\n\n        // If the outcome is legitimate, burn both cards used, otherwise, only burn the legit cards.\n\n        if      (gameResult == GameResult.Misplay_Challenger_Loses)     {_burn(challengee, challengeeCard, 1); emit Misplay(msg.sender, challengerCard);}\n        else if (gameResult == GameResult.Misplay_Challenger_Wins)      {_burn(msg.sender, challengerCard, 1); emit Misplay(challengee, challengeeCard);}\n        else {\n            _burn(msg.sender, challengerCard, 1);\n            _burn(challengee, challengeeCard, 1);\n        }\n\n        // If there's a winner, move one star from loser to winner\n        if (gameResult == GameResult.Challenger_Loses || gameResult == GameResult.Misplay_Challenger_Loses){\n            _burn(msg.sender, STAR, 1);\n            mint(challengee, STAR, 1, emptyData);\n            emit ChallengerLoses(msg.sender, challengerCard, challengee, challengeeCard);\n        }\n        if (gameResult == GameResult.Challenger_Wins || gameResult == GameResult.Misplay_Challenger_Wins){\n            _burn(challengee, STAR, 1);\n            mint(msg.sender, STAR, 1, emptyData);\n            emit ChallengerWins(msg.sender, challengerCard, challengee, challengeeCard);\n        }\n        // If the result is a double misplay, burn one star from both participants.\n        if (gameResult == GameResult.Misplay_Tie) {\n            _burn(msg.sender, STAR, 1);\n            _burn(challengee, STAR, 1);\n            emit Misplay(msg.sender, challengerCard);\n            emit Misplay(challengee, challengeeCard);\n        }\n        // If the result is a legitimate tie, no stars change hands\n        if (gameResult == GameResult.Tie) {\n            emit Tie(msg.sender, challengerCard, challengee, challengeeCard);\n        }\n\n        // Set challenges mapping for both address orderings to false or 0??\n        delete challenges[msg.sender][challengee];\n        delete challenges[challengee][msg.sender];\n\n        // Decrement challengeCount for both participants\n        challengesCount[msg.sender] -= 1;\n        challengesCount[challengee] -= 1;\n\n        // Check for Game Over for both players\n        gameOverCheck(msg.sender);\n        gameOverCheck(challengee);\n    }\n\n    function withdrawChallenge(address challengee) public {\n        \n        // Check that player has an ongoing challenge against another player\n        if (!challenges[msg.sender][challengee].exists) {revert NotYetChallenged();}\n\n        // Ensure that the other player hasn't yet made an open commit to the challenge\n        if(challenges[challengee][msg.sender].exists) {revert OtherPlayerAlreadyCommitted();}\n\n        // Withdraw the challenge by deregistering and decrementing challengesCount\n        delete challenges[msg.sender][challengee];\n        challengesCount[msg.sender] -= 1;\n        emit WithdrawnChallengeCommit(msg.sender, challengee);\n    }\n\n    function withdrawOpenCommit(address challenger) public {\n\n        // Check that sender (challengee) has made an open commit against another player's ongoing challenge\n        if(!challenges[msg.sender][challenger].exists) {revert NotYetChallenged();}\n\n        // Withdraw the open commit by deregistering and decrementing challengesCount\n        delete challenges[msg.sender][challenger];\n        challengesCount[msg.sender] -= 1;\n        emit WithdrawnOpenCommit(challenger, msg.sender);\n    }\n\n    function setURI(string memory newuri) internal {\n        _setURI(newuri);\n    }\n\n    function mint(address account, uint256 id, uint256 amount, bytes memory data)\n        internal\n    {\n        _mint(account, id, amount, data);\n    }\n\n    function mintBatch(address to, uint256[] memory ids, uint256[] memory amounts, bytes memory data)\n        internal\n    {\n        _mintBatch(to, ids, amounts, data);\n    }\n\n    // Pure hash function\n    function hashCommit(uint cardType, string calldata salt) public view returns(bytes32) {\n        if(cardType < 1 || cardType > 3) {revert MustBeRockPaperOrScissors();}\n        return keccak256(abi.encodePacked(msg.sender, cardType, salt));\n    }\n\n    // Transfer Overrides\n\n    function safeTransferFrom(address from, address to, uint256 id, uint256 amount, bytes memory data) public override {\n        _safeTransferFrom(from, to, id, amount, data);\n    }\n    function safeBatchTransferFrom(address from, address to, uint256[] memory ids, uint256[] memory amounts, bytes memory data) public override {\n        _safeBatchTransferFrom(from, to, ids, amounts, data);\n    }\n}\n",
  "sourcePath": "/home/pierson/Desktop/restricted_rock_paper_scissors/rrps_contracts/contracts/rrps.sol",
  "compiler": {
    "name": "solc",
    "version": "0.8.13+commit.abaa5c0e.Emscripten.clang"
  },
  "schemaVersion": "3.4.16",
  "updatedAt": "2023-10-03T01:35:34.775Z",
  "networkType": "ethereum",
  "devdoc": {
    "kind": "dev",
    "methods": {
      "balanceOf(address,uint256)": {
        "details": "See {IERC1155-balanceOf}. Requirements: - `account` cannot be the zero address."
      },
      "balanceOfBatch(address[],uint256[])": {
        "details": "See {IERC1155-balanceOfBatch}. Requirements: - `accounts` and `ids` must have the same length."
      },
      "isApprovedForAll(address,address)": {
        "details": "See {IERC1155-isApprovedForAll}."
      },
      "owner()": {
        "details": "Returns the address of the current owner."
      },
      "renounceOwnership()": {
        "details": "Leaves the contract without owner. It will not be possible to call `onlyOwner` functions. Can only be called by the current owner. NOTE: Renouncing ownership will leave the contract without an owner, thereby disabling any functionality that is only available to the owner."
      },
      "safeBatchTransferFrom(address,address,uint256[],uint256[],bytes)": {
        "details": "See {IERC1155-safeBatchTransferFrom}."
      },
      "safeTransferFrom(address,address,uint256,uint256,bytes)": {
        "details": "See {IERC1155-safeTransferFrom}."
      },
      "setApprovalForAll(address,bool)": {
        "details": "See {IERC1155-setApprovalForAll}."
      },
      "supportsInterface(bytes4)": {
        "details": "See {IERC165-supportsInterface}."
      },
      "transferOwnership(address)": {
        "details": "Transfers ownership of the contract to a new account (`newOwner`). Can only be called by the current owner."
      },
      "uri(uint256)": {
        "details": "See {IERC1155MetadataURI-uri}. This implementation returns the same URI for *all* token types. It relies on the token type ID substitution mechanism https://eips.ethereum.org/EIPS/eip-1155#metadata[defined in the EIP]. Clients calling this function must replace the `\\{id\\}` substring with the actual token type ID."
      }
    },
    "version": 1
  },
  "userdoc": {
    "kind": "user",
    "methods": {},
    "version": 1
  }
}