{
  "contractName": "RRPS",
  "abi": [
    {
      "inputs": [],
      "stateMutability": "nonpayable",
      "type": "constructor"
    },
    {
      "inputs": [],
      "name": "AddressAlreadyPlaying",
      "type": "error"
    },
    {
      "inputs": [],
      "name": "InsufficientStars",
      "type": "error"
    },
    {
      "inputs": [],
      "name": "InvalidCardCombination",
      "type": "error"
    },
    {
      "inputs": [],
      "name": "MustBeRockPaperOrScissors",
      "type": "error"
    },
    {
      "inputs": [],
      "name": "NeedCopyOfCard",
      "type": "error"
    },
    {
      "inputs": [],
      "name": "NoOpenCommit",
      "type": "error"
    },
    {
      "inputs": [],
      "name": "NoSelfChallenge",
      "type": "error"
    },
    {
      "inputs": [],
      "name": "NotYetChallenged",
      "type": "error"
    },
    {
      "inputs": [],
      "name": "PlayerAlreadyChallenged",
      "type": "error"
    },
    {
      "inputs": [],
      "name": "PlayerHasNoCards",
      "type": "error"
    },
    {
      "inputs": [],
      "name": "PlayerHasNoStars",
      "type": "error"
    },
    {
      "inputs": [],
      "name": "PlayerHasNoUncommittedCards",
      "type": "error"
    },
    {
      "inputs": [],
      "name": "PlayerHasNoUncommittedStars",
      "type": "error"
    },
    {
      "inputs": [],
      "name": "PlayerNotFound",
      "type": "error"
    },
    {
      "inputs": [],
      "name": "PlayerStillHasCards",
      "type": "error"
    },
    {
      "inputs": [],
      "name": "PlayerStillHasStars",
      "type": "error"
    },
    {
      "anonymous": false,
      "inputs": [
        {
          "indexed": true,
          "internalType": "address",
          "name": "account",
          "type": "address"
        },
        {
          "indexed": true,
          "internalType": "address",
          "name": "operator",
          "type": "address"
        },
        {
          "indexed": false,
          "internalType": "bool",
          "name": "approved",
          "type": "bool"
        }
      ],
      "name": "ApprovalForAll",
      "type": "event"
    },
    {
      "anonymous": false,
      "inputs": [
        {
          "indexed": false,
          "internalType": "address",
          "name": "challenger",
          "type": "address"
        }
      ],
      "name": "ChallengerFailedHashOnce",
      "type": "event"
    },
    {
      "anonymous": false,
      "inputs": [
        {
          "indexed": false,
          "internalType": "address",
          "name": "challenger",
          "type": "address"
        }
      ],
      "name": "ChallengerFailedHashTwice",
      "type": "event"
    },
    {
      "anonymous": false,
      "inputs": [
        {
          "indexed": true,
          "internalType": "address",
          "name": "previousOwner",
          "type": "address"
        },
        {
          "indexed": true,
          "internalType": "address",
          "name": "newOwner",
          "type": "address"
        }
      ],
      "name": "OwnershipTransferred",
      "type": "event"
    },
    {
      "anonymous": false,
      "inputs": [
        {
          "indexed": false,
          "internalType": "address",
          "name": "playerAddress",
          "type": "address"
        }
      ],
      "name": "PlayerHasJoined",
      "type": "event"
    },
    {
      "anonymous": false,
      "inputs": [
        {
          "indexed": false,
          "internalType": "address",
          "name": "playerAddress",
          "type": "address"
        }
      ],
      "name": "PlayerHasLeft",
      "type": "event"
    },
    {
      "anonymous": false,
      "inputs": [
        {
          "indexed": true,
          "internalType": "address",
          "name": "operator",
          "type": "address"
        },
        {
          "indexed": true,
          "internalType": "address",
          "name": "from",
          "type": "address"
        },
        {
          "indexed": true,
          "internalType": "address",
          "name": "to",
          "type": "address"
        },
        {
          "indexed": false,
          "internalType": "uint256[]",
          "name": "ids",
          "type": "uint256[]"
        },
        {
          "indexed": false,
          "internalType": "uint256[]",
          "name": "values",
          "type": "uint256[]"
        }
      ],
      "name": "TransferBatch",
      "type": "event"
    },
    {
      "anonymous": false,
      "inputs": [
        {
          "indexed": true,
          "internalType": "address",
          "name": "operator",
          "type": "address"
        },
        {
          "indexed": true,
          "internalType": "address",
          "name": "from",
          "type": "address"
        },
        {
          "indexed": true,
          "internalType": "address",
          "name": "to",
          "type": "address"
        },
        {
          "indexed": false,
          "internalType": "uint256",
          "name": "id",
          "type": "uint256"
        },
        {
          "indexed": false,
          "internalType": "uint256",
          "name": "value",
          "type": "uint256"
        }
      ],
      "name": "TransferSingle",
      "type": "event"
    },
    {
      "anonymous": false,
      "inputs": [
        {
          "indexed": false,
          "internalType": "string",
          "name": "value",
          "type": "string"
        },
        {
          "indexed": true,
          "internalType": "uint256",
          "name": "id",
          "type": "uint256"
        }
      ],
      "name": "URI",
      "type": "event"
    },
    {
      "inputs": [],
      "name": "PAPER",
      "outputs": [
        {
          "internalType": "uint256",
          "name": "",
          "type": "uint256"
        }
      ],
      "stateMutability": "view",
      "type": "function",
      "constant": true
    },
    {
      "inputs": [],
      "name": "ROCK",
      "outputs": [
        {
          "internalType": "uint256",
          "name": "",
          "type": "uint256"
        }
      ],
      "stateMutability": "view",
      "type": "function",
      "constant": true
    },
    {
      "inputs": [],
      "name": "SCISSORS",
      "outputs": [
        {
          "internalType": "uint256",
          "name": "",
          "type": "uint256"
        }
      ],
      "stateMutability": "view",
      "type": "function",
      "constant": true
    },
    {
      "inputs": [],
      "name": "STAR",
      "outputs": [
        {
          "internalType": "uint256",
          "name": "",
          "type": "uint256"
        }
      ],
      "stateMutability": "view",
      "type": "function",
      "constant": true
    },
    {
      "inputs": [
        {
          "internalType": "address",
          "name": "account",
          "type": "address"
        },
        {
          "internalType": "uint256",
          "name": "id",
          "type": "uint256"
        }
      ],
      "name": "balanceOf",
      "outputs": [
        {
          "internalType": "uint256",
          "name": "",
          "type": "uint256"
        }
      ],
      "stateMutability": "view",
      "type": "function",
      "constant": true
    },
    {
      "inputs": [
        {
          "internalType": "address",
          "name": "account",
          "type": "address"
        }
      ],
      "name": "balanceOf",
      "outputs": [
        {
          "internalType": "uint256",
          "name": "",
          "type": "uint256"
        },
        {
          "internalType": "uint256",
          "name": "",
          "type": "uint256"
        },
        {
          "internalType": "uint256",
          "name": "",
          "type": "uint256"
        },
        {
          "internalType": "uint256",
          "name": "",
          "type": "uint256"
        }
      ],
      "stateMutability": "view",
      "type": "function",
      "constant": true
    },
    {
      "inputs": [],
      "name": "balanceOf",
      "outputs": [
        {
          "internalType": "uint256",
          "name": "",
          "type": "uint256"
        },
        {
          "internalType": "uint256",
          "name": "",
          "type": "uint256"
        },
        {
          "internalType": "uint256",
          "name": "",
          "type": "uint256"
        },
        {
          "internalType": "uint256",
          "name": "",
          "type": "uint256"
        }
      ],
      "stateMutability": "view",
      "type": "function",
      "constant": true
    },
    {
      "inputs": [
        {
          "internalType": "address[]",
          "name": "accounts",
          "type": "address[]"
        },
        {
          "internalType": "uint256[]",
          "name": "ids",
          "type": "uint256[]"
        }
      ],
      "name": "balanceOfBatch",
      "outputs": [
        {
          "internalType": "uint256[]",
          "name": "",
          "type": "uint256[]"
        }
      ],
      "stateMutability": "view",
      "type": "function",
      "constant": true
    },
    {
      "inputs": [],
      "name": "contractBalance",
      "outputs": [
        {
          "internalType": "uint256",
          "name": "",
          "type": "uint256"
        }
      ],
      "stateMutability": "view",
      "type": "function",
      "constant": true
    },
    {
      "inputs": [
        {
          "internalType": "address",
          "name": "account",
          "type": "address"
        },
        {
          "internalType": "address",
          "name": "operator",
          "type": "address"
        }
      ],
      "name": "isApprovedForAll",
      "outputs": [
        {
          "internalType": "bool",
          "name": "",
          "type": "bool"
        }
      ],
      "stateMutability": "view",
      "type": "function",
      "constant": true
    },
    {
      "inputs": [],
      "name": "owner",
      "outputs": [
        {
          "internalType": "address",
          "name": "",
          "type": "address"
        }
      ],
      "stateMutability": "view",
      "type": "function",
      "constant": true
    },
    {
      "inputs": [],
      "name": "renounceOwnership",
      "outputs": [],
      "stateMutability": "nonpayable",
      "type": "function"
    },
    {
      "inputs": [
        {
          "internalType": "address",
          "name": "operator",
          "type": "address"
        },
        {
          "internalType": "bool",
          "name": "approved",
          "type": "bool"
        }
      ],
      "name": "setApprovalForAll",
      "outputs": [],
      "stateMutability": "nonpayable",
      "type": "function"
    },
    {
      "inputs": [
        {
          "internalType": "bytes4",
          "name": "interfaceId",
          "type": "bytes4"
        }
      ],
      "name": "supportsInterface",
      "outputs": [
        {
          "internalType": "bool",
          "name": "",
          "type": "bool"
        }
      ],
      "stateMutability": "view",
      "type": "function",
      "constant": true
    },
    {
      "inputs": [
        {
          "internalType": "address",
          "name": "player",
          "type": "address"
        }
      ],
      "name": "totalCards",
      "outputs": [
        {
          "internalType": "uint256",
          "name": "",
          "type": "uint256"
        }
      ],
      "stateMutability": "view",
      "type": "function",
      "constant": true
    },
    {
      "inputs": [
        {
          "internalType": "address",
          "name": "newOwner",
          "type": "address"
        }
      ],
      "name": "transferOwnership",
      "outputs": [],
      "stateMutability": "nonpayable",
      "type": "function"
    },
    {
      "inputs": [
        {
          "internalType": "uint256",
          "name": "",
          "type": "uint256"
        }
      ],
      "name": "uri",
      "outputs": [
        {
          "internalType": "string",
          "name": "",
          "type": "string"
        }
      ],
      "stateMutability": "view",
      "type": "function",
      "constant": true
    },
    {
      "inputs": [],
      "name": "startGame",
      "outputs": [],
      "stateMutability": "nonpayable",
      "type": "function"
    },
    {
      "inputs": [],
      "name": "cashOut",
      "outputs": [],
      "stateMutability": "nonpayable",
      "type": "function"
    },
    {
      "inputs": [
        {
          "internalType": "address",
          "name": "challengee",
          "type": "address"
        },
        {
          "internalType": "bytes32",
          "name": "hash",
          "type": "bytes32"
        }
      ],
      "name": "challengeCommit",
      "outputs": [],
      "stateMutability": "nonpayable",
      "type": "function"
    },
    {
      "inputs": [
        {
          "internalType": "address",
          "name": "challenger",
          "type": "address"
        },
        {
          "internalType": "uint256",
          "name": "cardType",
          "type": "uint256"
        }
      ],
      "name": "openCommit",
      "outputs": [],
      "stateMutability": "nonpayable",
      "type": "function"
    },
    {
      "inputs": [
        {
          "internalType": "address",
          "name": "challengee",
          "type": "address"
        },
        {
          "internalType": "uint256",
          "name": "cardType",
          "type": "uint256"
        },
        {
          "internalType": "string",
          "name": "salt",
          "type": "string"
        }
      ],
      "name": "reveal",
      "outputs": [],
      "stateMutability": "nonpayable",
      "type": "function"
    },
    {
      "inputs": [
        {
          "internalType": "address",
          "name": "challengee",
          "type": "address"
        }
      ],
      "name": "withdrawChallenge",
      "outputs": [],
      "stateMutability": "nonpayable",
      "type": "function"
    },
    {
      "inputs": [
        {
          "internalType": "address",
          "name": "challenger",
          "type": "address"
        }
      ],
      "name": "withdrawOpenCommit",
      "outputs": [],
      "stateMutability": "nonpayable",
      "type": "function"
    },
    {
      "inputs": [
        {
          "internalType": "uint256",
          "name": "cardType",
          "type": "uint256"
        },
        {
          "internalType": "string",
          "name": "salt",
          "type": "string"
        }
      ],
      "name": "hashCommit",
      "outputs": [
        {
          "internalType": "bytes32",
          "name": "",
          "type": "bytes32"
        }
      ],
      "stateMutability": "view",
      "type": "function",
      "constant": true
    },
    {
      "inputs": [
        {
          "internalType": "address",
          "name": "from",
          "type": "address"
        },
        {
          "internalType": "address",
          "name": "to",
          "type": "address"
        },
        {
          "internalType": "uint256",
          "name": "id",
          "type": "uint256"
        },
        {
          "internalType": "uint256",
          "name": "amount",
          "type": "uint256"
        },
        {
          "internalType": "bytes",
          "name": "data",
          "type": "bytes"
        }
      ],
      "name": "safeTransferFrom",
      "outputs": [],
      "stateMutability": "nonpayable",
      "type": "function"
    },
    {
      "inputs": [
        {
          "internalType": "address",
          "name": "from",
          "type": "address"
        },
        {
          "internalType": "address",
          "name": "to",
          "type": "address"
        },
        {
          "internalType": "uint256[]",
          "name": "ids",
          "type": "uint256[]"
        },
        {
          "internalType": "uint256[]",
          "name": "amounts",
          "type": "uint256[]"
        },
        {
          "internalType": "bytes",
          "name": "data",
          "type": "bytes"
        }
      ],
      "name": "safeBatchTransferFrom",
      "outputs": [],
      "stateMutability": "nonpayable",
      "type": "function"
    }
  ],
  "bytecode": "0x608060405260405180602001604052806000815250600790805190602001906200002b92919062000217565b50604051806020016040528060008152506008908051906020019062000053929190620002a8565b503480156200006157600080fd5b5060088054620000719062000387565b80601f01602080910402602001604051908101604052809291908181526020018280546200009f9062000387565b8015620000f05780601f10620000c457610100808354040283529160200191620000f0565b820191906000526020600020905b815481529060010190602001808311620000d257829003601f168201915b505050505062000106816200012d60201b60201c565b50620001276200011b6200014960201b60201c565b6200015160201b60201c565b620003bc565b806002908051906020019062000145929190620002a8565b5050565b600033905090565b6000600360009054906101000a900473ffffffffffffffffffffffffffffffffffffffff16905081600360006101000a81548173ffffffffffffffffffffffffffffffffffffffff021916908373ffffffffffffffffffffffffffffffffffffffff1602179055508173ffffffffffffffffffffffffffffffffffffffff168173ffffffffffffffffffffffffffffffffffffffff167f8be0079c531659141344cd1fd0a4f28419497f9722a3daafe3b4186f6b6457e060405160405180910390a35050565b828054620002259062000387565b90600052602060002090601f01602090048101928262000249576000855562000295565b82601f106200026457805160ff191683800117855562000295565b8280016001018555821562000295579182015b828111156200029457825182559160200191906001019062000277565b5b509050620002a4919062000339565b5090565b828054620002b69062000387565b90600052602060002090601f016020900481019282620002da576000855562000326565b82601f10620002f557805160ff191683800117855562000326565b8280016001018555821562000326579182015b828111156200032557825182559160200191906001019062000308565b5b50905062000335919062000339565b5090565b5b80821115620003545760008160009055506001016200033a565b5090565b7f4e487b7100000000000000000000000000000000000000000000000000000000600052602260045260246000fd5b60006002820490506001821680620003a057607f821691505b602082108103620003b657620003b562000358565b5b50919050565b61579380620003cc6000396000f3fe608060405234801561001057600080fd5b50600436106101485760003560e01c8062fdd58e1461014d57806301ffc9a71461017d57806309748bf0146101ad5780630c2929a3146101c95780630e89341c146101e557806314d7d46d146102155780632cd77d4c146102315780632eb2c2d61461024d5780634e1273f41461026957806370a0823114610299578063715018a6146102cc578063722713f7146102d6578063793cd71e146102f75780638b7afe2e146103015780638da5cb5b1461031f578063a22cb4651461033d578063a350d58014610359578063a4d89e7714610389578063aa924469146103a7578063b357a028146103d7578063b93e0e39146103f5578063c44d6f8714610413578063c855ad6014610431578063d65ab5f21461044d578063e985e9c514610457578063f242432a14610487578063f2fde38b146104a3575b600080fd5b6101676004803603810190610162919061406c565b6104bf565b60405161017491906140bb565b60405180910390f35b6101976004803603810190610192919061412e565b610587565b6040516101a49190614176565b60405180910390f35b6101c760048036038101906101c2919061406c565b610669565b005b6101e360048036038101906101de91906141f6565b610c02565b005b6101ff60048036038101906101fa919061426a565b611978565b60405161020c9190614330565b60405180910390f35b61022f600480360381019061022a9190614352565b611a0c565b005b61024b60048036038101906102469190614352565b611bbb565b005b61026760048036038101906102629190614572565b611e07565b005b610283600480360381019061027e9190614704565b611e1b565b604051610290919061483a565b60405180910390f35b6102b360048036038101906102ae9190614352565b611f34565b6040516102c3949392919061485c565b60405180910390f35b6102d4611f75565b005b6102de611f89565b6040516102ee949392919061485c565b60405180910390f35b6102ff611fa6565b005b61030961209e565b60405161031691906140bb565b60405180910390f35b6103276120a6565b60405161033491906148b0565b60405180910390f35b610357600480360381019061035291906148f7565b6120d0565b005b610373600480360381019061036e9190614352565b6120e6565b60405161038091906140bb565b60405180910390f35b610391612124565b60405161039e91906140bb565b60405180910390f35b6103c160048036038101906103bc9190614937565b612129565b6040516103ce91906149b0565b60405180910390f35b6103df6121a7565b6040516103ec91906140bb565b60405180910390f35b6103fd6121ac565b60405161040a91906140bb565b60405180910390f35b61041b6121b1565b60405161042891906140bb565b60405180910390f35b61044b600480360381019061044691906149f7565b6121b6565b005b6104556128e8565b005b610471600480360381019061046c9190614a37565b612c63565b60405161047e9190614176565b60405180910390f35b6104a1600480360381019061049c9190614a77565b612cf7565b005b6104bd60048036038101906104b89190614352565b612d0b565b005b60008073ffffffffffffffffffffffffffffffffffffffff168373ffffffffffffffffffffffffffffffffffffffff160361052f576040517f08c379a000000000000000000000000000000000000000000000000000000000815260040161052690614b80565b60405180910390fd5b60008083815260200190815260200160002060008473ffffffffffffffffffffffffffffffffffffffff1673ffffffffffffffffffffffffffffffffffffffff16815260200190815260200160002054905092915050565b60007fd9b67a26000000000000000000000000000000000000000000000000000000007bffffffffffffffffffffffffffffffffffffffffffffffffffffffff1916827bffffffffffffffffffffffffffffffffffffffffffffffffffffffff1916148061065257507f0e89341c000000000000000000000000000000000000000000000000000000007bffffffffffffffffffffffffffffffffffffffffffffffffffffffff1916827bffffffffffffffffffffffffffffffffffffffffffffffffffffffff1916145b80610662575061066182612d8e565b5b9050919050565b600560008373ffffffffffffffffffffffffffffffffffffffff1673ffffffffffffffffffffffffffffffffffffffff16815260200190815260200160002060003373ffffffffffffffffffffffffffffffffffffffff1673ffffffffffffffffffffffffffffffffffffffff16815260200190815260200160002060020160009054906101000a900460ff1661072c576040517fa2aa7d6500000000000000000000000000000000000000000000000000000000815260040160405180910390fd5b60001515600460008473ffffffffffffffffffffffffffffffffffffffff1673ffffffffffffffffffffffffffffffffffffffff16815260200190815260200160002060009054906101000a900460ff1615150361087f57600560008373ffffffffffffffffffffffffffffffffffffffff1673ffffffffffffffffffffffffffffffffffffffff16815260200190815260200160002060003373ffffffffffffffffffffffffffffffffffffffff1673ffffffffffffffffffffffffffffffffffffffff16815260200190815260200160002060008082016000905560018201600090556002820160006101000a81549060ff02191690556002820160016101000a81549060ff0219169055600382016000905550507f3cf685b98e943ffb27108be8aaad0067be0f65eee218fb97aaa20e95c3e662b18260405161087291906148b0565b60405180910390a1610bfe565b600181108061088e5750600381115b156108c5576040517f5968cdba00000000000000000000000000000000000000000000000000000000815260040160405180910390fd5b8173ffffffffffffffffffffffffffffffffffffffff163373ffffffffffffffffffffffffffffffffffffffff160361092a576040517f6fcb561000000000000000000000000000000000000000000000000000000000815260040160405180910390fd5b6001600660003373ffffffffffffffffffffffffffffffffffffffff1673ffffffffffffffffffffffffffffffffffffffff16815260200190815260200160002054610975336120e6565b61097f9190614bcf565b10156109b7576040517f3fb13d7100000000000000000000000000000000000000000000000000000000815260040160405180910390fd5b6001600660003373ffffffffffffffffffffffffffffffffffffffff1673ffffffffffffffffffffffffffffffffffffffff16815260200190815260200160002054610a043360006104bf565b610a0e9190614bcf565b1015610a46576040517f6ac7a1ce00000000000000000000000000000000000000000000000000000000815260040160405180910390fd5b6001610a5233836104bf565b1015610a8a576040517fb59dc6be00000000000000000000000000000000000000000000000000000000815260040160405180910390fd5b80600560003373ffffffffffffffffffffffffffffffffffffffff1673ffffffffffffffffffffffffffffffffffffffff16815260200190815260200160002060008473ffffffffffffffffffffffffffffffffffffffff1673ffffffffffffffffffffffffffffffffffffffff168152602001908152602001600020600101819055506001600560003373ffffffffffffffffffffffffffffffffffffffff1673ffffffffffffffffffffffffffffffffffffffff16815260200190815260200160002060008473ffffffffffffffffffffffffffffffffffffffff1673ffffffffffffffffffffffffffffffffffffffff16815260200190815260200160002060020160006101000a81548160ff0219169083151502179055506001600660003373ffffffffffffffffffffffffffffffffffffffff1673ffffffffffffffffffffffffffffffffffffffff1681526020019081526020016000206000828254610bf69190614c03565b925050819055505b5050565b6001831080610c115750600383115b15610c48576040517f5968cdba00000000000000000000000000000000000000000000000000000000815260040160405180910390fd5b600560008573ffffffffffffffffffffffffffffffffffffffff1673ffffffffffffffffffffffffffffffffffffffff16815260200190815260200160002060003373ffffffffffffffffffffffffffffffffffffffff1673ffffffffffffffffffffffffffffffffffffffff16815260200190815260200160002060020160009054906101000a900460ff16610d0b576040517fa2aa7d6500000000000000000000000000000000000000000000000000000000815260040160405180910390fd5b600560003373ffffffffffffffffffffffffffffffffffffffff1673ffffffffffffffffffffffffffffffffffffffff16815260200190815260200160002060008573ffffffffffffffffffffffffffffffffffffffff1673ffffffffffffffffffffffffffffffffffffffff16815260200190815260200160002060020160009054906101000a900460ff16610dce576040517f38df4cfd00000000000000000000000000000000000000000000000000000000815260040160405180910390fd5b60001515600460008673ffffffffffffffffffffffffffffffffffffffff1673ffffffffffffffffffffffffffffffffffffffff16815260200190815260200160002060009054906101000a900460ff16151503610fe057600560008573ffffffffffffffffffffffffffffffffffffffff1673ffffffffffffffffffffffffffffffffffffffff16815260200190815260200160002060003373ffffffffffffffffffffffffffffffffffffffff1673ffffffffffffffffffffffffffffffffffffffff16815260200190815260200160002060008082016000905560018201600090556002820160006101000a81549060ff02191690556002820160016101000a81549060ff021916905560038201600090555050600560003373ffffffffffffffffffffffffffffffffffffffff1673ffffffffffffffffffffffffffffffffffffffff16815260200190815260200160002060008573ffffffffffffffffffffffffffffffffffffffff1673ffffffffffffffffffffffffffffffffffffffff16815260200190815260200160002060008082016000905560018201600090556002820160006101000a81549060ff02191690556002820160016101000a81549060ff0219169055600382016000905550507f3cf685b98e943ffb27108be8aaad0067be0f65eee218fb97aaa20e95c3e662b184604051610fd391906148b0565b60405180910390a1611972565b8373ffffffffffffffffffffffffffffffffffffffff163373ffffffffffffffffffffffffffffffffffffffff1603611045576040517f6fcb561000000000000000000000000000000000000000000000000000000000815260040160405180910390fd5b6000600560003373ffffffffffffffffffffffffffffffffffffffff1673ffffffffffffffffffffffffffffffffffffffff16815260200190815260200160002060008673ffffffffffffffffffffffffffffffffffffffff1673ffffffffffffffffffffffffffffffffffffffff168152602001908152602001600020600001546110d2858585612129565b1480156110e8575060006110e633866104bf565b115b156110f557839050611260565b600560003373ffffffffffffffffffffffffffffffffffffffff1673ffffffffffffffffffffffffffffffffffffffff16815260200190815260200160002060008673ffffffffffffffffffffffffffffffffffffffff1673ffffffffffffffffffffffffffffffffffffffff16815260200190815260200160002060020160019054906101000a900460ff1661125b576001600560003373ffffffffffffffffffffffffffffffffffffffff1673ffffffffffffffffffffffffffffffffffffffff16815260200190815260200160002060008773ffffffffffffffffffffffffffffffffffffffff1673ffffffffffffffffffffffffffffffffffffffff16815260200190815260200160002060020160016101000a81548160ff0219169083151502179055507f28aa8c900ed411aab202e3a5b47061c9f28f346b5bdc2f897f97fc3c8e88da843360405161124d91906148b0565b60405180910390a150611972565b600090505b6000600560008773ffffffffffffffffffffffffffffffffffffffff1673ffffffffffffffffffffffffffffffffffffffff16815260200190815260200160002060003373ffffffffffffffffffffffffffffffffffffffff1673ffffffffffffffffffffffffffffffffffffffff168152602001908152602001600020600101549050600060016112f233856104bf565b10156112fd57600092505b600161130988846104bf565b101561131457600091505b6000831480156113245750600082145b156113325760049050611453565b600083036113435760039050611452565b600082036113545760059050611451565b8183036113645760019050611450565b6001831480156113745750600382145b15611382576002905061144f565b6003831480156113925750600282145b156113a0576002905061144e565b6002831480156113b05750600182145b156113be576002905061144d565b6001831480156113ce5750600282145b156113dc576000905061144c565b6002831480156113ec5750600382145b156113fa576000905061144b565b60038314801561140a5750600182145b15611418576000905061144a565b6040517f4fc4919600000000000000000000000000000000000000000000000000000000815260040160405180910390fd5b5b5b5b5b5b5b5b5b5b6003600581111561146757611466614c59565b5b81600581111561147a57611479614c59565b5b036114905761148b87836001612df8565b6114e6565b6005808111156114a3576114a2614c59565b5b8160058111156114b6576114b5614c59565b5b036114cc576114c733846001612df8565b6114e5565b6114d833846001612df8565b6114e487836001612df8565b5b5b600060058111156114fa576114f9614c59565b5b81600581111561150d5761150c614c59565b5b148061153d57506003600581111561152857611527614c59565b5b81600581111561153b5761153a614c59565b5b145b156115e85761154f3360006001612df8565b6115e787600060016007805461156490614cb7565b80601f016020809104026020016040519081016040528092919081815260200182805461159090614cb7565b80156115dd5780601f106115b2576101008083540402835291602001916115dd565b820191906000526020600020905b8154815290600101906020018083116115c057829003601f168201915b505050505061303e565b5b600260058111156115fc576115fb614c59565b5b81600581111561160f5761160e614c59565b5b148061163e575060058081111561162957611628614c59565b5b81600581111561163c5761163b614c59565b5b145b156116e9576116508760006001612df8565b6116e833600060016007805461166590614cb7565b80601f016020809104026020016040519081016040528092919081815260200182805461169190614cb7565b80156116de5780601f106116b3576101008083540402835291602001916116de565b820191906000526020600020905b8154815290600101906020018083116116c157829003601f168201915b505050505061303e565b5b600460058111156116fd576116fc614c59565b5b8160058111156117105761170f614c59565b5b03611730576117223360006001612df8565b61172f8760006001612df8565b5b600560003373ffffffffffffffffffffffffffffffffffffffff1673ffffffffffffffffffffffffffffffffffffffff16815260200190815260200160002060008873ffffffffffffffffffffffffffffffffffffffff1673ffffffffffffffffffffffffffffffffffffffff16815260200190815260200160002060008082016000905560018201600090556002820160006101000a81549060ff02191690556002820160016101000a81549060ff021916905560038201600090555050600560008873ffffffffffffffffffffffffffffffffffffffff1673ffffffffffffffffffffffffffffffffffffffff16815260200190815260200160002060003373ffffffffffffffffffffffffffffffffffffffff1673ffffffffffffffffffffffffffffffffffffffff16815260200190815260200160002060008082016000905560018201600090556002820160006101000a81549060ff02191690556002820160016101000a81549060ff0219169055600382016000905550506001600660003373ffffffffffffffffffffffffffffffffffffffff1673ffffffffffffffffffffffffffffffffffffffff16815260200190815260200160002060008282546118fe9190614bcf565b925050819055506001600660008973ffffffffffffffffffffffffffffffffffffffff1673ffffffffffffffffffffffffffffffffffffffff16815260200190815260200160002060008282546119559190614bcf565b9250508190555061196533613050565b61196e87613050565b5050505b50505050565b60606002805461198790614cb7565b80601f01602080910402602001604051908101604052809291908181526020018280546119b390614cb7565b8015611a005780601f106119d557610100808354040283529160200191611a00565b820191906000526020600020905b8154815290600101906020018083116119e357829003601f168201915b50505050509050919050565b600560003373ffffffffffffffffffffffffffffffffffffffff1673ffffffffffffffffffffffffffffffffffffffff16815260200190815260200160002060008273ffffffffffffffffffffffffffffffffffffffff1673ffffffffffffffffffffffffffffffffffffffff16815260200190815260200160002060020160009054906101000a900460ff16611aa257600080fd5b600560003373ffffffffffffffffffffffffffffffffffffffff1673ffffffffffffffffffffffffffffffffffffffff16815260200190815260200160002060008273ffffffffffffffffffffffffffffffffffffffff1673ffffffffffffffffffffffffffffffffffffffff16815260200190815260200160002060008082016000905560018201600090556002820160006101000a81549060ff02191690556002820160016101000a81549060ff0219169055600382016000905550506001600660003373ffffffffffffffffffffffffffffffffffffffff1673ffffffffffffffffffffffffffffffffffffffff1681526020019081526020016000206000828254611bb19190614bcf565b9250508190555050565b600560003373ffffffffffffffffffffffffffffffffffffffff1673ffffffffffffffffffffffffffffffffffffffff16815260200190815260200160002060008273ffffffffffffffffffffffffffffffffffffffff1673ffffffffffffffffffffffffffffffffffffffff16815260200190815260200160002060020160009054906101000a900460ff16611c5157600080fd5b60001515600560008373ffffffffffffffffffffffffffffffffffffffff1673ffffffffffffffffffffffffffffffffffffffff16815260200190815260200160002060003373ffffffffffffffffffffffffffffffffffffffff1673ffffffffffffffffffffffffffffffffffffffff16815260200190815260200160002060020160009054906101000a900460ff16151514611cee57600080fd5b600560003373ffffffffffffffffffffffffffffffffffffffff1673ffffffffffffffffffffffffffffffffffffffff16815260200190815260200160002060008273ffffffffffffffffffffffffffffffffffffffff1673ffffffffffffffffffffffffffffffffffffffff16815260200190815260200160002060008082016000905560018201600090556002820160006101000a81549060ff02191690556002820160016101000a81549060ff0219169055600382016000905550506001600660003373ffffffffffffffffffffffffffffffffffffffff1673ffffffffffffffffffffffffffffffffffffffff1681526020019081526020016000206000828254611dfd9190614bcf565b9250508190555050565b611e148585858585613145565b5050505050565b60608151835114611e61576040517f08c379a0000000000000000000000000000000000000000000000000000000008152600401611e5890614d5a565b60405180910390fd5b6000835167ffffffffffffffff811115611e7e57611e7d61437f565b5b604051908082528060200260200182016040528015611eac5781602001602082028036833780820191505090505b50905060005b8451811015611f2957611ef9858281518110611ed157611ed0614d7a565b5b6020026020010151858381518110611eec57611eeb614d7a565b5b60200260200101516104bf565b828281518110611f0c57611f0b614d7a565b5b60200260200101818152505080611f2290614da9565b9050611eb2565b508091505092915050565b600080600080611f458560006104bf565b611f508660016104bf565b611f5b8760026104bf565b611f668860036104bf565b93509350935093509193509193565b611f7d613466565b611f8760006134e4565b565b600080600080611f9833611f34565b935093509350935090919293565b6000611fb1336120e6565b1115611fe9576040517f7ce8de2400000000000000000000000000000000000000000000000000000000815260040160405180910390fd5b6003611ff63360006104bf565b101561202e576040517fbfe0f5c600000000000000000000000000000000000000000000000000000000815260040160405180910390fd5b61204433600061203f3360006104bf565b612df8565b6000600460003373ffffffffffffffffffffffffffffffffffffffff1673ffffffffffffffffffffffffffffffffffffffff16815260200190815260200160002060006101000a81548160ff021916908315150217905550565b600047905090565b6000600360009054906101000a900473ffffffffffffffffffffffffffffffffffffffff16905090565b6120e26120db6135aa565b83836135b2565b5050565b60006120f38260036104bf565b6120fe8360026104bf565b6121098460016104bf565b6121139190614c03565b61211d9190614c03565b9050919050565b600081565b6000600184108061213a5750600384115b15612171576040517f5968cdba00000000000000000000000000000000000000000000000000000000815260040160405180910390fd5b338484846040516020016121889493929190614e8a565b6040516020818303038152906040528051906020012090509392505050565b600381565b600181565b600281565b60001515600460003373ffffffffffffffffffffffffffffffffffffffff1673ffffffffffffffffffffffffffffffffffffffff16815260200190815260200160002060009054906101000a900460ff16151503612240576040517f2a645edb00000000000000000000000000000000000000000000000000000000815260040160405180910390fd5b8173ffffffffffffffffffffffffffffffffffffffff163373ffffffffffffffffffffffffffffffffffffffff16036122a5576040517f6fcb561000000000000000000000000000000000000000000000000000000000815260040160405180910390fd5b60006122b23360006104bf565b036122e9576040517f32a07fb500000000000000000000000000000000000000000000000000000000815260040160405180910390fd5b60006122f4336120e6565b0361232b576040517ff0b8343800000000000000000000000000000000000000000000000000000000815260040160405180910390fd5b60006123388360006104bf565b0361236f576040517f32a07fb500000000000000000000000000000000000000000000000000000000815260040160405180910390fd5b600061237a836120e6565b036123b1576040517ff0b8343800000000000000000000000000000000000000000000000000000000815260040160405180910390fd5b6001600660003373ffffffffffffffffffffffffffffffffffffffff1673ffffffffffffffffffffffffffffffffffffffff168152602001908152602001600020546123fc336120e6565b6124069190614bcf565b101561243e576040517f3fb13d7100000000000000000000000000000000000000000000000000000000815260040160405180910390fd5b6001600660003373ffffffffffffffffffffffffffffffffffffffff1673ffffffffffffffffffffffffffffffffffffffff1681526020019081526020016000205461248b3360006104bf565b6124959190614bcf565b10156124cd576040517f6ac7a1ce00000000000000000000000000000000000000000000000000000000815260040160405180910390fd5b6001600660008473ffffffffffffffffffffffffffffffffffffffff1673ffffffffffffffffffffffffffffffffffffffff16815260200190815260200160002054612518846120e6565b6125229190614bcf565b101561255a576040517f3fb13d7100000000000000000000000000000000000000000000000000000000815260040160405180910390fd5b6001600660008473ffffffffffffffffffffffffffffffffffffffff1673ffffffffffffffffffffffffffffffffffffffff168152602001908152602001600020546125a78460006104bf565b6125b19190614bcf565b10156125e9576040517f6ac7a1ce00000000000000000000000000000000000000000000000000000000815260040160405180910390fd5b600560008373ffffffffffffffffffffffffffffffffffffffff1673ffffffffffffffffffffffffffffffffffffffff16815260200190815260200160002060003373ffffffffffffffffffffffffffffffffffffffff1673ffffffffffffffffffffffffffffffffffffffff16815260200190815260200160002060020160009054906101000a900460ff16156126ad576040517f0becbe0d00000000000000000000000000000000000000000000000000000000815260040160405180910390fd5b600560003373ffffffffffffffffffffffffffffffffffffffff1673ffffffffffffffffffffffffffffffffffffffff16815260200190815260200160002060008373ffffffffffffffffffffffffffffffffffffffff1673ffffffffffffffffffffffffffffffffffffffff16815260200190815260200160002060020160009054906101000a900460ff1615612771576040517f0becbe0d00000000000000000000000000000000000000000000000000000000815260040160405180910390fd5b80600560003373ffffffffffffffffffffffffffffffffffffffff1673ffffffffffffffffffffffffffffffffffffffff16815260200190815260200160002060008473ffffffffffffffffffffffffffffffffffffffff1673ffffffffffffffffffffffffffffffffffffffff168152602001908152602001600020600001819055506001600560003373ffffffffffffffffffffffffffffffffffffffff1673ffffffffffffffffffffffffffffffffffffffff16815260200190815260200160002060008473ffffffffffffffffffffffffffffffffffffffff1673ffffffffffffffffffffffffffffffffffffffff16815260200190815260200160002060020160006101000a81548160ff0219169083151502179055506001600660003373ffffffffffffffffffffffffffffffffffffffff1673ffffffffffffffffffffffffffffffffffffffff16815260200190815260200160002060008282546128dd9190614c03565b925050819055505050565b60011515600460003373ffffffffffffffffffffffffffffffffffffffff1673ffffffffffffffffffffffffffffffffffffffff16815260200190815260200160002060009054906101000a900460ff16151503612972576040517fb4b038b200000000000000000000000000000000000000000000000000000000815260040160405180910390fd5b6001600460003373ffffffffffffffffffffffffffffffffffffffff1673ffffffffffffffffffffffffffffffffffffffff16815260200190815260200160002060006101000a81548160ff0219169083151502179055507ffb52491a58c57df38a00fb4d49da8ee26d19675f419deb8aca7b657035cf7d11336040516129f991906148b0565b60405180910390a1612a99336001600460078054612a1690614cb7565b80601f0160208091040260200160405190810160405280929190818152602001828054612a4290614cb7565b8015612a8f5780601f10612a6457610100808354040283529160200191612a8f565b820191906000526020600020905b815481529060010190602001808311612a7257829003601f168201915b505050505061303e565b612b31336002600460078054612aae90614cb7565b80601f0160208091040260200160405190810160405280929190818152602001828054612ada90614cb7565b8015612b275780601f10612afc57610100808354040283529160200191612b27565b820191906000526020600020905b815481529060010190602001808311612b0a57829003601f168201915b505050505061303e565b612bc9336003600460078054612b4690614cb7565b80601f0160208091040260200160405190810160405280929190818152602001828054612b7290614cb7565b8015612bbf5780601f10612b9457610100808354040283529160200191612bbf565b820191906000526020600020905b815481529060010190602001808311612ba257829003601f168201915b505050505061303e565b612c61336000600360078054612bde90614cb7565b80601f0160208091040260200160405190810160405280929190818152602001828054612c0a90614cb7565b8015612c575780601f10612c2c57610100808354040283529160200191612c57565b820191906000526020600020905b815481529060010190602001808311612c3a57829003601f168201915b505050505061303e565b565b6000600160008473ffffffffffffffffffffffffffffffffffffffff1673ffffffffffffffffffffffffffffffffffffffff16815260200190815260200160002060008373ffffffffffffffffffffffffffffffffffffffff1673ffffffffffffffffffffffffffffffffffffffff16815260200190815260200160002060009054906101000a900460ff16905092915050565b612d04858585858561371e565b5050505050565b612d13613466565b600073ffffffffffffffffffffffffffffffffffffffff168173ffffffffffffffffffffffffffffffffffffffff1603612d82576040517f08c379a0000000000000000000000000000000000000000000000000000000008152600401612d7990614f37565b60405180910390fd5b612d8b816134e4565b50565b60007f01ffc9a7000000000000000000000000000000000000000000000000000000007bffffffffffffffffffffffffffffffffffffffffffffffffffffffff1916827bffffffffffffffffffffffffffffffffffffffffffffffffffffffff1916149050919050565b600073ffffffffffffffffffffffffffffffffffffffff168373ffffffffffffffffffffffffffffffffffffffff1603612e67576040517f08c379a0000000000000000000000000000000000000000000000000000000008152600401612e5e90614fc9565b60405180910390fd5b6000612e716135aa565b90506000612e7e846139b9565b90506000612e8b846139b9565b9050612eab83876000858560405180602001604052806000815250613a33565b600080600087815260200190815260200160002060008873ffffffffffffffffffffffffffffffffffffffff1673ffffffffffffffffffffffffffffffffffffffff16815260200190815260200160002054905084811015612f42576040517f08c379a0000000000000000000000000000000000000000000000000000000008152600401612f399061505b565b60405180910390fd5b84810360008088815260200190815260200160002060008973ffffffffffffffffffffffffffffffffffffffff1673ffffffffffffffffffffffffffffffffffffffff16815260200190815260200160002081905550600073ffffffffffffffffffffffffffffffffffffffff168773ffffffffffffffffffffffffffffffffffffffff168573ffffffffffffffffffffffffffffffffffffffff167fc3d58168c5ae7397731d063d5bbf3d657854427343f4c083240f7aacaa2d0f62898960405161300f92919061507b565b60405180910390a461303584886000868660405180602001604052806000815250613a3b565b50505050505050565b61304a84848484613a43565b50505050565b600061305d8260006104bf565b0361314257600061306f8260006104bf565b11156130a7576040517f0ad200f800000000000000000000000000000000000000000000000000000000815260040160405180910390fd5b6130bd8160016130b88460016104bf565b612df8565b6130d38160026130ce8460026104bf565b612df8565b6130e98160036130e48460036104bf565b612df8565b6000600460008373ffffffffffffffffffffffffffffffffffffffff1673ffffffffffffffffffffffffffffffffffffffff16815260200190815260200160002060006101000a81548160ff0219169083151502179055505b50565b8151835114613189576040517f08c379a000000000000000000000000000000000000000000000000000000000815260040161318090615116565b60405180910390fd5b600073ffffffffffffffffffffffffffffffffffffffff168473ffffffffffffffffffffffffffffffffffffffff16036131f8576040517f08c379a00000000000000000000000000000000000000000000000000000000081526004016131ef906151a8565b60405180910390fd5b60006132026135aa565b9050613212818787878787613a33565b60005b84518110156133c357600085828151811061323357613232614d7a565b5b60200260200101519050600085838151811061325257613251614d7a565b5b60200260200101519050600080600084815260200190815260200160002060008b73ffffffffffffffffffffffffffffffffffffffff1673ffffffffffffffffffffffffffffffffffffffff168152602001908152602001600020549050818110156132f3576040517f08c379a00000000000000000000000000000000000000000000000000000000081526004016132ea9061523a565b60405180910390fd5b81810360008085815260200190815260200160002060008c73ffffffffffffffffffffffffffffffffffffffff1673ffffffffffffffffffffffffffffffffffffffff168152602001908152602001600020819055508160008085815260200190815260200160002060008b73ffffffffffffffffffffffffffffffffffffffff1673ffffffffffffffffffffffffffffffffffffffff16815260200190815260200160002060008282546133a89190614c03565b92505081905550505050806133bc90614da9565b9050613215565b508473ffffffffffffffffffffffffffffffffffffffff168673ffffffffffffffffffffffffffffffffffffffff168273ffffffffffffffffffffffffffffffffffffffff167f4a39dc06d4c0dbc64b70af90fd698a233a518aa5d07e595d983b8c0526c8f7fb878760405161343a92919061525a565b60405180910390a4613450818787878787613a3b565b61345e818787878787613bf3565b505050505050565b61346e6135aa565b73ffffffffffffffffffffffffffffffffffffffff1661348c6120a6565b73ffffffffffffffffffffffffffffffffffffffff16146134e2576040517f08c379a00000000000000000000000000000000000000000000000000000000081526004016134d9906152dd565b60405180910390fd5b565b6000600360009054906101000a900473ffffffffffffffffffffffffffffffffffffffff16905081600360006101000a81548173ffffffffffffffffffffffffffffffffffffffff021916908373ffffffffffffffffffffffffffffffffffffffff1602179055508173ffffffffffffffffffffffffffffffffffffffff168173ffffffffffffffffffffffffffffffffffffffff167f8be0079c531659141344cd1fd0a4f28419497f9722a3daafe3b4186f6b6457e060405160405180910390a35050565b600033905090565b8173ffffffffffffffffffffffffffffffffffffffff168373ffffffffffffffffffffffffffffffffffffffff1603613620576040517f08c379a00000000000000000000000000000000000000000000000000000000081526004016136179061536f565b60405180910390fd5b80600160008573ffffffffffffffffffffffffffffffffffffffff1673ffffffffffffffffffffffffffffffffffffffff16815260200190815260200160002060008473ffffffffffffffffffffffffffffffffffffffff1673ffffffffffffffffffffffffffffffffffffffff16815260200190815260200160002060006101000a81548160ff0219169083151502179055508173ffffffffffffffffffffffffffffffffffffffff168373ffffffffffffffffffffffffffffffffffffffff167f17307eab39ab6107e8899845ad3d59bd9653f200f220920489ca2b5937696c31836040516137119190614176565b60405180910390a3505050565b600073ffffffffffffffffffffffffffffffffffffffff168473ffffffffffffffffffffffffffffffffffffffff160361378d576040517f08c379a0000000000000000000000000000000000000000000000000000000008152600401613784906151a8565b60405180910390fd5b60006137976135aa565b905060006137a4856139b9565b905060006137b1856139b9565b90506137c1838989858589613a33565b600080600088815260200190815260200160002060008a73ffffffffffffffffffffffffffffffffffffffff1673ffffffffffffffffffffffffffffffffffffffff16815260200190815260200160002054905085811015613858576040517f08c379a000000000000000000000000000000000000000000000000000000000815260040161384f9061523a565b60405180910390fd5b85810360008089815260200190815260200160002060008b73ffffffffffffffffffffffffffffffffffffffff1673ffffffffffffffffffffffffffffffffffffffff168152602001908152602001600020819055508560008089815260200190815260200160002060008a73ffffffffffffffffffffffffffffffffffffffff1673ffffffffffffffffffffffffffffffffffffffff168152602001908152602001600020600082825461390d9190614c03565b925050819055508773ffffffffffffffffffffffffffffffffffffffff168973ffffffffffffffffffffffffffffffffffffffff168573ffffffffffffffffffffffffffffffffffffffff167fc3d58168c5ae7397731d063d5bbf3d657854427343f4c083240f7aacaa2d0f628a8a60405161398a92919061507b565b60405180910390a46139a0848a8a86868a613a3b565b6139ae848a8a8a8a8a613dca565b505050505050505050565b60606000600167ffffffffffffffff8111156139d8576139d761437f565b5b604051908082528060200260200182016040528015613a065781602001602082028036833780820191505090505b5090508281600081518110613a1e57613a1d614d7a565b5b60200260200101818152505080915050919050565b505050505050565b505050505050565b600073ffffffffffffffffffffffffffffffffffffffff168473ffffffffffffffffffffffffffffffffffffffff1603613ab2576040517f08c379a0000000000000000000000000000000000000000000000000000000008152600401613aa990615401565b60405180910390fd5b6000613abc6135aa565b90506000613ac9856139b9565b90506000613ad6856139b9565b9050613ae783600089858589613a33565b8460008088815260200190815260200160002060008973ffffffffffffffffffffffffffffffffffffffff1673ffffffffffffffffffffffffffffffffffffffff1681526020019081526020016000206000828254613b469190614c03565b925050819055508673ffffffffffffffffffffffffffffffffffffffff16600073ffffffffffffffffffffffffffffffffffffffff168473ffffffffffffffffffffffffffffffffffffffff167fc3d58168c5ae7397731d063d5bbf3d657854427343f4c083240f7aacaa2d0f628989604051613bc492919061507b565b60405180910390a4613bdb83600089858589613a3b565b613bea83600089898989613dca565b50505050505050565b613c128473ffffffffffffffffffffffffffffffffffffffff16613fa1565b15613dc2578373ffffffffffffffffffffffffffffffffffffffff1663bc197c8187878686866040518663ffffffff1660e01b8152600401613c58959493929190615476565b6020604051808303816000875af1925050508015613c9457506040513d601f19601f82011682018060405250810190613c9191906154f3565b60015b613d3957613ca061552d565b806308c379a003613cfc5750613cb461554f565b80613cbf5750613cfe565b806040517f08c379a0000000000000000000000000000000000000000000000000000000008152600401613cf39190614330565b60405180910390fd5b505b6040517f08c379a0000000000000000000000000000000000000000000000000000000008152600401613d3090615651565b60405180910390fd5b63bc197c8160e01b7bffffffffffffffffffffffffffffffffffffffffffffffffffffffff1916817bffffffffffffffffffffffffffffffffffffffffffffffffffffffff191614613dc0576040517f08c379a0000000000000000000000000000000000000000000000000000000008152600401613db7906156e3565b60405180910390fd5b505b505050505050565b613de98473ffffffffffffffffffffffffffffffffffffffff16613fa1565b15613f99578373ffffffffffffffffffffffffffffffffffffffff1663f23a6e6187878686866040518663ffffffff1660e01b8152600401613e2f959493929190615703565b6020604051808303816000875af1925050508015613e6b57506040513d601f19601f82011682018060405250810190613e6891906154f3565b60015b613f1057613e7761552d565b806308c379a003613ed35750613e8b61554f565b80613e965750613ed5565b806040517f08c379a0000000000000000000000000000000000000000000000000000000008152600401613eca9190614330565b60405180910390fd5b505b6040517f08c379a0000000000000000000000000000000000000000000000000000000008152600401613f0790615651565b60405180910390fd5b63f23a6e6160e01b7bffffffffffffffffffffffffffffffffffffffffffffffffffffffff1916817bffffffffffffffffffffffffffffffffffffffffffffffffffffffff191614613f97576040517f08c379a0000000000000000000000000000000000000000000000000000000008152600401613f8e906156e3565b60405180910390fd5b505b505050505050565b6000808273ffffffffffffffffffffffffffffffffffffffff163b119050919050565b6000604051905090565b600080fd5b600080fd5b600073ffffffffffffffffffffffffffffffffffffffff82169050919050565b600061400382613fd8565b9050919050565b61401381613ff8565b811461401e57600080fd5b50565b6000813590506140308161400a565b92915050565b6000819050919050565b61404981614036565b811461405457600080fd5b50565b60008135905061406681614040565b92915050565b6000806040838503121561408357614082613fce565b5b600061409185828601614021565b92505060206140a285828601614057565b9150509250929050565b6140b581614036565b82525050565b60006020820190506140d060008301846140ac565b92915050565b60007fffffffff0000000000000000000000000000000000000000000000000000000082169050919050565b61410b816140d6565b811461411657600080fd5b50565b60008135905061412881614102565b92915050565b60006020828403121561414457614143613fce565b5b600061415284828501614119565b91505092915050565b60008115159050919050565b6141708161415b565b82525050565b600060208201905061418b6000830184614167565b92915050565b600080fd5b600080fd5b600080fd5b60008083601f8401126141b6576141b5614191565b5b8235905067ffffffffffffffff8111156141d3576141d2614196565b5b6020830191508360018202830111156141ef576141ee61419b565b5b9250929050565b600080600080606085870312156142105761420f613fce565b5b600061421e87828801614021565b945050602061422f87828801614057565b935050604085013567ffffffffffffffff8111156142505761424f613fd3565b5b61425c878288016141a0565b925092505092959194509250565b6000602082840312156142805761427f613fce565b5b600061428e84828501614057565b91505092915050565b600081519050919050565b600082825260208201905092915050565b60005b838110156142d15780820151818401526020810190506142b6565b838111156142e0576000848401525b50505050565b6000601f19601f8301169050919050565b600061430282614297565b61430c81856142a2565b935061431c8185602086016142b3565b614325816142e6565b840191505092915050565b6000602082019050818103600083015261434a81846142f7565b905092915050565b60006020828403121561436857614367613fce565b5b600061437684828501614021565b91505092915050565b7f4e487b7100000000000000000000000000000000000000000000000000000000600052604160045260246000fd5b6143b7826142e6565b810181811067ffffffffffffffff821117156143d6576143d561437f565b5b80604052505050565b60006143e9613fc4565b90506143f582826143ae565b919050565b600067ffffffffffffffff8211156144155761441461437f565b5b602082029050602081019050919050565b6000614439614434846143fa565b6143df565b9050808382526020820190506020840283018581111561445c5761445b61419b565b5b835b8181101561448557806144718882614057565b84526020840193505060208101905061445e565b5050509392505050565b600082601f8301126144a4576144a3614191565b5b81356144b4848260208601614426565b91505092915050565b600080fd5b600067ffffffffffffffff8211156144dd576144dc61437f565b5b6144e6826142e6565b9050602081019050919050565b82818337600083830152505050565b6000614515614510846144c2565b6143df565b905082815260208101848484011115614531576145306144bd565b5b61453c8482856144f3565b509392505050565b600082601f83011261455957614558614191565b5b8135614569848260208601614502565b91505092915050565b600080600080600060a0868803121561458e5761458d613fce565b5b600061459c88828901614021565b95505060206145ad88828901614021565b945050604086013567ffffffffffffffff8111156145ce576145cd613fd3565b5b6145da8882890161448f565b935050606086013567ffffffffffffffff8111156145fb576145fa613fd3565b5b6146078882890161448f565b925050608086013567ffffffffffffffff81111561462857614627613fd3565b5b61463488828901614544565b9150509295509295909350565b600067ffffffffffffffff82111561465c5761465b61437f565b5b602082029050602081019050919050565b600061468061467b84614641565b6143df565b905080838252602082019050602084028301858111156146a3576146a261419b565b5b835b818110156146cc57806146b88882614021565b8452602084019350506020810190506146a5565b5050509392505050565b600082601f8301126146eb576146ea614191565b5b81356146fb84826020860161466d565b91505092915050565b6000806040838503121561471b5761471a613fce565b5b600083013567ffffffffffffffff81111561473957614738613fd3565b5b614745858286016146d6565b925050602083013567ffffffffffffffff81111561476657614765613fd3565b5b6147728582860161448f565b9150509250929050565b600081519050919050565b600082825260208201905092915050565b6000819050602082019050919050565b6147b181614036565b82525050565b60006147c383836147a8565b60208301905092915050565b6000602082019050919050565b60006147e78261477c565b6147f18185614787565b93506147fc83614798565b8060005b8381101561482d57815161481488826147b7565b975061481f836147cf565b925050600181019050614800565b5085935050505092915050565b6000602082019050818103600083015261485481846147dc565b905092915050565b600060808201905061487160008301876140ac565b61487e60208301866140ac565b61488b60408301856140ac565b61489860608301846140ac565b95945050505050565b6148aa81613ff8565b82525050565b60006020820190506148c560008301846148a1565b92915050565b6148d48161415b565b81146148df57600080fd5b50565b6000813590506148f1816148cb565b92915050565b6000806040838503121561490e5761490d613fce565b5b600061491c85828601614021565b925050602061492d858286016148e2565b9150509250929050565b6000806000604084860312156149505761494f613fce565b5b600061495e86828701614057565b935050602084013567ffffffffffffffff81111561497f5761497e613fd3565b5b61498b868287016141a0565b92509250509250925092565b6000819050919050565b6149aa81614997565b82525050565b60006020820190506149c560008301846149a1565b92915050565b6149d481614997565b81146149df57600080fd5b50565b6000813590506149f1816149cb565b92915050565b60008060408385031215614a0e57614a0d613fce565b5b6000614a1c85828601614021565b9250506020614a2d858286016149e2565b9150509250929050565b60008060408385031215614a4e57614a4d613fce565b5b6000614a5c85828601614021565b9250506020614a6d85828601614021565b9150509250929050565b600080600080600060a08688031215614a9357614a92613fce565b5b6000614aa188828901614021565b9550506020614ab288828901614021565b9450506040614ac388828901614057565b9350506060614ad488828901614057565b925050608086013567ffffffffffffffff811115614af557614af4613fd3565b5b614b0188828901614544565b9150509295509295909350565b7f455243313135353a2061646472657373207a65726f206973206e6f742061207660008201527f616c6964206f776e657200000000000000000000000000000000000000000000602082015250565b6000614b6a602a836142a2565b9150614b7582614b0e565b604082019050919050565b60006020820190508181036000830152614b9981614b5d565b9050919050565b7f4e487b7100000000000000000000000000000000000000000000000000000000600052601160045260246000fd5b6000614bda82614036565b9150614be583614036565b925082821015614bf857614bf7614ba0565b5b828203905092915050565b6000614c0e82614036565b9150614c1983614036565b9250827fffffffffffffffffffffffffffffffffffffffffffffffffffffffffffffffff03821115614c4e57614c4d614ba0565b5b828201905092915050565b7f4e487b7100000000000000000000000000000000000000000000000000000000600052602160045260246000fd5b7f4e487b7100000000000000000000000000000000000000000000000000000000600052602260045260246000fd5b60006002820490506001821680614ccf57607f821691505b602082108103614ce257614ce1614c88565b5b50919050565b7f455243313135353a206163636f756e747320616e6420696473206c656e67746860008201527f206d69736d617463680000000000000000000000000000000000000000000000602082015250565b6000614d446029836142a2565b9150614d4f82614ce8565b604082019050919050565b60006020820190508181036000830152614d7381614d37565b9050919050565b7f4e487b7100000000000000000000000000000000000000000000000000000000600052603260045260246000fd5b6000614db482614036565b91507fffffffffffffffffffffffffffffffffffffffffffffffffffffffffffffffff8203614de657614de5614ba0565b5b600182019050919050565b60008160601b9050919050565b6000614e0982614df1565b9050919050565b6000614e1b82614dfe565b9050919050565b614e33614e2e82613ff8565b614e10565b82525050565b6000819050919050565b614e54614e4f82614036565b614e39565b82525050565b600081905092915050565b6000614e718385614e5a565b9350614e7e8385846144f3565b82840190509392505050565b6000614e968287614e22565b601482019150614ea68286614e43565b602082019150614eb7828486614e65565b915081905095945050505050565b7f4f776e61626c653a206e6577206f776e657220697320746865207a65726f206160008201527f6464726573730000000000000000000000000000000000000000000000000000602082015250565b6000614f216026836142a2565b9150614f2c82614ec5565b604082019050919050565b60006020820190508181036000830152614f5081614f14565b9050919050565b7f455243313135353a206275726e2066726f6d20746865207a65726f206164647260008201527f6573730000000000000000000000000000000000000000000000000000000000602082015250565b6000614fb36023836142a2565b9150614fbe82614f57565b604082019050919050565b60006020820190508181036000830152614fe281614fa6565b9050919050565b7f455243313135353a206275726e20616d6f756e7420657863656564732062616c60008201527f616e636500000000000000000000000000000000000000000000000000000000602082015250565b60006150456024836142a2565b915061505082614fe9565b604082019050919050565b6000602082019050818103600083015261507481615038565b9050919050565b600060408201905061509060008301856140ac565b61509d60208301846140ac565b9392505050565b7f455243313135353a2069647320616e6420616d6f756e7473206c656e6774682060008201527f6d69736d61746368000000000000000000000000000000000000000000000000602082015250565b60006151006028836142a2565b915061510b826150a4565b604082019050919050565b6000602082019050818103600083015261512f816150f3565b9050919050565b7f455243313135353a207472616e7366657220746f20746865207a65726f20616460008201527f6472657373000000000000000000000000000000000000000000000000000000602082015250565b60006151926025836142a2565b915061519d82615136565b604082019050919050565b600060208201905081810360008301526151c181615185565b9050919050565b7f455243313135353a20696e73756666696369656e742062616c616e636520666f60008201527f72207472616e7366657200000000000000000000000000000000000000000000602082015250565b6000615224602a836142a2565b915061522f826151c8565b604082019050919050565b6000602082019050818103600083015261525381615217565b9050919050565b6000604082019050818103600083015261527481856147dc565b9050818103602083015261528881846147dc565b90509392505050565b7f4f776e61626c653a2063616c6c6572206973206e6f7420746865206f776e6572600082015250565b60006152c76020836142a2565b91506152d282615291565b602082019050919050565b600060208201905081810360008301526152f6816152ba565b9050919050565b7f455243313135353a2073657474696e6720617070726f76616c2073746174757360008201527f20666f722073656c660000000000000000000000000000000000000000000000602082015250565b60006153596029836142a2565b9150615364826152fd565b604082019050919050565b600060208201905081810360008301526153888161534c565b9050919050565b7f455243313135353a206d696e7420746f20746865207a65726f2061646472657360008201527f7300000000000000000000000000000000000000000000000000000000000000602082015250565b60006153eb6021836142a2565b91506153f68261538f565b604082019050919050565b6000602082019050818103600083015261541a816153de565b9050919050565b600081519050919050565b600082825260208201905092915050565b600061544882615421565b615452818561542c565b93506154628185602086016142b3565b61546b816142e6565b840191505092915050565b600060a08201905061548b60008301886148a1565b61549860208301876148a1565b81810360408301526154aa81866147dc565b905081810360608301526154be81856147dc565b905081810360808301526154d2818461543d565b90509695505050505050565b6000815190506154ed81614102565b92915050565b60006020828403121561550957615508613fce565b5b6000615517848285016154de565b91505092915050565b60008160e01c9050919050565b600060033d111561554c5760046000803e615549600051615520565b90505b90565b600060443d106155dc57615561613fc4565b60043d036004823e80513d602482011167ffffffffffffffff821117156155895750506155dc565b808201805167ffffffffffffffff8111156155a757505050506155dc565b80602083010160043d0385018111156155c45750505050506155dc565b6155d3826020018501866143ae565b82955050505050505b90565b7f455243313135353a207472616e7366657220746f206e6f6e2d4552433131353560008201527f526563656976657220696d706c656d656e746572000000000000000000000000602082015250565b600061563b6034836142a2565b9150615646826155df565b604082019050919050565b6000602082019050818103600083015261566a8161562e565b9050919050565b7f455243313135353a204552433131353552656365697665722072656a6563746560008201527f6420746f6b656e73000000000000000000000000000000000000000000000000602082015250565b60006156cd6028836142a2565b91506156d882615671565b604082019050919050565b600060208201905081810360008301526156fc816156c0565b9050919050565b600060a08201905061571860008301886148a1565b61572560208301876148a1565b61573260408301866140ac565b61573f60608301856140ac565b8181036080830152615751818461543d565b9050969550505050505056fea26469706673582212207dbfd6bd3fdb64c242ad247d01c4befd72e8ed2ec28601f8e67fce57e744f5ba64736f6c634300080d0033",
  "immutableReferences": {},
  "source": "// SPDX-License-Identifier: MIT\npragma solidity ^0.8.9;\n\nimport \"@openzeppelin/contracts/token/ERC1155/ERC1155.sol\";\nimport \"@openzeppelin/contracts/access/Ownable.sol\";\nimport \"@openzeppelin/contracts/token/ERC1155/extensions/ERC1155Burnable.sol\";\nimport \"./BalanceCheckers.sol\";\n\n\n/*\nTODO LIST:\n\n- Make the standard ERC1155 \"SafeTransfer\" function private/internal and create a wrapper\n  that allows players to trade stars but does not allow for players to trade their last star.\n    - **OR**, as an alternative to the above; allow players to trade away their last star, \n      but every trade checks for 0 stars and calls gameOver() if any player ends up with 0.\n\n- Add block number logging and logic for allowing chalengees to automatically win if the \n  challenger doesn't reveal in a reasonable timeframe\n\n- \n\n*/\n\n\ncontract RRPS is ERC1155, Ownable, BalanceCheckers {\n    constructor() ERC1155(emptyString) {}\n\n    // Nested mapping allows rapid identification of who is challenging whom\n    // TODO: REPLACE BOOL WITH HASH OR THE STRUCT??\n\n    struct commit {\n        bytes32 hash;\n        uint cardType;\n        bool exists;\n        bool hashStrike; \n        uint blockNum;\n    }\n\n    mapping (address => mapping (address => commit)) challenges;\n    mapping (address => uint) challengesCount;\n\n    event PlayerHasJoined(address playerAddress); //, string nickname);\n\n    // error NicknameAlreadyExists();\n    error AddressAlreadyPlaying();\n    error PlayerNotFound();\n    error PlayerHasNoStars();\n    error PlayerHasNoCards();\n    error PlayerHasNoUncommittedCards();\n    error PlayerHasNoUncommittedStars();\n    error PlayerStillHasStars();\n    error PlayerStillHasCards();\n    error InsufficientStars();\n    // error NicknameNotFound();\n    error NoSelfChallenge();\n    error PlayerAlreadyChallenged();\n    error NotYetChallenged();\n    error MustBeRockPaperOrScissors();\n    error NeedCopyOfCard();\n    error NoOpenCommit();\n    error InvalidCardCombination();\n\n    event PlayerHasLeft(address playerAddress);//, string nickname);\n    event ChallengerFailedHashOnce(address challenger);//, string nickname);\n    event ChallengerFailedHashTwice(address challenger);//, string nickname);\n\n    bytes emptyData = \"\";\n    string emptyString = \"\";\n\n    enum GameResult {\n        Challenger_Loses,\n        Tie,\n        Challenger_Wins,\n        Misplay_Challenger_Loses,   // Result if the challenger doesn't possess a card of the type they committed\n        Misplay_Tie,                // Result if neither player posesses the card they committed\n        Misplay_Challenger_Wins     // Result if the challengee doesn't possess a card of the type they committed\n    }\n\n    function startGame() public {//string memory nickname) public /* payable */ {\n        // Check payment\n        // require(msg.value >= 0.1 ether);\n        // Ensure that nickname is unique\n        // if (nicknamesToAddresses[nickname] != address(0)) {revert NicknameAlreadyExists();}\n        // Ensure that address is not currently playing the game\n        if (players[msg.sender] == true) {revert AddressAlreadyPlaying();}\n        // Log the address as playing the game\n        players[msg.sender] = true; \n        // Associate the nickname \n        // nicknamesToAddresses[nickname] = msg.sender;\n        // addressesToNicknames[msg.sender] = nickname;\n\n        // Emit event\n        emit PlayerHasJoined(msg.sender);//, nickname);\n\n        // Mint new set of cards\n        mint(msg.sender, ROCK, 4, emptyData);\n        mint(msg.sender, PAPER, 4, emptyData);\n        mint(msg.sender, SCISSORS, 4, emptyData);\n        \n        // Mint new set of stars\n        mint(msg.sender, STAR, 3, emptyData);\n    }\n\n    function gameOverCheck(address player) internal {\n        //Check if player has no stars remaining\n        if (balanceOf(player, STAR) == 0){\n            // DOUBLE check!\n            if (balanceOf(player, STAR) > 0) {revert PlayerStillHasStars();}\n\n            //Burn remaining cards\n            _burn(player, ROCK, balanceOf(player, ROCK));\n            _burn(player, PAPER, balanceOf(player, PAPER));\n            _burn(player, SCISSORS, balanceOf(player, SCISSORS));\n\n            //De-register address and nickname\n            // nicknamesToAddresses[addressesToNicknames[player]] = address(0);\n            // addressesToNicknames[player] = emptyString;\n            players[player] = false;\n        }\n    }\n\n    function cashOut() public {\n        // Check that player has no cards remaining\n        if (totalCards(msg.sender) > 0) {revert PlayerStillHasCards();}\n        // Check that player has 3 or more stars remaining\n        if (balanceOf(msg.sender, STAR) < 3) {revert InsufficientStars();}\n\n        // TODO: Implement cashing out stars from the contract's account -- 0.03 Eth per star on a 0.1 Eth buyin?\n        // For now, just burn the remaining stars\n        _burn(msg.sender, STAR, balanceOf(msg.sender, STAR)); \n\n        //De-register address and nickname\n        // nicknamesToAddresses[addressesToNicknames[msg.sender]] = address(0);\n        // addressesToNicknames[msg.sender] = emptyString;\n        players[msg.sender] = false;\n    }\n\n    // function challengeCommit(string memory challengeeNickname, bytes32 hash) public {\n    //     if (nicknamesToAddresses[challengeeNickname] == address(0)) {revert NicknameNotFound();}\n    //     challengeCommit(nicknamesToAddresses[challengeeNickname], hash);\n    // }\n\n    // This function is written from the perspective of the challenger\n    function challengeCommit(address challengee, bytes32 hash) public {\n\n        // Check that player is in the game \n        if (players[msg.sender] == false) {revert PlayerNotFound();}\n\n        // Check that challenger and challengee are different accounts\n        if (msg.sender == challengee) {revert NoSelfChallenge();}\n\n        // Check that challenger has at least one star and at least one card remaining\n        if (balanceOf(msg.sender, STAR) == 0) {revert PlayerHasNoStars();}\n        if (totalCards(msg.sender) == 0) {revert PlayerHasNoCards();}\n        \n        // Check that challengee has at least one star and at least one card remaining\n        if (balanceOf(challengee, STAR) == 0) {revert PlayerHasNoStars();}\n        if (totalCards(challengee) == 0) {revert PlayerHasNoCards();}\n\n        // Check that challenger has at least one card and at least one star not already committed to a challenge\n        if ((totalCards(msg.sender) - challengesCount[msg.sender]) < 1) {revert PlayerHasNoUncommittedCards();}\n        if ((balanceOf(msg.sender, STAR) - challengesCount[msg.sender]) < 1) {revert PlayerHasNoUncommittedStars();}\n\n        // Check that challengee has at least one card and at least one star not already committed to a challenge\n        if ((totalCards(challengee) - challengesCount[challengee]) < 1) {revert PlayerHasNoUncommittedCards();}\n        if ((balanceOf(challengee, STAR) - challengesCount[challengee]) < 1) {revert PlayerHasNoUncommittedStars();}\n\n        // Check that challengee doesn't have an open challenge against challenger and vise versa\n        if (challenges[challengee][msg.sender].exists) {revert PlayerAlreadyChallenged();}\n        if (challenges[msg.sender][challengee].exists) {revert PlayerAlreadyChallenged();}\n\n        // Set challenges mapping challenger -> challengee -> cardType and increment challengeCount for challenger \n        challenges[msg.sender][challengee].hash = hash;\n        challenges[msg.sender][challengee].exists = true;\n        challengesCount[msg.sender] += 1;\n        \n    }\n\n    // function openCommit(string memory challengerNickname, uint cardType) public {\n    //     if (nicknamesToAddresses[challengerNickname] == address(0)) {revert NicknameNotFound();}\n    //     openCommit(nicknamesToAddresses[challengerNickname], cardType);\n    // }\n\n    // This function is written from the perspective of the challengee\n    function openCommit(address challenger, uint cardType) public{\n\n        // Check that challengee has been challenged by challenger\n        if (!challenges[challenger][msg.sender].exists) {revert NotYetChallenged();}\n\n        // Check to see if challenger is still in the game. If they are not, withdraw the challenge and end function early\n        if (players[challenger] == false){\n            delete challenges[challenger][msg.sender];\n            emit PlayerHasLeft(challenger);//, addressesToNicknames[challenger]);\n            return ();\n        }\n\n        // Check that cardType is one of ROCK (1), PAPER (2), SCISSORS (3)\n        if(cardType < 1 || cardType > 3) {revert MustBeRockPaperOrScissors();}\n\n        // Check that challenger and challengee are different accounts\n        if (msg.sender == challenger) {revert NoSelfChallenge();}\n\n        // Check that challengee has at least one card and at least one star not already committed to a challenge\n        if ((totalCards(msg.sender) - challengesCount[msg.sender]) < 1) {revert PlayerHasNoUncommittedCards();}\n        if ((balanceOf(msg.sender, STAR) - challengesCount[msg.sender]) < 1) {revert PlayerHasNoUncommittedStars();}\n\n        // Check that challengee has at least one copy of the card they're trying to commit\n        if(balanceOf(msg.sender, cardType) < 1) {revert NeedCopyOfCard();}\n\n        // Set challenges mapping challengee -> challenger -> cardType\n        challenges[msg.sender][challenger].cardType = cardType;\n        challenges[msg.sender][challenger].exists = true;\n\n        // Increment challengeCount for challengee \n        challengesCount[msg.sender] += 1;\n    }\n\n    // function reveal(string memory challengeeNickname, uint cardType, string calldata salt) public {\n    //     if (nicknamesToAddresses[challengeeNickname] == address(0)) {revert NicknameNotFound();} \n    //     reveal(nicknamesToAddresses[challengeeNickname], cardType, salt);\n    // }\n\n    // Written from the perspective of the challenger, who must now reveal their card by proving their hash\n    function reveal(address challengee, uint cardType, string calldata salt) public {\n\n        // Check that cardType is one of ROCK (1), PAPER (2), SCISSORS (3)\n        if(cardType < 1 || cardType > 3) {revert MustBeRockPaperOrScissors();}\n\n        // Check to ensure that an open commit from the challengee exists against the challenger's challenge\n        if(!challenges[challengee][msg.sender].exists) {revert NotYetChallenged();}\n        if(!challenges[msg.sender][challengee].exists) {revert NoOpenCommit();}\n\n        // Check to see if challengee is still in the game. If they are not, withdraw the challenge and end function early\n        if (players[challengee] == false){\n            delete challenges[challengee][msg.sender];\n            delete challenges[msg.sender][challengee];\n            emit PlayerHasLeft(challengee);//, addressesToNicknames[challengee]);\n            return ();\n        }\n\n        // Check that challenger isn't revealing against themselves\n        if (msg.sender == challengee) {revert NoSelfChallenge();}\n\n        // Check that challenger's hash is solved using the card type and salt.\n        // If they fail to do so, they get a hash strike and the function returns.\n        uint challengerCard;\n\n        if (hashCommit(cardType, salt) == challenges[msg.sender][challengee].hash && balanceOf(msg.sender, cardType) > 0){\n            challengerCard = cardType;\n        } else if (!challenges[msg.sender][challengee].hashStrike) {\n            challenges[msg.sender][challengee].hashStrike = true;\n            emit ChallengerFailedHashOnce(msg.sender);//, addressesToNicknames[msg.sender]);\n            return ();\n        } else {\n            challengerCard = 0;\n        }\n        \n        \n        uint challengeeCard = challenges[challengee][msg.sender].cardType;\n        \n        GameResult gameResult;\n\n        // Ensure that challengee is in possession of the card they committed; \n        // if they're not, change card type to 0, representing a misplay.\n        if (balanceOf(msg.sender, challengerCard) < 1)  {challengerCard = 0;}\n        if (balanceOf(challengee, challengeeCard) < 1)  {challengeeCard = 0;}\n\n        // Determine Winner\n        if      (challengerCard == 0 && challengeeCard == 0)            {gameResult = GameResult.Misplay_Tie;}\n        else if (challengerCard == 0)                                   {gameResult = GameResult.Misplay_Challenger_Loses;}\n        else if (challengeeCard == 0)                                   {gameResult = GameResult.Misplay_Challenger_Wins;}\n        else if (challengerCard == challengeeCard)                      {gameResult = GameResult.Tie;}\n        else if (challengerCard == ROCK && challengeeCard == SCISSORS)  {gameResult = GameResult.Challenger_Wins;}\n        else if (challengerCard == SCISSORS && challengeeCard == PAPER) {gameResult = GameResult.Challenger_Wins;}\n        else if (challengerCard == PAPER && challengeeCard == ROCK)     {gameResult = GameResult.Challenger_Wins;}\n        else if (challengerCard == ROCK && challengeeCard == PAPER)     {gameResult = GameResult.Challenger_Loses;}\n        else if (challengerCard == PAPER && challengeeCard == SCISSORS) {gameResult = GameResult.Challenger_Loses;}\n        else if (challengerCard == SCISSORS && challengeeCard == ROCK)  {gameResult = GameResult.Challenger_Loses;}\n        else {revert InvalidCardCombination();}\n\n        // If the outcome is legitimate, burn both cards used, otherwise, only burn the legit cards.\n\n        if      (gameResult == GameResult.Misplay_Challenger_Loses)     {_burn(challengee, challengeeCard, 1);}\n        else if (gameResult == GameResult.Misplay_Challenger_Wins)      {_burn(msg.sender, challengerCard, 1);}\n        else {\n            _burn(msg.sender, challengerCard, 1);\n            _burn(challengee, challengeeCard, 1);\n        }\n\n\n        // If there's a winner, move one star from loser to winner\n        if (gameResult == GameResult.Challenger_Loses || gameResult == GameResult.Misplay_Challenger_Loses){\n            _burn(msg.sender, STAR, 1);\n            mint(challengee, STAR, 1, emptyData);\n        }\n        if (gameResult == GameResult.Challenger_Wins || gameResult == GameResult.Misplay_Challenger_Wins){\n            _burn(challengee, STAR, 1);\n            mint(msg.sender, STAR, 1, emptyData);\n        }\n        // If the result is a double misplay, burn one star from both participants.\n        if (gameResult == GameResult.Misplay_Tie) {\n            _burn(msg.sender, STAR, 1);\n            _burn(challengee, STAR, 1);\n        }\n\n        // Set challenges mapping for both address orderings to false or 0??\n        delete challenges[msg.sender][challengee];\n        delete challenges[challengee][msg.sender];\n\n        // Decrement challengeCount for both participants\n        challengesCount[msg.sender] -= 1;\n        challengesCount[challengee] -= 1;\n\n        // Check for Game Over for both players\n        gameOverCheck(msg.sender);\n        gameOverCheck(challengee);\n\n        return();\n    }\n\n    // function withdrawChallenge(string memory challengeeNickname) public {\n    //     withdrawChallenge(nicknamesToAddresses[challengeeNickname]);\n    // }\n\n    function withdrawChallenge(address challengee) public {\n        \n        // Check that player has an ongoing challenge against another player\n        require(challenges[msg.sender][challengee].exists);\n\n        // Ensure that the other player hasn't yet made an open commit to the challenge\n        require(challenges[challengee][msg.sender].exists == false);\n\n        // Withdraw the challenge by deregistering and decrementing challengesCount\n        delete challenges[msg.sender][challengee];\n        challengesCount[msg.sender] -= 1;\n\n    }\n\n    // function withdrawOpenCommit(string memory challengerNickname) public {\n    //     withdrawOpenCommit(nicknamesToAddresses[challengerNickname]);\n    // }\n\n    function withdrawOpenCommit(address challenger) public {\n\n        // Check that sender has made an open commit against another player's ongoing challenge\n        require(challenges[msg.sender][challenger].exists);\n\n        // There shouldn't be any need to ensure that the reveal hasn't happened yet, as the challenge \n        // will be deregistered as soon as the reveal occurs\n\n        // Withdraw the open commit by deregistering and decrementing challengesCount\n        delete challenges[msg.sender][challenger];\n        challengesCount[msg.sender] -= 1;\n    }\n\n\n \n    function setURI(string memory newuri) internal {\n        _setURI(newuri);\n    }\n\n    function mint(address account, uint256 id, uint256 amount, bytes memory data)\n        internal\n    {\n        _mint(account, id, amount, data);\n    }\n\n    function mintBatch(address to, uint256[] memory ids, uint256[] memory amounts, bytes memory data)\n        internal\n    {\n        _mintBatch(to, ids, amounts, data);\n    }\n\n    // Pure hash function\n    function hashCommit(uint cardType, string calldata salt) public view returns(bytes32) {\n        if(cardType < 1 || cardType > 3) {revert MustBeRockPaperOrScissors();}\n        return keccak256(abi.encodePacked(msg.sender, cardType, salt));\n    }\n\n    // Transfer Overrides\n\n    function safeTransferFrom(address from, address to, uint256 id, uint256 amount, bytes memory data) public override {\n        _safeTransferFrom(from, to, id, amount, data);\n    }\n    function safeBatchTransferFrom(address from, address to, uint256[] memory ids, uint256[] memory amounts, bytes memory data) public override {\n        _safeBatchTransferFrom(from, to, ids, amounts, data);\n    }\n}\n",
  "sourcePath": "/home/pierson/Desktop/restricted_rock_paper_scissors/rrps_contracts/contracts/rrps.sol",
  "compiler": {
    "name": "solc",
    "version": "0.8.13+commit.abaa5c0e.Emscripten.clang"
  },
  "schemaVersion": "3.4.16",
  "updatedAt": "2023-10-02T18:05:30.398Z",
  "networkType": "ethereum",
  "devdoc": {
    "kind": "dev",
    "methods": {
      "balanceOf(address,uint256)": {
        "details": "See {IERC1155-balanceOf}. Requirements: - `account` cannot be the zero address."
      },
      "balanceOfBatch(address[],uint256[])": {
        "details": "See {IERC1155-balanceOfBatch}. Requirements: - `accounts` and `ids` must have the same length."
      },
      "isApprovedForAll(address,address)": {
        "details": "See {IERC1155-isApprovedForAll}."
      },
      "owner()": {
        "details": "Returns the address of the current owner."
      },
      "renounceOwnership()": {
        "details": "Leaves the contract without owner. It will not be possible to call `onlyOwner` functions. Can only be called by the current owner. NOTE: Renouncing ownership will leave the contract without an owner, thereby disabling any functionality that is only available to the owner."
      },
      "safeBatchTransferFrom(address,address,uint256[],uint256[],bytes)": {
        "details": "See {IERC1155-safeBatchTransferFrom}."
      },
      "safeTransferFrom(address,address,uint256,uint256,bytes)": {
        "details": "See {IERC1155-safeTransferFrom}."
      },
      "setApprovalForAll(address,bool)": {
        "details": "See {IERC1155-setApprovalForAll}."
      },
      "supportsInterface(bytes4)": {
        "details": "See {IERC165-supportsInterface}."
      },
      "transferOwnership(address)": {
        "details": "Transfers ownership of the contract to a new account (`newOwner`). Can only be called by the current owner."
      },
      "uri(uint256)": {
        "details": "See {IERC1155MetadataURI-uri}. This implementation returns the same URI for *all* token types. It relies on the token type ID substitution mechanism https://eips.ethereum.org/EIPS/eip-1155#metadata[defined in the EIP]. Clients calling this function must replace the `\\{id\\}` substring with the actual token type ID."
      }
    },
    "version": 1
  },
  "userdoc": {
    "kind": "user",
    "methods": {},
    "version": 1
  }
}