{
  "contractName": "RRPS",
  "abi": [
    {
      "inputs": [],
      "name": "AddressAlreadyPlaying",
      "type": "error"
    },
    {
      "inputs": [],
      "name": "InsufficientStars",
      "type": "error"
    },
    {
      "inputs": [],
      "name": "InsufficientUncommittedTokens",
      "type": "error"
    },
    {
      "inputs": [],
      "name": "InvalidCardCombination",
      "type": "error"
    },
    {
      "inputs": [],
      "name": "MustBeRockPaperOrScissors",
      "type": "error"
    },
    {
      "inputs": [],
      "name": "NeedCopyOfCard",
      "type": "error"
    },
    {
      "inputs": [],
      "name": "NoOpenCommit",
      "type": "error"
    },
    {
      "inputs": [],
      "name": "NoSelfChallenge",
      "type": "error"
    },
    {
      "inputs": [],
      "name": "NotYetChallenged",
      "type": "error"
    },
    {
      "inputs": [],
      "name": "OtherPlayerAlreadyCommitted",
      "type": "error"
    },
    {
      "inputs": [],
      "name": "PlayerAlreadyChallenged",
      "type": "error"
    },
    {
      "inputs": [],
      "name": "PlayerNotFound",
      "type": "error"
    },
    {
      "inputs": [],
      "name": "PlayerStillHasCards",
      "type": "error"
    },
    {
      "anonymous": false,
      "inputs": [
        {
          "indexed": false,
          "internalType": "address",
          "name": "challenger",
          "type": "address"
        },
        {
          "indexed": false,
          "internalType": "address",
          "name": "challengee",
          "type": "address"
        }
      ],
      "name": "ChallengerFailedHashOnce",
      "type": "event"
    },
    {
      "anonymous": false,
      "inputs": [
        {
          "indexed": false,
          "internalType": "address",
          "name": "challenger",
          "type": "address"
        },
        {
          "indexed": false,
          "internalType": "address",
          "name": "challengee",
          "type": "address"
        }
      ],
      "name": "ChallengerFailedHashTwice",
      "type": "event"
    },
    {
      "anonymous": false,
      "inputs": [
        {
          "indexed": false,
          "internalType": "address",
          "name": "playerAddress",
          "type": "address"
        },
        {
          "indexed": false,
          "internalType": "string",
          "name": "nickname",
          "type": "string"
        }
      ],
      "name": "PlayerJoined",
      "type": "event"
    },
    {
      "anonymous": false,
      "inputs": [
        {
          "indexed": false,
          "internalType": "address",
          "name": "playerAddress",
          "type": "address"
        }
      ],
      "name": "PlayerLeft",
      "type": "event"
    },
    {
      "inputs": [
        {
          "internalType": "address",
          "name": "",
          "type": "address"
        },
        {
          "internalType": "int8",
          "name": "",
          "type": "int8"
        }
      ],
      "name": "balances",
      "outputs": [
        {
          "internalType": "uint256",
          "name": "",
          "type": "uint256"
        }
      ],
      "stateMutability": "view",
      "type": "function",
      "constant": true
    },
    {
      "inputs": [
        {
          "internalType": "address",
          "name": "",
          "type": "address"
        }
      ],
      "name": "commitCount",
      "outputs": [
        {
          "internalType": "uint8",
          "name": "",
          "type": "uint8"
        }
      ],
      "stateMutability": "view",
      "type": "function",
      "constant": true
    },
    {
      "inputs": [
        {
          "internalType": "address",
          "name": "",
          "type": "address"
        },
        {
          "internalType": "address",
          "name": "",
          "type": "address"
        }
      ],
      "name": "commits",
      "outputs": [
        {
          "internalType": "bytes32",
          "name": "hash",
          "type": "bytes32"
        },
        {
          "internalType": "int8",
          "name": "cardType",
          "type": "int8"
        },
        {
          "internalType": "bool",
          "name": "exists",
          "type": "bool"
        },
        {
          "internalType": "bool",
          "name": "hashStrike",
          "type": "bool"
        },
        {
          "internalType": "uint256",
          "name": "blockNum",
          "type": "uint256"
        },
        {
          "internalType": "address",
          "name": "challenger",
          "type": "address"
        },
        {
          "internalType": "address",
          "name": "challengee",
          "type": "address"
        }
      ],
      "stateMutability": "view",
      "type": "function",
      "constant": true
    },
    {
      "inputs": [
        {
          "internalType": "address",
          "name": "",
          "type": "address"
        }
      ],
      "name": "players",
      "outputs": [
        {
          "internalType": "bool",
          "name": "",
          "type": "bool"
        }
      ],
      "stateMutability": "view",
      "type": "function",
      "constant": true
    },
    {
      "inputs": [
        {
          "internalType": "int8",
          "name": "",
          "type": "int8"
        }
      ],
      "name": "totals",
      "outputs": [
        {
          "internalType": "uint256",
          "name": "",
          "type": "uint256"
        }
      ],
      "stateMutability": "view",
      "type": "function",
      "constant": true
    },
    {
      "inputs": [
        {
          "internalType": "address",
          "name": "",
          "type": "address"
        }
      ],
      "name": "transferRequests",
      "outputs": [
        {
          "internalType": "address",
          "name": "requestee",
          "type": "address"
        },
        {
          "internalType": "int8",
          "name": "tokenType",
          "type": "int8"
        },
        {
          "internalType": "uint8",
          "name": "amount",
          "type": "uint8"
        },
        {
          "internalType": "bool",
          "name": "exists",
          "type": "bool"
        }
      ],
      "stateMutability": "view",
      "type": "function",
      "constant": true
    },
    {
      "inputs": [
        {
          "internalType": "address",
          "name": "player",
          "type": "address"
        }
      ],
      "name": "playerExists",
      "outputs": [
        {
          "internalType": "bool",
          "name": "",
          "type": "bool"
        }
      ],
      "stateMutability": "view",
      "type": "function",
      "constant": true
    },
    {
      "inputs": [
        {
          "internalType": "address",
          "name": "player1",
          "type": "address"
        },
        {
          "internalType": "address",
          "name": "player2",
          "type": "address"
        }
      ],
      "name": "getCommit",
      "outputs": [
        {
          "components": [
            {
              "internalType": "bytes32",
              "name": "hash",
              "type": "bytes32"
            },
            {
              "internalType": "int8",
              "name": "cardType",
              "type": "int8"
            },
            {
              "internalType": "bool",
              "name": "exists",
              "type": "bool"
            },
            {
              "internalType": "bool",
              "name": "hashStrike",
              "type": "bool"
            },
            {
              "internalType": "uint256",
              "name": "blockNum",
              "type": "uint256"
            },
            {
              "internalType": "address",
              "name": "challenger",
              "type": "address"
            },
            {
              "internalType": "address",
              "name": "challengee",
              "type": "address"
            }
          ],
          "internalType": "struct RRPS.commit",
          "name": "",
          "type": "tuple"
        }
      ],
      "stateMutability": "view",
      "type": "function",
      "constant": true
    },
    {
      "inputs": [
        {
          "internalType": "address",
          "name": "player",
          "type": "address"
        }
      ],
      "name": "getCommitCount",
      "outputs": [
        {
          "internalType": "uint8",
          "name": "",
          "type": "uint8"
        }
      ],
      "stateMutability": "view",
      "type": "function",
      "constant": true
    },
    {
      "inputs": [
        {
          "internalType": "address",
          "name": "requestSender",
          "type": "address"
        }
      ],
      "name": "getTransferRequest",
      "outputs": [
        {
          "components": [
            {
              "internalType": "address",
              "name": "requestee",
              "type": "address"
            },
            {
              "internalType": "int8",
              "name": "tokenType",
              "type": "int8"
            },
            {
              "internalType": "uint8",
              "name": "amount",
              "type": "uint8"
            },
            {
              "internalType": "bool",
              "name": "exists",
              "type": "bool"
            }
          ],
          "internalType": "struct RRPS.transferRequest",
          "name": "",
          "type": "tuple"
        }
      ],
      "stateMutability": "view",
      "type": "function",
      "constant": true
    },
    {
      "inputs": [
        {
          "internalType": "string",
          "name": "nickname",
          "type": "string"
        }
      ],
      "name": "startGame",
      "outputs": [],
      "stateMutability": "nonpayable",
      "type": "function"
    },
    {
      "inputs": [],
      "name": "cashOut",
      "outputs": [],
      "stateMutability": "nonpayable",
      "type": "function"
    },
    {
      "inputs": [],
      "name": "leaveGame",
      "outputs": [],
      "stateMutability": "nonpayable",
      "type": "function"
    },
    {
      "inputs": [
        {
          "internalType": "address",
          "name": "challengee",
          "type": "address"
        },
        {
          "internalType": "bytes32",
          "name": "hash",
          "type": "bytes32"
        }
      ],
      "name": "challengeCommit",
      "outputs": [],
      "stateMutability": "nonpayable",
      "type": "function"
    },
    {
      "inputs": [
        {
          "internalType": "address",
          "name": "challenger",
          "type": "address"
        },
        {
          "internalType": "int8",
          "name": "cardType",
          "type": "int8"
        }
      ],
      "name": "openCommit",
      "outputs": [],
      "stateMutability": "nonpayable",
      "type": "function"
    },
    {
      "inputs": [
        {
          "internalType": "address",
          "name": "challengee",
          "type": "address"
        },
        {
          "internalType": "int8",
          "name": "cardType",
          "type": "int8"
        },
        {
          "internalType": "string",
          "name": "salt",
          "type": "string"
        }
      ],
      "name": "reveal",
      "outputs": [],
      "stateMutability": "nonpayable",
      "type": "function"
    },
    {
      "inputs": [
        {
          "internalType": "address",
          "name": "challengee",
          "type": "address"
        }
      ],
      "name": "withdrawChallenge",
      "outputs": [],
      "stateMutability": "nonpayable",
      "type": "function"
    },
    {
      "inputs": [
        {
          "internalType": "address",
          "name": "challenger",
          "type": "address"
        }
      ],
      "name": "timeOutWin",
      "outputs": [],
      "stateMutability": "nonpayable",
      "type": "function"
    },
    {
      "inputs": [
        {
          "internalType": "int8",
          "name": "cardType",
          "type": "int8"
        },
        {
          "internalType": "string",
          "name": "salt",
          "type": "string"
        }
      ],
      "name": "hashCommit",
      "outputs": [
        {
          "internalType": "bytes32",
          "name": "",
          "type": "bytes32"
        }
      ],
      "stateMutability": "view",
      "type": "function",
      "constant": true
    },
    {
      "inputs": [
        {
          "internalType": "address",
          "name": "account",
          "type": "address"
        }
      ],
      "name": "balanceOf",
      "outputs": [
        {
          "internalType": "uint256",
          "name": "",
          "type": "uint256"
        },
        {
          "internalType": "uint256",
          "name": "",
          "type": "uint256"
        },
        {
          "internalType": "uint256",
          "name": "",
          "type": "uint256"
        },
        {
          "internalType": "uint256",
          "name": "",
          "type": "uint256"
        }
      ],
      "stateMutability": "view",
      "type": "function",
      "constant": true
    },
    {
      "inputs": [],
      "name": "balanceOf",
      "outputs": [
        {
          "internalType": "uint256",
          "name": "",
          "type": "uint256"
        },
        {
          "internalType": "uint256",
          "name": "",
          "type": "uint256"
        },
        {
          "internalType": "uint256",
          "name": "",
          "type": "uint256"
        },
        {
          "internalType": "uint256",
          "name": "",
          "type": "uint256"
        }
      ],
      "stateMutability": "view",
      "type": "function",
      "constant": true
    },
    {
      "inputs": [
        {
          "internalType": "address",
          "name": "account",
          "type": "address"
        },
        {
          "internalType": "int8",
          "name": "id",
          "type": "int8"
        }
      ],
      "name": "balanceOf",
      "outputs": [
        {
          "internalType": "uint256",
          "name": "",
          "type": "uint256"
        }
      ],
      "stateMutability": "view",
      "type": "function",
      "constant": true
    },
    {
      "inputs": [
        {
          "internalType": "address",
          "name": "player",
          "type": "address"
        }
      ],
      "name": "totalCards",
      "outputs": [
        {
          "internalType": "uint256",
          "name": "",
          "type": "uint256"
        }
      ],
      "stateMutability": "view",
      "type": "function",
      "constant": true
    },
    {
      "inputs": [
        {
          "internalType": "address",
          "name": "requestee",
          "type": "address"
        },
        {
          "internalType": "int8",
          "name": "id",
          "type": "int8"
        },
        {
          "internalType": "uint8",
          "name": "amount",
          "type": "uint8"
        }
      ],
      "name": "requestTokenTake",
      "outputs": [],
      "stateMutability": "nonpayable",
      "type": "function"
    },
    {
      "inputs": [
        {
          "internalType": "address",
          "name": "requestSender",
          "type": "address"
        }
      ],
      "name": "approveTokenTake",
      "outputs": [],
      "stateMutability": "nonpayable",
      "type": "function"
    }
  ],
  "bytecode": "0x608060405234801561001057600080fd5b506157cf80620000216000396000f3fe608060405234801561001057600080fd5b50600436106101335760003560e01c806311b528bc14610138578063172ed1bd146101545780632cd77d4c146101845780632df93b0b146101a05780632e2a82ce146101bc5780633d8576cc146101ec5780633e810d971461021c578063447a256e1461023857806346ded98f146102545780634b7efcaa146102845780636212d91a146102b457806370a08231146102e7578063722713f71461031a578063793cd71e1461033b57806389699f0a14610345578063a350d58014610375578063b1501f9c146103a5578063b4faf732146103af578063bb0dd4e0146103e5578063bbe5230014610415578063c855ad6014610445578063d3cfaccc14610461578063d542c4d514610491578063e2eb41ff146104ad578063f7c0128d146104dd575b600080fd5b610152600480360381019061014d9190614a85565b6104f9565b005b61016e60048036038101906101699190614b3d565b6107c6565b60405161017b9190614bb6565b60405180910390f35b61019e60048036038101906101999190614bd1565b61084a565b005b6101ba60048036038101906101b59190614bfe565b6109de565b005b6101d660048036038101906101d19190614bd1565b610e3f565b6040516101e39190614c4d565b60405180910390f35b61020660048036038101906102019190614bd1565b610e5f565b6040516102139190614d05565b60405180910390f35b61023660048036038101906102319190614bd1565b610f63565b005b610252600480360381019061024d9190614d20565b61135f565b005b61026e60048036038101906102699190614d94565b611e66565b60405161027b9190614e8a565b60405180910390f35b61029e60048036038101906102999190614bd1565b612010565b6040516102ab9190614c4d565b60405180910390f35b6102ce60048036038101906102c99190614bd1565b612066565b6040516102de9493929190614ed2565b60405180910390f35b61030160048036038101906102fc9190614bd1565b6120dd565b6040516103119493929190614f26565b60405180910390f35b61032261211e565b6040516103329493929190614f26565b60405180910390f35b61034361213b565b005b61035f600480360381019061035a9190614f6b565b612482565b60405161036c9190614f98565b60405180910390f35b61038f600480360381019061038a9190614bd1565b61249a565b60405161039c9190614f98565b60405180910390f35b6103ad6124d8565b005b6103c960048036038101906103c49190614d94565b6127d9565b6040516103dc9796959493929190614fb3565b60405180910390f35b6103ff60048036038101906103fa9190614bfe565b61288f565b60405161040c9190614f98565b60405180910390f35b61042f600480360381019061042a9190614bd1565b6128f0565b60405161043c9190615022565b60405180910390f35b61045f600480360381019061045a9190615069565b612945565b005b61047b60048036038101906104769190614bfe565b612e41565b6040516104889190614f98565b60405180910390f35b6104ab60048036038101906104a691906151ea565b612e66565b005b6104c760048036038101906104c29190614bd1565b61321e565b6040516104d49190615022565b60405180910390f35b6104f760048036038101906104f29190614bd1565b61323e565b005b600015156000808573ffffffffffffffffffffffffffffffffffffffff1673ffffffffffffffffffffffffffffffffffffffff16815260200190815260200160002060009054906101000a900460ff16151503610582576040517f2a645edb00000000000000000000000000000000000000000000000000000000815260040160405180910390fd5b3373ffffffffffffffffffffffffffffffffffffffff168373ffffffffffffffffffffffffffffffffffffffff16036105e7576040517f6fcb561000000000000000000000000000000000000000000000000000000000815260040160405180910390fd5b8060ff16600560008573ffffffffffffffffffffffffffffffffffffffff1673ffffffffffffffffffffffffffffffffffffffff16815260200190815260200160002060009054906101000a900460ff1660ff16610645858561288f565b61064f9190615262565b1015610687576040517fe7cc977c00000000000000000000000000000000000000000000000000000000815260040160405180910390fd5b82600660003373ffffffffffffffffffffffffffffffffffffffff1673ffffffffffffffffffffffffffffffffffffffff16815260200190815260200160002060000160006101000a81548173ffffffffffffffffffffffffffffffffffffffff021916908373ffffffffffffffffffffffffffffffffffffffff16021790555081600660003373ffffffffffffffffffffffffffffffffffffffff1673ffffffffffffffffffffffffffffffffffffffff16815260200190815260200160002060000160146101000a81548160ff021916908360000b60ff16021790555080600660003373ffffffffffffffffffffffffffffffffffffffff1673ffffffffffffffffffffffffffffffffffffffff16815260200190815260200160002060000160156101000a81548160ff021916908360ff160217905550505050565b600060018460000b12806107dd575060038460000b135b15610814576040517f5968cdba00000000000000000000000000000000000000000000000000000000815260040160405180910390fd5b3384848460405160200161082b9493929190615344565b6040516020818303038152906040528051906020012090509392505050565b600360003373ffffffffffffffffffffffffffffffffffffffff1673ffffffffffffffffffffffffffffffffffffffff16815260200190815260200160002060008273ffffffffffffffffffffffffffffffffffffffff1673ffffffffffffffffffffffffffffffffffffffff16815260200190815260200160002060010160019054906101000a900460ff1661090d576040517fa2aa7d6500000000000000000000000000000000000000000000000000000000815260040160405180910390fd5b600360008273ffffffffffffffffffffffffffffffffffffffff1673ffffffffffffffffffffffffffffffffffffffff16815260200190815260200160002060003373ffffffffffffffffffffffffffffffffffffffff1673ffffffffffffffffffffffffffffffffffffffff16815260200190815260200160002060010160019054906101000a900460ff16156109d1576040517ff14a88ec00000000000000000000000000000000000000000000000000000000815260040160405180910390fd5b6109db33826136de565b50565b600015156000803373ffffffffffffffffffffffffffffffffffffffff1673ffffffffffffffffffffffffffffffffffffffff16815260200190815260200160002060009054906101000a900460ff16151503610a67576040517f2a645edb00000000000000000000000000000000000000000000000000000000815260040160405180910390fd5b8173ffffffffffffffffffffffffffffffffffffffff163373ffffffffffffffffffffffffffffffffffffffff1603610acc576040517f6fcb561000000000000000000000000000000000000000000000000000000000815260040160405180910390fd5b600360008373ffffffffffffffffffffffffffffffffffffffff1673ffffffffffffffffffffffffffffffffffffffff16815260200190815260200160002060003373ffffffffffffffffffffffffffffffffffffffff1673ffffffffffffffffffffffffffffffffffffffff16815260200190815260200160002060010160019054906101000a900460ff16610b8f576040517fa2aa7d6500000000000000000000000000000000000000000000000000000000815260040160405180910390fd5b60018160000b1280610ba4575060038160000b135b15610bdb576040517f5968cdba00000000000000000000000000000000000000000000000000000000815260040160405180910390fd5b8173ffffffffffffffffffffffffffffffffffffffff163373ffffffffffffffffffffffffffffffffffffffff1603610c40576040517f6fcb561000000000000000000000000000000000000000000000000000000000815260040160405180910390fd5b6001610c4c338361288f565b1015610c84576040517fb59dc6be00000000000000000000000000000000000000000000000000000000815260040160405180910390fd5b6001600560003373ffffffffffffffffffffffffffffffffffffffff1673ffffffffffffffffffffffffffffffffffffffff16815260200190815260200160002060009054906101000a900460ff1660ff16610cdf3361249a565b610ce99190615262565b1015610d21576040517fe7cc977c00000000000000000000000000000000000000000000000000000000815260040160405180910390fd5b6001600560003373ffffffffffffffffffffffffffffffffffffffff1673ffffffffffffffffffffffffffffffffffffffff16815260200190815260200160002060009054906101000a900460ff1660ff16610d7e33600061288f565b610d889190615262565b1015610dc0576040517fe7cc977c00000000000000000000000000000000000000000000000000000000815260040160405180910390fd5b600015156000808473ffffffffffffffffffffffffffffffffffffffff1673ffffffffffffffffffffffffffffffffffffffff16815260200190815260200160002060009054906101000a900460ff16151503610e3057610e2182336136de565b610e2b33836136de565b610e3b565b610e3a8282613902565b5b5050565b60056020528060005260406000206000915054906101000a900460ff1681565b610e676148ea565b600660008373ffffffffffffffffffffffffffffffffffffffff1673ffffffffffffffffffffffffffffffffffffffff1681526020019081526020016000206040518060800160405290816000820160009054906101000a900473ffffffffffffffffffffffffffffffffffffffff1673ffffffffffffffffffffffffffffffffffffffff1673ffffffffffffffffffffffffffffffffffffffff1681526020016000820160149054906101000a900460000b60000b60000b81526020016000820160159054906101000a900460ff1660ff1660ff1681526020016000820160169054906101000a900460ff1615151515815250509050919050565b600360003373ffffffffffffffffffffffffffffffffffffffff1673ffffffffffffffffffffffffffffffffffffffff16815260200190815260200160002060008273ffffffffffffffffffffffffffffffffffffffff1673ffffffffffffffffffffffffffffffffffffffff16815260200190815260200160002060010160019054906101000a900460ff16611026576040517f38df4cfd00000000000000000000000000000000000000000000000000000000815260040160405180910390fd5b600360008273ffffffffffffffffffffffffffffffffffffffff1673ffffffffffffffffffffffffffffffffffffffff16815260200190815260200160002060003373ffffffffffffffffffffffffffffffffffffffff1673ffffffffffffffffffffffffffffffffffffffff16815260200190815260200160002060010160019054906101000a900460ff166110e9576040517fa2aa7d6500000000000000000000000000000000000000000000000000000000815260040160405180910390fd5b600015156000808373ffffffffffffffffffffffffffffffffffffffff1673ffffffffffffffffffffffffffffffffffffffff16815260200190815260200160002060009054906101000a900460ff161515036111595761114a33826136de565b61115481336136de565b61135c565b6001436111669190615262565b600360003373ffffffffffffffffffffffffffffffffffffffff1673ffffffffffffffffffffffffffffffffffffffff16815260200190815260200160002060008373ffffffffffffffffffffffffffffffffffffffff1673ffffffffffffffffffffffffffffffffffffffff16815260200190815260200160002060020154101561135b576111f98160006001613d4d565b6112063360006001613ede565b600061129e33600360003373ffffffffffffffffffffffffffffffffffffffff1673ffffffffffffffffffffffffffffffffffffffff16815260200190815260200160002060008573ffffffffffffffffffffffffffffffffffffffff1673ffffffffffffffffffffffffffffffffffffffff16815260200190815260200160002060010160009054906101000a900460000b61288f565b111561133d5761133c33600360003373ffffffffffffffffffffffffffffffffffffffff1673ffffffffffffffffffffffffffffffffffffffff16815260200190815260200160002060008473ffffffffffffffffffffffffffffffffffffffff1673ffffffffffffffffffffffffffffffffffffffff16815260200190815260200160002060010160009054906101000a900460000b6001613d4d565b5b61134733826136de565b61135181336136de565b61135a81613fd6565b5b5b50565b8373ffffffffffffffffffffffffffffffffffffffff163373ffffffffffffffffffffffffffffffffffffffff16036113c4576040517f6fcb561000000000000000000000000000000000000000000000000000000000815260040160405180910390fd5b600015156000803373ffffffffffffffffffffffffffffffffffffffff1673ffffffffffffffffffffffffffffffffffffffff16815260200190815260200160002060009054906101000a900460ff1615150361144d576040517f2a645edb00000000000000000000000000000000000000000000000000000000815260040160405180910390fd5b60018360000b1280611462575060038360000b135b15611499576040517f5968cdba00000000000000000000000000000000000000000000000000000000815260040160405180910390fd5b600360008573ffffffffffffffffffffffffffffffffffffffff1673ffffffffffffffffffffffffffffffffffffffff16815260200190815260200160002060003373ffffffffffffffffffffffffffffffffffffffff1673ffffffffffffffffffffffffffffffffffffffff16815260200190815260200160002060010160019054906101000a900460ff1661155c576040517f38df4cfd00000000000000000000000000000000000000000000000000000000815260040160405180910390fd5b600360003373ffffffffffffffffffffffffffffffffffffffff1673ffffffffffffffffffffffffffffffffffffffff16815260200190815260200160002060008573ffffffffffffffffffffffffffffffffffffffff1673ffffffffffffffffffffffffffffffffffffffff16815260200190815260200160002060010160019054906101000a900460ff1661161f576040517fa2aa7d6500000000000000000000000000000000000000000000000000000000815260040160405180910390fd5b600015156000808673ffffffffffffffffffffffffffffffffffffffff1673ffffffffffffffffffffffffffffffffffffffff16815260200190815260200160002060009054906101000a900460ff1615150361168f5761168033856136de565b61168a84336136de565b611e60565b600080600360008773ffffffffffffffffffffffffffffffffffffffff1673ffffffffffffffffffffffffffffffffffffffff16815260200190815260200160002060003373ffffffffffffffffffffffffffffffffffffffff1673ffffffffffffffffffffffffffffffffffffffff16815260200190815260200160002060010160009054906101000a900460000b9050600360003373ffffffffffffffffffffffffffffffffffffffff1673ffffffffffffffffffffffffffffffffffffffff16815260200190815260200160002060008773ffffffffffffffffffffffffffffffffffffffff1673ffffffffffffffffffffffffffffffffffffffff168152602001908152602001600020600001546117ac8686866107c6565b1480156117c2575060006117c0338761288f565b115b156117cf57849150611995565b600360003373ffffffffffffffffffffffffffffffffffffffff1673ffffffffffffffffffffffffffffffffffffffff16815260200190815260200160002060008773ffffffffffffffffffffffffffffffffffffffff1673ffffffffffffffffffffffffffffffffffffffff16815260200190815260200160002060010160029054906101000a900460ff16611938576001600360003373ffffffffffffffffffffffffffffffffffffffff1673ffffffffffffffffffffffffffffffffffffffff16815260200190815260200160002060008873ffffffffffffffffffffffffffffffffffffffff1673ffffffffffffffffffffffffffffffffffffffff16815260200190815260200160002060010160026101000a81548160ff0219169083151502179055507fee8073309115c3729855de26aad26354a4fdcd6fca9d4579b19cdd0d23b56b5f338760405161192992919061537f565b60405180910390a15050611e60565b7fad945360a905bcba857c54948aea8291bbd84165fe204dd1adfb591ad9a3af48338760405161196992919061537f565b60405180910390a17fffffffffffffffffffffffffffffffffffffffffffffffffffffffffffffffff91505b600060016119a3338561288f565b10156119cd577fffffffffffffffffffffffffffffffffffffffffffffffffffffffffffffffff92505b60016119d9888461288f565b1015611a03577fffffffffffffffffffffffffffffffffffffffffffffffffffffffffffffffff91505b7fffffffffffffffffffffffffffffffffffffffffffffffffffffffffffffffff8360000b148015611a5757507fffffffffffffffffffffffffffffffffffffffffffffffffffffffffffffffff8260000b145b15611a655760049050611c18565b7fffffffffffffffffffffffffffffffffffffffffffffffffffffffffffffffff8360000b03611a985760039050611c17565b7fffffffffffffffffffffffffffffffffffffffffffffffffffffffffffffffff8260000b03611acb5760059050611c16565b8160000b8360000b03611ae15760019050611c15565b600160000b8360000b148015611afd5750600360000b8260000b145b15611b0b5760029050611c14565b600360000b8360000b148015611b275750600260000b8260000b145b15611b355760029050611c13565b600260000b8360000b148015611b515750600160000b8260000b145b15611b5f5760029050611c12565b600160000b8360000b148015611b7b5750600260000b8260000b145b15611b895760009050611c11565b600260000b8360000b148015611ba55750600360000b8260000b145b15611bb35760009050611c10565b600360000b8360000b148015611bcf5750600160000b8260000b145b15611bdd5760009050611c0f565b6040517f4fc4919600000000000000000000000000000000000000000000000000000000815260040160405180910390fd5b5b5b5b5b5b5b5b5b5b60036005811115611c2c57611c2b6153a8565b5b816005811115611c3f57611c3e6153a8565b5b03611c5557611c5087836001614325565b611cd9565b600580811115611c6857611c676153a8565b5b816005811115611c7b57611c7a6153a8565b5b03611c9157611c8c33846001614325565b611cd8565b60046005811115611ca557611ca46153a8565b5b816005811115611cb857611cb76153a8565b5b0315611cd757611cca33846001614325565b611cd687836001614325565b5b5b5b60006005811115611ced57611cec6153a8565b5b816005811115611d0057611cff6153a8565b5b1480611d30575060036005811115611d1b57611d1a6153a8565b5b816005811115611d2e57611d2d6153a8565b5b145b15611d5057611d423360006001613d4d565b611d4f8760006001613ede565b5b60026005811115611d6457611d636153a8565b5b816005811115611d7757611d766153a8565b5b1480611da65750600580811115611d9157611d906153a8565b5b816005811115611da457611da36153a8565b5b145b15611dc657611db88760006001613d4d565b611dc53360006001613ede565b5b60046005811115611dda57611dd96153a8565b5b816005811115611ded57611dec6153a8565b5b03611e0d57611dff3360006001613d4d565b611e0c8760006001613d4d565b5b60016005811115611e2157611e206153a8565b5b816005811115611e3457611e336153a8565b5b5050611e4033886136de565b611e4a87336136de565b611e5333613fd6565b611e5c87613fd6565b5050505b50505050565b611e6e61492f565b600360008473ffffffffffffffffffffffffffffffffffffffff1673ffffffffffffffffffffffffffffffffffffffff16815260200190815260200160002060008373ffffffffffffffffffffffffffffffffffffffff1673ffffffffffffffffffffffffffffffffffffffff1681526020019081526020016000206040518060e0016040529081600082015481526020016001820160009054906101000a900460000b60000b60000b81526020016001820160019054906101000a900460ff161515151581526020016001820160029054906101000a900460ff16151515158152602001600282015481526020016003820160009054906101000a900473ffffffffffffffffffffffffffffffffffffffff1673ffffffffffffffffffffffffffffffffffffffff1673ffffffffffffffffffffffffffffffffffffffff1681526020016004820160009054906101000a900473ffffffffffffffffffffffffffffffffffffffff1673ffffffffffffffffffffffffffffffffffffffff1673ffffffffffffffffffffffffffffffffffffffff1681525050905092915050565b6000600560008373ffffffffffffffffffffffffffffffffffffffff1673ffffffffffffffffffffffffffffffffffffffff16815260200190815260200160002060009054906101000a900460ff169050919050565b60066020528060005260406000206000915090508060000160009054906101000a900473ffffffffffffffffffffffffffffffffffffffff16908060000160149054906101000a900460000b908060000160159054906101000a900460ff16908060000160169054906101000a900460ff16905084565b6000806000806120ee85600061288f565b6120f986600161288f565b61210487600261288f565b61210f88600361288f565b93509350935093509193509193565b60008060008061212d336120dd565b935093509350935090919293565b60006121463361249a565b111561217e576040517f7ce8de2400000000000000000000000000000000000000000000000000000000815260040160405180910390fd5b600361218b33600061288f565b10156121c3576040517fbfe0f5c600000000000000000000000000000000000000000000000000000000815260040160405180910390fd5b6121d93360006121d433600061288f565b613d4d565b60008060003373ffffffffffffffffffffffffffffffffffffffff1673ffffffffffffffffffffffffffffffffffffffff16815260200190815260200160002060006101000a81548160ff021916908315150217905550600660003373ffffffffffffffffffffffffffffffffffffffff1673ffffffffffffffffffffffffffffffffffffffff168152602001908152602001600020600080820160006101000a81549073ffffffffffffffffffffffffffffffffffffffff02191690556000820160146101000a81549060ff02191690556000820160156101000a81549060ff02191690556000820160166101000a81549060ff0219169055505060005b600460003373ffffffffffffffffffffffffffffffffffffffff1673ffffffffffffffffffffffffffffffffffffffff168152602001908152602001600020805490508160ff161015612448576123ad33600460003373ffffffffffffffffffffffffffffffffffffffff1673ffffffffffffffffffffffffffffffffffffffff1681526020019081526020016000208360ff168154811061237d5761237c6153d7565b5b9060005260206000200160009054906101000a900473ffffffffffffffffffffffffffffffffffffffff166136de565b612435600460003373ffffffffffffffffffffffffffffffffffffffff1673ffffffffffffffffffffffffffffffffffffffff1681526020019081526020016000208260ff1681548110612404576124036153d7565b5b9060005260206000200160009054906101000a900473ffffffffffffffffffffffffffffffffffffffff16336136de565b808061244090615406565b9150506122d8565b507f282b6298c0318f5d7d7f2483a6823972bdbe9d2798bcfe461159151be7d7b96933604051612478919061542f565b60405180910390a1565b60026020528060005260406000206000915090505481565b60006124a782600361288f565b6124b283600261288f565b6124bd84600161288f565b6124c7919061544a565b6124d1919061544a565b9050919050565b6124ee3360006124e933600061288f565b613d4d565b6125043360016124ff33600161288f565b613d4d565b61251a33600261251533600261288f565b613d4d565b61253033600361252b33600361288f565b613d4d565b60008060003373ffffffffffffffffffffffffffffffffffffffff1673ffffffffffffffffffffffffffffffffffffffff16815260200190815260200160002060006101000a81548160ff021916908315150217905550600660003373ffffffffffffffffffffffffffffffffffffffff1673ffffffffffffffffffffffffffffffffffffffff168152602001908152602001600020600080820160006101000a81549073ffffffffffffffffffffffffffffffffffffffff02191690556000820160146101000a81549060ff02191690556000820160156101000a81549060ff02191690556000820160166101000a81549060ff0219169055505060005b600460003373ffffffffffffffffffffffffffffffffffffffff1673ffffffffffffffffffffffffffffffffffffffff168152602001908152602001600020805490508160ff16101561279f5761270433600460003373ffffffffffffffffffffffffffffffffffffffff1673ffffffffffffffffffffffffffffffffffffffff1681526020019081526020016000208360ff16815481106126d4576126d36153d7565b5b9060005260206000200160009054906101000a900473ffffffffffffffffffffffffffffffffffffffff166136de565b61278c600460003373ffffffffffffffffffffffffffffffffffffffff1673ffffffffffffffffffffffffffffffffffffffff1681526020019081526020016000208260ff168154811061275b5761275a6153d7565b5b9060005260206000200160009054906101000a900473ffffffffffffffffffffffffffffffffffffffff16336136de565b808061279790615406565b91505061262f565b507f282b6298c0318f5d7d7f2483a6823972bdbe9d2798bcfe461159151be7d7b969336040516127cf919061542f565b60405180910390a1565b6003602052816000526040600020602052806000526040600020600091509150508060000154908060010160009054906101000a900460000b908060010160019054906101000a900460ff16908060010160029054906101000a900460ff16908060020154908060030160009054906101000a900473ffffffffffffffffffffffffffffffffffffffff16908060040160009054906101000a900473ffffffffffffffffffffffffffffffffffffffff16905087565b6000600160008473ffffffffffffffffffffffffffffffffffffffff1673ffffffffffffffffffffffffffffffffffffffff16815260200190815260200160002060008360000b60000b815260200190815260200160002054905092915050565b60008060008373ffffffffffffffffffffffffffffffffffffffff1673ffffffffffffffffffffffffffffffffffffffff16815260200190815260200160002060009054906101000a900460ff169050919050565b600015156000803373ffffffffffffffffffffffffffffffffffffffff1673ffffffffffffffffffffffffffffffffffffffff16815260200190815260200160002060009054906101000a900460ff161515036129ce576040517f2a645edb00000000000000000000000000000000000000000000000000000000815260040160405180910390fd5b8173ffffffffffffffffffffffffffffffffffffffff163373ffffffffffffffffffffffffffffffffffffffff1603612a33576040517f6fcb561000000000000000000000000000000000000000000000000000000000815260040160405180910390fd5b6001600560003373ffffffffffffffffffffffffffffffffffffffff1673ffffffffffffffffffffffffffffffffffffffff16815260200190815260200160002060009054906101000a900460ff1660ff16612a8e3361249a565b612a989190615262565b1015612ad0576040517fe7cc977c00000000000000000000000000000000000000000000000000000000815260040160405180910390fd5b6001600560008473ffffffffffffffffffffffffffffffffffffffff1673ffffffffffffffffffffffffffffffffffffffff16815260200190815260200160002060009054906101000a900460ff1660ff16612b2b8461249a565b612b359190615262565b1015612b6d576040517fe7cc977c00000000000000000000000000000000000000000000000000000000815260040160405180910390fd5b6001600560003373ffffffffffffffffffffffffffffffffffffffff1673ffffffffffffffffffffffffffffffffffffffff16815260200190815260200160002060009054906101000a900460ff1660ff16612bca33600061288f565b612bd49190615262565b1015612c0c576040517fe7cc977c00000000000000000000000000000000000000000000000000000000815260040160405180910390fd5b6001600560008473ffffffffffffffffffffffffffffffffffffffff1673ffffffffffffffffffffffffffffffffffffffff16815260200190815260200160002060009054906101000a900460ff1660ff16612c6984600061288f565b612c739190615262565b1015612cab576040517fe7cc977c00000000000000000000000000000000000000000000000000000000815260040160405180910390fd5b600360008373ffffffffffffffffffffffffffffffffffffffff1673ffffffffffffffffffffffffffffffffffffffff16815260200190815260200160002060003373ffffffffffffffffffffffffffffffffffffffff1673ffffffffffffffffffffffffffffffffffffffff16815260200190815260200160002060010160019054906101000a900460ff1615612d6f576040517f0becbe0d00000000000000000000000000000000000000000000000000000000815260040160405180910390fd5b600360003373ffffffffffffffffffffffffffffffffffffffff1673ffffffffffffffffffffffffffffffffffffffff16815260200190815260200160002060008373ffffffffffffffffffffffffffffffffffffffff1673ffffffffffffffffffffffffffffffffffffffff16815260200190815260200160002060010160019054906101000a900460ff1615612e33576040517f0becbe0d00000000000000000000000000000000000000000000000000000000815260040160405180910390fd5b612e3d82826144b6565b5050565b6001602052816000526040600020602052806000526040600020600091509150505481565b600115156000803373ffffffffffffffffffffffffffffffffffffffff1673ffffffffffffffffffffffffffffffffffffffff16815260200190815260200160002060009054906101000a900460ff16151503612eef576040517fb4b038b200000000000000000000000000000000000000000000000000000000815260040160405180910390fd5b60016000803373ffffffffffffffffffffffffffffffffffffffff1673ffffffffffffffffffffffffffffffffffffffff16815260200190815260200160002060006101000a81548160ff02191690831515021790555060005b600460003373ffffffffffffffffffffffffffffffffffffffff1673ffffffffffffffffffffffffffffffffffffffff168152602001908152602001600020805490508160ff1610156130b95761301e33600460003373ffffffffffffffffffffffffffffffffffffffff1673ffffffffffffffffffffffffffffffffffffffff1681526020019081526020016000208360ff1681548110612fee57612fed6153d7565b5b9060005260206000200160009054906101000a900473ffffffffffffffffffffffffffffffffffffffff166136de565b6130a6600460003373ffffffffffffffffffffffffffffffffffffffff1673ffffffffffffffffffffffffffffffffffffffff1681526020019081526020016000208260ff1681548110613075576130746153d7565b5b9060005260206000200160009054906101000a900473ffffffffffffffffffffffffffffffffffffffff16336136de565b80806130b190615406565b915050612f49565b50600560003373ffffffffffffffffffffffffffffffffffffffff1673ffffffffffffffffffffffffffffffffffffffff16815260200190815260200160002060006101000a81549060ff0219169055600660003373ffffffffffffffffffffffffffffffffffffffff1673ffffffffffffffffffffffffffffffffffffffff168152602001908152602001600020600080820160006101000a81549073ffffffffffffffffffffffffffffffffffffffff02191690556000820160146101000a81549060ff02191690556000820160156101000a81549060ff02191690556000820160166101000a81549060ff021916905550506131bb3360006003613ede565b6131c83360016004613ede565b6131d53360026004613ede565b6131e23360036004613ede565b7fb46af3c568709a25575d501b270c4768aef802b1e39fb922a8f21cb385e2ae9b3382604051613213929190615528565b60405180910390a150565b60006020528060005260406000206000915054906101000a900460ff1681565b600015156000808373ffffffffffffffffffffffffffffffffffffffff1673ffffffffffffffffffffffffffffffffffffffff16815260200190815260200160002060009054906101000a900460ff161515036132c7576040517f2a645edb00000000000000000000000000000000000000000000000000000000815260040160405180910390fd5b3373ffffffffffffffffffffffffffffffffffffffff16600660008373ffffffffffffffffffffffffffffffffffffffff1673ffffffffffffffffffffffffffffffffffffffff16815260200190815260200160002060000160009054906101000a900473ffffffffffffffffffffffffffffffffffffffff1673ffffffffffffffffffffffffffffffffffffffff1614613397576040517f08c379a000000000000000000000000000000000000000000000000000000000815260040161338e906155a4565b60405180910390fd5b600660008273ffffffffffffffffffffffffffffffffffffffff1673ffffffffffffffffffffffffffffffffffffffff16815260200190815260200160002060000160159054906101000a900460ff1660ff16600560003373ffffffffffffffffffffffffffffffffffffffff1673ffffffffffffffffffffffffffffffffffffffff16815260200190815260200160002060009054906101000a900460ff1660ff1661349333600660008673ffffffffffffffffffffffffffffffffffffffff1673ffffffffffffffffffffffffffffffffffffffff16815260200190815260200160002060000160149054906101000a900460000b61288f565b61349d9190615262565b10156134d5576040517fe7cc977c00000000000000000000000000000000000000000000000000000000815260040160405180910390fd5b61358181600660008473ffffffffffffffffffffffffffffffffffffffff1673ffffffffffffffffffffffffffffffffffffffff16815260200190815260200160002060000160149054906101000a900460000b600660008573ffffffffffffffffffffffffffffffffffffffff1673ffffffffffffffffffffffffffffffffffffffff16815260200190815260200160002060000160159054906101000a900460ff1660ff16613ede565b61362d33600660008473ffffffffffffffffffffffffffffffffffffffff1673ffffffffffffffffffffffffffffffffffffffff16815260200190815260200160002060000160149054906101000a900460000b600660008573ffffffffffffffffffffffffffffffffffffffff1673ffffffffffffffffffffffffffffffffffffffff16815260200190815260200160002060000160159054906101000a900460ff1660ff16613d4d565b600660008273ffffffffffffffffffffffffffffffffffffffff1673ffffffffffffffffffffffffffffffffffffffff168152602001908152602001600020600080820160006101000a81549073ffffffffffffffffffffffffffffffffffffffff02191690556000820160146101000a81549060ff02191690556000820160156101000a81549060ff02191690556000820160166101000a81549060ff021916905550506136db33613fd6565b50565b600360008373ffffffffffffffffffffffffffffffffffffffff1673ffffffffffffffffffffffffffffffffffffffff16815260200190815260200160002060008273ffffffffffffffffffffffffffffffffffffffff1673ffffffffffffffffffffffffffffffffffffffff16815260200190815260200160002060010160019054906101000a900460ff16156138fe57600360008373ffffffffffffffffffffffffffffffffffffffff1673ffffffffffffffffffffffffffffffffffffffff16815260200190815260200160002060008273ffffffffffffffffffffffffffffffffffffffff1673ffffffffffffffffffffffffffffffffffffffff1681526020019081526020016000206000808201600090556001820160006101000a81549060ff02191690556001820160016101000a81549060ff02191690556001820160026101000a81549060ff021916905560028201600090556003820160006101000a81549073ffffffffffffffffffffffffffffffffffffffff02191690556004820160006101000a81549073ffffffffffffffffffffffffffffffffffffffff021916905550506001600560008473ffffffffffffffffffffffffffffffffffffffff1673ffffffffffffffffffffffffffffffffffffffff16815260200190815260200160002060008282829054906101000a900460ff166138e591906155c4565b92506101000a81548160ff021916908360ff1602179055505b5050565b80600360003373ffffffffffffffffffffffffffffffffffffffff1673ffffffffffffffffffffffffffffffffffffffff16815260200190815260200160002060008473ffffffffffffffffffffffffffffffffffffffff1673ffffffffffffffffffffffffffffffffffffffff16815260200190815260200160002060010160006101000a81548160ff021916908360000b60ff1602179055506001600360003373ffffffffffffffffffffffffffffffffffffffff1673ffffffffffffffffffffffffffffffffffffffff16815260200190815260200160002060008473ffffffffffffffffffffffffffffffffffffffff1673ffffffffffffffffffffffffffffffffffffffff16815260200190815260200160002060010160016101000a81548160ff02191690831515021790555043600360003373ffffffffffffffffffffffffffffffffffffffff1673ffffffffffffffffffffffffffffffffffffffff16815260200190815260200160002060008473ffffffffffffffffffffffffffffffffffffffff1673ffffffffffffffffffffffffffffffffffffffff1681526020019081526020016000206002018190555033600360003373ffffffffffffffffffffffffffffffffffffffff1673ffffffffffffffffffffffffffffffffffffffff16815260200190815260200160002060008473ffffffffffffffffffffffffffffffffffffffff1673ffffffffffffffffffffffffffffffffffffffff16815260200190815260200160002060040160006101000a81548173ffffffffffffffffffffffffffffffffffffffff021916908373ffffffffffffffffffffffffffffffffffffffff16021790555081600360003373ffffffffffffffffffffffffffffffffffffffff1673ffffffffffffffffffffffffffffffffffffffff16815260200190815260200160002060008473ffffffffffffffffffffffffffffffffffffffff1673ffffffffffffffffffffffffffffffffffffffff16815260200190815260200160002060030160006101000a81548173ffffffffffffffffffffffffffffffffffffffff021916908373ffffffffffffffffffffffffffffffffffffffff160217905550600460003373ffffffffffffffffffffffffffffffffffffffff1673ffffffffffffffffffffffffffffffffffffffff168152602001908152602001600020829080600181540180825580915050600190039060005260206000200160009091909190916101000a81548173ffffffffffffffffffffffffffffffffffffffff021916908373ffffffffffffffffffffffffffffffffffffffff1602179055506001600560003373ffffffffffffffffffffffffffffffffffffffff1673ffffffffffffffffffffffffffffffffffffffff16815260200190815260200160002060008282829054906101000a900460ff16613d3191906155f8565b92506101000a81548160ff021916908360ff1602179055505050565b60008260000b121580613d64575060038260000b13155b613da3576040517f08c379a0000000000000000000000000000000000000000000000000000000008152600401613d9a9061567b565b60405180910390fd5b80600160008573ffffffffffffffffffffffffffffffffffffffff1673ffffffffffffffffffffffffffffffffffffffff16815260200190815260200160002060008460000b60000b8152602001908152602001600020541015613e3c576040517f08c379a0000000000000000000000000000000000000000000000000000000008152600401613e339061570d565b60405180910390fd5b80600160008573ffffffffffffffffffffffffffffffffffffffff1673ffffffffffffffffffffffffffffffffffffffff16815260200190815260200160002060008460000b60000b81526020019081526020016000206000828254613ea29190615262565b9250508190555080600260008460000b60000b81526020019081526020016000206000828254613ed29190615262565b92505081905550505050565b60008260000b121580613ef5575060038260000b13155b613f34576040517f08c379a0000000000000000000000000000000000000000000000000000000008152600401613f2b9061567b565b60405180910390fd5b80600160008573ffffffffffffffffffffffffffffffffffffffff1673ffffffffffffffffffffffffffffffffffffffff16815260200190815260200160002060008460000b60000b81526020019081526020016000206000828254613f9a919061544a565b9250508190555080600260008460000b60000b81526020019081526020016000206000828254613fca919061544a565b92505081905550505050565b6001613fe382600061288f565b101561432257613fff816001613ffa84600161288f565b613d4d565b61401581600261401084600261288f565b613d4d565b61402b81600361402684600361288f565b613d4d565b60008060008373ffffffffffffffffffffffffffffffffffffffff1673ffffffffffffffffffffffffffffffffffffffff16815260200190815260200160002060006101000a81548160ff02191690831515021790555060005b600460008373ffffffffffffffffffffffffffffffffffffffff1673ffffffffffffffffffffffffffffffffffffffff168152602001908152602001600020805490508160ff1610156141f55761415a82600460008573ffffffffffffffffffffffffffffffffffffffff1673ffffffffffffffffffffffffffffffffffffffff1681526020019081526020016000208360ff168154811061412a576141296153d7565b5b9060005260206000200160009054906101000a900473ffffffffffffffffffffffffffffffffffffffff166136de565b6141e2600460008473ffffffffffffffffffffffffffffffffffffffff1673ffffffffffffffffffffffffffffffffffffffff1681526020019081526020016000208260ff16815481106141b1576141b06153d7565b5b9060005260206000200160009054906101000a900473ffffffffffffffffffffffffffffffffffffffff16836136de565b80806141ed90615406565b915050614085565b50600560008273ffffffffffffffffffffffffffffffffffffffff1673ffffffffffffffffffffffffffffffffffffffff16815260200190815260200160002060006101000a81549060ff0219169055600660008273ffffffffffffffffffffffffffffffffffffffff1673ffffffffffffffffffffffffffffffffffffffff168152602001908152602001600020600080820160006101000a81549073ffffffffffffffffffffffffffffffffffffffff02191690556000820160146101000a81549060ff02191690556000820160156101000a81549060ff02191690556000820160166101000a81549060ff021916905550507f282b6298c0318f5d7d7f2483a6823972bdbe9d2798bcfe461159151be7d7b96981604051614319919061542f565b60405180910390a15b50565b60018260000b12158061433c575060038260000b13155b61437b576040517f08c379a000000000000000000000000000000000000000000000000000000000815260040161437290615779565b60405180910390fd5b80600160008573ffffffffffffffffffffffffffffffffffffffff1673ffffffffffffffffffffffffffffffffffffffff16815260200190815260200160002060008460000b60000b8152602001908152602001600020541015614414576040517f08c379a000000000000000000000000000000000000000000000000000000000815260040161440b9061570d565b60405180910390fd5b80600160008573ffffffffffffffffffffffffffffffffffffffff1673ffffffffffffffffffffffffffffffffffffffff16815260200190815260200160002060008460000b60000b8152602001908152602001600020600082825461447a9190615262565b9250508190555080600260008460000b60000b815260200190815260200160002060008282546144aa9190615262565b92505081905550505050565b80600360003373ffffffffffffffffffffffffffffffffffffffff1673ffffffffffffffffffffffffffffffffffffffff16815260200190815260200160002060008473ffffffffffffffffffffffffffffffffffffffff1673ffffffffffffffffffffffffffffffffffffffff168152602001908152602001600020600001819055506001600360003373ffffffffffffffffffffffffffffffffffffffff1673ffffffffffffffffffffffffffffffffffffffff16815260200190815260200160002060008473ffffffffffffffffffffffffffffffffffffffff1673ffffffffffffffffffffffffffffffffffffffff16815260200190815260200160002060010160016101000a81548160ff02191690831515021790555043600360003373ffffffffffffffffffffffffffffffffffffffff1673ffffffffffffffffffffffffffffffffffffffff16815260200190815260200160002060008473ffffffffffffffffffffffffffffffffffffffff1673ffffffffffffffffffffffffffffffffffffffff1681526020019081526020016000206002018190555033600360003373ffffffffffffffffffffffffffffffffffffffff1673ffffffffffffffffffffffffffffffffffffffff16815260200190815260200160002060008473ffffffffffffffffffffffffffffffffffffffff1673ffffffffffffffffffffffffffffffffffffffff16815260200190815260200160002060030160006101000a81548173ffffffffffffffffffffffffffffffffffffffff021916908373ffffffffffffffffffffffffffffffffffffffff16021790555081600360003373ffffffffffffffffffffffffffffffffffffffff1673ffffffffffffffffffffffffffffffffffffffff16815260200190815260200160002060008473ffffffffffffffffffffffffffffffffffffffff1673ffffffffffffffffffffffffffffffffffffffff16815260200190815260200160002060040160006101000a81548173ffffffffffffffffffffffffffffffffffffffff021916908373ffffffffffffffffffffffffffffffffffffffff160217905550600460003373ffffffffffffffffffffffffffffffffffffffff1673ffffffffffffffffffffffffffffffffffffffff168152602001908152602001600020829080600181540180825580915050600190039060005260206000200160009091909190916101000a81548173ffffffffffffffffffffffffffffffffffffffff021916908373ffffffffffffffffffffffffffffffffffffffff1602179055506001600560003373ffffffffffffffffffffffffffffffffffffffff1673ffffffffffffffffffffffffffffffffffffffff16815260200190815260200160002060008282829054906101000a900460ff166148ce91906155f8565b92506101000a81548160ff021916908360ff1602179055505050565b6040518060800160405280600073ffffffffffffffffffffffffffffffffffffffff1681526020016000800b8152602001600060ff1681526020016000151581525090565b6040518060e00160405280600080191681526020016000800b815260200160001515815260200160001515815260200160008152602001600073ffffffffffffffffffffffffffffffffffffffff168152602001600073ffffffffffffffffffffffffffffffffffffffff1681525090565b6000604051905090565b600080fd5b600080fd5b600073ffffffffffffffffffffffffffffffffffffffff82169050919050565b60006149e0826149b5565b9050919050565b6149f0816149d5565b81146149fb57600080fd5b50565b600081359050614a0d816149e7565b92915050565b60008160000b9050919050565b614a2981614a13565b8114614a3457600080fd5b50565b600081359050614a4681614a20565b92915050565b600060ff82169050919050565b614a6281614a4c565b8114614a6d57600080fd5b50565b600081359050614a7f81614a59565b92915050565b600080600060608486031215614a9e57614a9d6149ab565b5b6000614aac868287016149fe565b9350506020614abd86828701614a37565b9250506040614ace86828701614a70565b9150509250925092565b600080fd5b600080fd5b600080fd5b60008083601f840112614afd57614afc614ad8565b5b8235905067ffffffffffffffff811115614b1a57614b19614add565b5b602083019150836001820283011115614b3657614b35614ae2565b5b9250929050565b600080600060408486031215614b5657614b556149ab565b5b6000614b6486828701614a37565b935050602084013567ffffffffffffffff811115614b8557614b846149b0565b5b614b9186828701614ae7565b92509250509250925092565b6000819050919050565b614bb081614b9d565b82525050565b6000602082019050614bcb6000830184614ba7565b92915050565b600060208284031215614be757614be66149ab565b5b6000614bf5848285016149fe565b91505092915050565b60008060408385031215614c1557614c146149ab565b5b6000614c23858286016149fe565b9250506020614c3485828601614a37565b9150509250929050565b614c4781614a4c565b82525050565b6000602082019050614c626000830184614c3e565b92915050565b614c71816149d5565b82525050565b614c8081614a13565b82525050565b614c8f81614a4c565b82525050565b60008115159050919050565b614caa81614c95565b82525050565b608082016000820151614cc66000850182614c68565b506020820151614cd96020850182614c77565b506040820151614cec6040850182614c86565b506060820151614cff6060850182614ca1565b50505050565b6000608082019050614d1a6000830184614cb0565b92915050565b60008060008060608587031215614d3a57614d396149ab565b5b6000614d48878288016149fe565b9450506020614d5987828801614a37565b935050604085013567ffffffffffffffff811115614d7a57614d796149b0565b5b614d8687828801614ae7565b925092505092959194509250565b60008060408385031215614dab57614daa6149ab565b5b6000614db9858286016149fe565b9250506020614dca858286016149fe565b9150509250929050565b614ddd81614b9d565b82525050565b6000819050919050565b614df681614de3565b82525050565b60e082016000820151614e126000850182614dd4565b506020820151614e256020850182614c77565b506040820151614e386040850182614ca1565b506060820151614e4b6060850182614ca1565b506080820151614e5e6080850182614ded565b5060a0820151614e7160a0850182614c68565b5060c0820151614e8460c0850182614c68565b50505050565b600060e082019050614e9f6000830184614dfc565b92915050565b614eae816149d5565b82525050565b614ebd81614a13565b82525050565b614ecc81614c95565b82525050565b6000608082019050614ee76000830187614ea5565b614ef46020830186614eb4565b614f016040830185614c3e565b614f0e6060830184614ec3565b95945050505050565b614f2081614de3565b82525050565b6000608082019050614f3b6000830187614f17565b614f486020830186614f17565b614f556040830185614f17565b614f626060830184614f17565b95945050505050565b600060208284031215614f8157614f806149ab565b5b6000614f8f84828501614a37565b91505092915050565b6000602082019050614fad6000830184614f17565b92915050565b600060e082019050614fc8600083018a614ba7565b614fd56020830189614eb4565b614fe26040830188614ec3565b614fef6060830187614ec3565b614ffc6080830186614f17565b61500960a0830185614ea5565b61501660c0830184614ea5565b98975050505050505050565b60006020820190506150376000830184614ec3565b92915050565b61504681614b9d565b811461505157600080fd5b50565b6000813590506150638161503d565b92915050565b600080604083850312156150805761507f6149ab565b5b600061508e858286016149fe565b925050602061509f85828601615054565b9150509250929050565b600080fd5b6000601f19601f8301169050919050565b7f4e487b7100000000000000000000000000000000000000000000000000000000600052604160045260246000fd5b6150f7826150ae565b810181811067ffffffffffffffff82111715615116576151156150bf565b5b80604052505050565b60006151296149a1565b905061513582826150ee565b919050565b600067ffffffffffffffff821115615155576151546150bf565b5b61515e826150ae565b9050602081019050919050565b82818337600083830152505050565b600061518d6151888461513a565b61511f565b9050828152602081018484840111156151a9576151a86150a9565b5b6151b484828561516b565b509392505050565b600082601f8301126151d1576151d0614ad8565b5b81356151e184826020860161517a565b91505092915050565b600060208284031215615200576151ff6149ab565b5b600082013567ffffffffffffffff81111561521e5761521d6149b0565b5b61522a848285016151bc565b91505092915050565b7f4e487b7100000000000000000000000000000000000000000000000000000000600052601160045260246000fd5b600061526d82614de3565b915061527883614de3565b92508282101561528b5761528a615233565b5b828203905092915050565b60008160601b9050919050565b60006152ae82615296565b9050919050565b60006152c0826152a3565b9050919050565b6152d86152d3826149d5565b6152b5565b82525050565b60008160f81b9050919050565b60006152f6826152de565b9050919050565b61530e61530982614a13565b6152eb565b82525050565b600081905092915050565b600061532b8385615314565b935061533883858461516b565b82840190509392505050565b600061535082876152c7565b60148201915061536082866152fd565b60018201915061537182848661531f565b915081905095945050505050565b60006040820190506153946000830185614ea5565b6153a16020830184614ea5565b9392505050565b7f4e487b7100000000000000000000000000000000000000000000000000000000600052602160045260246000fd5b7f4e487b7100000000000000000000000000000000000000000000000000000000600052603260045260246000fd5b600061541182614a4c565b915060ff820361542457615423615233565b5b600182019050919050565b60006020820190506154446000830184614ea5565b92915050565b600061545582614de3565b915061546083614de3565b9250827fffffffffffffffffffffffffffffffffffffffffffffffffffffffffffffffff0382111561549557615494615233565b5b828201905092915050565b600081519050919050565b600082825260208201905092915050565b60005b838110156154da5780820151818401526020810190506154bf565b838111156154e9576000848401525b50505050565b60006154fa826154a0565b61550481856154ab565b93506155148185602086016154bc565b61551d816150ae565b840191505092915050565b600060408201905061553d6000830185614ea5565b818103602083015261554f81846154ef565b90509392505050565b7f4e6f20726571756573742066726f6d207468617420706c617965722e00000000600082015250565b600061558e601c836154ab565b915061559982615558565b602082019050919050565b600060208201905081810360008301526155bd81615581565b9050919050565b60006155cf82614a4c565b91506155da83614a4c565b9250828210156155ed576155ec615233565b5b828203905092915050565b600061560382614a4c565b915061560e83614a4c565b92508260ff0382111561562457615623615233565b5b828201905092915050565b7f496e76616c696420746f6b656e2049442e000000000000000000000000000000600082015250565b60006156656011836154ab565b91506156708261562f565b602082019050919050565b6000602082019050818103600083015261569481615658565b9050919050565b7f546f6b656e2062616c616e63652063616e6e6f7420676f2062656c6f77207a6560008201527f726f2e0000000000000000000000000000000000000000000000000000000000602082015250565b60006156f76023836154ab565b91506157028261569b565b604082019050919050565b60006020820190508181036000830152615726816156ea565b9050919050565b7f496e76616c696420636172642049442e00000000000000000000000000000000600082015250565b60006157636010836154ab565b915061576e8261572d565b602082019050919050565b6000602082019050818103600083015261579281615756565b905091905056fea2646970667358221220a3ead3d63d1654e69f15078e67aa784fcd2677829f79cd75e6eda1666cb1c1c564736f6c634300080d0033",
  "immutableReferences": {},
  "source": "// SPDX-License-Identifier: MIT\npragma solidity ^0.8.9;\n\n/*\nTODO LIST:\n\n- Re-implement payable tag on startGame function\n\n- Implement cashing out stars from the contract's account -- 0.03 Eth per star on a 0.1 Eth buyin?\n\n- Replace block duration test value of 1 with the intended value of 5000\n\n- Create separate commit trackers for each kind of card (rock, paper, scissors) so that \n  players can't commit to a challenge with a card they don't have, and so that players\n  can't trade away cards they (might) have committed to a challenge.\n\n- Test trading logic\n\n*/\n\ncontract RRPS {\n\n    error AddressAlreadyPlaying();          // Address is already playing the game\n    error PlayerNotFound();                 // Address is not currently playing the game\n    error InsufficientUncommittedTokens();  // Player has insufficient tokens remaining that aren't already committed to a challenge\n    error PlayerStillHasCards();            // Player still has cards remaining\n    error InsufficientStars();              // Player has less than 3 stars remaining\n    error NoSelfChallenge();                // Player cannot challenge themselves\n    error PlayerAlreadyChallenged();        // Player has already challenged the other player\n    error NotYetChallenged();               // Player has not yet been challenged by the other player\n    error MustBeRockPaperOrScissors();      // Card type must be 1, 2, or 3\n    error NeedCopyOfCard();                 // Player must have at least one copy of the card they're trying to commit\n    error NoOpenCommit();                   // Player has not yet made an open commit to the other player's challenge\n    error InvalidCardCombination();         // Invalid card combination\n    error OtherPlayerAlreadyCommitted();    // Other player has already made an open commit to the challenge\n\n    event PlayerJoined(address playerAddress, string nickname);                                                 // A player has joined the game for any reason\n    event PlayerLeft(address playerAddress);                                                                    // A player has left the game for any reason\n       \n    event ChallengerFailedHashOnce(address challenger, address challengee);                                     // Challenger failed to solve hash once\n    event ChallengerFailedHashTwice(address challenger, address challengee);                                    // Challenger failed to solve hash twice (auto-loss of star wi                                        // Player has ended a token transfer (either by cancelling or completing it)\n\n    int8 constant STAR = 0;\n    int8 constant ROCK = 1; \n    int8 constant PAPER = 2;\n    int8 constant SCISSORS = 3;\n\n    struct commit {\n        bytes32 hash;\n        int8 cardType;\n        bool exists;\n        bool hashStrike; \n        uint blockNum;\n        address challenger;\n        address challengee;\n    }\n\n    struct transferRequest {\n        address requestee;\n        int8 tokenType;\n        uint8 amount;\n        bool exists;\n    }\n\n    enum GameResult {\n        Challenger_Loses,\n        Tie,\n        Challenger_Wins,\n        Misplay_Challenger_Loses,   // Result if the challenger doesn't possess a card of the type they committed\n        Misplay_Tie,                // Result if neither player posesses the card they committed\n        Misplay_Challenger_Wins     // Result if the challengee doesn't possess a card of the type they committed\n    }\n\n    mapping (address => bool) public players;                          // Tracks whether a player is active in the game\n    mapping (address => mapping (int8 => uint)) public balances;       // Tracks each player's balance of each token type\n    mapping (int8 => uint) public totals;                              // Tracks the total supply of each token type\n    mapping (address => mapping (address => commit)) public commits;   // Tracks each player's commits against other players\n    mapping (address => address[]) commitArray;                        // This is merely used to re-initialize the commits mapping when a player leaves the game\n    mapping (address => uint8) public commitCount;                     // Tracks the number of games a player is currently committed to\n    mapping (address => transferRequest) public transferRequests;      // Tracks transfer requests\n\n    function playerExists(address player) public view returns(bool) {\n        return players[player];\n    }\n\n    function getCommit(address player1, address player2) public view returns(commit memory) {\n        return commits[player1][player2];\n    }\n\n    function getCommitCount(address player) public view returns(uint8) {\n        return commitCount[player];\n    }\n\n    function getTransferRequest(address requestSender) public view returns(transferRequest memory) {\n        return transferRequests[requestSender];\n    }\n\n    function incrementToken(address player, int8 id, uint amount) internal {\n        require(id >= 0 || id <= 3, \"Invalid token ID.\");\n        balances[player][id] += amount;\n        totals[id] += amount;\n    }\n\n    function decrementToken(address player, int8 id, uint amount) internal {\n        require(id >= 0 || id <= 3, \"Invalid token ID.\");\n        require(balances[player][id] >= amount, \"Token balance cannot go below zero.\");\n        balances[player][id] -= amount;\n        totals[id] -= amount;\n    }\n\n    function decrementCard(address player, int8 id, uint amount) internal {\n        require(id >= 1 || id <= 3, \"Invalid card ID.\");\n        require(balances[player][id] >= amount, \"Token balance cannot go below zero.\");\n        balances[player][id] -= amount;\n        totals[id] -= amount;\n    }\n\n    // This function is written from the perspective of the challenger\n    function issueCommit(address challengee, bytes32 hash) internal {\n        commits[msg.sender][challengee].hash = hash;                        // Add hash to commits mapping\n        commits[msg.sender][challengee].exists = true;                      // Set commits mapping to exist\n        commits[msg.sender][challengee].blockNum = block.number;            // Add blocknumber \n        commits[msg.sender][challengee].challenger = msg.sender;            // Add challenger address\n        commits[msg.sender][challengee].challengee = challengee;            // Add challengee address\n        commitArray[msg.sender].push(challengee);                           // Add challengee to array of addresses committed against\n        commitCount[msg.sender] += 1;                                       // Increment commitCount for challenger \n    }\n\n    // This function is written from the perspective of the challengee\n    function issueCommit(address challenger, int8 cardType) internal {\n        // Set commits mapping challengee -> challenger -> cardType\n        commits[msg.sender][challenger].cardType = cardType;                // Add cardType to commits mapping\n        commits[msg.sender][challenger].exists = true;                      // Set commits mapping to exist\n        commits[msg.sender][challenger].blockNum = block.number;            // Add blocknumber \n        commits[msg.sender][challenger].challengee = msg.sender;            // Add challenger address\n        commits[msg.sender][challenger].challenger = challenger;            // Add challengee address\n        commitArray[msg.sender].push(challenger);                           // Add challenger to array of addresses committed against \n        commitCount[msg.sender] += 1;                                       // Increment commitCount for challengee \n    }\n\n    function removeCommit(address fromPlayer, address toPlayer) internal {\n        if (commits[fromPlayer][toPlayer].exists){\n            delete commits[fromPlayer][toPlayer];\n            commitCount[fromPlayer] -= 1;\n        }\n    }\n\n    function startGame(string memory nickname) public /* payable */ {\n        // require(msg.value >= 0.1 ether); // Check payment\n        if (players[msg.sender] == true) {revert AddressAlreadyPlaying();}  // Ensure that address is not currently playing the game\n        players[msg.sender] = true;                                         // Log the address as playing the game\n        for (uint8 i=0; i<commitArray[msg.sender].length; i++){\n            removeCommit(msg.sender, commitArray[msg.sender][i]);           // Delete any existing outgoing commits\n            removeCommit(commitArray[msg.sender][i], msg.sender);           // Delete any existing incoming commits\n        }\n        delete commitCount[msg.sender];                                     // Delete commits count\n        delete transferRequests[msg.sender];                                // Delete transfer requests\n        incrementToken(msg.sender, STAR, 3);                                // Give player fresh set of cards and stars\n        incrementToken(msg.sender, ROCK, 4);\n        incrementToken(msg.sender, PAPER, 4);\n        incrementToken(msg.sender, SCISSORS, 4);\n        emit PlayerJoined(msg.sender, nickname);\n    }\n\n    function gameOverCheck(address player) internal {\n        if (balanceOf(player, STAR) < 1){                                   // Check if player has no stars remaining\n            decrementToken(player, ROCK, balanceOf(player, ROCK));          // Remove remaining rock cards\n            decrementToken(player, PAPER, balanceOf(player, PAPER));        // Remove remaining paper cards\n            decrementToken(player, SCISSORS, balanceOf(player, SCISSORS));  // Remove remaining scissors cards\n            players[player] = false;                                        // Deregister player\n            for (uint8 i=0; i<commitArray[player].length; i++){\n                removeCommit(player, commitArray[player][i]);               // Delete any existing outgoing commits\n                removeCommit(commitArray[player][i], player);               // Delete any existing incoming commits\n            }\n            delete commitCount[player];                                     // Delete any existing commits count\n\n            delete transferRequests[player];                                // Delete transfer request                                                                \n\n            emit PlayerLeft(player);\n        }\n    }\n\n    function cashOut() public {\n        if (totalCards(msg.sender) > 0) {revert PlayerStillHasCards();}     // Check that player has no cards remaining\n        if (balanceOf(msg.sender, STAR) < 3) {revert InsufficientStars();}  // Check that player has 3 or more stars remaining\n        decrementToken(msg.sender, STAR, balanceOf(msg.sender, STAR));      // Remove remaining stars\n        players[msg.sender] = false;                                        // Deregister player\n\n        delete transferRequests[msg.sender];                                // Delete transfer requests\n        for (uint8 i=0; i<commitArray[msg.sender].length; i++){\n            removeCommit(msg.sender, commitArray[msg.sender][i]);           // Delete any existing outgoing commits\n            removeCommit(commitArray[msg.sender][i], msg.sender);           // Delete any existing incoming commits\n        }\n        emit PlayerLeft(msg.sender);\n    }\n\n    function leaveGame() public {\n        decrementToken(msg.sender, STAR, balanceOf(msg.sender, STAR));      // Remove remaining stars\n        decrementToken(msg.sender, ROCK, balanceOf(msg.sender, ROCK));          // Remove remaining rock cards\n        decrementToken(msg.sender, PAPER, balanceOf(msg.sender, PAPER));        // Remove remaining paper cards\n        decrementToken(msg.sender, SCISSORS, balanceOf(msg.sender, SCISSORS));  // Remove remaining scissors cards\n        players[msg.sender] = false;                                        // Deregister player\n        delete transferRequests[msg.sender];                                // Delete transfer requests\n        for (uint8 i=0; i<commitArray[msg.sender].length; i++){\n            removeCommit(msg.sender, commitArray[msg.sender][i]);           // Delete any existing outgoing commits\n            removeCommit(commitArray[msg.sender][i], msg.sender);           // Delete any existing incoming commits\n        }\n        emit PlayerLeft(msg.sender);\n    }\n\n    // This function is written from the perspective of the challenger\n    function challengeCommit(address challengee, bytes32 hash) public {\n        if (players[msg.sender] == false) {revert PlayerNotFound();}                    // Check that player is in the game \n        if (msg.sender == challengee) {revert NoSelfChallenge();}                       // Check that challenger and challengee are different accounts\n        if ((totalCards(msg.sender) - commitCount[msg.sender]) < 1) {revert InsufficientUncommittedTokens();}         // Check for uncommitted challenger card\n        if ((totalCards(challengee) - commitCount[challengee]) < 1) {revert InsufficientUncommittedTokens();}         // Check for uncommitted challengee card\n        if ((balanceOf(msg.sender, STAR) - commitCount[msg.sender]) < 1) {revert InsufficientUncommittedTokens();}    // Check for uncommitted challenger star\n        if ((balanceOf(challengee, STAR) - commitCount[challengee]) < 1) {revert InsufficientUncommittedTokens();}    // Check for uncommitted challengee star\n        if (commits[challengee][msg.sender].exists) {revert PlayerAlreadyChallenged();} // Check for open challenge against challengee\n        if (commits[msg.sender][challengee].exists) {revert PlayerAlreadyChallenged();} // Check for open challenge against challenger\n        issueCommit(challengee, hash);                                                  // Set commit mapping and increment commitCount for challenger \n    }\n\n    // This function is written from the perspective of the challengee\n    function openCommit(address challenger, int8 cardType) public {\n        if (players[msg.sender] == false) {revert PlayerNotFound();}                // Check that player is in the game \n        if (msg.sender == challenger) {revert NoSelfChallenge();}                   // Check that challenger and challengee are different accounts\n        if (!commits[challenger][msg.sender].exists) {revert NotYetChallenged();}   // Check that challengee has been challenged by challenger\n        if (cardType < 1 || cardType > 3) {revert MustBeRockPaperOrScissors();}     // Check that cardType is one of ROCK (1), PAPER (2), SCISSORS (3)\n        if (msg.sender == challenger) {revert NoSelfChallenge();}                   // Check that challenger and challengee are different accounts\n        if (balanceOf(msg.sender, cardType) < 1) {revert NeedCopyOfCard();}         // Check that challengee has at least one copy of the card to be committed\n        if ((totalCards(msg.sender) - commitCount[msg.sender]) < 1) {revert InsufficientUncommittedTokens();}         // Check challengee's uncommitted cards\n        if ((balanceOf(msg.sender, STAR) - commitCount[msg.sender]) < 1) {revert InsufficientUncommittedTokens();}    // Check challengee's uncommitted stars\n        if (players[challenger] == false){                                          // Check to see if challenger is still in the game.\n            removeCommit(challenger, msg.sender);                                   // If they are not, withdraw the challenge and end function early\n            removeCommit(msg.sender, challenger);\n            return ();\n        }\n        issueCommit(challenger, cardType);                                           // Set commit mapping and increment commitCount for challengee\n    }\n\n    // Written from the perspective of the challenger, who must now reveal their card by proving their hash\n    function reveal(address challengee, int8 cardType, string calldata salt) public {\n        if (msg.sender == challengee) {revert NoSelfChallenge();}                   // Check that challenger isn't revealing against themselves\n        if (players[msg.sender] == false) {revert PlayerNotFound();}                // Check that player is in the game \n        if (cardType < 1 || cardType > 3) {revert MustBeRockPaperOrScissors();}     // Check that cardType is one of ROCK (1), PAPER (2), SCISSORS (3)\n        if (!commits[challengee][msg.sender].exists) {revert NoOpenCommit();}       // Check that challengee has made an open commit to challenger's challenge\n        if (!commits[msg.sender][challengee].exists) {revert NotYetChallenged();}   // Check that challenger has challenged challengee\n\n        if (players[challengee] == false){                                          // Check to see if challengee is still in the game. \n            removeCommit(msg.sender, challengee);                                   // If they are not, withdraw the challenge and end function early.\n            removeCommit(challengee, msg.sender);\n            return ();\n        }\n\n        int8 challengerCard;                                                        // Initialize challenger's card variable\n        int8 challengeeCard = commits[challengee][msg.sender].cardType;             // Get the challengee's card\n\n        // Check that challenger's hash is solved using the card type and salt.\n        if (\n            hashCommit(cardType, salt) == commits[msg.sender][challengee].hash && \n            balanceOf(msg.sender, cardType) > 0\n        ){\n            challengerCard = cardType;                                              // If the hash matches, accept the card type as the challenger's card\n        } else if (!commits[msg.sender][challengee].hashStrike) {\n            commits[msg.sender][challengee].hashStrike = true;                      // If the hash doesn't match, strike the hash once,\n            emit ChallengerFailedHashOnce(msg.sender, challengee);                  // and then end the function early\n            return ();\n        } else {\n            emit ChallengerFailedHashTwice(msg.sender, challengee);                 // If the hash doesn't match and has already been struck once,\n            challengerCard = -1;                                                     // Set challengerCard to 0, which indicates a misplay \n        }\n        \n\n        GameResult gameResult;\n        if (balanceOf(msg.sender, challengerCard) < 1)  {challengerCard = -1;}       // Ensure that challenger is in possession of a card of the type they committed\n        if (balanceOf(challengee, challengeeCard) < 1)  {challengeeCard = -1;}       // Ensure that challengee is in possession of a card of the type they committed\n\n        // Determine Winner\n        if      (challengerCard == -1 && challengeeCard == -1)          {gameResult = GameResult.Misplay_Tie;}\n        else if (challengerCard == -1)                                  {gameResult = GameResult.Misplay_Challenger_Loses;}\n        else if (challengeeCard == -1)                                  {gameResult = GameResult.Misplay_Challenger_Wins;}\n        else if (challengerCard == challengeeCard)                      {gameResult = GameResult.Tie;}\n        else if (challengerCard == ROCK && challengeeCard == SCISSORS)  {gameResult = GameResult.Challenger_Wins;}\n        else if (challengerCard == SCISSORS && challengeeCard == PAPER) {gameResult = GameResult.Challenger_Wins;}\n        else if (challengerCard == PAPER && challengeeCard == ROCK)     {gameResult = GameResult.Challenger_Wins;}\n        else if (challengerCard == ROCK && challengeeCard == PAPER)     {gameResult = GameResult.Challenger_Loses;}\n        else if (challengerCard == PAPER && challengeeCard == SCISSORS) {gameResult = GameResult.Challenger_Loses;}\n        else if (challengerCard == SCISSORS && challengeeCard == ROCK)  {gameResult = GameResult.Challenger_Loses;}\n        else {revert InvalidCardCombination();}\n\n        // CARD HANDLING:\n        // If the outcome is legitimate, burn both cards used, otherwise, only burn the legit card.\n        if      (gameResult == GameResult.Misplay_Challenger_Loses)     {decrementCard(challengee, challengeeCard, 1); }\n        else if (gameResult == GameResult.Misplay_Challenger_Wins)      {decrementCard(msg.sender, challengerCard, 1); }\n        else if (gameResult == GameResult.Misplay_Tie)                  {}\n        else {\n            decrementCard(msg.sender, challengerCard, 1);\n            decrementCard(challengee, challengeeCard, 1);\n        }\n\n        // STAR HANDLING:\n        // If there's a winner, move one star from loser to winner\n        if (gameResult == GameResult.Challenger_Loses || gameResult == GameResult.Misplay_Challenger_Loses){\n            decrementToken(msg.sender, STAR, 1);\n            incrementToken(challengee, STAR, 1);\n        }\n        if (gameResult == GameResult.Challenger_Wins || gameResult == GameResult.Misplay_Challenger_Wins){\n            decrementToken(challengee, STAR, 1);\n            incrementToken(msg.sender, STAR, 1);\n        }\n        // If the result is a double misplay, burn one star from both participants.\n        if (gameResult == GameResult.Misplay_Tie) {\n            decrementToken(msg.sender, STAR, 1);\n            decrementToken(challengee, STAR, 1);\n            // Don't emit anything here, as misplay events have already been emitted during the CARD HANDLING step above. \n        }\n        // If the result is a legitimate tie, no stars change hands\n        if (gameResult == GameResult.Tie) {}\n\n        // Remove both commits\n        removeCommit(msg.sender, challengee);\n        removeCommit(challengee, msg.sender);\n\n        // Check for Game Over for both players\n        gameOverCheck(msg.sender);\n        gameOverCheck(challengee);\n    }\n\n    function withdrawChallenge(address challengee) public {\n        if (!commits[msg.sender][challengee].exists) {revert NotYetChallenged();}               // Ensure that challenger has challenged challengee\n        if (commits[challengee][msg.sender].exists) {revert OtherPlayerAlreadyCommitted();}     // Ensure no open commit from other player yet exists\n        removeCommit(msg.sender, challengee);                                                   // Remove the commit\n    }\n\n    /* \n    After thinking about it, there shouldn't ever be a valid reason to withdraw an open commit.\n    Either the original challenger reveals, or the challengee uses the timeout win.\n    */\n    // function withdrawOpenCommit(address challenger) public {\n    //     if (!commits[msg.sender][challenger].exists) {revert NoOpenCommit();}       // Check that challengee has made an open commit to challenger's challenge\n    //     if (!commits[challenger][msg.sender].exists) {revert NotYetChallenged();}   // Check that challenger has challenged challengee\n    //     removeCommit(challenger, msg.sender);                                       // Remove the open commit\n    //     emit WithdrawnOpenCommit(challenger, msg.sender);\n    // }\n\n    function timeOutWin(address challenger) public {\n        if (!commits[msg.sender][challenger].exists) {revert NoOpenCommit();}       // Check that challengee has made an open commit to challenger's challenge\n        if (!commits[challenger][msg.sender].exists) {revert NotYetChallenged();}   // Check that challenger has challenged challengee\n\n        if (players[challenger] == false){                                          // Check to see if challenger is still in the game. \n            removeCommit(msg.sender, challenger);                                   // If they are not, withdraw the challenge and end function early.\n            removeCommit(challenger, msg.sender);\n            return ();\n        }\n\n        if (commits[msg.sender][challenger].blockNum < (block.number - 1 /*Change this to 5000 for deployment*/)){ // Check if 5000 blocks have elapsed\n            decrementToken(challenger, STAR, 1);                                        // Challenger loses a star\n            incrementToken(msg.sender, STAR, 1);                                        // Challengee gains a star\n            if (balanceOf(msg.sender, commits[msg.sender][challenger].cardType) > 0){   // If challengee has a copy of the card they committed...\n                decrementToken(msg.sender, commits[msg.sender][challenger].cardType, 1);// ... challengee burns their card; challenger does not.\n            }\n            removeCommit(msg.sender, challenger);                                       // Remove the open commit\n            removeCommit(challenger, msg.sender);                                       // Remove the initial commit\n            gameOverCheck(challenger);\n        }\n    }\n\n    function hashCommit(int8 cardType, string calldata salt) public view returns(bytes32) {\n        if(cardType < 1 || cardType > 3) {revert MustBeRockPaperOrScissors();}\n        return keccak256(abi.encodePacked(msg.sender, cardType, salt));\n    }\n\n    // function contractBalance() public view returns(uint) {\n    //     return(address(this).balance);\n    // }\n\n    function balanceOf(address account, int8 id) public view returns(uint) {\n        return(balances[account][id]);\n    }\n    \n    function balanceOf(address account) public view returns(uint, uint, uint, uint) {\n        return (\n            balanceOf(account, 0),\n            balanceOf(account, 1),\n            balanceOf(account, 2),\n            balanceOf(account, 3)\n        );\n    }\n\n    function balanceOf() public view returns(uint, uint, uint, uint) {\n        return(balanceOf(msg.sender));\n    }\n\n    function totalCards(address player) public view returns (uint) {\n        return(\n            balanceOf(player, ROCK) + \n            balanceOf(player, PAPER) + \n            balanceOf(player, SCISSORS)\n        );\n    }\n\n    // Players can only have one token take request at a time; token take requests ALWAYS send tokens FROM requestee TO requester.\n    // In other words, you can request other players give you their tokens, but you cannot request that other players take yours.\n    function requestTokenTake(address requestee, int8 id, uint8 amount) public {\n        if (players[requestee] == false) {revert PlayerNotFound();}                 // Check that requestee is in the game \n        if (requestee == msg.sender) {revert NoSelfChallenge();}                    // Check that requester and requestee are different accounts\n        if ((balanceOf(requestee, id) - commitCount[requestee]) < amount) {revert InsufficientUncommittedTokens();} // Check for sufficient uncommitted requestee tokens\n        transferRequests[msg.sender].requestee = requestee;                         // Set requestee\n        transferRequests[msg.sender].tokenType = id;                                // Set token type\n        transferRequests[msg.sender].amount = amount;                               // Set amount               \n    }\n\n    function approveTokenTake(address requestSender) public {\n        if (players[requestSender] == false) {revert PlayerNotFound();}             // Check that requestSender is in the game \n        require(transferRequests[requestSender].requestee == msg.sender, \"No request from that player.\"); // Check that requester's request is to requestee\n\n        if (\n            (balanceOf(msg.sender, transferRequests[requestSender].tokenType) \n            - commitCount[msg.sender]) < transferRequests[requestSender].amount\n            ) {revert InsufficientUncommittedTokens();} // Check for sufficient uncommitted requestee tokens\n\n        incrementToken(requestSender, transferRequests[requestSender].tokenType, transferRequests[requestSender].amount);   // Increment requester's token balance\n        decrementToken(msg.sender, transferRequests[requestSender].tokenType, transferRequests[requestSender].amount);      // Decrement requestee's token balance\n\n        delete transferRequests[requestSender];                                // Delete transfer request\n        \n        gameOverCheck(msg.sender);\n    }\n}\n",
  "sourcePath": "/home/pierson/Desktop/restricted_rock_paper_scissors/rrps_contracts/contracts/rrps.sol",
  "compiler": {
    "name": "solc",
    "version": "0.8.13+commit.abaa5c0e.Emscripten.clang"
  },
  "schemaVersion": "3.4.16",
  "updatedAt": "2023-10-28T00:02:39.937Z",
  "networkType": "ethereum",
  "devdoc": {
    "kind": "dev",
    "methods": {},
    "version": 1
  },
  "userdoc": {
    "kind": "user",
    "methods": {},
    "version": 1
  }
}