{
  "contractName": "RRPS",
  "abi": [
    {
      "inputs": [],
      "name": "AddressAlreadyPlaying",
      "type": "error"
    },
    {
      "inputs": [],
      "name": "InsufficientStars",
      "type": "error"
    },
    {
      "inputs": [],
      "name": "InsufficientUncommittedTokens",
      "type": "error"
    },
    {
      "inputs": [],
      "name": "InvalidCardCombination",
      "type": "error"
    },
    {
      "inputs": [],
      "name": "MustBeRockPaperOrScissors",
      "type": "error"
    },
    {
      "inputs": [],
      "name": "NeedCopyOfCard",
      "type": "error"
    },
    {
      "inputs": [],
      "name": "NoOpenCommit",
      "type": "error"
    },
    {
      "inputs": [],
      "name": "NoSelfChallenge",
      "type": "error"
    },
    {
      "inputs": [],
      "name": "NotYetChallenged",
      "type": "error"
    },
    {
      "inputs": [],
      "name": "OtherPlayerAlreadyCommitted",
      "type": "error"
    },
    {
      "inputs": [],
      "name": "PlayerAlreadyChallenged",
      "type": "error"
    },
    {
      "inputs": [],
      "name": "PlayerNotFound",
      "type": "error"
    },
    {
      "inputs": [],
      "name": "PlayerStillHasCards",
      "type": "error"
    },
    {
      "anonymous": false,
      "inputs": [
        {
          "indexed": false,
          "internalType": "address",
          "name": "challenger",
          "type": "address"
        },
        {
          "indexed": false,
          "internalType": "address",
          "name": "challengee",
          "type": "address"
        }
      ],
      "name": "ChallengeCommit",
      "type": "event"
    },
    {
      "anonymous": false,
      "inputs": [
        {
          "indexed": false,
          "internalType": "address",
          "name": "challenger",
          "type": "address"
        },
        {
          "indexed": false,
          "internalType": "address",
          "name": "challengee",
          "type": "address"
        }
      ],
      "name": "ChallengerFailedHashOnce",
      "type": "event"
    },
    {
      "anonymous": false,
      "inputs": [
        {
          "indexed": false,
          "internalType": "address",
          "name": "challenger",
          "type": "address"
        },
        {
          "indexed": false,
          "internalType": "address",
          "name": "challengee",
          "type": "address"
        }
      ],
      "name": "ChallengerFailedHashTwice",
      "type": "event"
    },
    {
      "anonymous": false,
      "inputs": [
        {
          "indexed": false,
          "internalType": "address",
          "name": "challenger",
          "type": "address"
        },
        {
          "indexed": false,
          "internalType": "int8",
          "name": "challengerCard",
          "type": "int8"
        },
        {
          "indexed": false,
          "internalType": "address",
          "name": "challengee",
          "type": "address"
        },
        {
          "indexed": false,
          "internalType": "int8",
          "name": "challengeeCard",
          "type": "int8"
        }
      ],
      "name": "ChallengerLoses",
      "type": "event"
    },
    {
      "anonymous": false,
      "inputs": [
        {
          "indexed": false,
          "internalType": "address",
          "name": "challenger",
          "type": "address"
        },
        {
          "indexed": false,
          "internalType": "int8",
          "name": "challengerCard",
          "type": "int8"
        },
        {
          "indexed": false,
          "internalType": "address",
          "name": "challengee",
          "type": "address"
        },
        {
          "indexed": false,
          "internalType": "int8",
          "name": "challengeeCard",
          "type": "int8"
        }
      ],
      "name": "ChallengerWins",
      "type": "event"
    },
    {
      "anonymous": false,
      "inputs": [
        {
          "indexed": false,
          "internalType": "address",
          "name": "player1",
          "type": "address"
        },
        {
          "indexed": false,
          "internalType": "address",
          "name": "player2",
          "type": "address"
        }
      ],
      "name": "CommitCreated",
      "type": "event"
    },
    {
      "anonymous": false,
      "inputs": [
        {
          "indexed": false,
          "internalType": "address",
          "name": "player1",
          "type": "address"
        },
        {
          "indexed": false,
          "internalType": "address",
          "name": "player2",
          "type": "address"
        }
      ],
      "name": "CommitRemoved",
      "type": "event"
    },
    {
      "anonymous": false,
      "inputs": [
        {
          "indexed": false,
          "internalType": "address",
          "name": "player",
          "type": "address"
        },
        {
          "indexed": false,
          "internalType": "int8",
          "name": "card",
          "type": "int8"
        }
      ],
      "name": "Misplay",
      "type": "event"
    },
    {
      "anonymous": false,
      "inputs": [
        {
          "indexed": false,
          "internalType": "address",
          "name": "challenger",
          "type": "address"
        },
        {
          "indexed": false,
          "internalType": "address",
          "name": "challengee",
          "type": "address"
        }
      ],
      "name": "OpenCommit",
      "type": "event"
    },
    {
      "anonymous": false,
      "inputs": [
        {
          "indexed": false,
          "internalType": "address",
          "name": "challenger",
          "type": "address"
        },
        {
          "indexed": false,
          "internalType": "address",
          "name": "challengee",
          "type": "address"
        }
      ],
      "name": "OrphanedCommit",
      "type": "event"
    },
    {
      "anonymous": false,
      "inputs": [
        {
          "indexed": false,
          "internalType": "address",
          "name": "playerAddress",
          "type": "address"
        }
      ],
      "name": "PlayerCashedOut",
      "type": "event"
    },
    {
      "anonymous": false,
      "inputs": [
        {
          "indexed": false,
          "internalType": "address",
          "name": "playerAddress",
          "type": "address"
        }
      ],
      "name": "PlayerEliminated",
      "type": "event"
    },
    {
      "anonymous": false,
      "inputs": [
        {
          "indexed": false,
          "internalType": "address",
          "name": "playerAddress",
          "type": "address"
        },
        {
          "indexed": false,
          "internalType": "string",
          "name": "nickname",
          "type": "string"
        }
      ],
      "name": "PlayerJoined",
      "type": "event"
    },
    {
      "anonymous": false,
      "inputs": [
        {
          "indexed": false,
          "internalType": "address",
          "name": "playerAddress",
          "type": "address"
        }
      ],
      "name": "PlayerLeft",
      "type": "event"
    },
    {
      "anonymous": false,
      "inputs": [
        {
          "indexed": false,
          "internalType": "address",
          "name": "challenger",
          "type": "address"
        },
        {
          "indexed": false,
          "internalType": "int8",
          "name": "challengerCard",
          "type": "int8"
        },
        {
          "indexed": false,
          "internalType": "address",
          "name": "challengee",
          "type": "address"
        },
        {
          "indexed": false,
          "internalType": "int8",
          "name": "challengeeCard",
          "type": "int8"
        }
      ],
      "name": "Tie",
      "type": "event"
    },
    {
      "anonymous": false,
      "inputs": [
        {
          "indexed": false,
          "internalType": "address",
          "name": "requestSender",
          "type": "address"
        },
        {
          "indexed": false,
          "internalType": "address",
          "name": "requestee",
          "type": "address"
        },
        {
          "indexed": false,
          "internalType": "int8",
          "name": "tokenType",
          "type": "int8"
        },
        {
          "indexed": false,
          "internalType": "uint8",
          "name": "amount",
          "type": "uint8"
        }
      ],
      "name": "TransferApproved",
      "type": "event"
    },
    {
      "anonymous": false,
      "inputs": [
        {
          "indexed": false,
          "internalType": "address",
          "name": "requestSender",
          "type": "address"
        },
        {
          "indexed": false,
          "internalType": "address",
          "name": "requestee",
          "type": "address"
        },
        {
          "indexed": false,
          "internalType": "int8",
          "name": "tokenType",
          "type": "int8"
        },
        {
          "indexed": false,
          "internalType": "uint8",
          "name": "amount",
          "type": "uint8"
        }
      ],
      "name": "TransferRequest",
      "type": "event"
    },
    {
      "anonymous": false,
      "inputs": [
        {
          "indexed": false,
          "internalType": "address",
          "name": "challenger",
          "type": "address"
        },
        {
          "indexed": false,
          "internalType": "address",
          "name": "challengee",
          "type": "address"
        }
      ],
      "name": "WithdrawnChallengeCommit",
      "type": "event"
    },
    {
      "anonymous": false,
      "inputs": [
        {
          "indexed": false,
          "internalType": "address",
          "name": "challenger",
          "type": "address"
        },
        {
          "indexed": false,
          "internalType": "address",
          "name": "challengee",
          "type": "address"
        }
      ],
      "name": "WithdrawnOpenCommit",
      "type": "event"
    },
    {
      "inputs": [
        {
          "internalType": "address",
          "name": "",
          "type": "address"
        },
        {
          "internalType": "int8",
          "name": "",
          "type": "int8"
        }
      ],
      "name": "balances",
      "outputs": [
        {
          "internalType": "uint256",
          "name": "",
          "type": "uint256"
        }
      ],
      "stateMutability": "view",
      "type": "function",
      "constant": true
    },
    {
      "inputs": [
        {
          "internalType": "address",
          "name": "",
          "type": "address"
        }
      ],
      "name": "commitCount",
      "outputs": [
        {
          "internalType": "uint8",
          "name": "",
          "type": "uint8"
        }
      ],
      "stateMutability": "view",
      "type": "function",
      "constant": true
    },
    {
      "inputs": [
        {
          "internalType": "address",
          "name": "",
          "type": "address"
        },
        {
          "internalType": "address",
          "name": "",
          "type": "address"
        }
      ],
      "name": "commits",
      "outputs": [
        {
          "internalType": "bytes32",
          "name": "hash",
          "type": "bytes32"
        },
        {
          "internalType": "int8",
          "name": "cardType",
          "type": "int8"
        },
        {
          "internalType": "bool",
          "name": "exists",
          "type": "bool"
        },
        {
          "internalType": "bool",
          "name": "hashStrike",
          "type": "bool"
        },
        {
          "internalType": "uint256",
          "name": "blockNum",
          "type": "uint256"
        }
      ],
      "stateMutability": "view",
      "type": "function",
      "constant": true
    },
    {
      "inputs": [
        {
          "internalType": "address",
          "name": "",
          "type": "address"
        }
      ],
      "name": "players",
      "outputs": [
        {
          "internalType": "bool",
          "name": "",
          "type": "bool"
        }
      ],
      "stateMutability": "view",
      "type": "function",
      "constant": true
    },
    {
      "inputs": [
        {
          "internalType": "int8",
          "name": "",
          "type": "int8"
        }
      ],
      "name": "totals",
      "outputs": [
        {
          "internalType": "uint256",
          "name": "",
          "type": "uint256"
        }
      ],
      "stateMutability": "view",
      "type": "function",
      "constant": true
    },
    {
      "inputs": [
        {
          "internalType": "address",
          "name": "",
          "type": "address"
        }
      ],
      "name": "transferRequests",
      "outputs": [
        {
          "internalType": "address",
          "name": "requestee",
          "type": "address"
        },
        {
          "internalType": "int8",
          "name": "tokenType",
          "type": "int8"
        },
        {
          "internalType": "uint8",
          "name": "amount",
          "type": "uint8"
        }
      ],
      "stateMutability": "view",
      "type": "function",
      "constant": true
    },
    {
      "inputs": [
        {
          "internalType": "string",
          "name": "nickname",
          "type": "string"
        }
      ],
      "name": "startGame",
      "outputs": [],
      "stateMutability": "nonpayable",
      "type": "function"
    },
    {
      "inputs": [],
      "name": "cashOut",
      "outputs": [],
      "stateMutability": "nonpayable",
      "type": "function"
    },
    {
      "inputs": [
        {
          "internalType": "address",
          "name": "challengee",
          "type": "address"
        },
        {
          "internalType": "bytes32",
          "name": "hash",
          "type": "bytes32"
        }
      ],
      "name": "challengeCommit",
      "outputs": [],
      "stateMutability": "nonpayable",
      "type": "function"
    },
    {
      "inputs": [
        {
          "internalType": "address",
          "name": "challenger",
          "type": "address"
        },
        {
          "internalType": "int8",
          "name": "cardType",
          "type": "int8"
        }
      ],
      "name": "openCommit",
      "outputs": [],
      "stateMutability": "nonpayable",
      "type": "function"
    },
    {
      "inputs": [
        {
          "internalType": "address",
          "name": "challengee",
          "type": "address"
        },
        {
          "internalType": "int8",
          "name": "cardType",
          "type": "int8"
        },
        {
          "internalType": "string",
          "name": "salt",
          "type": "string"
        }
      ],
      "name": "reveal",
      "outputs": [],
      "stateMutability": "nonpayable",
      "type": "function"
    },
    {
      "inputs": [
        {
          "internalType": "address",
          "name": "challengee",
          "type": "address"
        }
      ],
      "name": "withdrawChallenge",
      "outputs": [],
      "stateMutability": "nonpayable",
      "type": "function"
    },
    {
      "inputs": [
        {
          "internalType": "address",
          "name": "challenger",
          "type": "address"
        }
      ],
      "name": "timeOutWin",
      "outputs": [],
      "stateMutability": "nonpayable",
      "type": "function"
    },
    {
      "inputs": [
        {
          "internalType": "int8",
          "name": "cardType",
          "type": "int8"
        },
        {
          "internalType": "string",
          "name": "salt",
          "type": "string"
        }
      ],
      "name": "hashCommit",
      "outputs": [
        {
          "internalType": "bytes32",
          "name": "",
          "type": "bytes32"
        }
      ],
      "stateMutability": "view",
      "type": "function",
      "constant": true
    },
    {
      "inputs": [
        {
          "internalType": "address",
          "name": "account",
          "type": "address"
        }
      ],
      "name": "balanceOf",
      "outputs": [
        {
          "internalType": "uint256",
          "name": "",
          "type": "uint256"
        },
        {
          "internalType": "uint256",
          "name": "",
          "type": "uint256"
        },
        {
          "internalType": "uint256",
          "name": "",
          "type": "uint256"
        },
        {
          "internalType": "uint256",
          "name": "",
          "type": "uint256"
        }
      ],
      "stateMutability": "view",
      "type": "function",
      "constant": true
    },
    {
      "inputs": [],
      "name": "balanceOf",
      "outputs": [
        {
          "internalType": "uint256",
          "name": "",
          "type": "uint256"
        },
        {
          "internalType": "uint256",
          "name": "",
          "type": "uint256"
        },
        {
          "internalType": "uint256",
          "name": "",
          "type": "uint256"
        },
        {
          "internalType": "uint256",
          "name": "",
          "type": "uint256"
        }
      ],
      "stateMutability": "view",
      "type": "function",
      "constant": true
    },
    {
      "inputs": [
        {
          "internalType": "address",
          "name": "account",
          "type": "address"
        },
        {
          "internalType": "int8",
          "name": "id",
          "type": "int8"
        }
      ],
      "name": "balanceOf",
      "outputs": [
        {
          "internalType": "uint256",
          "name": "",
          "type": "uint256"
        }
      ],
      "stateMutability": "view",
      "type": "function",
      "constant": true
    },
    {
      "inputs": [
        {
          "internalType": "address",
          "name": "player",
          "type": "address"
        }
      ],
      "name": "totalCards",
      "outputs": [
        {
          "internalType": "uint256",
          "name": "",
          "type": "uint256"
        }
      ],
      "stateMutability": "view",
      "type": "function",
      "constant": true
    },
    {
      "inputs": [
        {
          "internalType": "address",
          "name": "requestee",
          "type": "address"
        },
        {
          "internalType": "int8",
          "name": "id",
          "type": "int8"
        },
        {
          "internalType": "uint8",
          "name": "amount",
          "type": "uint8"
        }
      ],
      "name": "requestTokenTake",
      "outputs": [],
      "stateMutability": "nonpayable",
      "type": "function"
    },
    {
      "inputs": [
        {
          "internalType": "address",
          "name": "requestSender",
          "type": "address"
        }
      ],
      "name": "approveTokenTake",
      "outputs": [],
      "stateMutability": "nonpayable",
      "type": "function"
    }
  ],
  "bytecode": "0x608060405234801561001057600080fd5b506150c9806100206000396000f3fe608060405234801561001057600080fd5b50600436106100fc5760003560e01c806311b528bc14610101578063172ed1bd1461011d5780632cd77d4c1461014d5780632df93b0b146101695780632e2a82ce146101855780633e810d97146101b5578063447a256e146101d15780636212d91a146101ed57806370a082311461021f578063722713f714610252578063793cd71e1461027357806389699f0a1461027d578063a350d580146102ad578063b4faf732146102dd578063bb0dd4e014610311578063c855ad6014610341578063d3cfaccc1461035d578063d542c4d51461038d578063e2eb41ff146103a9578063f7c0128d146103d9575b600080fd5b61011b60048036038101906101169190614469565b6103f5565b005b61013760048036038101906101329190614521565b6106ff565b604051610144919061459a565b60405180910390f35b610167600480360381019061016291906145b5565b610783565b005b610183600480360381019061017e91906145e2565b610950565b005b61019f600480360381019061019a91906145b5565b610e23565b6040516101ac9190614631565b60405180910390f35b6101cf60048036038101906101ca91906145b5565b610e43565b005b6101eb60048036038101906101e6919061464c565b6113cd565b005b610207600480360381019061020291906145b5565b6120b0565b604051610216939291906146de565b60405180910390f35b610239600480360381019061023491906145b5565b612114565b604051610249949392919061472e565b60405180910390f35b61025a612155565b60405161026a949392919061472e565b60405180910390f35b61027b612172565b005b61029760048036038101906102929190614773565b6124dc565b6040516102a491906147a0565b60405180910390f35b6102c760048036038101906102c291906145b5565b6124f4565b6040516102d491906147a0565b60405180910390f35b6102f760048036038101906102f291906147bb565b612532565b604051610308959493929190614816565b60405180910390f35b61032b600480360381019061032691906145e2565b61259c565b60405161033891906147a0565b60405180910390f35b61035b60048036038101906103569190614895565b6125fd565b005b610377600480360381019061037291906145e2565b612b32565b60405161038491906147a0565b60405180910390f35b6103a760048036038101906103a29190614a16565b612b57565b005b6103c360048036038101906103be91906145b5565b612efb565b6040516103d09190614a5f565b60405180910390f35b6103f360048036038101906103ee91906145b5565b612f1b565b005b600015156000808573ffffffffffffffffffffffffffffffffffffffff1673ffffffffffffffffffffffffffffffffffffffff16815260200190815260200160002060009054906101000a900460ff1615150361047e576040517f2a645edb00000000000000000000000000000000000000000000000000000000815260040160405180910390fd5b3373ffffffffffffffffffffffffffffffffffffffff168373ffffffffffffffffffffffffffffffffffffffff16036104e3576040517f6fcb561000000000000000000000000000000000000000000000000000000000815260040160405180910390fd5b8060ff16600560008573ffffffffffffffffffffffffffffffffffffffff1673ffffffffffffffffffffffffffffffffffffffff16815260200190815260200160002060009054906101000a900460ff1660ff16610541858561259c565b61054b9190614aa9565b1015610583576040517fe7cc977c00000000000000000000000000000000000000000000000000000000815260040160405180910390fd5b82600660003373ffffffffffffffffffffffffffffffffffffffff1673ffffffffffffffffffffffffffffffffffffffff16815260200190815260200160002060000160006101000a81548173ffffffffffffffffffffffffffffffffffffffff021916908373ffffffffffffffffffffffffffffffffffffffff16021790555081600660003373ffffffffffffffffffffffffffffffffffffffff1673ffffffffffffffffffffffffffffffffffffffff16815260200190815260200160002060000160146101000a81548160ff021916908360000b60ff16021790555080600660003373ffffffffffffffffffffffffffffffffffffffff1673ffffffffffffffffffffffffffffffffffffffff16815260200190815260200160002060000160156101000a81548160ff021916908360ff1602179055507f340b732059a4638c20ccb6de44ab5529e8faabc255a17abbdc615738367bccc9338484846040516106f29493929190614add565b60405180910390a1505050565b600060018460000b1280610716575060038460000b135b1561074d576040517f5968cdba00000000000000000000000000000000000000000000000000000000815260040160405180910390fd5b338484846040516020016107649493929190614bd0565b6040516020818303038152906040528051906020012090509392505050565b600360003373ffffffffffffffffffffffffffffffffffffffff1673ffffffffffffffffffffffffffffffffffffffff16815260200190815260200160002060008273ffffffffffffffffffffffffffffffffffffffff1673ffffffffffffffffffffffffffffffffffffffff16815260200190815260200160002060010160019054906101000a900460ff16610846576040517fa2aa7d6500000000000000000000000000000000000000000000000000000000815260040160405180910390fd5b600360008273ffffffffffffffffffffffffffffffffffffffff1673ffffffffffffffffffffffffffffffffffffffff16815260200190815260200160002060003373ffffffffffffffffffffffffffffffffffffffff1673ffffffffffffffffffffffffffffffffffffffff16815260200190815260200160002060010160019054906101000a900460ff161561090a576040517ff14a88ec00000000000000000000000000000000000000000000000000000000815260040160405180910390fd5b61091433826133f1565b7fcd3475a4ad944ce13610e120913425666d26ba8dcd71547c5180173424a8287c3382604051610945929190614c0b565b60405180910390a150565b600015156000803373ffffffffffffffffffffffffffffffffffffffff1673ffffffffffffffffffffffffffffffffffffffff16815260200190815260200160002060009054906101000a900460ff161515036109d9576040517f2a645edb00000000000000000000000000000000000000000000000000000000815260040160405180910390fd5b8173ffffffffffffffffffffffffffffffffffffffff163373ffffffffffffffffffffffffffffffffffffffff1603610a3e576040517f6fcb561000000000000000000000000000000000000000000000000000000000815260040160405180910390fd5b600360008373ffffffffffffffffffffffffffffffffffffffff1673ffffffffffffffffffffffffffffffffffffffff16815260200190815260200160002060003373ffffffffffffffffffffffffffffffffffffffff1673ffffffffffffffffffffffffffffffffffffffff16815260200190815260200160002060010160019054906101000a900460ff16610b01576040517fa2aa7d6500000000000000000000000000000000000000000000000000000000815260040160405180910390fd5b60018160000b1280610b16575060038160000b135b15610b4d576040517f5968cdba00000000000000000000000000000000000000000000000000000000815260040160405180910390fd5b8173ffffffffffffffffffffffffffffffffffffffff163373ffffffffffffffffffffffffffffffffffffffff1603610bb2576040517f6fcb561000000000000000000000000000000000000000000000000000000000815260040160405180910390fd5b6001610bbe338361259c565b1015610bf6576040517fb59dc6be00000000000000000000000000000000000000000000000000000000815260040160405180910390fd5b6001600560003373ffffffffffffffffffffffffffffffffffffffff1673ffffffffffffffffffffffffffffffffffffffff16815260200190815260200160002060009054906101000a900460ff1660ff16610c51336124f4565b610c5b9190614aa9565b1015610c93576040517fe7cc977c00000000000000000000000000000000000000000000000000000000815260040160405180910390fd5b6001600560003373ffffffffffffffffffffffffffffffffffffffff1673ffffffffffffffffffffffffffffffffffffffff16815260200190815260200160002060009054906101000a900460ff1660ff16610cf033600061259c565b610cfa9190614aa9565b1015610d32576040517fe7cc977c00000000000000000000000000000000000000000000000000000000815260040160405180910390fd5b600015156000808473ffffffffffffffffffffffffffffffffffffffff1673ffffffffffffffffffffffffffffffffffffffff16815260200190815260200160002060009054906101000a900460ff16151503610ddb57610d9382336133f1565b610d9d33836133f1565b7f06b6c55da005c98e44e76e6acea5b74b2914f403753adcda3c8d8aba759b0eaa8233604051610dce929190614c0b565b60405180910390a1610e1f565b610de58282613600565b7ff9f96df79c431e54c117519d8a46c546ec0070ec3dc10e01eee8079025407fc38233604051610e16929190614c0b565b60405180910390a15b5050565b60056020528060005260406000206000915054906101000a900460ff1681565b600360003373ffffffffffffffffffffffffffffffffffffffff1673ffffffffffffffffffffffffffffffffffffffff16815260200190815260200160002060008273ffffffffffffffffffffffffffffffffffffffff1673ffffffffffffffffffffffffffffffffffffffff16815260200190815260200160002060010160019054906101000a900460ff16610f06576040517f38df4cfd00000000000000000000000000000000000000000000000000000000815260040160405180910390fd5b600360008273ffffffffffffffffffffffffffffffffffffffff1673ffffffffffffffffffffffffffffffffffffffff16815260200190815260200160002060003373ffffffffffffffffffffffffffffffffffffffff1673ffffffffffffffffffffffffffffffffffffffff16815260200190815260200160002060010160019054906101000a900460ff16610fc9576040517fa2aa7d6500000000000000000000000000000000000000000000000000000000815260040160405180910390fd5b600015156000808373ffffffffffffffffffffffffffffffffffffffff1673ffffffffffffffffffffffffffffffffffffffff16815260200190815260200160002060009054906101000a900460ff161515036110725761102a33826133f1565b61103481336133f1565b7f06b6c55da005c98e44e76e6acea5b74b2914f403753adcda3c8d8aba759b0eaa3382604051611065929190614c0b565b60405180910390a16113ca565b60014361107f9190614aa9565b600360003373ffffffffffffffffffffffffffffffffffffffff1673ffffffffffffffffffffffffffffffffffffffff16815260200190815260200160002060008373ffffffffffffffffffffffffffffffffffffffff1673ffffffffffffffffffffffffffffffffffffffff1681526020019081526020016000206002015410156113c9576111128160006001613908565b61111f3360006001613a99565b60006111b733600360003373ffffffffffffffffffffffffffffffffffffffff1673ffffffffffffffffffffffffffffffffffffffff16815260200190815260200160002060008573ffffffffffffffffffffffffffffffffffffffff1673ffffffffffffffffffffffffffffffffffffffff16815260200190815260200160002060010160009054906101000a900460000b61259c565b11156112565761125533600360003373ffffffffffffffffffffffffffffffffffffffff1673ffffffffffffffffffffffffffffffffffffffff16815260200190815260200160002060008473ffffffffffffffffffffffffffffffffffffffff1673ffffffffffffffffffffffffffffffffffffffff16815260200190815260200160002060010160009054906101000a900460000b6001613908565b5b61126033826133f1565b61126a81336133f1565b61127381613b91565b7fbdff375e92783268ca4968f018d4d8f678c23bd41fb7c3b1020cb1de85faa20781600360008473ffffffffffffffffffffffffffffffffffffffff1673ffffffffffffffffffffffffffffffffffffffff16815260200190815260200160002060003373ffffffffffffffffffffffffffffffffffffffff1673ffffffffffffffffffffffffffffffffffffffff16815260200190815260200160002060010160009054906101000a900460000b33600360003373ffffffffffffffffffffffffffffffffffffffff1673ffffffffffffffffffffffffffffffffffffffff16815260200190815260200160002060008673ffffffffffffffffffffffffffffffffffffffff1673ffffffffffffffffffffffffffffffffffffffff16815260200190815260200160002060010160009054906101000a900460000b6040516113c09493929190614c34565b60405180910390a15b5b50565b8373ffffffffffffffffffffffffffffffffffffffff163373ffffffffffffffffffffffffffffffffffffffff1603611432576040517f6fcb561000000000000000000000000000000000000000000000000000000000815260040160405180910390fd5b600015156000803373ffffffffffffffffffffffffffffffffffffffff1673ffffffffffffffffffffffffffffffffffffffff16815260200190815260200160002060009054906101000a900460ff161515036114bb576040517f2a645edb00000000000000000000000000000000000000000000000000000000815260040160405180910390fd5b60018360000b12806114d0575060038360000b135b15611507576040517f5968cdba00000000000000000000000000000000000000000000000000000000815260040160405180910390fd5b600360008573ffffffffffffffffffffffffffffffffffffffff1673ffffffffffffffffffffffffffffffffffffffff16815260200190815260200160002060003373ffffffffffffffffffffffffffffffffffffffff1673ffffffffffffffffffffffffffffffffffffffff16815260200190815260200160002060010160019054906101000a900460ff166115ca576040517f38df4cfd00000000000000000000000000000000000000000000000000000000815260040160405180910390fd5b600360003373ffffffffffffffffffffffffffffffffffffffff1673ffffffffffffffffffffffffffffffffffffffff16815260200190815260200160002060008573ffffffffffffffffffffffffffffffffffffffff1673ffffffffffffffffffffffffffffffffffffffff16815260200190815260200160002060010160019054906101000a900460ff1661168d576040517fa2aa7d6500000000000000000000000000000000000000000000000000000000815260040160405180910390fd5b600015156000808673ffffffffffffffffffffffffffffffffffffffff1673ffffffffffffffffffffffffffffffffffffffff16815260200190815260200160002060009054906101000a900460ff16151503611736576116ee33856133f1565b6116f884336133f1565b7f06b6c55da005c98e44e76e6acea5b74b2914f403753adcda3c8d8aba759b0eaa3385604051611729929190614c0b565b60405180910390a16120aa565b600080600360008773ffffffffffffffffffffffffffffffffffffffff1673ffffffffffffffffffffffffffffffffffffffff16815260200190815260200160002060003373ffffffffffffffffffffffffffffffffffffffff1673ffffffffffffffffffffffffffffffffffffffff16815260200190815260200160002060010160009054906101000a900460000b9050600360003373ffffffffffffffffffffffffffffffffffffffff1673ffffffffffffffffffffffffffffffffffffffff16815260200190815260200160002060008773ffffffffffffffffffffffffffffffffffffffff1673ffffffffffffffffffffffffffffffffffffffff168152602001908152602001600020600001546118538686866106ff565b14801561186957506000611867338761259c565b115b1561187657849150611a3c565b600360003373ffffffffffffffffffffffffffffffffffffffff1673ffffffffffffffffffffffffffffffffffffffff16815260200190815260200160002060008773ffffffffffffffffffffffffffffffffffffffff1673ffffffffffffffffffffffffffffffffffffffff16815260200190815260200160002060010160029054906101000a900460ff166119df576001600360003373ffffffffffffffffffffffffffffffffffffffff1673ffffffffffffffffffffffffffffffffffffffff16815260200190815260200160002060008873ffffffffffffffffffffffffffffffffffffffff1673ffffffffffffffffffffffffffffffffffffffff16815260200190815260200160002060010160026101000a81548160ff0219169083151502179055507fee8073309115c3729855de26aad26354a4fdcd6fca9d4579b19cdd0d23b56b5f33876040516119d0929190614c0b565b60405180910390a150506120aa565b7fad945360a905bcba857c54948aea8291bbd84165fe204dd1adfb591ad9a3af483387604051611a10929190614c0b565b60405180910390a17fffffffffffffffffffffffffffffffffffffffffffffffffffffffffffffffff91505b60006001611a4a338561259c565b1015611a74577fffffffffffffffffffffffffffffffffffffffffffffffffffffffffffffffff92505b6001611a80888461259c565b1015611aaa577fffffffffffffffffffffffffffffffffffffffffffffffffffffffffffffffff91505b7fffffffffffffffffffffffffffffffffffffffffffffffffffffffffffffffff8360000b148015611afe57507fffffffffffffffffffffffffffffffffffffffffffffffffffffffffffffffff8260000b145b15611b0c5760049050611cbf565b7fffffffffffffffffffffffffffffffffffffffffffffffffffffffffffffffff8360000b03611b3f5760039050611cbe565b7fffffffffffffffffffffffffffffffffffffffffffffffffffffffffffffffff8260000b03611b725760059050611cbd565b8160000b8360000b03611b885760019050611cbc565b600160000b8360000b148015611ba45750600360000b8260000b145b15611bb25760029050611cbb565b600360000b8360000b148015611bce5750600260000b8260000b145b15611bdc5760029050611cba565b600260000b8360000b148015611bf85750600160000b8260000b145b15611c065760029050611cb9565b600160000b8360000b148015611c225750600260000b8260000b145b15611c305760009050611cb8565b600260000b8360000b148015611c4c5750600360000b8260000b145b15611c5a5760009050611cb7565b600360000b8360000b148015611c765750600160000b8260000b145b15611c845760009050611cb6565b6040517f4fc4919600000000000000000000000000000000000000000000000000000000815260040160405180910390fd5b5b5b5b5b5b5b5b5b5b60036005811115611cd357611cd2614c79565b5b816005811115611ce657611ce5614c79565b5b03611d3557611cf787836001613f03565b7fa52b74e3f02b31cc99618bb61a044368a494d8dbfb34d5195c3dbb0f2613d3bf3384604051611d28929190614ca8565b60405180910390a1611e68565b600580811115611d4857611d47614c79565b5b816005811115611d5b57611d5a614c79565b5b03611daa57611d6c33846001613f03565b7fa52b74e3f02b31cc99618bb61a044368a494d8dbfb34d5195c3dbb0f2613d3bf8783604051611d9d929190614ca8565b60405180910390a1611e67565b60046005811115611dbe57611dbd614c79565b5b816005811115611dd157611dd0614c79565b5b03611e4d577fa52b74e3f02b31cc99618bb61a044368a494d8dbfb34d5195c3dbb0f2613d3bf3384604051611e07929190614ca8565b60405180910390a17fa52b74e3f02b31cc99618bb61a044368a494d8dbfb34d5195c3dbb0f2613d3bf8783604051611e40929190614ca8565b60405180910390a1611e66565b611e5933846001613f03565b611e6587836001613f03565b5b5b5b60006005811115611e7c57611e7b614c79565b5b816005811115611e8f57611e8e614c79565b5b1480611ebf575060036005811115611eaa57611ea9614c79565b5b816005811115611ebd57611ebc614c79565b5b145b15611f1c57611ed13360006001613908565b611ede8760006001613a99565b7fbdff375e92783268ca4968f018d4d8f678c23bd41fb7c3b1020cb1de85faa20733848985604051611f139493929190614c34565b60405180910390a15b60026005811115611f3057611f2f614c79565b5b816005811115611f4357611f42614c79565b5b1480611f725750600580811115611f5d57611f5c614c79565b5b816005811115611f7057611f6f614c79565b5b145b15611fcf57611f848760006001613908565b611f913360006001613a99565b7f9825ca239d3a61779e374a98b6560cca8a40d6c9356c270abce83d3941dfe6f833848985604051611fc69493929190614c34565b60405180910390a15b60046005811115611fe357611fe2614c79565b5b816005811115611ff657611ff5614c79565b5b03612016576120083360006001613908565b6120158760006001613908565b5b6001600581111561202a57612029614c79565b5b81600581111561203d5761203c614c79565b5b03612080577f8a3e623b2adf02a3f9751ad36b25f26ede5e961785806acc87928281c30bd348338489856040516120779493929190614c34565b60405180910390a15b61208a33886133f1565b61209487336133f1565b61209d33613b91565b6120a687613b91565b5050505b50505050565b60066020528060005260406000206000915090508060000160009054906101000a900473ffffffffffffffffffffffffffffffffffffffff16908060000160149054906101000a900460000b908060000160159054906101000a900460ff16905083565b60008060008061212585600061259c565b61213086600161259c565b61213b87600261259c565b61214688600361259c565b93509350935093509193509193565b60008060008061216433612114565b935093509350935090919293565b600061217d336124f4565b11156121b5576040517f7ce8de2400000000000000000000000000000000000000000000000000000000815260040160405180910390fd5b60036121c233600061259c565b10156121fa576040517fbfe0f5c600000000000000000000000000000000000000000000000000000000815260040160405180910390fd5b61221033600061220b33600061259c565b613908565b60008060003373ffffffffffffffffffffffffffffffffffffffff1673ffffffffffffffffffffffffffffffffffffffff16815260200190815260200160002060006101000a81548160ff021916908315150217905550600660003373ffffffffffffffffffffffffffffffffffffffff1673ffffffffffffffffffffffffffffffffffffffff168152602001908152602001600020600080820160006101000a81549073ffffffffffffffffffffffffffffffffffffffff02191690556000820160146101000a81549060ff02191690556000820160156101000a81549060ff0219169055505060005b600460003373ffffffffffffffffffffffffffffffffffffffff1673ffffffffffffffffffffffffffffffffffffffff168152602001908152602001600020805490508160ff16101561246b576123d033600460003373ffffffffffffffffffffffffffffffffffffffff1673ffffffffffffffffffffffffffffffffffffffff1681526020019081526020016000208360ff16815481106123a05761239f614cd1565b5b9060005260206000200160009054906101000a900473ffffffffffffffffffffffffffffffffffffffff166133f1565b612458600460003373ffffffffffffffffffffffffffffffffffffffff1673ffffffffffffffffffffffffffffffffffffffff1681526020019081526020016000208260ff168154811061242757612426614cd1565b5b9060005260206000200160009054906101000a900473ffffffffffffffffffffffffffffffffffffffff16336133f1565b808061246390614d00565b9150506122fb565b507f3e73e523f34a5ca25bee44a76e449c7de4b5c06dbdfc679c07f27f27a2e422613360405161249b9190614d29565b60405180910390a17f282b6298c0318f5d7d7f2483a6823972bdbe9d2798bcfe461159151be7d7b969336040516124d29190614d29565b60405180910390a1565b60026020528060005260406000206000915090505481565b600061250182600361259c565b61250c83600261259c565b61251784600161259c565b6125219190614d44565b61252b9190614d44565b9050919050565b6003602052816000526040600020602052806000526040600020600091509150508060000154908060010160009054906101000a900460000b908060010160019054906101000a900460ff16908060010160029054906101000a900460ff16908060020154905085565b6000600160008473ffffffffffffffffffffffffffffffffffffffff1673ffffffffffffffffffffffffffffffffffffffff16815260200190815260200160002060008360000b60000b815260200190815260200160002054905092915050565b600015156000803373ffffffffffffffffffffffffffffffffffffffff1673ffffffffffffffffffffffffffffffffffffffff16815260200190815260200160002060009054906101000a900460ff16151503612686576040517f2a645edb00000000000000000000000000000000000000000000000000000000815260040160405180910390fd5b8173ffffffffffffffffffffffffffffffffffffffff163373ffffffffffffffffffffffffffffffffffffffff16036126eb576040517f6fcb561000000000000000000000000000000000000000000000000000000000815260040160405180910390fd5b6001600560003373ffffffffffffffffffffffffffffffffffffffff1673ffffffffffffffffffffffffffffffffffffffff16815260200190815260200160002060009054906101000a900460ff1660ff16612746336124f4565b6127509190614aa9565b1015612788576040517fe7cc977c00000000000000000000000000000000000000000000000000000000815260040160405180910390fd5b6001600560008473ffffffffffffffffffffffffffffffffffffffff1673ffffffffffffffffffffffffffffffffffffffff16815260200190815260200160002060009054906101000a900460ff1660ff166127e3846124f4565b6127ed9190614aa9565b1015612825576040517fe7cc977c00000000000000000000000000000000000000000000000000000000815260040160405180910390fd5b6001600560003373ffffffffffffffffffffffffffffffffffffffff1673ffffffffffffffffffffffffffffffffffffffff16815260200190815260200160002060009054906101000a900460ff1660ff1661288233600061259c565b61288c9190614aa9565b10156128c4576040517fe7cc977c00000000000000000000000000000000000000000000000000000000815260040160405180910390fd5b6001600560008473ffffffffffffffffffffffffffffffffffffffff1673ffffffffffffffffffffffffffffffffffffffff16815260200190815260200160002060009054906101000a900460ff1660ff1661292184600061259c565b61292b9190614aa9565b1015612963576040517fe7cc977c00000000000000000000000000000000000000000000000000000000815260040160405180910390fd5b600360008373ffffffffffffffffffffffffffffffffffffffff1673ffffffffffffffffffffffffffffffffffffffff16815260200190815260200160002060003373ffffffffffffffffffffffffffffffffffffffff1673ffffffffffffffffffffffffffffffffffffffff16815260200190815260200160002060010160019054906101000a900460ff1615612a27576040517f0becbe0d00000000000000000000000000000000000000000000000000000000815260040160405180910390fd5b600360003373ffffffffffffffffffffffffffffffffffffffff1673ffffffffffffffffffffffffffffffffffffffff16815260200190815260200160002060008373ffffffffffffffffffffffffffffffffffffffff1673ffffffffffffffffffffffffffffffffffffffff16815260200190815260200160002060010160019054906101000a900460ff1615612aeb576040517f0becbe0d00000000000000000000000000000000000000000000000000000000815260040160405180910390fd5b612af58282614094565b7fa3bf888d12bc12843a9f7e2696a235c1965193c71ae15cf751e5abcf05d709c23383604051612b26929190614c0b565b60405180910390a15050565b6001602052816000526040600020602052806000526040600020600091509150505481565b600115156000803373ffffffffffffffffffffffffffffffffffffffff1673ffffffffffffffffffffffffffffffffffffffff16815260200190815260200160002060009054906101000a900460ff16151503612be0576040517fb4b038b200000000000000000000000000000000000000000000000000000000815260040160405180910390fd5b60016000803373ffffffffffffffffffffffffffffffffffffffff1673ffffffffffffffffffffffffffffffffffffffff16815260200190815260200160002060006101000a81548160ff02191690831515021790555060005b600460003373ffffffffffffffffffffffffffffffffffffffff1673ffffffffffffffffffffffffffffffffffffffff168152602001908152602001600020805490508160ff161015612daa57612d0f33600460003373ffffffffffffffffffffffffffffffffffffffff1673ffffffffffffffffffffffffffffffffffffffff1681526020019081526020016000208360ff1681548110612cdf57612cde614cd1565b5b9060005260206000200160009054906101000a900473ffffffffffffffffffffffffffffffffffffffff166133f1565b612d97600460003373ffffffffffffffffffffffffffffffffffffffff1673ffffffffffffffffffffffffffffffffffffffff1681526020019081526020016000208260ff1681548110612d6657612d65614cd1565b5b9060005260206000200160009054906101000a900473ffffffffffffffffffffffffffffffffffffffff16336133f1565b8080612da290614d00565b915050612c3a565b50600560003373ffffffffffffffffffffffffffffffffffffffff1673ffffffffffffffffffffffffffffffffffffffff16815260200190815260200160002060006101000a81549060ff0219169055600660003373ffffffffffffffffffffffffffffffffffffffff1673ffffffffffffffffffffffffffffffffffffffff168152602001908152602001600020600080820160006101000a81549073ffffffffffffffffffffffffffffffffffffffff02191690556000820160146101000a81549060ff02191690556000820160156101000a81549060ff02191690555050612e983360006003613a99565b612ea53360016004613a99565b612eb23360026004613a99565b612ebf3360036004613a99565b7fb46af3c568709a25575d501b270c4768aef802b1e39fb922a8f21cb385e2ae9b3382604051612ef0929190614e22565b60405180910390a150565b60006020528060005260406000206000915054906101000a900460ff1681565b600015156000808373ffffffffffffffffffffffffffffffffffffffff1673ffffffffffffffffffffffffffffffffffffffff16815260200190815260200160002060009054906101000a900460ff16151503612fa4576040517f2a645edb00000000000000000000000000000000000000000000000000000000815260040160405180910390fd5b3373ffffffffffffffffffffffffffffffffffffffff16600660008373ffffffffffffffffffffffffffffffffffffffff1673ffffffffffffffffffffffffffffffffffffffff16815260200190815260200160002060000160009054906101000a900473ffffffffffffffffffffffffffffffffffffffff1673ffffffffffffffffffffffffffffffffffffffff1614613074576040517f08c379a000000000000000000000000000000000000000000000000000000000815260040161306b90614e9e565b60405180910390fd5b600660008273ffffffffffffffffffffffffffffffffffffffff1673ffffffffffffffffffffffffffffffffffffffff16815260200190815260200160002060000160159054906101000a900460ff1660ff16600560003373ffffffffffffffffffffffffffffffffffffffff1673ffffffffffffffffffffffffffffffffffffffff16815260200190815260200160002060009054906101000a900460ff1660ff1661317033600660008673ffffffffffffffffffffffffffffffffffffffff1673ffffffffffffffffffffffffffffffffffffffff16815260200190815260200160002060000160149054906101000a900460000b61259c565b61317a9190614aa9565b10156131b2576040517fe7cc977c00000000000000000000000000000000000000000000000000000000815260040160405180910390fd5b61325e81600660008473ffffffffffffffffffffffffffffffffffffffff1673ffffffffffffffffffffffffffffffffffffffff16815260200190815260200160002060000160149054906101000a900460000b600660008573ffffffffffffffffffffffffffffffffffffffff1673ffffffffffffffffffffffffffffffffffffffff16815260200190815260200160002060000160159054906101000a900460ff1660ff16613a99565b61330a33600660008473ffffffffffffffffffffffffffffffffffffffff1673ffffffffffffffffffffffffffffffffffffffff16815260200190815260200160002060000160149054906101000a900460000b600660008573ffffffffffffffffffffffffffffffffffffffff1673ffffffffffffffffffffffffffffffffffffffff16815260200190815260200160002060000160159054906101000a900460ff1660ff16613908565b7f5ad58e5de6ee1ed07cc7f66b48c9423058c1305b87f02709ef2d2ec3f5d53f788133600660008573ffffffffffffffffffffffffffffffffffffffff1673ffffffffffffffffffffffffffffffffffffffff16815260200190815260200160002060000160149054906101000a900460000b600660008673ffffffffffffffffffffffffffffffffffffffff1673ffffffffffffffffffffffffffffffffffffffff16815260200190815260200160002060000160159054906101000a900460ff166040516133dd9493929190614add565b60405180910390a16133ee33613b91565b50565b600360008373ffffffffffffffffffffffffffffffffffffffff1673ffffffffffffffffffffffffffffffffffffffff16815260200190815260200160002060008273ffffffffffffffffffffffffffffffffffffffff1673ffffffffffffffffffffffffffffffffffffffff16815260200190815260200160002060010160019054906101000a900460ff16156135fc57600360008373ffffffffffffffffffffffffffffffffffffffff1673ffffffffffffffffffffffffffffffffffffffff16815260200190815260200160002060008273ffffffffffffffffffffffffffffffffffffffff1673ffffffffffffffffffffffffffffffffffffffff1681526020019081526020016000206000808201600090556001820160006101000a81549060ff02191690556001820160016101000a81549060ff02191690556001820160026101000a81549060ff0219169055600282016000905550506001600560008473ffffffffffffffffffffffffffffffffffffffff1673ffffffffffffffffffffffffffffffffffffffff16815260200190815260200160002060008282829054906101000a900460ff166135aa9190614ebe565b92506101000a81548160ff021916908360ff1602179055507f7598c7e2083bb604d4deff395892e56f5abbcf49f1a63f5dfdb3cced349cf1d282826040516135f3929190614c0b565b60405180910390a15b5050565b80600360003373ffffffffffffffffffffffffffffffffffffffff1673ffffffffffffffffffffffffffffffffffffffff16815260200190815260200160002060008473ffffffffffffffffffffffffffffffffffffffff1673ffffffffffffffffffffffffffffffffffffffff16815260200190815260200160002060010160006101000a81548160ff021916908360000b60ff1602179055506001600360003373ffffffffffffffffffffffffffffffffffffffff1673ffffffffffffffffffffffffffffffffffffffff16815260200190815260200160002060008473ffffffffffffffffffffffffffffffffffffffff1673ffffffffffffffffffffffffffffffffffffffff16815260200190815260200160002060010160016101000a81548160ff02191690831515021790555043600360003373ffffffffffffffffffffffffffffffffffffffff1673ffffffffffffffffffffffffffffffffffffffff16815260200190815260200160002060008473ffffffffffffffffffffffffffffffffffffffff1673ffffffffffffffffffffffffffffffffffffffff16815260200190815260200160002060020181905550600460003373ffffffffffffffffffffffffffffffffffffffff1673ffffffffffffffffffffffffffffffffffffffff168152602001908152602001600020829080600181540180825580915050600190039060005260206000200160009091909190916101000a81548173ffffffffffffffffffffffffffffffffffffffff021916908373ffffffffffffffffffffffffffffffffffffffff1602179055506001600560003373ffffffffffffffffffffffffffffffffffffffff1673ffffffffffffffffffffffffffffffffffffffff16815260200190815260200160002060008282829054906101000a900460ff166138b39190614ef2565b92506101000a81548160ff021916908360ff1602179055507f588aa82e78a451ffaa3fd1273ebe8a85484fc5d6d5367643a11427d7f6598e4d33836040516138fc929190614c0b565b60405180910390a15050565b60008260000b12158061391f575060038260000b13155b61395e576040517f08c379a000000000000000000000000000000000000000000000000000000000815260040161395590614f75565b60405180910390fd5b80600160008573ffffffffffffffffffffffffffffffffffffffff1673ffffffffffffffffffffffffffffffffffffffff16815260200190815260200160002060008460000b60000b81526020019081526020016000205410156139f7576040517f08c379a00000000000000000000000000000000000000000000000000000000081526004016139ee90615007565b60405180910390fd5b80600160008573ffffffffffffffffffffffffffffffffffffffff1673ffffffffffffffffffffffffffffffffffffffff16815260200190815260200160002060008460000b60000b81526020019081526020016000206000828254613a5d9190614aa9565b9250508190555080600260008460000b60000b81526020019081526020016000206000828254613a8d9190614aa9565b92505081905550505050565b60008260000b121580613ab0575060038260000b13155b613aef576040517f08c379a0000000000000000000000000000000000000000000000000000000008152600401613ae690614f75565b60405180910390fd5b80600160008573ffffffffffffffffffffffffffffffffffffffff1673ffffffffffffffffffffffffffffffffffffffff16815260200190815260200160002060008460000b60000b81526020019081526020016000206000828254613b559190614d44565b9250508190555080600260008460000b60000b81526020019081526020016000206000828254613b859190614d44565b92505081905550505050565b6001613b9e82600061259c565b1015613f0057613bba816001613bb584600161259c565b613908565b613bd0816002613bcb84600261259c565b613908565b613be6816003613be184600361259c565b613908565b60008060008373ffffffffffffffffffffffffffffffffffffffff1673ffffffffffffffffffffffffffffffffffffffff16815260200190815260200160002060006101000a81548160ff02191690831515021790555060005b600460008373ffffffffffffffffffffffffffffffffffffffff1673ffffffffffffffffffffffffffffffffffffffff168152602001908152602001600020805490508160ff161015613db057613d1582600460008573ffffffffffffffffffffffffffffffffffffffff1673ffffffffffffffffffffffffffffffffffffffff1681526020019081526020016000208360ff1681548110613ce557613ce4614cd1565b5b9060005260206000200160009054906101000a900473ffffffffffffffffffffffffffffffffffffffff166133f1565b613d9d600460008473ffffffffffffffffffffffffffffffffffffffff1673ffffffffffffffffffffffffffffffffffffffff1681526020019081526020016000208260ff1681548110613d6c57613d6b614cd1565b5b9060005260206000200160009054906101000a900473ffffffffffffffffffffffffffffffffffffffff16836133f1565b8080613da890614d00565b915050613c40565b50600560008273ffffffffffffffffffffffffffffffffffffffff1673ffffffffffffffffffffffffffffffffffffffff16815260200190815260200160002060006101000a81549060ff0219169055600660008273ffffffffffffffffffffffffffffffffffffffff1673ffffffffffffffffffffffffffffffffffffffff168152602001908152602001600020600080820160006101000a81549073ffffffffffffffffffffffffffffffffffffffff02191690556000820160146101000a81549060ff02191690556000820160156101000a81549060ff021916905550507f9ab74d043ba19fd15c3afcaf30decddeff525822b002d45e80c80ac800d41a2981604051613ec09190614d29565b60405180910390a17f282b6298c0318f5d7d7f2483a6823972bdbe9d2798bcfe461159151be7d7b96981604051613ef79190614d29565b60405180910390a15b50565b60018260000b121580613f1a575060038260000b13155b613f59576040517f08c379a0000000000000000000000000000000000000000000000000000000008152600401613f5090615073565b60405180910390fd5b80600160008573ffffffffffffffffffffffffffffffffffffffff1673ffffffffffffffffffffffffffffffffffffffff16815260200190815260200160002060008460000b60000b8152602001908152602001600020541015613ff2576040517f08c379a0000000000000000000000000000000000000000000000000000000008152600401613fe990615007565b60405180910390fd5b80600160008573ffffffffffffffffffffffffffffffffffffffff1673ffffffffffffffffffffffffffffffffffffffff16815260200190815260200160002060008460000b60000b815260200190815260200160002060008282546140589190614aa9565b9250508190555080600260008460000b60000b815260200190815260200160002060008282546140889190614aa9565b92505081905550505050565b80600360003373ffffffffffffffffffffffffffffffffffffffff1673ffffffffffffffffffffffffffffffffffffffff16815260200190815260200160002060008473ffffffffffffffffffffffffffffffffffffffff1673ffffffffffffffffffffffffffffffffffffffff168152602001908152602001600020600001819055506001600360003373ffffffffffffffffffffffffffffffffffffffff1673ffffffffffffffffffffffffffffffffffffffff16815260200190815260200160002060008473ffffffffffffffffffffffffffffffffffffffff1673ffffffffffffffffffffffffffffffffffffffff16815260200190815260200160002060010160016101000a81548160ff02191690831515021790555043600360003373ffffffffffffffffffffffffffffffffffffffff1673ffffffffffffffffffffffffffffffffffffffff16815260200190815260200160002060008473ffffffffffffffffffffffffffffffffffffffff1673ffffffffffffffffffffffffffffffffffffffff16815260200190815260200160002060020181905550600460003373ffffffffffffffffffffffffffffffffffffffff1673ffffffffffffffffffffffffffffffffffffffff168152602001908152602001600020829080600181540180825580915050600190039060005260206000200160009091909190916101000a81548173ffffffffffffffffffffffffffffffffffffffff021916908373ffffffffffffffffffffffffffffffffffffffff1602179055506001600560003373ffffffffffffffffffffffffffffffffffffffff1673ffffffffffffffffffffffffffffffffffffffff16815260200190815260200160002060008282829054906101000a900460ff166143309190614ef2565b92506101000a81548160ff021916908360ff1602179055507f588aa82e78a451ffaa3fd1273ebe8a85484fc5d6d5367643a11427d7f6598e4d3383604051614379929190614c0b565b60405180910390a15050565b6000604051905090565b600080fd5b600080fd5b600073ffffffffffffffffffffffffffffffffffffffff82169050919050565b60006143c482614399565b9050919050565b6143d4816143b9565b81146143df57600080fd5b50565b6000813590506143f1816143cb565b92915050565b60008160000b9050919050565b61440d816143f7565b811461441857600080fd5b50565b60008135905061442a81614404565b92915050565b600060ff82169050919050565b61444681614430565b811461445157600080fd5b50565b6000813590506144638161443d565b92915050565b6000806000606084860312156144825761448161438f565b5b6000614490868287016143e2565b93505060206144a18682870161441b565b92505060406144b286828701614454565b9150509250925092565b600080fd5b600080fd5b600080fd5b60008083601f8401126144e1576144e06144bc565b5b8235905067ffffffffffffffff8111156144fe576144fd6144c1565b5b60208301915083600182028301111561451a576145196144c6565b5b9250929050565b60008060006040848603121561453a5761453961438f565b5b60006145488682870161441b565b935050602084013567ffffffffffffffff81111561456957614568614394565b5b614575868287016144cb565b92509250509250925092565b6000819050919050565b61459481614581565b82525050565b60006020820190506145af600083018461458b565b92915050565b6000602082840312156145cb576145ca61438f565b5b60006145d9848285016143e2565b91505092915050565b600080604083850312156145f9576145f861438f565b5b6000614607858286016143e2565b92505060206146188582860161441b565b9150509250929050565b61462b81614430565b82525050565b60006020820190506146466000830184614622565b92915050565b600080600080606085870312156146665761466561438f565b5b6000614674878288016143e2565b94505060206146858782880161441b565b935050604085013567ffffffffffffffff8111156146a6576146a5614394565b5b6146b2878288016144cb565b925092505092959194509250565b6146c9816143b9565b82525050565b6146d8816143f7565b82525050565b60006060820190506146f360008301866146c0565b61470060208301856146cf565b61470d6040830184614622565b949350505050565b6000819050919050565b61472881614715565b82525050565b6000608082019050614743600083018761471f565b614750602083018661471f565b61475d604083018561471f565b61476a606083018461471f565b95945050505050565b6000602082840312156147895761478861438f565b5b60006147978482850161441b565b91505092915050565b60006020820190506147b5600083018461471f565b92915050565b600080604083850312156147d2576147d161438f565b5b60006147e0858286016143e2565b92505060206147f1858286016143e2565b9150509250929050565b60008115159050919050565b614810816147fb565b82525050565b600060a08201905061482b600083018861458b565b61483860208301876146cf565b6148456040830186614807565b6148526060830185614807565b61485f608083018461471f565b9695505050505050565b61487281614581565b811461487d57600080fd5b50565b60008135905061488f81614869565b92915050565b600080604083850312156148ac576148ab61438f565b5b60006148ba858286016143e2565b92505060206148cb85828601614880565b9150509250929050565b600080fd5b6000601f19601f8301169050919050565b7f4e487b7100000000000000000000000000000000000000000000000000000000600052604160045260246000fd5b614923826148da565b810181811067ffffffffffffffff82111715614942576149416148eb565b5b80604052505050565b6000614955614385565b9050614961828261491a565b919050565b600067ffffffffffffffff821115614981576149806148eb565b5b61498a826148da565b9050602081019050919050565b82818337600083830152505050565b60006149b96149b484614966565b61494b565b9050828152602081018484840111156149d5576149d46148d5565b5b6149e0848285614997565b509392505050565b600082601f8301126149fd576149fc6144bc565b5b8135614a0d8482602086016149a6565b91505092915050565b600060208284031215614a2c57614a2b61438f565b5b600082013567ffffffffffffffff811115614a4a57614a49614394565b5b614a56848285016149e8565b91505092915050565b6000602082019050614a746000830184614807565b92915050565b7f4e487b7100000000000000000000000000000000000000000000000000000000600052601160045260246000fd5b6000614ab482614715565b9150614abf83614715565b925082821015614ad257614ad1614a7a565b5b828203905092915050565b6000608082019050614af260008301876146c0565b614aff60208301866146c0565b614b0c60408301856146cf565b614b196060830184614622565b95945050505050565b60008160601b9050919050565b6000614b3a82614b22565b9050919050565b6000614b4c82614b2f565b9050919050565b614b64614b5f826143b9565b614b41565b82525050565b60008160f81b9050919050565b6000614b8282614b6a565b9050919050565b614b9a614b95826143f7565b614b77565b82525050565b600081905092915050565b6000614bb78385614ba0565b9350614bc4838584614997565b82840190509392505050565b6000614bdc8287614b53565b601482019150614bec8286614b89565b600182019150614bfd828486614bab565b915081905095945050505050565b6000604082019050614c2060008301856146c0565b614c2d60208301846146c0565b9392505050565b6000608082019050614c4960008301876146c0565b614c5660208301866146cf565b614c6360408301856146c0565b614c7060608301846146cf565b95945050505050565b7f4e487b7100000000000000000000000000000000000000000000000000000000600052602160045260246000fd5b6000604082019050614cbd60008301856146c0565b614cca60208301846146cf565b9392505050565b7f4e487b7100000000000000000000000000000000000000000000000000000000600052603260045260246000fd5b6000614d0b82614430565b915060ff8203614d1e57614d1d614a7a565b5b600182019050919050565b6000602082019050614d3e60008301846146c0565b92915050565b6000614d4f82614715565b9150614d5a83614715565b9250827fffffffffffffffffffffffffffffffffffffffffffffffffffffffffffffffff03821115614d8f57614d8e614a7a565b5b828201905092915050565b600081519050919050565b600082825260208201905092915050565b60005b83811015614dd4578082015181840152602081019050614db9565b83811115614de3576000848401525b50505050565b6000614df482614d9a565b614dfe8185614da5565b9350614e0e818560208601614db6565b614e17816148da565b840191505092915050565b6000604082019050614e3760008301856146c0565b8181036020830152614e498184614de9565b90509392505050565b7f4e6f20726571756573742066726f6d207468617420706c617965722e00000000600082015250565b6000614e88601c83614da5565b9150614e9382614e52565b602082019050919050565b60006020820190508181036000830152614eb781614e7b565b9050919050565b6000614ec982614430565b9150614ed483614430565b925082821015614ee757614ee6614a7a565b5b828203905092915050565b6000614efd82614430565b9150614f0883614430565b92508260ff03821115614f1e57614f1d614a7a565b5b828201905092915050565b7f496e76616c696420746f6b656e2049442e000000000000000000000000000000600082015250565b6000614f5f601183614da5565b9150614f6a82614f29565b602082019050919050565b60006020820190508181036000830152614f8e81614f52565b9050919050565b7f546f6b656e2062616c616e63652063616e6e6f7420676f2062656c6f77207a6560008201527f726f2e0000000000000000000000000000000000000000000000000000000000602082015250565b6000614ff1602383614da5565b9150614ffc82614f95565b604082019050919050565b6000602082019050818103600083015261502081614fe4565b9050919050565b7f496e76616c696420636172642049442e00000000000000000000000000000000600082015250565b600061505d601083614da5565b915061506882615027565b602082019050919050565b6000602082019050818103600083015261508c81615050565b905091905056fea26469706673582212208e5e50dbc46e1c2a4e4a436ac6ed20007a21cf986d12ca5bde666c7acd025f4264736f6c634300080d0033",
  "immutableReferences": {},
  "source": "// SPDX-License-Identifier: MIT\npragma solidity ^0.8.9;\n\nimport \"@openzeppelin/contracts/access/Ownable.sol\";\n\n/*\nTODO LIST:\n\n- Re-implement payable tag on startGame function\n\n- Implement cashing out stars from the contract's account -- 0.03 Eth per star on a 0.1 Eth buyin?\n\n- Replace block duration test value of 1 with the intended value of 5000\n\n- Create separate commit trackers for each kind of card (rock, paper, scissors) so that \n  players can't commit to a challenge with a card they don't have, and so that players\n  can't trade away cards they (might) have committed to a challenge.\n\n- Test trading logic\n\n*/\n\ncontract RRPS {\n\n    error AddressAlreadyPlaying();          // Address is already playing the game\n    error PlayerNotFound();                 // Address is not currently playing the game\n    error InsufficientUncommittedTokens();  // Player has insufficient tokens remaining that aren't already committed to a challenge\n    error PlayerStillHasCards();            // Player still has cards remaining\n    error InsufficientStars();              // Player has less than 3 stars remaining\n    error NoSelfChallenge();                // Player cannot challenge themselves\n    error PlayerAlreadyChallenged();        // Player has already challenged the other player\n    error NotYetChallenged();               // Player has not yet been challenged by the other player\n    error MustBeRockPaperOrScissors();      // Card type must be 1, 2, or 3\n    error NeedCopyOfCard();                 // Player must have at least one copy of the card they're trying to commit\n    error NoOpenCommit();                   // Player has not yet made an open commit to the other player's challenge\n    error InvalidCardCombination();         // Invalid card combination\n    error OtherPlayerAlreadyCommitted();    // Other player has already made an open commit to the challenge\n\n    event PlayerJoined(address playerAddress, string nickname);                                                 // A player has joined the game for any reason\n    event PlayerLeft(address playerAddress);                                                                    // A player has left the game for any reason\n    event PlayerEliminated(address playerAddress);                                                              // Player has lost all of their stars\n    event PlayerCashedOut(address playerAddress);                                                               // Player voluntarily cashes out\n    event ChallengeCommit(address challenger, address challengee);                                              // Challenger has issued a challenge to challengee\n    event OpenCommit(address challenger, address challengee);                                                   // Challengee has made an open commit to challenger's challenge\n    event ChallengerWins(address challenger, int8 challengerCard, address challengee, int8 challengeeCard);     // Challenger has won the challenge against challengee\n    event ChallengerLoses(address challenger, int8 challengerCard, address challengee, int8 challengeeCard);    // Challengee has won the challenge against challenger\n    event Tie(address challenger, int8 challengerCard, address challengee, int8 challengeeCard);                // Challenger and challengee have tied\n    event Misplay(address player, int8 card);                                                                   // Player has misplayed a card\n    event WithdrawnChallengeCommit(address challenger, address challengee);                                     // Challenger has withdrawn their challenge to challengee\n    event WithdrawnOpenCommit(address challenger, address challengee);                                          // Challengee has withdrawn their open commit to challenger\n    event CommitCreated(address player1, address player2);                                                      // Commit has been created for any reason\n    event CommitRemoved(address player1, address player2);                                                      // Commit has been removed for any reason\n    event OrphanedCommit(address challenger, address challengee);                                               // Player left unresolved commit behind\n    event ChallengerFailedHashOnce(address challenger, address challengee);                                     // Challenger failed to solve hash once\n    event ChallengerFailedHashTwice(address challenger, address challengee);                                    // Challenger failed to solve hash twice (auto-loss of star with no card burnt)\n    event TransferRequest(address requestSender, address requestee, int8 tokenType, uint8 amount);               // Player has requested a token transfer \n    event TransferApproved(address requestSender, address requestee, int8 tokenType, uint8 amount);              // Player has approved a token transfer           \n\n    int8 constant STAR = 0;\n    int8 constant ROCK = 1; \n    int8 constant PAPER = 2;\n    int8 constant SCISSORS = 3;\n\n    struct commit {\n        bytes32 hash;\n        int8 cardType;\n        bool exists;\n        bool hashStrike; \n        uint blockNum;\n    }\n\n    struct transferRequest {\n        address requestee;\n        int8 tokenType;\n        uint8 amount;\n    }\n\n    enum GameResult {\n        Challenger_Loses,\n        Tie,\n        Challenger_Wins,\n        Misplay_Challenger_Loses,   // Result if the challenger doesn't possess a card of the type they committed\n        Misplay_Tie,                // Result if neither player posesses the card they committed\n        Misplay_Challenger_Wins     // Result if the challengee doesn't possess a card of the type they committed\n    }\n\n    mapping (address => bool) public players;                          // Tracks whether a player is active in the game\n    mapping (address => mapping (int8 => uint)) public balances;       // Tracks each player's balance of each token type\n    mapping (int8 => uint) public totals;                              // Tracks the total supply of each token type\n    mapping (address => mapping (address => commit)) public commits;   // Tracks each player's commits against other players\n    mapping (address => address[]) commitArray;                        // This is merely used to re-initialize the commits mapping when a player leaves the game\n    mapping (address => uint8) public commitCount;                     // Tracks the number of games a player is currently committed to\n    mapping (address => transferRequest) public transferRequests;      // Tracks transfer requests\n\n    function incrementToken(address player, int8 id, uint amount) internal {\n        require(id >= 0 || id <= 3, \"Invalid token ID.\");\n        balances[player][id] += amount;\n        totals[id] += amount;\n    }\n\n    function decrementToken(address player, int8 id, uint amount) internal {\n        require(id >= 0 || id <= 3, \"Invalid token ID.\");\n        require(balances[player][id] >= amount, \"Token balance cannot go below zero.\");\n        balances[player][id] -= amount;\n        totals[id] -= amount;\n    }\n\n    function decrementCard(address player, int8 id, uint amount) internal {\n        require(id >= 1 || id <= 3, \"Invalid card ID.\");\n        require(balances[player][id] >= amount, \"Token balance cannot go below zero.\");\n        balances[player][id] -= amount;\n        totals[id] -= amount;\n    }\n\n    // This function is written from the perspective of the challenger\n    function issueCommit(address challengee, bytes32 hash) internal {\n        commits[msg.sender][challengee].hash = hash;                        // Add hash to commits mapping\n        commits[msg.sender][challengee].exists = true;                      // Set commits mapping to exist\n        commits[msg.sender][challengee].blockNum = block.number;            // Add blocknumber \n        commitArray[msg.sender].push(challengee);                           // Add challengee to array of addresses committed against\n        commitCount[msg.sender] += 1;                                       // Increment commitCount for challenger \n        emit CommitCreated(msg.sender, challengee);\n    }\n\n    // This function is written from the perspective of the challengee\n    function issueCommit(address challenger, int8 cardType) internal {\n        // Set commits mapping challengee -> challenger -> cardType\n        commits[msg.sender][challenger].cardType = cardType;                // Add cardType to commits mapping\n        commits[msg.sender][challenger].exists = true;                      // Set commits mapping to exist\n        commits[msg.sender][challenger].blockNum = block.number;            // Add blocknumber \n        commitArray[msg.sender].push(challenger);                           // Add challenger to array of addresses committed against \n        commitCount[msg.sender] += 1;                                       // Increment commitCount for challengee \n        emit CommitCreated(msg.sender, challenger);\n    }\n\n    function removeCommit(address fromPlayer, address toPlayer) internal {\n        if (commits[fromPlayer][toPlayer].exists){\n            delete commits[fromPlayer][toPlayer];\n            commitCount[fromPlayer] -= 1;\n            emit CommitRemoved(fromPlayer, toPlayer);\n        }\n    }\n\n    function startGame(string memory nickname) public /* payable */ {\n        // require(msg.value >= 0.1 ether); // Check payment\n        if (players[msg.sender] == true) {revert AddressAlreadyPlaying();}  // Ensure that address is not currently playing the game\n        players[msg.sender] = true;                                         // Log the address as playing the game\n        for (uint8 i=0; i<commitArray[msg.sender].length; i++){\n            removeCommit(msg.sender, commitArray[msg.sender][i]);           // Delete any existing outgoing commits\n            removeCommit(commitArray[msg.sender][i], msg.sender);           // Delete any existing incoming commits\n        }\n        delete commitCount[msg.sender];                                     // Delete commits count\n        delete transferRequests[msg.sender];                                // Delete transfer requests\n        incrementToken(msg.sender, STAR, 3);                                // Give player fresh set of cards and stars\n        incrementToken(msg.sender, ROCK, 4);\n        incrementToken(msg.sender, PAPER, 4);\n        incrementToken(msg.sender, SCISSORS, 4);\n        emit PlayerJoined(msg.sender, nickname);\n    }\n\n    function gameOverCheck(address player) internal {\n        if (balanceOf(player, STAR) < 1){                                   // Check if player has no stars remaining\n            decrementToken(player, ROCK, balanceOf(player, ROCK));          // Remove remaining rock cards\n            decrementToken(player, PAPER, balanceOf(player, PAPER));        // Remove remaining paper cards\n            decrementToken(player, SCISSORS, balanceOf(player, SCISSORS));  // Remove remaining scissors cards\n            players[player] = false;                                        // Deregister player\n            for (uint8 i=0; i<commitArray[player].length; i++){\n                removeCommit(player, commitArray[player][i]);               // Delete any existing outgoing commits\n                removeCommit(commitArray[player][i], player);               // Delete any existing incoming commits\n            }\n            delete commitCount[player];                                     // Delete any existing commits count\n            delete transferRequests[player];                                // Delete transfer requests                                                                \n\n            emit PlayerEliminated(player);\n            emit PlayerLeft(player);\n        }\n    }\n\n    function cashOut() public {\n        if (totalCards(msg.sender) > 0) {revert PlayerStillHasCards();}     // Check that player has no cards remaining\n        if (balanceOf(msg.sender, STAR) < 3) {revert InsufficientStars();}  // Check that player has 3 or more stars remaining\n        decrementToken(msg.sender, STAR, balanceOf(msg.sender, STAR));      // Remove remaining stars\n        players[msg.sender] = false;                                        // Deregister player\n        delete transferRequests[msg.sender];                                // Delete transfer requests\n        for (uint8 i=0; i<commitArray[msg.sender].length; i++){\n            removeCommit(msg.sender, commitArray[msg.sender][i]);           // Delete any existing outgoing commits\n            removeCommit(commitArray[msg.sender][i], msg.sender);           // Delete any existing incoming commits\n        }\n        emit PlayerCashedOut(msg.sender);\n        emit PlayerLeft(msg.sender);\n    }\n\n    // This function is written from the perspective of the challenger\n    function challengeCommit(address challengee, bytes32 hash) public {\n        if (players[msg.sender] == false) {revert PlayerNotFound();}                    // Check that player is in the game \n        if (msg.sender == challengee) {revert NoSelfChallenge();}                       // Check that challenger and challengee are different accounts\n        if ((totalCards(msg.sender) - commitCount[msg.sender]) < 1) {revert InsufficientUncommittedTokens();}         // Check for uncommitted challenger card\n        if ((totalCards(challengee) - commitCount[challengee]) < 1) {revert InsufficientUncommittedTokens();}         // Check for uncommitted challengee card\n        if ((balanceOf(msg.sender, STAR) - commitCount[msg.sender]) < 1) {revert InsufficientUncommittedTokens();}    // Check for uncommitted challenger star\n        if ((balanceOf(challengee, STAR) - commitCount[challengee]) < 1) {revert InsufficientUncommittedTokens();}    // Check for uncommitted challengee star\n        if (commits[challengee][msg.sender].exists) {revert PlayerAlreadyChallenged();} // Check for open challenge against challengee\n        if (commits[msg.sender][challengee].exists) {revert PlayerAlreadyChallenged();} // Check for open challenge against challenger\n        issueCommit(challengee, hash);                                                  // Set commit mapping and increment commitCount for challenger \n        emit ChallengeCommit(msg.sender, challengee);\n    }\n\n    // This function is written from the perspective of the challengee\n    function openCommit(address challenger, int8 cardType) public {\n        if (players[msg.sender] == false) {revert PlayerNotFound();}                // Check that player is in the game \n        if (msg.sender == challenger) {revert NoSelfChallenge();}                   // Check that challenger and challengee are different accounts\n        if (!commits[challenger][msg.sender].exists) {revert NotYetChallenged();}   // Check that challengee has been challenged by challenger\n        if (cardType < 1 || cardType > 3) {revert MustBeRockPaperOrScissors();}     // Check that cardType is one of ROCK (1), PAPER (2), SCISSORS (3)\n        if (msg.sender == challenger) {revert NoSelfChallenge();}                   // Check that challenger and challengee are different accounts\n        if (balanceOf(msg.sender, cardType) < 1) {revert NeedCopyOfCard();}         // Check that challengee has at least one copy of the card to be committed\n        if ((totalCards(msg.sender) - commitCount[msg.sender]) < 1) {revert InsufficientUncommittedTokens();}         // Check challengee's uncommitted cards\n        if ((balanceOf(msg.sender, STAR) - commitCount[msg.sender]) < 1) {revert InsufficientUncommittedTokens();}    // Check challengee's uncommitted stars\n        if (players[challenger] == false){                                          // Check to see if challenger is still in the game.\n            removeCommit(challenger, msg.sender);                                   // If they are not, withdraw the challenge and end function early\n            removeCommit(msg.sender, challenger);\n            emit OrphanedCommit(challenger, msg.sender);\n            return ();\n        }\n        issueCommit(challenger, cardType);                                           // Set commit mapping and increment commitCount for challengee\n        emit OpenCommit(challenger, msg.sender);\n    }\n\n    // Written from the perspective of the challenger, who must now reveal their card by proving their hash\n    function reveal(address challengee, int8 cardType, string calldata salt) public {\n        if (msg.sender == challengee) {revert NoSelfChallenge();}                   // Check that challenger isn't revealing against themselves\n        if (players[msg.sender] == false) {revert PlayerNotFound();}                // Check that player is in the game \n        if (cardType < 1 || cardType > 3) {revert MustBeRockPaperOrScissors();}     // Check that cardType is one of ROCK (1), PAPER (2), SCISSORS (3)\n        if (!commits[challengee][msg.sender].exists) {revert NoOpenCommit();}       // Check that challengee has made an open commit to challenger's challenge\n        if (!commits[msg.sender][challengee].exists) {revert NotYetChallenged();}   // Check that challenger has challenged challengee\n\n        if (players[challengee] == false){                                          // Check to see if challengee is still in the game. \n            removeCommit(msg.sender, challengee);                                   // If they are not, withdraw the challenge and end function early.\n            removeCommit(challengee, msg.sender);\n            emit OrphanedCommit(msg.sender, challengee);\n            return ();\n        }\n\n        int8 challengerCard;                                                        // Initialize challenger's card variable\n        int8 challengeeCard = commits[challengee][msg.sender].cardType;             // Get the challengee's card\n\n        // Check that challenger's hash is solved using the card type and salt.\n        if (\n            hashCommit(cardType, salt) == commits[msg.sender][challengee].hash && \n            balanceOf(msg.sender, cardType) > 0\n        ){\n            challengerCard = cardType;                                              // If the hash matches, accept the card type as the challenger's card\n        } else if (!commits[msg.sender][challengee].hashStrike) {\n            commits[msg.sender][challengee].hashStrike = true;                      // If the hash doesn't match, strike the hash once,\n            emit ChallengerFailedHashOnce(msg.sender, challengee);                  // and then end the function early\n            return ();\n        } else {\n            emit ChallengerFailedHashTwice(msg.sender, challengee);                 // If the hash doesn't match and has already been struck once,\n            challengerCard = -1;                                                     // Set challengerCard to 0, which indicates a misplay \n        }\n        \n\n        GameResult gameResult;\n        if (balanceOf(msg.sender, challengerCard) < 1)  {challengerCard = -1;}       // Ensure that challenger is in possession of a card of the type they committed\n        if (balanceOf(challengee, challengeeCard) < 1)  {challengeeCard = -1;}       // Ensure that challengee is in possession of a card of the type they committed\n\n        // Determine Winner\n        if      (challengerCard == -1 && challengeeCard == -1)          {gameResult = GameResult.Misplay_Tie;}\n        else if (challengerCard == -1)                                  {gameResult = GameResult.Misplay_Challenger_Loses;}\n        else if (challengeeCard == -1)                                  {gameResult = GameResult.Misplay_Challenger_Wins;}\n        else if (challengerCard == challengeeCard)                      {gameResult = GameResult.Tie;}\n        else if (challengerCard == ROCK && challengeeCard == SCISSORS)  {gameResult = GameResult.Challenger_Wins;}\n        else if (challengerCard == SCISSORS && challengeeCard == PAPER) {gameResult = GameResult.Challenger_Wins;}\n        else if (challengerCard == PAPER && challengeeCard == ROCK)     {gameResult = GameResult.Challenger_Wins;}\n        else if (challengerCard == ROCK && challengeeCard == PAPER)     {gameResult = GameResult.Challenger_Loses;}\n        else if (challengerCard == PAPER && challengeeCard == SCISSORS) {gameResult = GameResult.Challenger_Loses;}\n        else if (challengerCard == SCISSORS && challengeeCard == ROCK)  {gameResult = GameResult.Challenger_Loses;}\n        else {revert InvalidCardCombination();}\n\n        // CARD HANDLING:\n        // If the outcome is legitimate, burn both cards used, otherwise, only burn the legit card.\n        if      (gameResult == GameResult.Misplay_Challenger_Loses)     {decrementCard(challengee, challengeeCard, 1);  emit Misplay(msg.sender, challengerCard);}\n        else if (gameResult == GameResult.Misplay_Challenger_Wins)      {decrementCard(msg.sender, challengerCard, 1);  emit Misplay(challengee, challengeeCard);}\n        else if (gameResult == GameResult.Misplay_Tie)                  {emit Misplay(msg.sender, challengerCard);      emit Misplay(challengee, challengeeCard);}\n        else {\n            decrementCard(msg.sender, challengerCard, 1);\n            decrementCard(challengee, challengeeCard, 1);\n        }\n\n        // STAR HANDLING:\n        // If there's a winner, move one star from loser to winner\n        if (gameResult == GameResult.Challenger_Loses || gameResult == GameResult.Misplay_Challenger_Loses){\n            decrementToken(msg.sender, STAR, 1);\n            incrementToken(challengee, STAR, 1);\n            emit ChallengerLoses(msg.sender, challengerCard, challengee, challengeeCard);\n        }\n        if (gameResult == GameResult.Challenger_Wins || gameResult == GameResult.Misplay_Challenger_Wins){\n            decrementToken(challengee, STAR, 1);\n            incrementToken(msg.sender, STAR, 1);\n            emit ChallengerWins(msg.sender, challengerCard, challengee, challengeeCard);\n        }\n        // If the result is a double misplay, burn one star from both participants.\n        if (gameResult == GameResult.Misplay_Tie) {\n            decrementToken(msg.sender, STAR, 1);\n            decrementToken(challengee, STAR, 1);\n            // Don't emit anything here, as misplay events have already been emitted during the CARD HANDLING step above. \n        }\n        // If the result is a legitimate tie, no stars change hands\n        if (gameResult == GameResult.Tie) {\n            emit Tie(msg.sender, challengerCard, challengee, challengeeCard);\n        }\n\n        // Remove both commits\n        removeCommit(msg.sender, challengee);\n        removeCommit(challengee, msg.sender);\n\n        // Check for Game Over for both players\n        gameOverCheck(msg.sender);\n        gameOverCheck(challengee);\n    }\n\n    function withdrawChallenge(address challengee) public {\n        if (!commits[msg.sender][challengee].exists) {revert NotYetChallenged();}               // Ensure that challenger has challenged challengee\n        if (commits[challengee][msg.sender].exists) {revert OtherPlayerAlreadyCommitted();}     // Ensure no open commit from other player yet exists\n        removeCommit(msg.sender, challengee);                                                   // Remove the commit\n        emit WithdrawnChallengeCommit(msg.sender, challengee);\n    }\n\n    /* \n    After thinking about it, there shouldn't ever be a valid reason to withdraw an open commit.\n    Either the original challenger reveals, or the challengee uses the timeout win.\n    */\n    // function withdrawOpenCommit(address challenger) public {\n    //     if (!commits[msg.sender][challenger].exists) {revert NoOpenCommit();}       // Check that challengee has made an open commit to challenger's challenge\n    //     if (!commits[challenger][msg.sender].exists) {revert NotYetChallenged();}   // Check that challenger has challenged challengee\n    //     removeCommit(challenger, msg.sender);                                       // Remove the open commit\n    //     emit WithdrawnOpenCommit(challenger, msg.sender);\n    // }\n\n    function timeOutWin(address challenger) public {\n        if (!commits[msg.sender][challenger].exists) {revert NoOpenCommit();}       // Check that challengee has made an open commit to challenger's challenge\n        if (!commits[challenger][msg.sender].exists) {revert NotYetChallenged();}   // Check that challenger has challenged challengee\n\n        if (players[challenger] == false){                                          // Check to see if challenger is still in the game. \n            removeCommit(msg.sender, challenger);                                   // If they are not, withdraw the challenge and end function early.\n            removeCommit(challenger, msg.sender);\n            emit OrphanedCommit(msg.sender, challenger);\n            return ();\n        }\n\n        if (commits[msg.sender][challenger].blockNum < (block.number - 1 /*Change this to 5000 for deployment*/)){ // Check if 5000 blocks have elapsed\n            decrementToken(challenger, STAR, 1);                                        // Challenger loses a star\n            incrementToken(msg.sender, STAR, 1);                                        // Challengee gains a star\n            if (balanceOf(msg.sender, commits[msg.sender][challenger].cardType) > 0){   // If challengee has a copy of the card they committed...\n                decrementToken(msg.sender, commits[msg.sender][challenger].cardType, 1);// ... challengee burns their card; challenger does not.\n            }\n            removeCommit(msg.sender, challenger);                                       // Remove the open commit\n            removeCommit(challenger, msg.sender);                                       // Remove the initial commit\n            gameOverCheck(challenger);\n            emit ChallengerLoses(challenger, commits[challenger][msg.sender].cardType, msg.sender, commits[msg.sender][challenger].cardType);\n        }\n    }\n\n    function hashCommit(int8 cardType, string calldata salt) public view returns(bytes32) {\n        if(cardType < 1 || cardType > 3) {revert MustBeRockPaperOrScissors();}\n        return keccak256(abi.encodePacked(msg.sender, cardType, salt));\n    }\n\n    // function contractBalance() public view returns(uint) {\n    //     return(address(this).balance);\n    // }\n\n    function balanceOf(address account, int8 id) public view returns(uint) {\n        return(balances[account][id]);\n    }\n    \n    function balanceOf(address account) public view returns(uint, uint, uint, uint) {\n        return (\n            balanceOf(account, 0),\n            balanceOf(account, 1),\n            balanceOf(account, 2),\n            balanceOf(account, 3)\n        );\n    }\n\n    function balanceOf() public view returns(uint, uint, uint, uint) {\n        return(balanceOf(msg.sender));\n    }\n\n    function totalCards(address player) public view returns (uint) {\n        return(\n            balanceOf(player, ROCK) + \n            balanceOf(player, PAPER) + \n            balanceOf(player, SCISSORS)\n        );\n    }\n\n    // Players can only have one token take request at a time; token take requests ALWAYS send tokens FROM requestee TO requester.\n    // In other words, you can request other players give you their tokens, but you cannot request that other players take yours.\n    function requestTokenTake(address requestee, int8 id, uint8 amount) public {\n        if (players[requestee] == false) {revert PlayerNotFound();}                 // Check that requestee is in the game \n        if (requestee == msg.sender) {revert NoSelfChallenge();}                    // Check that requester and requestee are different accounts\n        if ((balanceOf(requestee, id) - commitCount[requestee]) < amount) {revert InsufficientUncommittedTokens();} // Check for sufficient uncommitted requestee tokens\n        transferRequests[msg.sender].requestee = requestee;                         // Set requestee\n        transferRequests[msg.sender].tokenType = id;                                // Set token type\n        transferRequests[msg.sender].amount = amount;                               // Set amount\n        emit TransferRequest(msg.sender, requestee, id, amount);                       \n    }\n\n    function approveTokenTake(address requestSender) public {\n        if (players[requestSender] == false) {revert PlayerNotFound();}             // Check that requestSender is in the game \n        require(transferRequests[requestSender].requestee == msg.sender, \"No request from that player.\"); // Check that requester's request is to requestee\n\n        if (\n            (balanceOf(msg.sender, transferRequests[requestSender].tokenType) \n            - commitCount[msg.sender]) < transferRequests[requestSender].amount\n            ) {revert InsufficientUncommittedTokens();} // Check for sufficient uncommitted requestee tokens\n\n        incrementToken(requestSender, transferRequests[requestSender].tokenType, transferRequests[requestSender].amount);   // Increment requester's token balance\n        decrementToken(msg.sender, transferRequests[requestSender].tokenType, transferRequests[requestSender].amount);      // Decrement requestee's token balance\n        emit TransferApproved(requestSender, msg.sender, transferRequests[requestSender].tokenType, transferRequests[requestSender].amount); \n        gameOverCheck(msg.sender);\n    }\n}\n",
  "sourcePath": "/home/pierson/Desktop/restricted_rock_paper_scissors/rrps_contracts/contracts/rrps.sol",
  "compiler": {
    "name": "solc",
    "version": "0.8.13+commit.abaa5c0e.Emscripten.clang"
  },
  "schemaVersion": "3.4.16",
  "updatedAt": "2023-10-24T22:17:33.149Z",
  "networkType": "ethereum",
  "devdoc": {
    "kind": "dev",
    "methods": {},
    "version": 1
  },
  "userdoc": {
    "kind": "user",
    "methods": {},
    "version": 1
  }
}