{
  "contractName": "RRPS",
  "abi": [
    {
      "inputs": [],
      "name": "AddressAlreadyPlaying",
      "type": "error"
    },
    {
      "inputs": [],
      "name": "InsufficientStars",
      "type": "error"
    },
    {
      "inputs": [],
      "name": "InsufficientUncommittedTokens",
      "type": "error"
    },
    {
      "inputs": [],
      "name": "InvalidCardCombination",
      "type": "error"
    },
    {
      "inputs": [],
      "name": "MustBeRockPaperOrScissors",
      "type": "error"
    },
    {
      "inputs": [],
      "name": "NeedCopyOfCard",
      "type": "error"
    },
    {
      "inputs": [],
      "name": "NoOpenCommit",
      "type": "error"
    },
    {
      "inputs": [],
      "name": "NoSelfChallenge",
      "type": "error"
    },
    {
      "inputs": [],
      "name": "NotYetChallenged",
      "type": "error"
    },
    {
      "inputs": [],
      "name": "OtherPlayerAlreadyCommitted",
      "type": "error"
    },
    {
      "inputs": [],
      "name": "PlayerAlreadyChallenged",
      "type": "error"
    },
    {
      "inputs": [],
      "name": "PlayerNotFound",
      "type": "error"
    },
    {
      "inputs": [],
      "name": "PlayerStillHasCards",
      "type": "error"
    },
    {
      "anonymous": false,
      "inputs": [
        {
          "indexed": false,
          "internalType": "address",
          "name": "challenger",
          "type": "address"
        },
        {
          "indexed": false,
          "internalType": "address",
          "name": "challengee",
          "type": "address"
        }
      ],
      "name": "ChallengeCommit",
      "type": "event"
    },
    {
      "anonymous": false,
      "inputs": [
        {
          "indexed": false,
          "internalType": "address",
          "name": "challenger",
          "type": "address"
        },
        {
          "indexed": false,
          "internalType": "address",
          "name": "challengee",
          "type": "address"
        }
      ],
      "name": "ChallengerFailedHashOnce",
      "type": "event"
    },
    {
      "anonymous": false,
      "inputs": [
        {
          "indexed": false,
          "internalType": "address",
          "name": "challenger",
          "type": "address"
        },
        {
          "indexed": false,
          "internalType": "address",
          "name": "challengee",
          "type": "address"
        }
      ],
      "name": "ChallengerFailedHashTwice",
      "type": "event"
    },
    {
      "anonymous": false,
      "inputs": [
        {
          "indexed": false,
          "internalType": "address",
          "name": "challenger",
          "type": "address"
        },
        {
          "indexed": false,
          "internalType": "int8",
          "name": "challengerCard",
          "type": "int8"
        },
        {
          "indexed": false,
          "internalType": "address",
          "name": "challengee",
          "type": "address"
        },
        {
          "indexed": false,
          "internalType": "int8",
          "name": "challengeeCard",
          "type": "int8"
        }
      ],
      "name": "ChallengerLoses",
      "type": "event"
    },
    {
      "anonymous": false,
      "inputs": [
        {
          "indexed": false,
          "internalType": "address",
          "name": "challenger",
          "type": "address"
        },
        {
          "indexed": false,
          "internalType": "int8",
          "name": "challengerCard",
          "type": "int8"
        },
        {
          "indexed": false,
          "internalType": "address",
          "name": "challengee",
          "type": "address"
        },
        {
          "indexed": false,
          "internalType": "int8",
          "name": "challengeeCard",
          "type": "int8"
        }
      ],
      "name": "ChallengerWins",
      "type": "event"
    },
    {
      "anonymous": false,
      "inputs": [
        {
          "indexed": false,
          "internalType": "address",
          "name": "player1",
          "type": "address"
        },
        {
          "indexed": false,
          "internalType": "address",
          "name": "player2",
          "type": "address"
        }
      ],
      "name": "CommitCreated",
      "type": "event"
    },
    {
      "anonymous": false,
      "inputs": [
        {
          "indexed": false,
          "internalType": "address",
          "name": "player1",
          "type": "address"
        },
        {
          "indexed": false,
          "internalType": "address",
          "name": "player2",
          "type": "address"
        }
      ],
      "name": "CommitRemoved",
      "type": "event"
    },
    {
      "anonymous": false,
      "inputs": [
        {
          "indexed": false,
          "internalType": "address",
          "name": "player",
          "type": "address"
        },
        {
          "indexed": false,
          "internalType": "int8",
          "name": "card",
          "type": "int8"
        }
      ],
      "name": "Misplay",
      "type": "event"
    },
    {
      "anonymous": false,
      "inputs": [
        {
          "indexed": false,
          "internalType": "address",
          "name": "challenger",
          "type": "address"
        },
        {
          "indexed": false,
          "internalType": "address",
          "name": "challengee",
          "type": "address"
        }
      ],
      "name": "OpenCommit",
      "type": "event"
    },
    {
      "anonymous": false,
      "inputs": [
        {
          "indexed": false,
          "internalType": "address",
          "name": "challenger",
          "type": "address"
        },
        {
          "indexed": false,
          "internalType": "address",
          "name": "challengee",
          "type": "address"
        }
      ],
      "name": "OrphanedCommit",
      "type": "event"
    },
    {
      "anonymous": false,
      "inputs": [
        {
          "indexed": false,
          "internalType": "address",
          "name": "playerAddress",
          "type": "address"
        }
      ],
      "name": "PlayerCashedOut",
      "type": "event"
    },
    {
      "anonymous": false,
      "inputs": [
        {
          "indexed": false,
          "internalType": "address",
          "name": "playerAddress",
          "type": "address"
        }
      ],
      "name": "PlayerEliminated",
      "type": "event"
    },
    {
      "anonymous": false,
      "inputs": [
        {
          "indexed": false,
          "internalType": "address",
          "name": "playerAddress",
          "type": "address"
        },
        {
          "indexed": false,
          "internalType": "string",
          "name": "nickname",
          "type": "string"
        }
      ],
      "name": "PlayerJoined",
      "type": "event"
    },
    {
      "anonymous": false,
      "inputs": [
        {
          "indexed": false,
          "internalType": "address",
          "name": "playerAddress",
          "type": "address"
        }
      ],
      "name": "PlayerLeft",
      "type": "event"
    },
    {
      "anonymous": false,
      "inputs": [
        {
          "indexed": false,
          "internalType": "address",
          "name": "challenger",
          "type": "address"
        },
        {
          "indexed": false,
          "internalType": "int8",
          "name": "challengerCard",
          "type": "int8"
        },
        {
          "indexed": false,
          "internalType": "address",
          "name": "challengee",
          "type": "address"
        },
        {
          "indexed": false,
          "internalType": "int8",
          "name": "challengeeCard",
          "type": "int8"
        }
      ],
      "name": "Tie",
      "type": "event"
    },
    {
      "anonymous": false,
      "inputs": [
        {
          "indexed": false,
          "internalType": "address",
          "name": "requestSender",
          "type": "address"
        },
        {
          "indexed": false,
          "internalType": "address",
          "name": "requestee",
          "type": "address"
        },
        {
          "indexed": false,
          "internalType": "int8",
          "name": "tokenType",
          "type": "int8"
        },
        {
          "indexed": false,
          "internalType": "uint8",
          "name": "amount",
          "type": "uint8"
        }
      ],
      "name": "TransferApproved",
      "type": "event"
    },
    {
      "anonymous": false,
      "inputs": [
        {
          "indexed": false,
          "internalType": "address",
          "name": "requestSender",
          "type": "address"
        },
        {
          "indexed": false,
          "internalType": "address",
          "name": "requestee",
          "type": "address"
        },
        {
          "indexed": false,
          "internalType": "int8",
          "name": "tokenType",
          "type": "int8"
        },
        {
          "indexed": false,
          "internalType": "uint8",
          "name": "amount",
          "type": "uint8"
        }
      ],
      "name": "TransferRequest",
      "type": "event"
    },
    {
      "anonymous": false,
      "inputs": [
        {
          "indexed": false,
          "internalType": "address",
          "name": "challenger",
          "type": "address"
        },
        {
          "indexed": false,
          "internalType": "address",
          "name": "challengee",
          "type": "address"
        }
      ],
      "name": "WithdrawnChallengeCommit",
      "type": "event"
    },
    {
      "anonymous": false,
      "inputs": [
        {
          "indexed": false,
          "internalType": "address",
          "name": "challenger",
          "type": "address"
        },
        {
          "indexed": false,
          "internalType": "address",
          "name": "challengee",
          "type": "address"
        }
      ],
      "name": "WithdrawnOpenCommit",
      "type": "event"
    },
    {
      "inputs": [
        {
          "internalType": "address",
          "name": "",
          "type": "address"
        },
        {
          "internalType": "int8",
          "name": "",
          "type": "int8"
        }
      ],
      "name": "balances",
      "outputs": [
        {
          "internalType": "uint256",
          "name": "",
          "type": "uint256"
        }
      ],
      "stateMutability": "view",
      "type": "function",
      "constant": true
    },
    {
      "inputs": [
        {
          "internalType": "address",
          "name": "",
          "type": "address"
        }
      ],
      "name": "commitCount",
      "outputs": [
        {
          "internalType": "uint8",
          "name": "",
          "type": "uint8"
        }
      ],
      "stateMutability": "view",
      "type": "function",
      "constant": true
    },
    {
      "inputs": [
        {
          "internalType": "address",
          "name": "",
          "type": "address"
        },
        {
          "internalType": "address",
          "name": "",
          "type": "address"
        }
      ],
      "name": "commits",
      "outputs": [
        {
          "internalType": "bytes32",
          "name": "hash",
          "type": "bytes32"
        },
        {
          "internalType": "int8",
          "name": "cardType",
          "type": "int8"
        },
        {
          "internalType": "bool",
          "name": "exists",
          "type": "bool"
        },
        {
          "internalType": "bool",
          "name": "hashStrike",
          "type": "bool"
        },
        {
          "internalType": "uint256",
          "name": "blockNum",
          "type": "uint256"
        }
      ],
      "stateMutability": "view",
      "type": "function",
      "constant": true
    },
    {
      "inputs": [
        {
          "internalType": "address",
          "name": "",
          "type": "address"
        }
      ],
      "name": "players",
      "outputs": [
        {
          "internalType": "bool",
          "name": "",
          "type": "bool"
        }
      ],
      "stateMutability": "view",
      "type": "function",
      "constant": true
    },
    {
      "inputs": [
        {
          "internalType": "int8",
          "name": "",
          "type": "int8"
        }
      ],
      "name": "totals",
      "outputs": [
        {
          "internalType": "uint256",
          "name": "",
          "type": "uint256"
        }
      ],
      "stateMutability": "view",
      "type": "function",
      "constant": true
    },
    {
      "inputs": [
        {
          "internalType": "address",
          "name": "",
          "type": "address"
        }
      ],
      "name": "transferRequests",
      "outputs": [
        {
          "internalType": "address",
          "name": "requestee",
          "type": "address"
        },
        {
          "internalType": "int8",
          "name": "tokenType",
          "type": "int8"
        },
        {
          "internalType": "uint8",
          "name": "amount",
          "type": "uint8"
        }
      ],
      "stateMutability": "view",
      "type": "function",
      "constant": true
    },
    {
      "inputs": [
        {
          "internalType": "address",
          "name": "player",
          "type": "address"
        }
      ],
      "name": "playerExists",
      "outputs": [
        {
          "internalType": "bool",
          "name": "",
          "type": "bool"
        }
      ],
      "stateMutability": "view",
      "type": "function",
      "constant": true
    },
    {
      "inputs": [
        {
          "internalType": "address",
          "name": "player1",
          "type": "address"
        },
        {
          "internalType": "address",
          "name": "player2",
          "type": "address"
        }
      ],
      "name": "getCommit",
      "outputs": [
        {
          "components": [
            {
              "internalType": "bytes32",
              "name": "hash",
              "type": "bytes32"
            },
            {
              "internalType": "int8",
              "name": "cardType",
              "type": "int8"
            },
            {
              "internalType": "bool",
              "name": "exists",
              "type": "bool"
            },
            {
              "internalType": "bool",
              "name": "hashStrike",
              "type": "bool"
            },
            {
              "internalType": "uint256",
              "name": "blockNum",
              "type": "uint256"
            }
          ],
          "internalType": "struct RRPS.commit",
          "name": "",
          "type": "tuple"
        }
      ],
      "stateMutability": "view",
      "type": "function",
      "constant": true
    },
    {
      "inputs": [
        {
          "internalType": "address",
          "name": "player",
          "type": "address"
        }
      ],
      "name": "getCommitCount",
      "outputs": [
        {
          "internalType": "uint8",
          "name": "",
          "type": "uint8"
        }
      ],
      "stateMutability": "view",
      "type": "function",
      "constant": true
    },
    {
      "inputs": [
        {
          "internalType": "address",
          "name": "requestSender",
          "type": "address"
        }
      ],
      "name": "getTransferRequest",
      "outputs": [
        {
          "components": [
            {
              "internalType": "address",
              "name": "requestee",
              "type": "address"
            },
            {
              "internalType": "int8",
              "name": "tokenType",
              "type": "int8"
            },
            {
              "internalType": "uint8",
              "name": "amount",
              "type": "uint8"
            }
          ],
          "internalType": "struct RRPS.transferRequest",
          "name": "",
          "type": "tuple"
        }
      ],
      "stateMutability": "view",
      "type": "function",
      "constant": true
    },
    {
      "inputs": [
        {
          "internalType": "string",
          "name": "nickname",
          "type": "string"
        }
      ],
      "name": "startGame",
      "outputs": [],
      "stateMutability": "nonpayable",
      "type": "function"
    },
    {
      "inputs": [],
      "name": "cashOut",
      "outputs": [],
      "stateMutability": "nonpayable",
      "type": "function"
    },
    {
      "inputs": [],
      "name": "leaveGame",
      "outputs": [],
      "stateMutability": "nonpayable",
      "type": "function"
    },
    {
      "inputs": [
        {
          "internalType": "address",
          "name": "challengee",
          "type": "address"
        },
        {
          "internalType": "bytes32",
          "name": "hash",
          "type": "bytes32"
        }
      ],
      "name": "challengeCommit",
      "outputs": [],
      "stateMutability": "nonpayable",
      "type": "function"
    },
    {
      "inputs": [
        {
          "internalType": "address",
          "name": "challenger",
          "type": "address"
        },
        {
          "internalType": "int8",
          "name": "cardType",
          "type": "int8"
        }
      ],
      "name": "openCommit",
      "outputs": [],
      "stateMutability": "nonpayable",
      "type": "function"
    },
    {
      "inputs": [
        {
          "internalType": "address",
          "name": "challengee",
          "type": "address"
        },
        {
          "internalType": "int8",
          "name": "cardType",
          "type": "int8"
        },
        {
          "internalType": "string",
          "name": "salt",
          "type": "string"
        }
      ],
      "name": "reveal",
      "outputs": [],
      "stateMutability": "nonpayable",
      "type": "function"
    },
    {
      "inputs": [
        {
          "internalType": "address",
          "name": "challengee",
          "type": "address"
        }
      ],
      "name": "withdrawChallenge",
      "outputs": [],
      "stateMutability": "nonpayable",
      "type": "function"
    },
    {
      "inputs": [
        {
          "internalType": "address",
          "name": "challenger",
          "type": "address"
        }
      ],
      "name": "timeOutWin",
      "outputs": [],
      "stateMutability": "nonpayable",
      "type": "function"
    },
    {
      "inputs": [
        {
          "internalType": "int8",
          "name": "cardType",
          "type": "int8"
        },
        {
          "internalType": "string",
          "name": "salt",
          "type": "string"
        }
      ],
      "name": "hashCommit",
      "outputs": [
        {
          "internalType": "bytes32",
          "name": "",
          "type": "bytes32"
        }
      ],
      "stateMutability": "view",
      "type": "function",
      "constant": true
    },
    {
      "inputs": [
        {
          "internalType": "address",
          "name": "account",
          "type": "address"
        }
      ],
      "name": "balanceOf",
      "outputs": [
        {
          "internalType": "uint256",
          "name": "",
          "type": "uint256"
        },
        {
          "internalType": "uint256",
          "name": "",
          "type": "uint256"
        },
        {
          "internalType": "uint256",
          "name": "",
          "type": "uint256"
        },
        {
          "internalType": "uint256",
          "name": "",
          "type": "uint256"
        }
      ],
      "stateMutability": "view",
      "type": "function",
      "constant": true
    },
    {
      "inputs": [],
      "name": "balanceOf",
      "outputs": [
        {
          "internalType": "uint256",
          "name": "",
          "type": "uint256"
        },
        {
          "internalType": "uint256",
          "name": "",
          "type": "uint256"
        },
        {
          "internalType": "uint256",
          "name": "",
          "type": "uint256"
        },
        {
          "internalType": "uint256",
          "name": "",
          "type": "uint256"
        }
      ],
      "stateMutability": "view",
      "type": "function",
      "constant": true
    },
    {
      "inputs": [
        {
          "internalType": "address",
          "name": "account",
          "type": "address"
        },
        {
          "internalType": "int8",
          "name": "id",
          "type": "int8"
        }
      ],
      "name": "balanceOf",
      "outputs": [
        {
          "internalType": "uint256",
          "name": "",
          "type": "uint256"
        }
      ],
      "stateMutability": "view",
      "type": "function",
      "constant": true
    },
    {
      "inputs": [
        {
          "internalType": "address",
          "name": "player",
          "type": "address"
        }
      ],
      "name": "totalCards",
      "outputs": [
        {
          "internalType": "uint256",
          "name": "",
          "type": "uint256"
        }
      ],
      "stateMutability": "view",
      "type": "function",
      "constant": true
    },
    {
      "inputs": [
        {
          "internalType": "address",
          "name": "requestee",
          "type": "address"
        },
        {
          "internalType": "int8",
          "name": "id",
          "type": "int8"
        },
        {
          "internalType": "uint8",
          "name": "amount",
          "type": "uint8"
        }
      ],
      "name": "requestTokenTake",
      "outputs": [],
      "stateMutability": "nonpayable",
      "type": "function"
    },
    {
      "inputs": [
        {
          "internalType": "address",
          "name": "requestSender",
          "type": "address"
        }
      ],
      "name": "approveTokenTake",
      "outputs": [],
      "stateMutability": "nonpayable",
      "type": "function"
    }
  ],
  "bytecode": "0x608060405234801561001057600080fd5b506158f780620000216000396000f3fe608060405234801561001057600080fd5b50600436106101335760003560e01c806311b528bc14610138578063172ed1bd146101545780632cd77d4c146101845780632df93b0b146101a05780632e2a82ce146101bc5780633d8576cc146101ec5780633e810d971461021c578063447a256e1461023857806346ded98f146102545780634b7efcaa146102845780636212d91a146102b457806370a08231146102e6578063722713f714610319578063793cd71e1461033a57806389699f0a14610344578063a350d58014610374578063b1501f9c146103a4578063b4faf732146103ae578063bb0dd4e0146103e2578063bbe5230014610412578063c855ad6014610442578063d3cfaccc1461045e578063d542c4d51461048e578063e2eb41ff146104aa578063f7c0128d146104da575b600080fd5b610152600480360381019061014d9190614b5d565b6104f6565b005b61016e60048036038101906101699190614c15565b610800565b60405161017b9190614c8e565b60405180910390f35b61019e60048036038101906101999190614ca9565b610884565b005b6101ba60048036038101906101b59190614cd6565b610a51565b005b6101d660048036038101906101d19190614ca9565b610f24565b6040516101e39190614d25565b60405180910390f35b61020660048036038101906102019190614ca9565b610f44565b6040516102139190614daf565b60405180910390f35b61023660048036038101906102319190614ca9565b61102d565b005b610252600480360381019061024d9190614dca565b6115b7565b005b61026e60048036038101906102699190614e3e565b61229a565b60405161027b9190614f29565b60405180910390f35b61029e60048036038101906102999190614ca9565b612398565b6040516102ab9190614d25565b60405180910390f35b6102ce60048036038101906102c99190614ca9565b6123ee565b6040516102dd93929190614f62565b60405180910390f35b61030060048036038101906102fb9190614ca9565b612452565b6040516103109493929190614fa8565b60405180910390f35b610321612493565b6040516103319493929190614fa8565b60405180910390f35b6103426124b0565b005b61035e60048036038101906103599190614fed565b61281a565b60405161036b919061501a565b60405180910390f35b61038e60048036038101906103899190614ca9565b612832565b60405161039b919061501a565b60405180910390f35b6103ac612870565b005b6103c860048036038101906103c39190614e3e565b612b5d565b6040516103d9959493929190615044565b60405180910390f35b6103fc60048036038101906103f79190614cd6565b612bc7565b604051610409919061501a565b60405180910390f35b61042c60048036038101906104279190614ca9565b612c28565b6040516104399190615097565b60405180910390f35b61045c600480360381019061045791906150de565b612c7d565b005b61047860048036038101906104739190614cd6565b6131b2565b604051610485919061501a565b60405180910390f35b6104a860048036038101906104a3919061525f565b6131d7565b005b6104c460048036038101906104bf9190614ca9565b61357b565b6040516104d19190615097565b60405180910390f35b6104f460048036038101906104ef9190614ca9565b61359b565b005b600015156000808573ffffffffffffffffffffffffffffffffffffffff1673ffffffffffffffffffffffffffffffffffffffff16815260200190815260200160002060009054906101000a900460ff1615150361057f576040517f2a645edb00000000000000000000000000000000000000000000000000000000815260040160405180910390fd5b3373ffffffffffffffffffffffffffffffffffffffff168373ffffffffffffffffffffffffffffffffffffffff16036105e4576040517f6fcb561000000000000000000000000000000000000000000000000000000000815260040160405180910390fd5b8060ff16600560008573ffffffffffffffffffffffffffffffffffffffff1673ffffffffffffffffffffffffffffffffffffffff16815260200190815260200160002060009054906101000a900460ff1660ff166106428585612bc7565b61064c91906152d7565b1015610684576040517fe7cc977c00000000000000000000000000000000000000000000000000000000815260040160405180910390fd5b82600660003373ffffffffffffffffffffffffffffffffffffffff1673ffffffffffffffffffffffffffffffffffffffff16815260200190815260200160002060000160006101000a81548173ffffffffffffffffffffffffffffffffffffffff021916908373ffffffffffffffffffffffffffffffffffffffff16021790555081600660003373ffffffffffffffffffffffffffffffffffffffff1673ffffffffffffffffffffffffffffffffffffffff16815260200190815260200160002060000160146101000a81548160ff021916908360000b60ff16021790555080600660003373ffffffffffffffffffffffffffffffffffffffff1673ffffffffffffffffffffffffffffffffffffffff16815260200190815260200160002060000160156101000a81548160ff021916908360ff1602179055507f340b732059a4638c20ccb6de44ab5529e8faabc255a17abbdc615738367bccc9338484846040516107f3949392919061530b565b60405180910390a1505050565b600060018460000b1280610817575060038460000b135b1561084e576040517f5968cdba00000000000000000000000000000000000000000000000000000000815260040160405180910390fd5b3384848460405160200161086594939291906153fe565b6040516020818303038152906040528051906020012090509392505050565b600360003373ffffffffffffffffffffffffffffffffffffffff1673ffffffffffffffffffffffffffffffffffffffff16815260200190815260200160002060008273ffffffffffffffffffffffffffffffffffffffff1673ffffffffffffffffffffffffffffffffffffffff16815260200190815260200160002060010160019054906101000a900460ff16610947576040517fa2aa7d6500000000000000000000000000000000000000000000000000000000815260040160405180910390fd5b600360008273ffffffffffffffffffffffffffffffffffffffff1673ffffffffffffffffffffffffffffffffffffffff16815260200190815260200160002060003373ffffffffffffffffffffffffffffffffffffffff1673ffffffffffffffffffffffffffffffffffffffff16815260200190815260200160002060010160019054906101000a900460ff1615610a0b576040517ff14a88ec00000000000000000000000000000000000000000000000000000000815260040160405180910390fd5b610a153382613a71565b7fcd3475a4ad944ce13610e120913425666d26ba8dcd71547c5180173424a8287c3382604051610a46929190615439565b60405180910390a150565b600015156000803373ffffffffffffffffffffffffffffffffffffffff1673ffffffffffffffffffffffffffffffffffffffff16815260200190815260200160002060009054906101000a900460ff16151503610ada576040517f2a645edb00000000000000000000000000000000000000000000000000000000815260040160405180910390fd5b8173ffffffffffffffffffffffffffffffffffffffff163373ffffffffffffffffffffffffffffffffffffffff1603610b3f576040517f6fcb561000000000000000000000000000000000000000000000000000000000815260040160405180910390fd5b600360008373ffffffffffffffffffffffffffffffffffffffff1673ffffffffffffffffffffffffffffffffffffffff16815260200190815260200160002060003373ffffffffffffffffffffffffffffffffffffffff1673ffffffffffffffffffffffffffffffffffffffff16815260200190815260200160002060010160019054906101000a900460ff16610c02576040517fa2aa7d6500000000000000000000000000000000000000000000000000000000815260040160405180910390fd5b60018160000b1280610c17575060038160000b135b15610c4e576040517f5968cdba00000000000000000000000000000000000000000000000000000000815260040160405180910390fd5b8173ffffffffffffffffffffffffffffffffffffffff163373ffffffffffffffffffffffffffffffffffffffff1603610cb3576040517f6fcb561000000000000000000000000000000000000000000000000000000000815260040160405180910390fd5b6001610cbf3383612bc7565b1015610cf7576040517fb59dc6be00000000000000000000000000000000000000000000000000000000815260040160405180910390fd5b6001600560003373ffffffffffffffffffffffffffffffffffffffff1673ffffffffffffffffffffffffffffffffffffffff16815260200190815260200160002060009054906101000a900460ff1660ff16610d5233612832565b610d5c91906152d7565b1015610d94576040517fe7cc977c00000000000000000000000000000000000000000000000000000000815260040160405180910390fd5b6001600560003373ffffffffffffffffffffffffffffffffffffffff1673ffffffffffffffffffffffffffffffffffffffff16815260200190815260200160002060009054906101000a900460ff1660ff16610df1336000612bc7565b610dfb91906152d7565b1015610e33576040517fe7cc977c00000000000000000000000000000000000000000000000000000000815260040160405180910390fd5b600015156000808473ffffffffffffffffffffffffffffffffffffffff1673ffffffffffffffffffffffffffffffffffffffff16815260200190815260200160002060009054906101000a900460ff16151503610edc57610e948233613a71565b610e9e3383613a71565b7f06b6c55da005c98e44e76e6acea5b74b2914f403753adcda3c8d8aba759b0eaa8233604051610ecf929190615439565b60405180910390a1610f20565b610ee68282613c80565b7ff9f96df79c431e54c117519d8a46c546ec0070ec3dc10e01eee8079025407fc38233604051610f17929190615439565b60405180910390a15b5050565b60056020528060005260406000206000915054906101000a900460ff1681565b610f4c614a05565b600660008373ffffffffffffffffffffffffffffffffffffffff1673ffffffffffffffffffffffffffffffffffffffff1681526020019081526020016000206040518060600160405290816000820160009054906101000a900473ffffffffffffffffffffffffffffffffffffffff1673ffffffffffffffffffffffffffffffffffffffff1673ffffffffffffffffffffffffffffffffffffffff1681526020016000820160149054906101000a900460000b60000b60000b81526020016000820160159054906101000a900460ff1660ff1660ff16815250509050919050565b600360003373ffffffffffffffffffffffffffffffffffffffff1673ffffffffffffffffffffffffffffffffffffffff16815260200190815260200160002060008273ffffffffffffffffffffffffffffffffffffffff1673ffffffffffffffffffffffffffffffffffffffff16815260200190815260200160002060010160019054906101000a900460ff166110f0576040517f38df4cfd00000000000000000000000000000000000000000000000000000000815260040160405180910390fd5b600360008273ffffffffffffffffffffffffffffffffffffffff1673ffffffffffffffffffffffffffffffffffffffff16815260200190815260200160002060003373ffffffffffffffffffffffffffffffffffffffff1673ffffffffffffffffffffffffffffffffffffffff16815260200190815260200160002060010160019054906101000a900460ff166111b3576040517fa2aa7d6500000000000000000000000000000000000000000000000000000000815260040160405180910390fd5b600015156000808373ffffffffffffffffffffffffffffffffffffffff1673ffffffffffffffffffffffffffffffffffffffff16815260200190815260200160002060009054906101000a900460ff1615150361125c576112143382613a71565b61121e8133613a71565b7f06b6c55da005c98e44e76e6acea5b74b2914f403753adcda3c8d8aba759b0eaa338260405161124f929190615439565b60405180910390a16115b4565b60014361126991906152d7565b600360003373ffffffffffffffffffffffffffffffffffffffff1673ffffffffffffffffffffffffffffffffffffffff16815260200190815260200160002060008373ffffffffffffffffffffffffffffffffffffffff1673ffffffffffffffffffffffffffffffffffffffff1681526020019081526020016000206002015410156115b3576112fc8160006001613f88565b6113093360006001614119565b60006113a133600360003373ffffffffffffffffffffffffffffffffffffffff1673ffffffffffffffffffffffffffffffffffffffff16815260200190815260200160002060008573ffffffffffffffffffffffffffffffffffffffff1673ffffffffffffffffffffffffffffffffffffffff16815260200190815260200160002060010160009054906101000a900460000b612bc7565b11156114405761143f33600360003373ffffffffffffffffffffffffffffffffffffffff1673ffffffffffffffffffffffffffffffffffffffff16815260200190815260200160002060008473ffffffffffffffffffffffffffffffffffffffff1673ffffffffffffffffffffffffffffffffffffffff16815260200190815260200160002060010160009054906101000a900460000b6001613f88565b5b61144a3382613a71565b6114548133613a71565b61145d81614211565b7fbdff375e92783268ca4968f018d4d8f678c23bd41fb7c3b1020cb1de85faa20781600360008473ffffffffffffffffffffffffffffffffffffffff1673ffffffffffffffffffffffffffffffffffffffff16815260200190815260200160002060003373ffffffffffffffffffffffffffffffffffffffff1673ffffffffffffffffffffffffffffffffffffffff16815260200190815260200160002060010160009054906101000a900460000b33600360003373ffffffffffffffffffffffffffffffffffffffff1673ffffffffffffffffffffffffffffffffffffffff16815260200190815260200160002060008673ffffffffffffffffffffffffffffffffffffffff1673ffffffffffffffffffffffffffffffffffffffff16815260200190815260200160002060010160009054906101000a900460000b6040516115aa9493929190615462565b60405180910390a15b5b50565b8373ffffffffffffffffffffffffffffffffffffffff163373ffffffffffffffffffffffffffffffffffffffff160361161c576040517f6fcb561000000000000000000000000000000000000000000000000000000000815260040160405180910390fd5b600015156000803373ffffffffffffffffffffffffffffffffffffffff1673ffffffffffffffffffffffffffffffffffffffff16815260200190815260200160002060009054906101000a900460ff161515036116a5576040517f2a645edb00000000000000000000000000000000000000000000000000000000815260040160405180910390fd5b60018360000b12806116ba575060038360000b135b156116f1576040517f5968cdba00000000000000000000000000000000000000000000000000000000815260040160405180910390fd5b600360008573ffffffffffffffffffffffffffffffffffffffff1673ffffffffffffffffffffffffffffffffffffffff16815260200190815260200160002060003373ffffffffffffffffffffffffffffffffffffffff1673ffffffffffffffffffffffffffffffffffffffff16815260200190815260200160002060010160019054906101000a900460ff166117b4576040517f38df4cfd00000000000000000000000000000000000000000000000000000000815260040160405180910390fd5b600360003373ffffffffffffffffffffffffffffffffffffffff1673ffffffffffffffffffffffffffffffffffffffff16815260200190815260200160002060008573ffffffffffffffffffffffffffffffffffffffff1673ffffffffffffffffffffffffffffffffffffffff16815260200190815260200160002060010160019054906101000a900460ff16611877576040517fa2aa7d6500000000000000000000000000000000000000000000000000000000815260040160405180910390fd5b600015156000808673ffffffffffffffffffffffffffffffffffffffff1673ffffffffffffffffffffffffffffffffffffffff16815260200190815260200160002060009054906101000a900460ff16151503611920576118d83385613a71565b6118e28433613a71565b7f06b6c55da005c98e44e76e6acea5b74b2914f403753adcda3c8d8aba759b0eaa3385604051611913929190615439565b60405180910390a1612294565b600080600360008773ffffffffffffffffffffffffffffffffffffffff1673ffffffffffffffffffffffffffffffffffffffff16815260200190815260200160002060003373ffffffffffffffffffffffffffffffffffffffff1673ffffffffffffffffffffffffffffffffffffffff16815260200190815260200160002060010160009054906101000a900460000b9050600360003373ffffffffffffffffffffffffffffffffffffffff1673ffffffffffffffffffffffffffffffffffffffff16815260200190815260200160002060008773ffffffffffffffffffffffffffffffffffffffff1673ffffffffffffffffffffffffffffffffffffffff16815260200190815260200160002060000154611a3d868686610800565b148015611a5357506000611a513387612bc7565b115b15611a6057849150611c26565b600360003373ffffffffffffffffffffffffffffffffffffffff1673ffffffffffffffffffffffffffffffffffffffff16815260200190815260200160002060008773ffffffffffffffffffffffffffffffffffffffff1673ffffffffffffffffffffffffffffffffffffffff16815260200190815260200160002060010160029054906101000a900460ff16611bc9576001600360003373ffffffffffffffffffffffffffffffffffffffff1673ffffffffffffffffffffffffffffffffffffffff16815260200190815260200160002060008873ffffffffffffffffffffffffffffffffffffffff1673ffffffffffffffffffffffffffffffffffffffff16815260200190815260200160002060010160026101000a81548160ff0219169083151502179055507fee8073309115c3729855de26aad26354a4fdcd6fca9d4579b19cdd0d23b56b5f3387604051611bba929190615439565b60405180910390a15050612294565b7fad945360a905bcba857c54948aea8291bbd84165fe204dd1adfb591ad9a3af483387604051611bfa929190615439565b60405180910390a17fffffffffffffffffffffffffffffffffffffffffffffffffffffffffffffffff91505b60006001611c343385612bc7565b1015611c5e577fffffffffffffffffffffffffffffffffffffffffffffffffffffffffffffffff92505b6001611c6a8884612bc7565b1015611c94577fffffffffffffffffffffffffffffffffffffffffffffffffffffffffffffffff91505b7fffffffffffffffffffffffffffffffffffffffffffffffffffffffffffffffff8360000b148015611ce857507fffffffffffffffffffffffffffffffffffffffffffffffffffffffffffffffff8260000b145b15611cf65760049050611ea9565b7fffffffffffffffffffffffffffffffffffffffffffffffffffffffffffffffff8360000b03611d295760039050611ea8565b7fffffffffffffffffffffffffffffffffffffffffffffffffffffffffffffffff8260000b03611d5c5760059050611ea7565b8160000b8360000b03611d725760019050611ea6565b600160000b8360000b148015611d8e5750600360000b8260000b145b15611d9c5760029050611ea5565b600360000b8360000b148015611db85750600260000b8260000b145b15611dc65760029050611ea4565b600260000b8360000b148015611de25750600160000b8260000b145b15611df05760029050611ea3565b600160000b8360000b148015611e0c5750600260000b8260000b145b15611e1a5760009050611ea2565b600260000b8360000b148015611e365750600360000b8260000b145b15611e445760009050611ea1565b600360000b8360000b148015611e605750600160000b8260000b145b15611e6e5760009050611ea0565b6040517f4fc4919600000000000000000000000000000000000000000000000000000000815260040160405180910390fd5b5b5b5b5b5b5b5b5b5b60036005811115611ebd57611ebc6154a7565b5b816005811115611ed057611ecf6154a7565b5b03611f1f57611ee187836001614583565b7fa52b74e3f02b31cc99618bb61a044368a494d8dbfb34d5195c3dbb0f2613d3bf3384604051611f129291906154d6565b60405180910390a1612052565b600580811115611f3257611f316154a7565b5b816005811115611f4557611f446154a7565b5b03611f9457611f5633846001614583565b7fa52b74e3f02b31cc99618bb61a044368a494d8dbfb34d5195c3dbb0f2613d3bf8783604051611f879291906154d6565b60405180910390a1612051565b60046005811115611fa857611fa76154a7565b5b816005811115611fbb57611fba6154a7565b5b03612037577fa52b74e3f02b31cc99618bb61a044368a494d8dbfb34d5195c3dbb0f2613d3bf3384604051611ff19291906154d6565b60405180910390a17fa52b74e3f02b31cc99618bb61a044368a494d8dbfb34d5195c3dbb0f2613d3bf878360405161202a9291906154d6565b60405180910390a1612050565b61204333846001614583565b61204f87836001614583565b5b5b5b60006005811115612066576120656154a7565b5b816005811115612079576120786154a7565b5b14806120a9575060036005811115612094576120936154a7565b5b8160058111156120a7576120a66154a7565b5b145b15612106576120bb3360006001613f88565b6120c88760006001614119565b7fbdff375e92783268ca4968f018d4d8f678c23bd41fb7c3b1020cb1de85faa207338489856040516120fd9493929190615462565b60405180910390a15b6002600581111561211a576121196154a7565b5b81600581111561212d5761212c6154a7565b5b148061215c5750600580811115612147576121466154a7565b5b81600581111561215a576121596154a7565b5b145b156121b95761216e8760006001613f88565b61217b3360006001614119565b7f9825ca239d3a61779e374a98b6560cca8a40d6c9356c270abce83d3941dfe6f8338489856040516121b09493929190615462565b60405180910390a15b600460058111156121cd576121cc6154a7565b5b8160058111156121e0576121df6154a7565b5b03612200576121f23360006001613f88565b6121ff8760006001613f88565b5b60016005811115612214576122136154a7565b5b816005811115612227576122266154a7565b5b0361226a577f8a3e623b2adf02a3f9751ad36b25f26ede5e961785806acc87928281c30bd348338489856040516122619493929190615462565b60405180910390a15b6122743388613a71565b61227e8733613a71565b61228733614211565b61229087614211565b5050505b50505050565b6122a2614a41565b600360008473ffffffffffffffffffffffffffffffffffffffff1673ffffffffffffffffffffffffffffffffffffffff16815260200190815260200160002060008373ffffffffffffffffffffffffffffffffffffffff1673ffffffffffffffffffffffffffffffffffffffff1681526020019081526020016000206040518060a0016040529081600082015481526020016001820160009054906101000a900460000b60000b60000b81526020016001820160019054906101000a900460ff161515151581526020016001820160029054906101000a900460ff16151515158152602001600282015481525050905092915050565b6000600560008373ffffffffffffffffffffffffffffffffffffffff1673ffffffffffffffffffffffffffffffffffffffff16815260200190815260200160002060009054906101000a900460ff169050919050565b60066020528060005260406000206000915090508060000160009054906101000a900473ffffffffffffffffffffffffffffffffffffffff16908060000160149054906101000a900460000b908060000160159054906101000a900460ff16905083565b600080600080612463856000612bc7565b61246e866001612bc7565b612479876002612bc7565b612484886003612bc7565b93509350935093509193509193565b6000806000806124a233612452565b935093509350935090919293565b60006124bb33612832565b11156124f3576040517f7ce8de2400000000000000000000000000000000000000000000000000000000815260040160405180910390fd5b6003612500336000612bc7565b1015612538576040517fbfe0f5c600000000000000000000000000000000000000000000000000000000815260040160405180910390fd5b61254e336000612549336000612bc7565b613f88565b60008060003373ffffffffffffffffffffffffffffffffffffffff1673ffffffffffffffffffffffffffffffffffffffff16815260200190815260200160002060006101000a81548160ff021916908315150217905550600660003373ffffffffffffffffffffffffffffffffffffffff1673ffffffffffffffffffffffffffffffffffffffff168152602001908152602001600020600080820160006101000a81549073ffffffffffffffffffffffffffffffffffffffff02191690556000820160146101000a81549060ff02191690556000820160156101000a81549060ff0219169055505060005b600460003373ffffffffffffffffffffffffffffffffffffffff1673ffffffffffffffffffffffffffffffffffffffff168152602001908152602001600020805490508160ff1610156127a95761270e33600460003373ffffffffffffffffffffffffffffffffffffffff1673ffffffffffffffffffffffffffffffffffffffff1681526020019081526020016000208360ff16815481106126de576126dd6154ff565b5b9060005260206000200160009054906101000a900473ffffffffffffffffffffffffffffffffffffffff16613a71565b612796600460003373ffffffffffffffffffffffffffffffffffffffff1673ffffffffffffffffffffffffffffffffffffffff1681526020019081526020016000208260ff1681548110612765576127646154ff565b5b9060005260206000200160009054906101000a900473ffffffffffffffffffffffffffffffffffffffff1633613a71565b80806127a19061552e565b915050612639565b507f3e73e523f34a5ca25bee44a76e449c7de4b5c06dbdfc679c07f27f27a2e42261336040516127d99190615557565b60405180910390a17f282b6298c0318f5d7d7f2483a6823972bdbe9d2798bcfe461159151be7d7b969336040516128109190615557565b60405180910390a1565b60026020528060005260406000206000915090505481565b600061283f826003612bc7565b61284a836002612bc7565b612855846001612bc7565b61285f9190615572565b6128699190615572565b9050919050565b612886336000612881336000612bc7565b613f88565b61289c336001612897336001612bc7565b613f88565b6128b23360026128ad336002612bc7565b613f88565b6128c83360036128c3336003612bc7565b613f88565b60008060003373ffffffffffffffffffffffffffffffffffffffff1673ffffffffffffffffffffffffffffffffffffffff16815260200190815260200160002060006101000a81548160ff021916908315150217905550600660003373ffffffffffffffffffffffffffffffffffffffff1673ffffffffffffffffffffffffffffffffffffffff168152602001908152602001600020600080820160006101000a81549073ffffffffffffffffffffffffffffffffffffffff02191690556000820160146101000a81549060ff02191690556000820160156101000a81549060ff0219169055505060005b600460003373ffffffffffffffffffffffffffffffffffffffff1673ffffffffffffffffffffffffffffffffffffffff168152602001908152602001600020805490508160ff161015612b2357612a8833600460003373ffffffffffffffffffffffffffffffffffffffff1673ffffffffffffffffffffffffffffffffffffffff1681526020019081526020016000208360ff1681548110612a5857612a576154ff565b5b9060005260206000200160009054906101000a900473ffffffffffffffffffffffffffffffffffffffff16613a71565b612b10600460003373ffffffffffffffffffffffffffffffffffffffff1673ffffffffffffffffffffffffffffffffffffffff1681526020019081526020016000208260ff1681548110612adf57612ade6154ff565b5b9060005260206000200160009054906101000a900473ffffffffffffffffffffffffffffffffffffffff1633613a71565b8080612b1b9061552e565b9150506129b3565b507f282b6298c0318f5d7d7f2483a6823972bdbe9d2798bcfe461159151be7d7b96933604051612b539190615557565b60405180910390a1565b6003602052816000526040600020602052806000526040600020600091509150508060000154908060010160009054906101000a900460000b908060010160019054906101000a900460ff16908060010160029054906101000a900460ff16908060020154905085565b6000600160008473ffffffffffffffffffffffffffffffffffffffff1673ffffffffffffffffffffffffffffffffffffffff16815260200190815260200160002060008360000b60000b815260200190815260200160002054905092915050565b60008060008373ffffffffffffffffffffffffffffffffffffffff1673ffffffffffffffffffffffffffffffffffffffff16815260200190815260200160002060009054906101000a900460ff169050919050565b600015156000803373ffffffffffffffffffffffffffffffffffffffff1673ffffffffffffffffffffffffffffffffffffffff16815260200190815260200160002060009054906101000a900460ff16151503612d06576040517f2a645edb00000000000000000000000000000000000000000000000000000000815260040160405180910390fd5b8173ffffffffffffffffffffffffffffffffffffffff163373ffffffffffffffffffffffffffffffffffffffff1603612d6b576040517f6fcb561000000000000000000000000000000000000000000000000000000000815260040160405180910390fd5b6001600560003373ffffffffffffffffffffffffffffffffffffffff1673ffffffffffffffffffffffffffffffffffffffff16815260200190815260200160002060009054906101000a900460ff1660ff16612dc633612832565b612dd091906152d7565b1015612e08576040517fe7cc977c00000000000000000000000000000000000000000000000000000000815260040160405180910390fd5b6001600560008473ffffffffffffffffffffffffffffffffffffffff1673ffffffffffffffffffffffffffffffffffffffff16815260200190815260200160002060009054906101000a900460ff1660ff16612e6384612832565b612e6d91906152d7565b1015612ea5576040517fe7cc977c00000000000000000000000000000000000000000000000000000000815260040160405180910390fd5b6001600560003373ffffffffffffffffffffffffffffffffffffffff1673ffffffffffffffffffffffffffffffffffffffff16815260200190815260200160002060009054906101000a900460ff1660ff16612f02336000612bc7565b612f0c91906152d7565b1015612f44576040517fe7cc977c00000000000000000000000000000000000000000000000000000000815260040160405180910390fd5b6001600560008473ffffffffffffffffffffffffffffffffffffffff1673ffffffffffffffffffffffffffffffffffffffff16815260200190815260200160002060009054906101000a900460ff1660ff16612fa1846000612bc7565b612fab91906152d7565b1015612fe3576040517fe7cc977c00000000000000000000000000000000000000000000000000000000815260040160405180910390fd5b600360008373ffffffffffffffffffffffffffffffffffffffff1673ffffffffffffffffffffffffffffffffffffffff16815260200190815260200160002060003373ffffffffffffffffffffffffffffffffffffffff1673ffffffffffffffffffffffffffffffffffffffff16815260200190815260200160002060010160019054906101000a900460ff16156130a7576040517f0becbe0d00000000000000000000000000000000000000000000000000000000815260040160405180910390fd5b600360003373ffffffffffffffffffffffffffffffffffffffff1673ffffffffffffffffffffffffffffffffffffffff16815260200190815260200160002060008373ffffffffffffffffffffffffffffffffffffffff1673ffffffffffffffffffffffffffffffffffffffff16815260200190815260200160002060010160019054906101000a900460ff161561316b576040517f0becbe0d00000000000000000000000000000000000000000000000000000000815260040160405180910390fd5b6131758282614714565b7fa3bf888d12bc12843a9f7e2696a235c1965193c71ae15cf751e5abcf05d709c233836040516131a6929190615439565b60405180910390a15050565b6001602052816000526040600020602052806000526040600020600091509150505481565b600115156000803373ffffffffffffffffffffffffffffffffffffffff1673ffffffffffffffffffffffffffffffffffffffff16815260200190815260200160002060009054906101000a900460ff16151503613260576040517fb4b038b200000000000000000000000000000000000000000000000000000000815260040160405180910390fd5b60016000803373ffffffffffffffffffffffffffffffffffffffff1673ffffffffffffffffffffffffffffffffffffffff16815260200190815260200160002060006101000a81548160ff02191690831515021790555060005b600460003373ffffffffffffffffffffffffffffffffffffffff1673ffffffffffffffffffffffffffffffffffffffff168152602001908152602001600020805490508160ff16101561342a5761338f33600460003373ffffffffffffffffffffffffffffffffffffffff1673ffffffffffffffffffffffffffffffffffffffff1681526020019081526020016000208360ff168154811061335f5761335e6154ff565b5b9060005260206000200160009054906101000a900473ffffffffffffffffffffffffffffffffffffffff16613a71565b613417600460003373ffffffffffffffffffffffffffffffffffffffff1673ffffffffffffffffffffffffffffffffffffffff1681526020019081526020016000208260ff16815481106133e6576133e56154ff565b5b9060005260206000200160009054906101000a900473ffffffffffffffffffffffffffffffffffffffff1633613a71565b80806134229061552e565b9150506132ba565b50600560003373ffffffffffffffffffffffffffffffffffffffff1673ffffffffffffffffffffffffffffffffffffffff16815260200190815260200160002060006101000a81549060ff0219169055600660003373ffffffffffffffffffffffffffffffffffffffff1673ffffffffffffffffffffffffffffffffffffffff168152602001908152602001600020600080820160006101000a81549073ffffffffffffffffffffffffffffffffffffffff02191690556000820160146101000a81549060ff02191690556000820160156101000a81549060ff021916905550506135183360006003614119565b6135253360016004614119565b6135323360026004614119565b61353f3360036004614119565b7fb46af3c568709a25575d501b270c4768aef802b1e39fb922a8f21cb385e2ae9b3382604051613570929190615650565b60405180910390a150565b60006020528060005260406000206000915054906101000a900460ff1681565b600015156000808373ffffffffffffffffffffffffffffffffffffffff1673ffffffffffffffffffffffffffffffffffffffff16815260200190815260200160002060009054906101000a900460ff16151503613624576040517f2a645edb00000000000000000000000000000000000000000000000000000000815260040160405180910390fd5b3373ffffffffffffffffffffffffffffffffffffffff16600660008373ffffffffffffffffffffffffffffffffffffffff1673ffffffffffffffffffffffffffffffffffffffff16815260200190815260200160002060000160009054906101000a900473ffffffffffffffffffffffffffffffffffffffff1673ffffffffffffffffffffffffffffffffffffffff16146136f4576040517f08c379a00000000000000000000000000000000000000000000000000000000081526004016136eb906156cc565b60405180910390fd5b600660008273ffffffffffffffffffffffffffffffffffffffff1673ffffffffffffffffffffffffffffffffffffffff16815260200190815260200160002060000160159054906101000a900460ff1660ff16600560003373ffffffffffffffffffffffffffffffffffffffff1673ffffffffffffffffffffffffffffffffffffffff16815260200190815260200160002060009054906101000a900460ff1660ff166137f033600660008673ffffffffffffffffffffffffffffffffffffffff1673ffffffffffffffffffffffffffffffffffffffff16815260200190815260200160002060000160149054906101000a900460000b612bc7565b6137fa91906152d7565b1015613832576040517fe7cc977c00000000000000000000000000000000000000000000000000000000815260040160405180910390fd5b6138de81600660008473ffffffffffffffffffffffffffffffffffffffff1673ffffffffffffffffffffffffffffffffffffffff16815260200190815260200160002060000160149054906101000a900460000b600660008573ffffffffffffffffffffffffffffffffffffffff1673ffffffffffffffffffffffffffffffffffffffff16815260200190815260200160002060000160159054906101000a900460ff1660ff16614119565b61398a33600660008473ffffffffffffffffffffffffffffffffffffffff1673ffffffffffffffffffffffffffffffffffffffff16815260200190815260200160002060000160149054906101000a900460000b600660008573ffffffffffffffffffffffffffffffffffffffff1673ffffffffffffffffffffffffffffffffffffffff16815260200190815260200160002060000160159054906101000a900460ff1660ff16613f88565b7f5ad58e5de6ee1ed07cc7f66b48c9423058c1305b87f02709ef2d2ec3f5d53f788133600660008573ffffffffffffffffffffffffffffffffffffffff1673ffffffffffffffffffffffffffffffffffffffff16815260200190815260200160002060000160149054906101000a900460000b600660008673ffffffffffffffffffffffffffffffffffffffff1673ffffffffffffffffffffffffffffffffffffffff16815260200190815260200160002060000160159054906101000a900460ff16604051613a5d949392919061530b565b60405180910390a1613a6e33614211565b50565b600360008373ffffffffffffffffffffffffffffffffffffffff1673ffffffffffffffffffffffffffffffffffffffff16815260200190815260200160002060008273ffffffffffffffffffffffffffffffffffffffff1673ffffffffffffffffffffffffffffffffffffffff16815260200190815260200160002060010160019054906101000a900460ff1615613c7c57600360008373ffffffffffffffffffffffffffffffffffffffff1673ffffffffffffffffffffffffffffffffffffffff16815260200190815260200160002060008273ffffffffffffffffffffffffffffffffffffffff1673ffffffffffffffffffffffffffffffffffffffff1681526020019081526020016000206000808201600090556001820160006101000a81549060ff02191690556001820160016101000a81549060ff02191690556001820160026101000a81549060ff0219169055600282016000905550506001600560008473ffffffffffffffffffffffffffffffffffffffff1673ffffffffffffffffffffffffffffffffffffffff16815260200190815260200160002060008282829054906101000a900460ff16613c2a91906156ec565b92506101000a81548160ff021916908360ff1602179055507f7598c7e2083bb604d4deff395892e56f5abbcf49f1a63f5dfdb3cced349cf1d28282604051613c73929190615439565b60405180910390a15b5050565b80600360003373ffffffffffffffffffffffffffffffffffffffff1673ffffffffffffffffffffffffffffffffffffffff16815260200190815260200160002060008473ffffffffffffffffffffffffffffffffffffffff1673ffffffffffffffffffffffffffffffffffffffff16815260200190815260200160002060010160006101000a81548160ff021916908360000b60ff1602179055506001600360003373ffffffffffffffffffffffffffffffffffffffff1673ffffffffffffffffffffffffffffffffffffffff16815260200190815260200160002060008473ffffffffffffffffffffffffffffffffffffffff1673ffffffffffffffffffffffffffffffffffffffff16815260200190815260200160002060010160016101000a81548160ff02191690831515021790555043600360003373ffffffffffffffffffffffffffffffffffffffff1673ffffffffffffffffffffffffffffffffffffffff16815260200190815260200160002060008473ffffffffffffffffffffffffffffffffffffffff1673ffffffffffffffffffffffffffffffffffffffff16815260200190815260200160002060020181905550600460003373ffffffffffffffffffffffffffffffffffffffff1673ffffffffffffffffffffffffffffffffffffffff168152602001908152602001600020829080600181540180825580915050600190039060005260206000200160009091909190916101000a81548173ffffffffffffffffffffffffffffffffffffffff021916908373ffffffffffffffffffffffffffffffffffffffff1602179055506001600560003373ffffffffffffffffffffffffffffffffffffffff1673ffffffffffffffffffffffffffffffffffffffff16815260200190815260200160002060008282829054906101000a900460ff16613f339190615720565b92506101000a81548160ff021916908360ff1602179055507f588aa82e78a451ffaa3fd1273ebe8a85484fc5d6d5367643a11427d7f6598e4d3383604051613f7c929190615439565b60405180910390a15050565b60008260000b121580613f9f575060038260000b13155b613fde576040517f08c379a0000000000000000000000000000000000000000000000000000000008152600401613fd5906157a3565b60405180910390fd5b80600160008573ffffffffffffffffffffffffffffffffffffffff1673ffffffffffffffffffffffffffffffffffffffff16815260200190815260200160002060008460000b60000b8152602001908152602001600020541015614077576040517f08c379a000000000000000000000000000000000000000000000000000000000815260040161406e90615835565b60405180910390fd5b80600160008573ffffffffffffffffffffffffffffffffffffffff1673ffffffffffffffffffffffffffffffffffffffff16815260200190815260200160002060008460000b60000b815260200190815260200160002060008282546140dd91906152d7565b9250508190555080600260008460000b60000b8152602001908152602001600020600082825461410d91906152d7565b92505081905550505050565b60008260000b121580614130575060038260000b13155b61416f576040517f08c379a0000000000000000000000000000000000000000000000000000000008152600401614166906157a3565b60405180910390fd5b80600160008573ffffffffffffffffffffffffffffffffffffffff1673ffffffffffffffffffffffffffffffffffffffff16815260200190815260200160002060008460000b60000b815260200190815260200160002060008282546141d59190615572565b9250508190555080600260008460000b60000b815260200190815260200160002060008282546142059190615572565b92505081905550505050565b600161421e826000612bc7565b10156145805761423a816001614235846001612bc7565b613f88565b61425081600261424b846002612bc7565b613f88565b614266816003614261846003612bc7565b613f88565b60008060008373ffffffffffffffffffffffffffffffffffffffff1673ffffffffffffffffffffffffffffffffffffffff16815260200190815260200160002060006101000a81548160ff02191690831515021790555060005b600460008373ffffffffffffffffffffffffffffffffffffffff1673ffffffffffffffffffffffffffffffffffffffff168152602001908152602001600020805490508160ff1610156144305761439582600460008573ffffffffffffffffffffffffffffffffffffffff1673ffffffffffffffffffffffffffffffffffffffff1681526020019081526020016000208360ff1681548110614365576143646154ff565b5b9060005260206000200160009054906101000a900473ffffffffffffffffffffffffffffffffffffffff16613a71565b61441d600460008473ffffffffffffffffffffffffffffffffffffffff1673ffffffffffffffffffffffffffffffffffffffff1681526020019081526020016000208260ff16815481106143ec576143eb6154ff565b5b9060005260206000200160009054906101000a900473ffffffffffffffffffffffffffffffffffffffff1683613a71565b80806144289061552e565b9150506142c0565b50600560008273ffffffffffffffffffffffffffffffffffffffff1673ffffffffffffffffffffffffffffffffffffffff16815260200190815260200160002060006101000a81549060ff0219169055600660008273ffffffffffffffffffffffffffffffffffffffff1673ffffffffffffffffffffffffffffffffffffffff168152602001908152602001600020600080820160006101000a81549073ffffffffffffffffffffffffffffffffffffffff02191690556000820160146101000a81549060ff02191690556000820160156101000a81549060ff021916905550507f9ab74d043ba19fd15c3afcaf30decddeff525822b002d45e80c80ac800d41a29816040516145409190615557565b60405180910390a17f282b6298c0318f5d7d7f2483a6823972bdbe9d2798bcfe461159151be7d7b969816040516145779190615557565b60405180910390a15b50565b60018260000b12158061459a575060038260000b13155b6145d9576040517f08c379a00000000000000000000000000000000000000000000000000000000081526004016145d0906158a1565b60405180910390fd5b80600160008573ffffffffffffffffffffffffffffffffffffffff1673ffffffffffffffffffffffffffffffffffffffff16815260200190815260200160002060008460000b60000b8152602001908152602001600020541015614672576040517f08c379a000000000000000000000000000000000000000000000000000000000815260040161466990615835565b60405180910390fd5b80600160008573ffffffffffffffffffffffffffffffffffffffff1673ffffffffffffffffffffffffffffffffffffffff16815260200190815260200160002060008460000b60000b815260200190815260200160002060008282546146d891906152d7565b9250508190555080600260008460000b60000b8152602001908152602001600020600082825461470891906152d7565b92505081905550505050565b80600360003373ffffffffffffffffffffffffffffffffffffffff1673ffffffffffffffffffffffffffffffffffffffff16815260200190815260200160002060008473ffffffffffffffffffffffffffffffffffffffff1673ffffffffffffffffffffffffffffffffffffffff168152602001908152602001600020600001819055506001600360003373ffffffffffffffffffffffffffffffffffffffff1673ffffffffffffffffffffffffffffffffffffffff16815260200190815260200160002060008473ffffffffffffffffffffffffffffffffffffffff1673ffffffffffffffffffffffffffffffffffffffff16815260200190815260200160002060010160016101000a81548160ff02191690831515021790555043600360003373ffffffffffffffffffffffffffffffffffffffff1673ffffffffffffffffffffffffffffffffffffffff16815260200190815260200160002060008473ffffffffffffffffffffffffffffffffffffffff1673ffffffffffffffffffffffffffffffffffffffff16815260200190815260200160002060020181905550600460003373ffffffffffffffffffffffffffffffffffffffff1673ffffffffffffffffffffffffffffffffffffffff168152602001908152602001600020829080600181540180825580915050600190039060005260206000200160009091909190916101000a81548173ffffffffffffffffffffffffffffffffffffffff021916908373ffffffffffffffffffffffffffffffffffffffff1602179055506001600560003373ffffffffffffffffffffffffffffffffffffffff1673ffffffffffffffffffffffffffffffffffffffff16815260200190815260200160002060008282829054906101000a900460ff166149b09190615720565b92506101000a81548160ff021916908360ff1602179055507f588aa82e78a451ffaa3fd1273ebe8a85484fc5d6d5367643a11427d7f6598e4d33836040516149f9929190615439565b60405180910390a15050565b6040518060600160405280600073ffffffffffffffffffffffffffffffffffffffff1681526020016000800b8152602001600060ff1681525090565b6040518060a00160405280600080191681526020016000800b8152602001600015158152602001600015158152602001600081525090565b6000604051905090565b600080fd5b600080fd5b600073ffffffffffffffffffffffffffffffffffffffff82169050919050565b6000614ab882614a8d565b9050919050565b614ac881614aad565b8114614ad357600080fd5b50565b600081359050614ae581614abf565b92915050565b60008160000b9050919050565b614b0181614aeb565b8114614b0c57600080fd5b50565b600081359050614b1e81614af8565b92915050565b600060ff82169050919050565b614b3a81614b24565b8114614b4557600080fd5b50565b600081359050614b5781614b31565b92915050565b600080600060608486031215614b7657614b75614a83565b5b6000614b8486828701614ad6565b9350506020614b9586828701614b0f565b9250506040614ba686828701614b48565b9150509250925092565b600080fd5b600080fd5b600080fd5b60008083601f840112614bd557614bd4614bb0565b5b8235905067ffffffffffffffff811115614bf257614bf1614bb5565b5b602083019150836001820283011115614c0e57614c0d614bba565b5b9250929050565b600080600060408486031215614c2e57614c2d614a83565b5b6000614c3c86828701614b0f565b935050602084013567ffffffffffffffff811115614c5d57614c5c614a88565b5b614c6986828701614bbf565b92509250509250925092565b6000819050919050565b614c8881614c75565b82525050565b6000602082019050614ca36000830184614c7f565b92915050565b600060208284031215614cbf57614cbe614a83565b5b6000614ccd84828501614ad6565b91505092915050565b60008060408385031215614ced57614cec614a83565b5b6000614cfb85828601614ad6565b9250506020614d0c85828601614b0f565b9150509250929050565b614d1f81614b24565b82525050565b6000602082019050614d3a6000830184614d16565b92915050565b614d4981614aad565b82525050565b614d5881614aeb565b82525050565b614d6781614b24565b82525050565b606082016000820151614d836000850182614d40565b506020820151614d966020850182614d4f565b506040820151614da96040850182614d5e565b50505050565b6000606082019050614dc46000830184614d6d565b92915050565b60008060008060608587031215614de457614de3614a83565b5b6000614df287828801614ad6565b9450506020614e0387828801614b0f565b935050604085013567ffffffffffffffff811115614e2457614e23614a88565b5b614e3087828801614bbf565b925092505092959194509250565b60008060408385031215614e5557614e54614a83565b5b6000614e6385828601614ad6565b9250506020614e7485828601614ad6565b9150509250929050565b614e8781614c75565b82525050565b60008115159050919050565b614ea281614e8d565b82525050565b6000819050919050565b614ebb81614ea8565b82525050565b60a082016000820151614ed76000850182614e7e565b506020820151614eea6020850182614d4f565b506040820151614efd6040850182614e99565b506060820151614f106060850182614e99565b506080820151614f236080850182614eb2565b50505050565b600060a082019050614f3e6000830184614ec1565b92915050565b614f4d81614aad565b82525050565b614f5c81614aeb565b82525050565b6000606082019050614f776000830186614f44565b614f846020830185614f53565b614f916040830184614d16565b949350505050565b614fa281614ea8565b82525050565b6000608082019050614fbd6000830187614f99565b614fca6020830186614f99565b614fd76040830185614f99565b614fe46060830184614f99565b95945050505050565b60006020828403121561500357615002614a83565b5b600061501184828501614b0f565b91505092915050565b600060208201905061502f6000830184614f99565b92915050565b61503e81614e8d565b82525050565b600060a0820190506150596000830188614c7f565b6150666020830187614f53565b6150736040830186615035565b6150806060830185615035565b61508d6080830184614f99565b9695505050505050565b60006020820190506150ac6000830184615035565b92915050565b6150bb81614c75565b81146150c657600080fd5b50565b6000813590506150d8816150b2565b92915050565b600080604083850312156150f5576150f4614a83565b5b600061510385828601614ad6565b9250506020615114858286016150c9565b9150509250929050565b600080fd5b6000601f19601f8301169050919050565b7f4e487b7100000000000000000000000000000000000000000000000000000000600052604160045260246000fd5b61516c82615123565b810181811067ffffffffffffffff8211171561518b5761518a615134565b5b80604052505050565b600061519e614a79565b90506151aa8282615163565b919050565b600067ffffffffffffffff8211156151ca576151c9615134565b5b6151d382615123565b9050602081019050919050565b82818337600083830152505050565b60006152026151fd846151af565b615194565b90508281526020810184848401111561521e5761521d61511e565b5b6152298482856151e0565b509392505050565b600082601f83011261524657615245614bb0565b5b81356152568482602086016151ef565b91505092915050565b60006020828403121561527557615274614a83565b5b600082013567ffffffffffffffff81111561529357615292614a88565b5b61529f84828501615231565b91505092915050565b7f4e487b7100000000000000000000000000000000000000000000000000000000600052601160045260246000fd5b60006152e282614ea8565b91506152ed83614ea8565b925082821015615300576152ff6152a8565b5b828203905092915050565b60006080820190506153206000830187614f44565b61532d6020830186614f44565b61533a6040830185614f53565b6153476060830184614d16565b95945050505050565b60008160601b9050919050565b600061536882615350565b9050919050565b600061537a8261535d565b9050919050565b61539261538d82614aad565b61536f565b82525050565b60008160f81b9050919050565b60006153b082615398565b9050919050565b6153c86153c382614aeb565b6153a5565b82525050565b600081905092915050565b60006153e583856153ce565b93506153f28385846151e0565b82840190509392505050565b600061540a8287615381565b60148201915061541a82866153b7565b60018201915061542b8284866153d9565b915081905095945050505050565b600060408201905061544e6000830185614f44565b61545b6020830184614f44565b9392505050565b60006080820190506154776000830187614f44565b6154846020830186614f53565b6154916040830185614f44565b61549e6060830184614f53565b95945050505050565b7f4e487b7100000000000000000000000000000000000000000000000000000000600052602160045260246000fd5b60006040820190506154eb6000830185614f44565b6154f86020830184614f53565b9392505050565b7f4e487b7100000000000000000000000000000000000000000000000000000000600052603260045260246000fd5b600061553982614b24565b915060ff820361554c5761554b6152a8565b5b600182019050919050565b600060208201905061556c6000830184614f44565b92915050565b600061557d82614ea8565b915061558883614ea8565b9250827fffffffffffffffffffffffffffffffffffffffffffffffffffffffffffffffff038211156155bd576155bc6152a8565b5b828201905092915050565b600081519050919050565b600082825260208201905092915050565b60005b838110156156025780820151818401526020810190506155e7565b83811115615611576000848401525b50505050565b6000615622826155c8565b61562c81856155d3565b935061563c8185602086016155e4565b61564581615123565b840191505092915050565b60006040820190506156656000830185614f44565b81810360208301526156778184615617565b90509392505050565b7f4e6f20726571756573742066726f6d207468617420706c617965722e00000000600082015250565b60006156b6601c836155d3565b91506156c182615680565b602082019050919050565b600060208201905081810360008301526156e5816156a9565b9050919050565b60006156f782614b24565b915061570283614b24565b925082821015615715576157146152a8565b5b828203905092915050565b600061572b82614b24565b915061573683614b24565b92508260ff0382111561574c5761574b6152a8565b5b828201905092915050565b7f496e76616c696420746f6b656e2049442e000000000000000000000000000000600082015250565b600061578d6011836155d3565b915061579882615757565b602082019050919050565b600060208201905081810360008301526157bc81615780565b9050919050565b7f546f6b656e2062616c616e63652063616e6e6f7420676f2062656c6f77207a6560008201527f726f2e0000000000000000000000000000000000000000000000000000000000602082015250565b600061581f6023836155d3565b915061582a826157c3565b604082019050919050565b6000602082019050818103600083015261584e81615812565b9050919050565b7f496e76616c696420636172642049442e00000000000000000000000000000000600082015250565b600061588b6010836155d3565b915061589682615855565b602082019050919050565b600060208201905081810360008301526158ba8161587e565b905091905056fea26469706673582212201206d904d0ba00e5c66fee8678f70f00020faaeca47bb4da8f560d41387b00c164736f6c634300080d0033",
  "immutableReferences": {},
  "source": "// SPDX-License-Identifier: MIT\npragma solidity ^0.8.9;\n\n/*\nTODO LIST:\n\n- Re-implement payable tag on startGame function\n\n- Implement cashing out stars from the contract's account -- 0.03 Eth per star on a 0.1 Eth buyin?\n\n- Replace block duration test value of 1 with the intended value of 5000\n\n- Create separate commit trackers for each kind of card (rock, paper, scissors) so that \n  players can't commit to a challenge with a card they don't have, and so that players\n  can't trade away cards they (might) have committed to a challenge.\n\n- Test trading logic\n\n*/\n\ncontract RRPS {\n\n    error AddressAlreadyPlaying();          // Address is already playing the game\n    error PlayerNotFound();                 // Address is not currently playing the game\n    error InsufficientUncommittedTokens();  // Player has insufficient tokens remaining that aren't already committed to a challenge\n    error PlayerStillHasCards();            // Player still has cards remaining\n    error InsufficientStars();              // Player has less than 3 stars remaining\n    error NoSelfChallenge();                // Player cannot challenge themselves\n    error PlayerAlreadyChallenged();        // Player has already challenged the other player\n    error NotYetChallenged();               // Player has not yet been challenged by the other player\n    error MustBeRockPaperOrScissors();      // Card type must be 1, 2, or 3\n    error NeedCopyOfCard();                 // Player must have at least one copy of the card they're trying to commit\n    error NoOpenCommit();                   // Player has not yet made an open commit to the other player's challenge\n    error InvalidCardCombination();         // Invalid card combination\n    error OtherPlayerAlreadyCommitted();    // Other player has already made an open commit to the challenge\n\n    event PlayerJoined(address playerAddress, string nickname);                                                 // A player has joined the game for any reason\n    event PlayerLeft(address playerAddress);                                                                    // A player has left the game for any reason\n    event PlayerEliminated(address playerAddress);                                                              // Player has lost all of their stars\n    event PlayerCashedOut(address playerAddress);                                                               // Player voluntarily cashes out\n    event ChallengeCommit(address challenger, address challengee);                                              // Challenger has issued a challenge to challengee\n    event OpenCommit(address challenger, address challengee);                                                   // Challengee has made an open commit to challenger's challenge\n    event ChallengerWins(address challenger, int8 challengerCard, address challengee, int8 challengeeCard);     // Challenger has won the challenge against challengee\n    event ChallengerLoses(address challenger, int8 challengerCard, address challengee, int8 challengeeCard);    // Challengee has won the challenge against challenger\n    event Tie(address challenger, int8 challengerCard, address challengee, int8 challengeeCard);                // Challenger and challengee have tied\n    event Misplay(address player, int8 card);                                                                   // Player has misplayed a card\n    event WithdrawnChallengeCommit(address challenger, address challengee);                                     // Challenger has withdrawn their challenge to challengee\n    event WithdrawnOpenCommit(address challenger, address challengee);                                          // Challengee has withdrawn their open commit to challenger\n    event CommitCreated(address player1, address player2);                                                      // Commit has been created for any reason\n    event CommitRemoved(address player1, address player2);                                                      // Commit has been removed for any reason\n    event OrphanedCommit(address challenger, address challengee);                                               // Player left unresolved commit behind\n    event ChallengerFailedHashOnce(address challenger, address challengee);                                     // Challenger failed to solve hash once\n    event ChallengerFailedHashTwice(address challenger, address challengee);                                    // Challenger failed to solve hash twice (auto-loss of star with no card burnt)\n    event TransferRequest(address requestSender, address requestee, int8 tokenType, uint8 amount);              // Player has requested a token transfer \n    event TransferApproved(address requestSender, address requestee, int8 tokenType, uint8 amount);             // Player has approved a token transfer           \n\n    int8 constant STAR = 0;\n    int8 constant ROCK = 1; \n    int8 constant PAPER = 2;\n    int8 constant SCISSORS = 3;\n\n    struct commit {\n        bytes32 hash;\n        int8 cardType;\n        bool exists;\n        bool hashStrike; \n        uint blockNum;\n    }\n\n    struct transferRequest {\n        address requestee;\n        int8 tokenType;\n        uint8 amount;\n    }\n\n    enum GameResult {\n        Challenger_Loses,\n        Tie,\n        Challenger_Wins,\n        Misplay_Challenger_Loses,   // Result if the challenger doesn't possess a card of the type they committed\n        Misplay_Tie,                // Result if neither player posesses the card they committed\n        Misplay_Challenger_Wins     // Result if the challengee doesn't possess a card of the type they committed\n    }\n\n    mapping (address => bool) public players;                          // Tracks whether a player is active in the game\n    mapping (address => mapping (int8 => uint)) public balances;       // Tracks each player's balance of each token type\n    mapping (int8 => uint) public totals;                              // Tracks the total supply of each token type\n    mapping (address => mapping (address => commit)) public commits;   // Tracks each player's commits against other players\n    mapping (address => address[]) commitArray;                        // This is merely used to re-initialize the commits mapping when a player leaves the game\n    mapping (address => uint8) public commitCount;                     // Tracks the number of games a player is currently committed to\n    mapping (address => transferRequest) public transferRequests;      // Tracks transfer requests\n\n    function playerExists(address player) public view returns(bool) {\n        return players[player];\n    }\n\n    function getCommit(address player1, address player2) public view returns(commit memory) {\n        return commits[player1][player2];\n    }\n\n    function getCommitCount(address player) public view returns(uint8) {\n        return commitCount[player];\n    }\n\n    function getTransferRequest(address requestSender) public view returns(transferRequest memory) {\n        return transferRequests[requestSender];\n    }\n\n    function incrementToken(address player, int8 id, uint amount) internal {\n        require(id >= 0 || id <= 3, \"Invalid token ID.\");\n        balances[player][id] += amount;\n        totals[id] += amount;\n    }\n\n    function decrementToken(address player, int8 id, uint amount) internal {\n        require(id >= 0 || id <= 3, \"Invalid token ID.\");\n        require(balances[player][id] >= amount, \"Token balance cannot go below zero.\");\n        balances[player][id] -= amount;\n        totals[id] -= amount;\n    }\n\n    function decrementCard(address player, int8 id, uint amount) internal {\n        require(id >= 1 || id <= 3, \"Invalid card ID.\");\n        require(balances[player][id] >= amount, \"Token balance cannot go below zero.\");\n        balances[player][id] -= amount;\n        totals[id] -= amount;\n    }\n\n    // This function is written from the perspective of the challenger\n    function issueCommit(address challengee, bytes32 hash) internal {\n        commits[msg.sender][challengee].hash = hash;                        // Add hash to commits mapping\n        commits[msg.sender][challengee].exists = true;                      // Set commits mapping to exist\n        commits[msg.sender][challengee].blockNum = block.number;            // Add blocknumber \n        commitArray[msg.sender].push(challengee);                           // Add challengee to array of addresses committed against\n        commitCount[msg.sender] += 1;                                       // Increment commitCount for challenger \n        emit CommitCreated(msg.sender, challengee);\n    }\n\n    // This function is written from the perspective of the challengee\n    function issueCommit(address challenger, int8 cardType) internal {\n        // Set commits mapping challengee -> challenger -> cardType\n        commits[msg.sender][challenger].cardType = cardType;                // Add cardType to commits mapping\n        commits[msg.sender][challenger].exists = true;                      // Set commits mapping to exist\n        commits[msg.sender][challenger].blockNum = block.number;            // Add blocknumber \n        commitArray[msg.sender].push(challenger);                           // Add challenger to array of addresses committed against \n        commitCount[msg.sender] += 1;                                       // Increment commitCount for challengee \n        emit CommitCreated(msg.sender, challenger);\n    }\n\n    function removeCommit(address fromPlayer, address toPlayer) internal {\n        if (commits[fromPlayer][toPlayer].exists){\n            delete commits[fromPlayer][toPlayer];\n            commitCount[fromPlayer] -= 1;\n            emit CommitRemoved(fromPlayer, toPlayer);\n        }\n    }\n\n    function startGame(string memory nickname) public /* payable */ {\n        // require(msg.value >= 0.1 ether); // Check payment\n        if (players[msg.sender] == true) {revert AddressAlreadyPlaying();}  // Ensure that address is not currently playing the game\n        players[msg.sender] = true;                                         // Log the address as playing the game\n        for (uint8 i=0; i<commitArray[msg.sender].length; i++){\n            removeCommit(msg.sender, commitArray[msg.sender][i]);           // Delete any existing outgoing commits\n            removeCommit(commitArray[msg.sender][i], msg.sender);           // Delete any existing incoming commits\n        }\n        delete commitCount[msg.sender];                                     // Delete commits count\n        delete transferRequests[msg.sender];                                // Delete transfer requests\n        incrementToken(msg.sender, STAR, 3);                                // Give player fresh set of cards and stars\n        incrementToken(msg.sender, ROCK, 4);\n        incrementToken(msg.sender, PAPER, 4);\n        incrementToken(msg.sender, SCISSORS, 4);\n        emit PlayerJoined(msg.sender, nickname);\n    }\n\n    function gameOverCheck(address player) internal {\n        if (balanceOf(player, STAR) < 1){                                   // Check if player has no stars remaining\n            decrementToken(player, ROCK, balanceOf(player, ROCK));          // Remove remaining rock cards\n            decrementToken(player, PAPER, balanceOf(player, PAPER));        // Remove remaining paper cards\n            decrementToken(player, SCISSORS, balanceOf(player, SCISSORS));  // Remove remaining scissors cards\n            players[player] = false;                                        // Deregister player\n            for (uint8 i=0; i<commitArray[player].length; i++){\n                removeCommit(player, commitArray[player][i]);               // Delete any existing outgoing commits\n                removeCommit(commitArray[player][i], player);               // Delete any existing incoming commits\n            }\n            delete commitCount[player];                                     // Delete any existing commits count\n            delete transferRequests[player];                                // Delete transfer requests                                                                \n\n            emit PlayerEliminated(player);\n            emit PlayerLeft(player);\n        }\n    }\n\n    function cashOut() public {\n        if (totalCards(msg.sender) > 0) {revert PlayerStillHasCards();}     // Check that player has no cards remaining\n        if (balanceOf(msg.sender, STAR) < 3) {revert InsufficientStars();}  // Check that player has 3 or more stars remaining\n        decrementToken(msg.sender, STAR, balanceOf(msg.sender, STAR));      // Remove remaining stars\n        players[msg.sender] = false;                                        // Deregister player\n        delete transferRequests[msg.sender];                                // Delete transfer requests\n        for (uint8 i=0; i<commitArray[msg.sender].length; i++){\n            removeCommit(msg.sender, commitArray[msg.sender][i]);           // Delete any existing outgoing commits\n            removeCommit(commitArray[msg.sender][i], msg.sender);           // Delete any existing incoming commits\n        }\n        emit PlayerCashedOut(msg.sender);\n        emit PlayerLeft(msg.sender);\n    }\n\n    function leaveGame() public {\n        decrementToken(msg.sender, STAR, balanceOf(msg.sender, STAR));      // Remove remaining stars\n        decrementToken(msg.sender, ROCK, balanceOf(msg.sender, ROCK));          // Remove remaining rock cards\n        decrementToken(msg.sender, PAPER, balanceOf(msg.sender, PAPER));        // Remove remaining paper cards\n        decrementToken(msg.sender, SCISSORS, balanceOf(msg.sender, SCISSORS));  // Remove remaining scissors cards\n        players[msg.sender] = false;                                        // Deregister player\n        delete transferRequests[msg.sender];                                // Delete transfer requests\n        for (uint8 i=0; i<commitArray[msg.sender].length; i++){\n            removeCommit(msg.sender, commitArray[msg.sender][i]);           // Delete any existing outgoing commits\n            removeCommit(commitArray[msg.sender][i], msg.sender);           // Delete any existing incoming commits\n        }\n        emit PlayerLeft(msg.sender);\n    }\n\n    // This function is written from the perspective of the challenger\n    function challengeCommit(address challengee, bytes32 hash) public {\n        if (players[msg.sender] == false) {revert PlayerNotFound();}                    // Check that player is in the game \n        if (msg.sender == challengee) {revert NoSelfChallenge();}                       // Check that challenger and challengee are different accounts\n        if ((totalCards(msg.sender) - commitCount[msg.sender]) < 1) {revert InsufficientUncommittedTokens();}         // Check for uncommitted challenger card\n        if ((totalCards(challengee) - commitCount[challengee]) < 1) {revert InsufficientUncommittedTokens();}         // Check for uncommitted challengee card\n        if ((balanceOf(msg.sender, STAR) - commitCount[msg.sender]) < 1) {revert InsufficientUncommittedTokens();}    // Check for uncommitted challenger star\n        if ((balanceOf(challengee, STAR) - commitCount[challengee]) < 1) {revert InsufficientUncommittedTokens();}    // Check for uncommitted challengee star\n        if (commits[challengee][msg.sender].exists) {revert PlayerAlreadyChallenged();} // Check for open challenge against challengee\n        if (commits[msg.sender][challengee].exists) {revert PlayerAlreadyChallenged();} // Check for open challenge against challenger\n        issueCommit(challengee, hash);                                                  // Set commit mapping and increment commitCount for challenger \n        emit ChallengeCommit(msg.sender, challengee);\n    }\n\n    // This function is written from the perspective of the challengee\n    function openCommit(address challenger, int8 cardType) public {\n        if (players[msg.sender] == false) {revert PlayerNotFound();}                // Check that player is in the game \n        if (msg.sender == challenger) {revert NoSelfChallenge();}                   // Check that challenger and challengee are different accounts\n        if (!commits[challenger][msg.sender].exists) {revert NotYetChallenged();}   // Check that challengee has been challenged by challenger\n        if (cardType < 1 || cardType > 3) {revert MustBeRockPaperOrScissors();}     // Check that cardType is one of ROCK (1), PAPER (2), SCISSORS (3)\n        if (msg.sender == challenger) {revert NoSelfChallenge();}                   // Check that challenger and challengee are different accounts\n        if (balanceOf(msg.sender, cardType) < 1) {revert NeedCopyOfCard();}         // Check that challengee has at least one copy of the card to be committed\n        if ((totalCards(msg.sender) - commitCount[msg.sender]) < 1) {revert InsufficientUncommittedTokens();}         // Check challengee's uncommitted cards\n        if ((balanceOf(msg.sender, STAR) - commitCount[msg.sender]) < 1) {revert InsufficientUncommittedTokens();}    // Check challengee's uncommitted stars\n        if (players[challenger] == false){                                          // Check to see if challenger is still in the game.\n            removeCommit(challenger, msg.sender);                                   // If they are not, withdraw the challenge and end function early\n            removeCommit(msg.sender, challenger);\n            emit OrphanedCommit(challenger, msg.sender);\n            return ();\n        }\n        issueCommit(challenger, cardType);                                           // Set commit mapping and increment commitCount for challengee\n        emit OpenCommit(challenger, msg.sender);\n    }\n\n    // Written from the perspective of the challenger, who must now reveal their card by proving their hash\n    function reveal(address challengee, int8 cardType, string calldata salt) public {\n        if (msg.sender == challengee) {revert NoSelfChallenge();}                   // Check that challenger isn't revealing against themselves\n        if (players[msg.sender] == false) {revert PlayerNotFound();}                // Check that player is in the game \n        if (cardType < 1 || cardType > 3) {revert MustBeRockPaperOrScissors();}     // Check that cardType is one of ROCK (1), PAPER (2), SCISSORS (3)\n        if (!commits[challengee][msg.sender].exists) {revert NoOpenCommit();}       // Check that challengee has made an open commit to challenger's challenge\n        if (!commits[msg.sender][challengee].exists) {revert NotYetChallenged();}   // Check that challenger has challenged challengee\n\n        if (players[challengee] == false){                                          // Check to see if challengee is still in the game. \n            removeCommit(msg.sender, challengee);                                   // If they are not, withdraw the challenge and end function early.\n            removeCommit(challengee, msg.sender);\n            emit OrphanedCommit(msg.sender, challengee);\n            return ();\n        }\n\n        int8 challengerCard;                                                        // Initialize challenger's card variable\n        int8 challengeeCard = commits[challengee][msg.sender].cardType;             // Get the challengee's card\n\n        // Check that challenger's hash is solved using the card type and salt.\n        if (\n            hashCommit(cardType, salt) == commits[msg.sender][challengee].hash && \n            balanceOf(msg.sender, cardType) > 0\n        ){\n            challengerCard = cardType;                                              // If the hash matches, accept the card type as the challenger's card\n        } else if (!commits[msg.sender][challengee].hashStrike) {\n            commits[msg.sender][challengee].hashStrike = true;                      // If the hash doesn't match, strike the hash once,\n            emit ChallengerFailedHashOnce(msg.sender, challengee);                  // and then end the function early\n            return ();\n        } else {\n            emit ChallengerFailedHashTwice(msg.sender, challengee);                 // If the hash doesn't match and has already been struck once,\n            challengerCard = -1;                                                     // Set challengerCard to 0, which indicates a misplay \n        }\n        \n\n        GameResult gameResult;\n        if (balanceOf(msg.sender, challengerCard) < 1)  {challengerCard = -1;}       // Ensure that challenger is in possession of a card of the type they committed\n        if (balanceOf(challengee, challengeeCard) < 1)  {challengeeCard = -1;}       // Ensure that challengee is in possession of a card of the type they committed\n\n        // Determine Winner\n        if      (challengerCard == -1 && challengeeCard == -1)          {gameResult = GameResult.Misplay_Tie;}\n        else if (challengerCard == -1)                                  {gameResult = GameResult.Misplay_Challenger_Loses;}\n        else if (challengeeCard == -1)                                  {gameResult = GameResult.Misplay_Challenger_Wins;}\n        else if (challengerCard == challengeeCard)                      {gameResult = GameResult.Tie;}\n        else if (challengerCard == ROCK && challengeeCard == SCISSORS)  {gameResult = GameResult.Challenger_Wins;}\n        else if (challengerCard == SCISSORS && challengeeCard == PAPER) {gameResult = GameResult.Challenger_Wins;}\n        else if (challengerCard == PAPER && challengeeCard == ROCK)     {gameResult = GameResult.Challenger_Wins;}\n        else if (challengerCard == ROCK && challengeeCard == PAPER)     {gameResult = GameResult.Challenger_Loses;}\n        else if (challengerCard == PAPER && challengeeCard == SCISSORS) {gameResult = GameResult.Challenger_Loses;}\n        else if (challengerCard == SCISSORS && challengeeCard == ROCK)  {gameResult = GameResult.Challenger_Loses;}\n        else {revert InvalidCardCombination();}\n\n        // CARD HANDLING:\n        // If the outcome is legitimate, burn both cards used, otherwise, only burn the legit card.\n        if      (gameResult == GameResult.Misplay_Challenger_Loses)     {decrementCard(challengee, challengeeCard, 1);  emit Misplay(msg.sender, challengerCard);}\n        else if (gameResult == GameResult.Misplay_Challenger_Wins)      {decrementCard(msg.sender, challengerCard, 1);  emit Misplay(challengee, challengeeCard);}\n        else if (gameResult == GameResult.Misplay_Tie)                  {emit Misplay(msg.sender, challengerCard);      emit Misplay(challengee, challengeeCard);}\n        else {\n            decrementCard(msg.sender, challengerCard, 1);\n            decrementCard(challengee, challengeeCard, 1);\n        }\n\n        // STAR HANDLING:\n        // If there's a winner, move one star from loser to winner\n        if (gameResult == GameResult.Challenger_Loses || gameResult == GameResult.Misplay_Challenger_Loses){\n            decrementToken(msg.sender, STAR, 1);\n            incrementToken(challengee, STAR, 1);\n            emit ChallengerLoses(msg.sender, challengerCard, challengee, challengeeCard);\n        }\n        if (gameResult == GameResult.Challenger_Wins || gameResult == GameResult.Misplay_Challenger_Wins){\n            decrementToken(challengee, STAR, 1);\n            incrementToken(msg.sender, STAR, 1);\n            emit ChallengerWins(msg.sender, challengerCard, challengee, challengeeCard);\n        }\n        // If the result is a double misplay, burn one star from both participants.\n        if (gameResult == GameResult.Misplay_Tie) {\n            decrementToken(msg.sender, STAR, 1);\n            decrementToken(challengee, STAR, 1);\n            // Don't emit anything here, as misplay events have already been emitted during the CARD HANDLING step above. \n        }\n        // If the result is a legitimate tie, no stars change hands\n        if (gameResult == GameResult.Tie) {\n            emit Tie(msg.sender, challengerCard, challengee, challengeeCard);\n        }\n\n        // Remove both commits\n        removeCommit(msg.sender, challengee);\n        removeCommit(challengee, msg.sender);\n\n        // Check for Game Over for both players\n        gameOverCheck(msg.sender);\n        gameOverCheck(challengee);\n    }\n\n    function withdrawChallenge(address challengee) public {\n        if (!commits[msg.sender][challengee].exists) {revert NotYetChallenged();}               // Ensure that challenger has challenged challengee\n        if (commits[challengee][msg.sender].exists) {revert OtherPlayerAlreadyCommitted();}     // Ensure no open commit from other player yet exists\n        removeCommit(msg.sender, challengee);                                                   // Remove the commit\n        emit WithdrawnChallengeCommit(msg.sender, challengee);\n    }\n\n    /* \n    After thinking about it, there shouldn't ever be a valid reason to withdraw an open commit.\n    Either the original challenger reveals, or the challengee uses the timeout win.\n    */\n    // function withdrawOpenCommit(address challenger) public {\n    //     if (!commits[msg.sender][challenger].exists) {revert NoOpenCommit();}       // Check that challengee has made an open commit to challenger's challenge\n    //     if (!commits[challenger][msg.sender].exists) {revert NotYetChallenged();}   // Check that challenger has challenged challengee\n    //     removeCommit(challenger, msg.sender);                                       // Remove the open commit\n    //     emit WithdrawnOpenCommit(challenger, msg.sender);\n    // }\n\n    function timeOutWin(address challenger) public {\n        if (!commits[msg.sender][challenger].exists) {revert NoOpenCommit();}       // Check that challengee has made an open commit to challenger's challenge\n        if (!commits[challenger][msg.sender].exists) {revert NotYetChallenged();}   // Check that challenger has challenged challengee\n\n        if (players[challenger] == false){                                          // Check to see if challenger is still in the game. \n            removeCommit(msg.sender, challenger);                                   // If they are not, withdraw the challenge and end function early.\n            removeCommit(challenger, msg.sender);\n            emit OrphanedCommit(msg.sender, challenger);\n            return ();\n        }\n\n        if (commits[msg.sender][challenger].blockNum < (block.number - 1 /*Change this to 5000 for deployment*/)){ // Check if 5000 blocks have elapsed\n            decrementToken(challenger, STAR, 1);                                        // Challenger loses a star\n            incrementToken(msg.sender, STAR, 1);                                        // Challengee gains a star\n            if (balanceOf(msg.sender, commits[msg.sender][challenger].cardType) > 0){   // If challengee has a copy of the card they committed...\n                decrementToken(msg.sender, commits[msg.sender][challenger].cardType, 1);// ... challengee burns their card; challenger does not.\n            }\n            removeCommit(msg.sender, challenger);                                       // Remove the open commit\n            removeCommit(challenger, msg.sender);                                       // Remove the initial commit\n            gameOverCheck(challenger);\n            emit ChallengerLoses(challenger, commits[challenger][msg.sender].cardType, msg.sender, commits[msg.sender][challenger].cardType);\n        }\n    }\n\n    function hashCommit(int8 cardType, string calldata salt) public view returns(bytes32) {\n        if(cardType < 1 || cardType > 3) {revert MustBeRockPaperOrScissors();}\n        return keccak256(abi.encodePacked(msg.sender, cardType, salt));\n    }\n\n    // function contractBalance() public view returns(uint) {\n    //     return(address(this).balance);\n    // }\n\n    function balanceOf(address account, int8 id) public view returns(uint) {\n        return(balances[account][id]);\n    }\n    \n    function balanceOf(address account) public view returns(uint, uint, uint, uint) {\n        return (\n            balanceOf(account, 0),\n            balanceOf(account, 1),\n            balanceOf(account, 2),\n            balanceOf(account, 3)\n        );\n    }\n\n    function balanceOf() public view returns(uint, uint, uint, uint) {\n        return(balanceOf(msg.sender));\n    }\n\n    function totalCards(address player) public view returns (uint) {\n        return(\n            balanceOf(player, ROCK) + \n            balanceOf(player, PAPER) + \n            balanceOf(player, SCISSORS)\n        );\n    }\n\n    // Players can only have one token take request at a time; token take requests ALWAYS send tokens FROM requestee TO requester.\n    // In other words, you can request other players give you their tokens, but you cannot request that other players take yours.\n    function requestTokenTake(address requestee, int8 id, uint8 amount) public {\n        if (players[requestee] == false) {revert PlayerNotFound();}                 // Check that requestee is in the game \n        if (requestee == msg.sender) {revert NoSelfChallenge();}                    // Check that requester and requestee are different accounts\n        if ((balanceOf(requestee, id) - commitCount[requestee]) < amount) {revert InsufficientUncommittedTokens();} // Check for sufficient uncommitted requestee tokens\n        transferRequests[msg.sender].requestee = requestee;                         // Set requestee\n        transferRequests[msg.sender].tokenType = id;                                // Set token type\n        transferRequests[msg.sender].amount = amount;                               // Set amount\n        emit TransferRequest(msg.sender, requestee, id, amount);                       \n    }\n\n    function approveTokenTake(address requestSender) public {\n        if (players[requestSender] == false) {revert PlayerNotFound();}             // Check that requestSender is in the game \n        require(transferRequests[requestSender].requestee == msg.sender, \"No request from that player.\"); // Check that requester's request is to requestee\n\n        if (\n            (balanceOf(msg.sender, transferRequests[requestSender].tokenType) \n            - commitCount[msg.sender]) < transferRequests[requestSender].amount\n            ) {revert InsufficientUncommittedTokens();} // Check for sufficient uncommitted requestee tokens\n\n        incrementToken(requestSender, transferRequests[requestSender].tokenType, transferRequests[requestSender].amount);   // Increment requester's token balance\n        decrementToken(msg.sender, transferRequests[requestSender].tokenType, transferRequests[requestSender].amount);      // Decrement requestee's token balance\n        emit TransferApproved(requestSender, msg.sender, transferRequests[requestSender].tokenType, transferRequests[requestSender].amount); \n        gameOverCheck(msg.sender);\n    }\n}\n",
  "sourcePath": "/home/pierson/Desktop/restricted_rock_paper_scissors/rrps_contracts/contracts/rrps.sol",
  "compiler": {
    "name": "solc",
    "version": "0.8.13+commit.abaa5c0e.Emscripten.clang"
  },
  "schemaVersion": "3.4.16",
  "updatedAt": "2023-10-26T16:51:31.165Z",
  "networkType": "ethereum",
  "devdoc": {
    "kind": "dev",
    "methods": {},
    "version": 1
  },
  "userdoc": {
    "kind": "user",
    "methods": {},
    "version": 1
  }
}