{
  "contractName": "RRPS",
  "abi": [
    {
      "inputs": [],
      "stateMutability": "nonpayable",
      "type": "constructor"
    },
    {
      "inputs": [],
      "name": "AddressAlreadyPlaying",
      "type": "error"
    },
    {
      "inputs": [],
      "name": "InsufficientStars",
      "type": "error"
    },
    {
      "inputs": [],
      "name": "InvalidCardCombination",
      "type": "error"
    },
    {
      "inputs": [],
      "name": "MustBeRockPaperOrScissors",
      "type": "error"
    },
    {
      "inputs": [],
      "name": "NeedCopyOfCard",
      "type": "error"
    },
    {
      "inputs": [],
      "name": "NoOpenCommit",
      "type": "error"
    },
    {
      "inputs": [],
      "name": "NoSelfChallenge",
      "type": "error"
    },
    {
      "inputs": [],
      "name": "NotYetChallenged",
      "type": "error"
    },
    {
      "inputs": [],
      "name": "OtherPlayerAlreadyCommitted",
      "type": "error"
    },
    {
      "inputs": [],
      "name": "PlayerAlreadyChallenged",
      "type": "error"
    },
    {
      "inputs": [],
      "name": "PlayerHasNoCards",
      "type": "error"
    },
    {
      "inputs": [],
      "name": "PlayerHasNoStars",
      "type": "error"
    },
    {
      "inputs": [],
      "name": "PlayerHasNoUncommittedCards",
      "type": "error"
    },
    {
      "inputs": [],
      "name": "PlayerHasNoUncommittedStars",
      "type": "error"
    },
    {
      "inputs": [],
      "name": "PlayerNotFound",
      "type": "error"
    },
    {
      "inputs": [],
      "name": "PlayerStillHasCards",
      "type": "error"
    },
    {
      "inputs": [],
      "name": "PlayerStillHasStars",
      "type": "error"
    },
    {
      "anonymous": false,
      "inputs": [
        {
          "indexed": true,
          "internalType": "address",
          "name": "account",
          "type": "address"
        },
        {
          "indexed": true,
          "internalType": "address",
          "name": "operator",
          "type": "address"
        },
        {
          "indexed": false,
          "internalType": "bool",
          "name": "approved",
          "type": "bool"
        }
      ],
      "name": "ApprovalForAll",
      "type": "event"
    },
    {
      "anonymous": false,
      "inputs": [
        {
          "indexed": false,
          "internalType": "address",
          "name": "challenger",
          "type": "address"
        },
        {
          "indexed": false,
          "internalType": "address",
          "name": "challengee",
          "type": "address"
        }
      ],
      "name": "ChallengeCommit",
      "type": "event"
    },
    {
      "anonymous": false,
      "inputs": [
        {
          "indexed": false,
          "internalType": "address",
          "name": "challenger",
          "type": "address"
        },
        {
          "indexed": false,
          "internalType": "address",
          "name": "challengee",
          "type": "address"
        }
      ],
      "name": "ChallengerFailedHashOnce",
      "type": "event"
    },
    {
      "anonymous": false,
      "inputs": [
        {
          "indexed": false,
          "internalType": "address",
          "name": "challenger",
          "type": "address"
        },
        {
          "indexed": false,
          "internalType": "address",
          "name": "challengee",
          "type": "address"
        }
      ],
      "name": "ChallengerFailedHashTwice",
      "type": "event"
    },
    {
      "anonymous": false,
      "inputs": [
        {
          "indexed": false,
          "internalType": "address",
          "name": "challenger",
          "type": "address"
        },
        {
          "indexed": false,
          "internalType": "uint256",
          "name": "challengerCard",
          "type": "uint256"
        },
        {
          "indexed": false,
          "internalType": "address",
          "name": "challengee",
          "type": "address"
        },
        {
          "indexed": false,
          "internalType": "uint256",
          "name": "challengeeCard",
          "type": "uint256"
        }
      ],
      "name": "ChallengerLoses",
      "type": "event"
    },
    {
      "anonymous": false,
      "inputs": [
        {
          "indexed": false,
          "internalType": "address",
          "name": "challenger",
          "type": "address"
        },
        {
          "indexed": false,
          "internalType": "uint256",
          "name": "challengerCard",
          "type": "uint256"
        },
        {
          "indexed": false,
          "internalType": "address",
          "name": "challengee",
          "type": "address"
        },
        {
          "indexed": false,
          "internalType": "uint256",
          "name": "challengeeCard",
          "type": "uint256"
        }
      ],
      "name": "ChallengerWins",
      "type": "event"
    },
    {
      "anonymous": false,
      "inputs": [
        {
          "indexed": false,
          "internalType": "address",
          "name": "player",
          "type": "address"
        },
        {
          "indexed": false,
          "internalType": "uint256",
          "name": "card",
          "type": "uint256"
        }
      ],
      "name": "Misplay",
      "type": "event"
    },
    {
      "anonymous": false,
      "inputs": [
        {
          "indexed": false,
          "internalType": "address",
          "name": "challenger",
          "type": "address"
        },
        {
          "indexed": false,
          "internalType": "address",
          "name": "challengee",
          "type": "address"
        }
      ],
      "name": "OpenCommit",
      "type": "event"
    },
    {
      "anonymous": false,
      "inputs": [
        {
          "indexed": false,
          "internalType": "address",
          "name": "challenger",
          "type": "address"
        },
        {
          "indexed": false,
          "internalType": "address",
          "name": "challengee",
          "type": "address"
        }
      ],
      "name": "OrphanedChallenge",
      "type": "event"
    },
    {
      "anonymous": false,
      "inputs": [
        {
          "indexed": true,
          "internalType": "address",
          "name": "previousOwner",
          "type": "address"
        },
        {
          "indexed": true,
          "internalType": "address",
          "name": "newOwner",
          "type": "address"
        }
      ],
      "name": "OwnershipTransferred",
      "type": "event"
    },
    {
      "anonymous": false,
      "inputs": [
        {
          "indexed": false,
          "internalType": "address",
          "name": "playerAddress",
          "type": "address"
        }
      ],
      "name": "PlayerCashedOut",
      "type": "event"
    },
    {
      "anonymous": false,
      "inputs": [
        {
          "indexed": false,
          "internalType": "address",
          "name": "playerAddress",
          "type": "address"
        }
      ],
      "name": "PlayerEliminated",
      "type": "event"
    },
    {
      "anonymous": false,
      "inputs": [
        {
          "indexed": false,
          "internalType": "address",
          "name": "playerAddress",
          "type": "address"
        },
        {
          "indexed": false,
          "internalType": "string",
          "name": "nickname",
          "type": "string"
        }
      ],
      "name": "PlayerJoined",
      "type": "event"
    },
    {
      "anonymous": false,
      "inputs": [
        {
          "indexed": false,
          "internalType": "address",
          "name": "playerAddress",
          "type": "address"
        }
      ],
      "name": "PlayerLeft",
      "type": "event"
    },
    {
      "anonymous": false,
      "inputs": [
        {
          "indexed": false,
          "internalType": "address",
          "name": "challenger",
          "type": "address"
        },
        {
          "indexed": false,
          "internalType": "uint256",
          "name": "challengerCard",
          "type": "uint256"
        },
        {
          "indexed": false,
          "internalType": "address",
          "name": "challengee",
          "type": "address"
        },
        {
          "indexed": false,
          "internalType": "uint256",
          "name": "challengeeCard",
          "type": "uint256"
        }
      ],
      "name": "Tie",
      "type": "event"
    },
    {
      "anonymous": false,
      "inputs": [
        {
          "indexed": false,
          "internalType": "address",
          "name": "from",
          "type": "address"
        },
        {
          "indexed": false,
          "internalType": "address",
          "name": "to",
          "type": "address"
        },
        {
          "indexed": false,
          "internalType": "uint256",
          "name": "id",
          "type": "uint256"
        },
        {
          "indexed": false,
          "internalType": "uint256",
          "name": "amount",
          "type": "uint256"
        }
      ],
      "name": "TokenTransfer",
      "type": "event"
    },
    {
      "anonymous": false,
      "inputs": [
        {
          "indexed": true,
          "internalType": "address",
          "name": "operator",
          "type": "address"
        },
        {
          "indexed": true,
          "internalType": "address",
          "name": "from",
          "type": "address"
        },
        {
          "indexed": true,
          "internalType": "address",
          "name": "to",
          "type": "address"
        },
        {
          "indexed": false,
          "internalType": "uint256[]",
          "name": "ids",
          "type": "uint256[]"
        },
        {
          "indexed": false,
          "internalType": "uint256[]",
          "name": "values",
          "type": "uint256[]"
        }
      ],
      "name": "TransferBatch",
      "type": "event"
    },
    {
      "anonymous": false,
      "inputs": [
        {
          "indexed": true,
          "internalType": "address",
          "name": "operator",
          "type": "address"
        },
        {
          "indexed": true,
          "internalType": "address",
          "name": "from",
          "type": "address"
        },
        {
          "indexed": true,
          "internalType": "address",
          "name": "to",
          "type": "address"
        },
        {
          "indexed": false,
          "internalType": "uint256",
          "name": "id",
          "type": "uint256"
        },
        {
          "indexed": false,
          "internalType": "uint256",
          "name": "value",
          "type": "uint256"
        }
      ],
      "name": "TransferSingle",
      "type": "event"
    },
    {
      "anonymous": false,
      "inputs": [
        {
          "indexed": false,
          "internalType": "string",
          "name": "value",
          "type": "string"
        },
        {
          "indexed": true,
          "internalType": "uint256",
          "name": "id",
          "type": "uint256"
        }
      ],
      "name": "URI",
      "type": "event"
    },
    {
      "anonymous": false,
      "inputs": [
        {
          "indexed": false,
          "internalType": "address",
          "name": "challenger",
          "type": "address"
        },
        {
          "indexed": false,
          "internalType": "address",
          "name": "challengee",
          "type": "address"
        }
      ],
      "name": "WithdrawnChallengeCommit",
      "type": "event"
    },
    {
      "anonymous": false,
      "inputs": [
        {
          "indexed": false,
          "internalType": "address",
          "name": "challenger",
          "type": "address"
        },
        {
          "indexed": false,
          "internalType": "address",
          "name": "challengee",
          "type": "address"
        }
      ],
      "name": "WithdrawnOpenCommit",
      "type": "event"
    },
    {
      "inputs": [],
      "name": "PAPER",
      "outputs": [
        {
          "internalType": "uint256",
          "name": "",
          "type": "uint256"
        }
      ],
      "stateMutability": "view",
      "type": "function",
      "constant": true
    },
    {
      "inputs": [],
      "name": "ROCK",
      "outputs": [
        {
          "internalType": "uint256",
          "name": "",
          "type": "uint256"
        }
      ],
      "stateMutability": "view",
      "type": "function",
      "constant": true
    },
    {
      "inputs": [],
      "name": "SCISSORS",
      "outputs": [
        {
          "internalType": "uint256",
          "name": "",
          "type": "uint256"
        }
      ],
      "stateMutability": "view",
      "type": "function",
      "constant": true
    },
    {
      "inputs": [],
      "name": "STAR",
      "outputs": [
        {
          "internalType": "uint256",
          "name": "",
          "type": "uint256"
        }
      ],
      "stateMutability": "view",
      "type": "function",
      "constant": true
    },
    {
      "inputs": [
        {
          "internalType": "address",
          "name": "account",
          "type": "address"
        },
        {
          "internalType": "uint256",
          "name": "id",
          "type": "uint256"
        }
      ],
      "name": "balanceOf",
      "outputs": [
        {
          "internalType": "uint256",
          "name": "",
          "type": "uint256"
        }
      ],
      "stateMutability": "view",
      "type": "function",
      "constant": true
    },
    {
      "inputs": [
        {
          "internalType": "address",
          "name": "account",
          "type": "address"
        }
      ],
      "name": "balanceOf",
      "outputs": [
        {
          "internalType": "uint256",
          "name": "",
          "type": "uint256"
        },
        {
          "internalType": "uint256",
          "name": "",
          "type": "uint256"
        },
        {
          "internalType": "uint256",
          "name": "",
          "type": "uint256"
        },
        {
          "internalType": "uint256",
          "name": "",
          "type": "uint256"
        }
      ],
      "stateMutability": "view",
      "type": "function",
      "constant": true
    },
    {
      "inputs": [],
      "name": "balanceOf",
      "outputs": [
        {
          "internalType": "uint256",
          "name": "",
          "type": "uint256"
        },
        {
          "internalType": "uint256",
          "name": "",
          "type": "uint256"
        },
        {
          "internalType": "uint256",
          "name": "",
          "type": "uint256"
        },
        {
          "internalType": "uint256",
          "name": "",
          "type": "uint256"
        }
      ],
      "stateMutability": "view",
      "type": "function",
      "constant": true
    },
    {
      "inputs": [
        {
          "internalType": "address[]",
          "name": "accounts",
          "type": "address[]"
        },
        {
          "internalType": "uint256[]",
          "name": "ids",
          "type": "uint256[]"
        }
      ],
      "name": "balanceOfBatch",
      "outputs": [
        {
          "internalType": "uint256[]",
          "name": "",
          "type": "uint256[]"
        }
      ],
      "stateMutability": "view",
      "type": "function",
      "constant": true
    },
    {
      "inputs": [],
      "name": "contractBalance",
      "outputs": [
        {
          "internalType": "uint256",
          "name": "",
          "type": "uint256"
        }
      ],
      "stateMutability": "view",
      "type": "function",
      "constant": true
    },
    {
      "inputs": [
        {
          "internalType": "address",
          "name": "account",
          "type": "address"
        },
        {
          "internalType": "address",
          "name": "operator",
          "type": "address"
        }
      ],
      "name": "isApprovedForAll",
      "outputs": [
        {
          "internalType": "bool",
          "name": "",
          "type": "bool"
        }
      ],
      "stateMutability": "view",
      "type": "function",
      "constant": true
    },
    {
      "inputs": [],
      "name": "owner",
      "outputs": [
        {
          "internalType": "address",
          "name": "",
          "type": "address"
        }
      ],
      "stateMutability": "view",
      "type": "function",
      "constant": true
    },
    {
      "inputs": [],
      "name": "renounceOwnership",
      "outputs": [],
      "stateMutability": "nonpayable",
      "type": "function"
    },
    {
      "inputs": [
        {
          "internalType": "address",
          "name": "operator",
          "type": "address"
        },
        {
          "internalType": "bool",
          "name": "approved",
          "type": "bool"
        }
      ],
      "name": "setApprovalForAll",
      "outputs": [],
      "stateMutability": "nonpayable",
      "type": "function"
    },
    {
      "inputs": [
        {
          "internalType": "bytes4",
          "name": "interfaceId",
          "type": "bytes4"
        }
      ],
      "name": "supportsInterface",
      "outputs": [
        {
          "internalType": "bool",
          "name": "",
          "type": "bool"
        }
      ],
      "stateMutability": "view",
      "type": "function",
      "constant": true
    },
    {
      "inputs": [
        {
          "internalType": "address",
          "name": "player",
          "type": "address"
        }
      ],
      "name": "totalCards",
      "outputs": [
        {
          "internalType": "uint256",
          "name": "",
          "type": "uint256"
        }
      ],
      "stateMutability": "view",
      "type": "function",
      "constant": true
    },
    {
      "inputs": [
        {
          "internalType": "uint256",
          "name": "",
          "type": "uint256"
        }
      ],
      "name": "totals",
      "outputs": [
        {
          "internalType": "uint256",
          "name": "",
          "type": "uint256"
        }
      ],
      "stateMutability": "view",
      "type": "function",
      "constant": true
    },
    {
      "inputs": [
        {
          "internalType": "address",
          "name": "newOwner",
          "type": "address"
        }
      ],
      "name": "transferOwnership",
      "outputs": [],
      "stateMutability": "nonpayable",
      "type": "function"
    },
    {
      "inputs": [
        {
          "internalType": "uint256",
          "name": "",
          "type": "uint256"
        }
      ],
      "name": "uri",
      "outputs": [
        {
          "internalType": "string",
          "name": "",
          "type": "string"
        }
      ],
      "stateMutability": "view",
      "type": "function",
      "constant": true
    },
    {
      "inputs": [
        {
          "internalType": "string",
          "name": "nickname",
          "type": "string"
        }
      ],
      "name": "startGame",
      "outputs": [],
      "stateMutability": "nonpayable",
      "type": "function"
    },
    {
      "inputs": [],
      "name": "cashOut",
      "outputs": [],
      "stateMutability": "nonpayable",
      "type": "function"
    },
    {
      "inputs": [
        {
          "internalType": "address",
          "name": "challengee",
          "type": "address"
        },
        {
          "internalType": "bytes32",
          "name": "hash",
          "type": "bytes32"
        }
      ],
      "name": "challengeCommit",
      "outputs": [],
      "stateMutability": "nonpayable",
      "type": "function"
    },
    {
      "inputs": [
        {
          "internalType": "address",
          "name": "challenger",
          "type": "address"
        },
        {
          "internalType": "uint256",
          "name": "cardType",
          "type": "uint256"
        }
      ],
      "name": "openCommit",
      "outputs": [],
      "stateMutability": "nonpayable",
      "type": "function"
    },
    {
      "inputs": [
        {
          "internalType": "address",
          "name": "challengee",
          "type": "address"
        },
        {
          "internalType": "uint256",
          "name": "cardType",
          "type": "uint256"
        },
        {
          "internalType": "string",
          "name": "salt",
          "type": "string"
        }
      ],
      "name": "reveal",
      "outputs": [],
      "stateMutability": "nonpayable",
      "type": "function"
    },
    {
      "inputs": [
        {
          "internalType": "address",
          "name": "challengee",
          "type": "address"
        }
      ],
      "name": "withdrawChallenge",
      "outputs": [],
      "stateMutability": "nonpayable",
      "type": "function"
    },
    {
      "inputs": [
        {
          "internalType": "address",
          "name": "challenger",
          "type": "address"
        }
      ],
      "name": "withdrawOpenCommit",
      "outputs": [],
      "stateMutability": "nonpayable",
      "type": "function"
    },
    {
      "inputs": [
        {
          "internalType": "uint256",
          "name": "cardType",
          "type": "uint256"
        },
        {
          "internalType": "string",
          "name": "salt",
          "type": "string"
        }
      ],
      "name": "hashCommit",
      "outputs": [
        {
          "internalType": "bytes32",
          "name": "",
          "type": "bytes32"
        }
      ],
      "stateMutability": "view",
      "type": "function",
      "constant": true
    },
    {
      "inputs": [
        {
          "internalType": "address",
          "name": "from",
          "type": "address"
        },
        {
          "internalType": "address",
          "name": "to",
          "type": "address"
        },
        {
          "internalType": "uint256",
          "name": "id",
          "type": "uint256"
        },
        {
          "internalType": "uint256",
          "name": "amount",
          "type": "uint256"
        },
        {
          "internalType": "bytes",
          "name": "data",
          "type": "bytes"
        }
      ],
      "name": "safeTransferFrom",
      "outputs": [],
      "stateMutability": "nonpayable",
      "type": "function"
    },
    {
      "inputs": [
        {
          "internalType": "address",
          "name": "from",
          "type": "address"
        },
        {
          "internalType": "address",
          "name": "to",
          "type": "address"
        },
        {
          "internalType": "uint256[]",
          "name": "ids",
          "type": "uint256[]"
        },
        {
          "internalType": "uint256[]",
          "name": "amounts",
          "type": "uint256[]"
        },
        {
          "internalType": "bytes",
          "name": "data",
          "type": "bytes"
        }
      ],
      "name": "safeBatchTransferFrom",
      "outputs": [],
      "stateMutability": "nonpayable",
      "type": "function"
    }
  ],
  "bytecode": "0x608060405260405180602001604052806000815250600890805190602001906200002b92919062000217565b50604051806020016040528060008152506009908051906020019062000053929190620002a8565b503480156200006157600080fd5b5060098054620000719062000387565b80601f01602080910402602001604051908101604052809291908181526020018280546200009f9062000387565b8015620000f05780601f10620000c457610100808354040283529160200191620000f0565b820191906000526020600020905b815481529060010190602001808311620000d257829003601f168201915b505050505062000106816200012d60201b60201c565b50620001276200011b6200014960201b60201c565b6200015160201b60201c565b620003bc565b806002908051906020019062000145929190620002a8565b5050565b600033905090565b6000600360009054906101000a900473ffffffffffffffffffffffffffffffffffffffff16905081600360006101000a81548173ffffffffffffffffffffffffffffffffffffffff021916908373ffffffffffffffffffffffffffffffffffffffff1602179055508173ffffffffffffffffffffffffffffffffffffffff168173ffffffffffffffffffffffffffffffffffffffff167f8be0079c531659141344cd1fd0a4f28419497f9722a3daafe3b4186f6b6457e060405160405180910390a35050565b828054620002259062000387565b90600052602060002090601f01602090048101928262000249576000855562000295565b82601f106200026457805160ff191683800117855562000295565b8280016001018555821562000295579182015b828111156200029457825182559160200191906001019062000277565b5b509050620002a4919062000339565b5090565b828054620002b69062000387565b90600052602060002090601f016020900481019282620002da576000855562000326565b82601f10620002f557805160ff191683800117855562000326565b8280016001018555821562000326579182015b828111156200032557825182559160200191906001019062000308565b5b50905062000335919062000339565b5090565b5b80821115620003545760008160009055506001016200033a565b5090565b7f4e487b7100000000000000000000000000000000000000000000000000000000600052602260045260246000fd5b60006002820490506001821680620003a057607f821691505b602082108103620003b657620003b562000358565b5b50919050565b615fce80620003cc6000396000f3fe608060405234801561001057600080fd5b50600436106101535760003560e01c8062fdd58e1461015857806301ffc9a71461018857806309748bf0146101b85780630c2929a3146101d45780630e89341c146101f057806314d7d46d146102205780631b3387101461023c5780632cd77d4c1461026c5780632eb2c2d6146102885780634e1273f4146102a457806370a08231146102d4578063715018a614610307578063722713f714610311578063793cd71e146103325780638b7afe2e1461033c5780638da5cb5b1461035a578063a22cb46514610378578063a350d58014610394578063a4d89e77146103c4578063aa924469146103e2578063b357a02814610412578063b93e0e3914610430578063c44d6f871461044e578063c855ad601461046c578063d542c4d514610488578063e985e9c5146104a4578063f242432a146104d4578063f2fde38b146104f0575b600080fd5b610172600480360381019061016d91906146f6565b61050c565b60405161017f9190614745565b60405180910390f35b6101a2600480360381019061019d91906147b8565b6105d4565b6040516101af9190614800565b60405180910390f35b6101d260048036038101906101cd91906146f6565b6106b6565b005b6101ee60048036038101906101e99190614880565b610d14565b005b61020a600480360381019061020591906148f4565b611d70565b60405161021791906149ba565b60405180910390f35b61023a600480360381019061023591906149dc565b611e04565b005b610256600480360381019061025191906148f4565b612019565b6040516102639190614745565b60405180910390f35b610286600480360381019061028191906149dc565b612031565b005b6102a2600480360381019061029d9190614bfc565b61230a565b005b6102be60048036038101906102b99190614d8e565b61231e565b6040516102cb9190614ec4565b60405180910390f35b6102ee60048036038101906102e991906149dc565b612437565b6040516102fe9493929190614ee6565b60405180910390f35b61030f612478565b005b61031961248c565b6040516103299493929190614ee6565b60405180910390f35b61033a6124a9565b005b61034461260f565b6040516103519190614745565b60405180910390f35b610362612617565b60405161036f9190614f3a565b60405180910390f35b610392600480360381019061038d9190614f81565b612641565b005b6103ae60048036038101906103a991906149dc565b612657565b6040516103bb9190614745565b60405180910390f35b6103cc612695565b6040516103d99190614745565b60405180910390f35b6103fc60048036038101906103f79190614fc1565b61269a565b604051610409919061503a565b60405180910390f35b61041a612718565b6040516104279190614745565b60405180910390f35b61043861271d565b6040516104459190614745565b60405180910390f35b610456612722565b6040516104639190614745565b60405180910390f35b61048660048036038101906104819190615081565b612727565b005b6104a2600480360381019061049d9190615162565b612e92565b005b6104be60048036038101906104b991906151ab565b613255565b6040516104cb9190614800565b60405180910390f35b6104ee60048036038101906104e991906151eb565b6132e9565b005b61050a600480360381019061050591906149dc565b6132fd565b005b60008073ffffffffffffffffffffffffffffffffffffffff168373ffffffffffffffffffffffffffffffffffffffff160361057c576040517f08c379a0000000000000000000000000000000000000000000000000000000008152600401610573906152f4565b60405180910390fd5b60008083815260200190815260200160002060008473ffffffffffffffffffffffffffffffffffffffff1673ffffffffffffffffffffffffffffffffffffffff16815260200190815260200160002054905092915050565b60007fd9b67a26000000000000000000000000000000000000000000000000000000007bffffffffffffffffffffffffffffffffffffffffffffffffffffffff1916827bffffffffffffffffffffffffffffffffffffffffffffffffffffffff1916148061069f57507f0e89341c000000000000000000000000000000000000000000000000000000007bffffffffffffffffffffffffffffffffffffffffffffffffffffffff1916827bffffffffffffffffffffffffffffffffffffffffffffffffffffffff1916145b806106af57506106ae82613380565b5b9050919050565b60001515600460003373ffffffffffffffffffffffffffffffffffffffff1673ffffffffffffffffffffffffffffffffffffffff16815260200190815260200160002060009054906101000a900460ff16151503610740576040517f2a645edb00000000000000000000000000000000000000000000000000000000815260040160405180910390fd5b600560008373ffffffffffffffffffffffffffffffffffffffff1673ffffffffffffffffffffffffffffffffffffffff16815260200190815260200160002060003373ffffffffffffffffffffffffffffffffffffffff1673ffffffffffffffffffffffffffffffffffffffff16815260200190815260200160002060020160009054906101000a900460ff16610803576040517fa2aa7d6500000000000000000000000000000000000000000000000000000000815260040160405180910390fd5b60001515600460008473ffffffffffffffffffffffffffffffffffffffff1673ffffffffffffffffffffffffffffffffffffffff16815260200190815260200160002060009054906101000a900460ff1615150361095857600560008373ffffffffffffffffffffffffffffffffffffffff1673ffffffffffffffffffffffffffffffffffffffff16815260200190815260200160002060003373ffffffffffffffffffffffffffffffffffffffff1673ffffffffffffffffffffffffffffffffffffffff16815260200190815260200160002060008082016000905560018201600090556002820160006101000a81549060ff02191690556002820160016101000a81549060ff0219169055600382016000905550507f5db717b8d3c4f24e2364d373a33ce6c2cbca992bd54a1b7f88a82bbe04699a04823360405161094b929190615314565b60405180910390a1610d10565b60018110806109675750600381115b1561099e576040517f5968cdba00000000000000000000000000000000000000000000000000000000815260040160405180910390fd5b8173ffffffffffffffffffffffffffffffffffffffff163373ffffffffffffffffffffffffffffffffffffffff1603610a03576040517f6fcb561000000000000000000000000000000000000000000000000000000000815260040160405180910390fd5b6001600660003373ffffffffffffffffffffffffffffffffffffffff1673ffffffffffffffffffffffffffffffffffffffff16815260200190815260200160002054610a4e33612657565b610a58919061536c565b1015610a90576040517f3fb13d7100000000000000000000000000000000000000000000000000000000815260040160405180910390fd5b6001600660003373ffffffffffffffffffffffffffffffffffffffff1673ffffffffffffffffffffffffffffffffffffffff16815260200190815260200160002054610add33600061050c565b610ae7919061536c565b1015610b1f576040517f6ac7a1ce00000000000000000000000000000000000000000000000000000000815260040160405180910390fd5b6001610b2b338361050c565b1015610b63576040517fb59dc6be00000000000000000000000000000000000000000000000000000000815260040160405180910390fd5b80600560003373ffffffffffffffffffffffffffffffffffffffff1673ffffffffffffffffffffffffffffffffffffffff16815260200190815260200160002060008473ffffffffffffffffffffffffffffffffffffffff1673ffffffffffffffffffffffffffffffffffffffff168152602001908152602001600020600101819055506001600560003373ffffffffffffffffffffffffffffffffffffffff1673ffffffffffffffffffffffffffffffffffffffff16815260200190815260200160002060008473ffffffffffffffffffffffffffffffffffffffff1673ffffffffffffffffffffffffffffffffffffffff16815260200190815260200160002060020160006101000a81548160ff0219169083151502179055506001600660003373ffffffffffffffffffffffffffffffffffffffff1673ffffffffffffffffffffffffffffffffffffffff1681526020019081526020016000206000828254610ccf91906153a0565b925050819055507ff9f96df79c431e54c117519d8a46c546ec0070ec3dc10e01eee8079025407fc38233604051610d07929190615314565b60405180910390a15b5050565b60001515600460003373ffffffffffffffffffffffffffffffffffffffff1673ffffffffffffffffffffffffffffffffffffffff16815260200190815260200160002060009054906101000a900460ff16151503610d9e576040517f2a645edb00000000000000000000000000000000000000000000000000000000815260040160405180910390fd5b6001831080610dad5750600383115b15610de4576040517f5968cdba00000000000000000000000000000000000000000000000000000000815260040160405180910390fd5b600560008573ffffffffffffffffffffffffffffffffffffffff1673ffffffffffffffffffffffffffffffffffffffff16815260200190815260200160002060003373ffffffffffffffffffffffffffffffffffffffff1673ffffffffffffffffffffffffffffffffffffffff16815260200190815260200160002060020160009054906101000a900460ff16610ea7576040517fa2aa7d6500000000000000000000000000000000000000000000000000000000815260040160405180910390fd5b600560003373ffffffffffffffffffffffffffffffffffffffff1673ffffffffffffffffffffffffffffffffffffffff16815260200190815260200160002060008573ffffffffffffffffffffffffffffffffffffffff1673ffffffffffffffffffffffffffffffffffffffff16815260200190815260200160002060020160009054906101000a900460ff16610f6a576040517f38df4cfd00000000000000000000000000000000000000000000000000000000815260040160405180910390fd5b60001515600460008673ffffffffffffffffffffffffffffffffffffffff1673ffffffffffffffffffffffffffffffffffffffff16815260200190815260200160002060009054906101000a900460ff161515036111d557600560008573ffffffffffffffffffffffffffffffffffffffff1673ffffffffffffffffffffffffffffffffffffffff16815260200190815260200160002060003373ffffffffffffffffffffffffffffffffffffffff1673ffffffffffffffffffffffffffffffffffffffff16815260200190815260200160002060008082016000905560018201600090556002820160006101000a81549060ff02191690556002820160016101000a81549060ff021916905560038201600090555050600560003373ffffffffffffffffffffffffffffffffffffffff1673ffffffffffffffffffffffffffffffffffffffff16815260200190815260200160002060008573ffffffffffffffffffffffffffffffffffffffff1673ffffffffffffffffffffffffffffffffffffffff16815260200190815260200160002060008082016000905560018201600090556002820160006101000a81549060ff02191690556002820160016101000a81549060ff0219169055600382016000905550506001600660003373ffffffffffffffffffffffffffffffffffffffff1673ffffffffffffffffffffffffffffffffffffffff1681526020019081526020016000206000828254611190919061536c565b925050819055507f5db717b8d3c4f24e2364d373a33ce6c2cbca992bd54a1b7f88a82bbe04699a0433856040516111c8929190615314565b60405180910390a1611d6a565b8373ffffffffffffffffffffffffffffffffffffffff163373ffffffffffffffffffffffffffffffffffffffff160361123a576040517f6fcb561000000000000000000000000000000000000000000000000000000000815260040160405180910390fd5b6000600560003373ffffffffffffffffffffffffffffffffffffffff1673ffffffffffffffffffffffffffffffffffffffff16815260200190815260200160002060008673ffffffffffffffffffffffffffffffffffffffff1673ffffffffffffffffffffffffffffffffffffffff168152602001908152602001600020600001546112c785858561269a565b1480156112dd575060006112db338661050c565b115b156112ea57839050611490565b600560003373ffffffffffffffffffffffffffffffffffffffff1673ffffffffffffffffffffffffffffffffffffffff16815260200190815260200160002060008673ffffffffffffffffffffffffffffffffffffffff1673ffffffffffffffffffffffffffffffffffffffff16815260200190815260200160002060020160019054906101000a900460ff16611452576001600560003373ffffffffffffffffffffffffffffffffffffffff1673ffffffffffffffffffffffffffffffffffffffff16815260200190815260200160002060008773ffffffffffffffffffffffffffffffffffffffff1673ffffffffffffffffffffffffffffffffffffffff16815260200190815260200160002060020160016101000a81548160ff0219169083151502179055507fee8073309115c3729855de26aad26354a4fdcd6fca9d4579b19cdd0d23b56b5f3386604051611444929190615314565b60405180910390a150611d6a565b7fad945360a905bcba857c54948aea8291bbd84165fe204dd1adfb591ad9a3af483386604051611483929190615314565b60405180910390a1600090505b6000600560008773ffffffffffffffffffffffffffffffffffffffff1673ffffffffffffffffffffffffffffffffffffffff16815260200190815260200160002060003373ffffffffffffffffffffffffffffffffffffffff1673ffffffffffffffffffffffffffffffffffffffff16815260200190815260200160002060010154905060006001611522338561050c565b101561152d57600092505b6001611539888461050c565b101561154457600091505b6000831480156115545750600082145b156115625760049050611683565b600083036115735760039050611682565b600082036115845760059050611681565b8183036115945760019050611680565b6001831480156115a45750600382145b156115b2576002905061167f565b6003831480156115c25750600282145b156115d0576002905061167e565b6002831480156115e05750600182145b156115ee576002905061167d565b6001831480156115fe5750600282145b1561160c576000905061167c565b60028314801561161c5750600382145b1561162a576000905061167b565b60038314801561163a5750600182145b15611648576000905061167a565b6040517f4fc4919600000000000000000000000000000000000000000000000000000000815260040160405180910390fd5b5b5b5b5b5b5b5b5b5b60036005811115611697576116966153f6565b5b8160058111156116aa576116a96153f6565b5b036116f9576116bb878360016133ea565b7f86bd36c89fc7071c548b2f2c73da0b94f09020cd866d2f9da1135e427be8aa8733846040516116ec929190615425565b60405180910390a1611788565b60058081111561170c5761170b6153f6565b5b81600581111561171f5761171e6153f6565b5b0361176e57611730338460016133ea565b7f86bd36c89fc7071c548b2f2c73da0b94f09020cd866d2f9da1135e427be8aa878783604051611761929190615425565b60405180910390a1611787565b61177a338460016133ea565b611786878360016133ea565b5b5b6000600581111561179c5761179b6153f6565b5b8160058111156117af576117ae6153f6565b5b14806117df5750600360058111156117ca576117c96153f6565b5b8160058111156117dd576117dc6153f6565b5b145b156118c7576117f133600060016133ea565b6118898760006001600880546118069061547d565b80601f01602080910402602001604051908101604052809291908181526020018280546118329061547d565b801561187f5780601f106118545761010080835404028352916020019161187f565b820191906000526020600020905b81548152906001019060200180831161186257829003601f168201915b5050505050613630565b7fce9b0424e0b422537c46eab63a90a1a32a39403bd68139bf3c7d71918e4c8e90338489856040516118be94939291906154ae565b60405180910390a15b600260058111156118db576118da6153f6565b5b8160058111156118ee576118ed6153f6565b5b148061191d5750600580811115611908576119076153f6565b5b81600581111561191b5761191a6153f6565b5b145b15611a055761192f87600060016133ea565b6119c73360006001600880546119449061547d565b80601f01602080910402602001604051908101604052809291908181526020018280546119709061547d565b80156119bd5780601f10611992576101008083540402835291602001916119bd565b820191906000526020600020905b8154815290600101906020018083116119a057829003601f168201915b5050505050613630565b7f1cb4919468664ff4814439a36d46548b40cabf91a99cbc3f2e821cbaddd5def5338489856040516119fc94939291906154ae565b60405180910390a15b60046005811115611a1957611a186153f6565b5b816005811115611a2c57611a2b6153f6565b5b03611abe57611a3e33600060016133ea565b611a4b87600060016133ea565b7f86bd36c89fc7071c548b2f2c73da0b94f09020cd866d2f9da1135e427be8aa873384604051611a7c929190615425565b60405180910390a17f86bd36c89fc7071c548b2f2c73da0b94f09020cd866d2f9da1135e427be8aa878783604051611ab5929190615425565b60405180910390a15b60016005811115611ad257611ad16153f6565b5b816005811115611ae557611ae46153f6565b5b03611b28577fecd650a7aba0abd1c6a38d6972d75c6267162e1a06197e3d4ecd751fc5ed23ba33848985604051611b1f94939291906154ae565b60405180910390a15b600560003373ffffffffffffffffffffffffffffffffffffffff1673ffffffffffffffffffffffffffffffffffffffff16815260200190815260200160002060008873ffffffffffffffffffffffffffffffffffffffff1673ffffffffffffffffffffffffffffffffffffffff16815260200190815260200160002060008082016000905560018201600090556002820160006101000a81549060ff02191690556002820160016101000a81549060ff021916905560038201600090555050600560008873ffffffffffffffffffffffffffffffffffffffff1673ffffffffffffffffffffffffffffffffffffffff16815260200190815260200160002060003373ffffffffffffffffffffffffffffffffffffffff1673ffffffffffffffffffffffffffffffffffffffff16815260200190815260200160002060008082016000905560018201600090556002820160006101000a81549060ff02191690556002820160016101000a81549060ff0219169055600382016000905550506001600660003373ffffffffffffffffffffffffffffffffffffffff1673ffffffffffffffffffffffffffffffffffffffff1681526020019081526020016000206000828254611cf6919061536c565b925050819055506001600660008973ffffffffffffffffffffffffffffffffffffffff1673ffffffffffffffffffffffffffffffffffffffff1681526020019081526020016000206000828254611d4d919061536c565b92505081905550611d5d3361366c565b611d668761366c565b5050505b50505050565b606060028054611d7f9061547d565b80601f0160208091040260200160405190810160405280929190818152602001828054611dab9061547d565b8015611df85780601f10611dcd57610100808354040283529160200191611df8565b820191906000526020600020905b815481529060010190602001808311611ddb57829003601f168201915b50505050509050919050565b600560003373ffffffffffffffffffffffffffffffffffffffff1673ffffffffffffffffffffffffffffffffffffffff16815260200190815260200160002060008273ffffffffffffffffffffffffffffffffffffffff1673ffffffffffffffffffffffffffffffffffffffff16815260200190815260200160002060020160009054906101000a900460ff16611ec7576040517fa2aa7d6500000000000000000000000000000000000000000000000000000000815260040160405180910390fd5b600560003373ffffffffffffffffffffffffffffffffffffffff1673ffffffffffffffffffffffffffffffffffffffff16815260200190815260200160002060008273ffffffffffffffffffffffffffffffffffffffff1673ffffffffffffffffffffffffffffffffffffffff16815260200190815260200160002060008082016000905560018201600090556002820160006101000a81549060ff02191690556002820160016101000a81549060ff0219169055600382016000905550506001600660003373ffffffffffffffffffffffffffffffffffffffff1673ffffffffffffffffffffffffffffffffffffffff1681526020019081526020016000206000828254611fd6919061536c565b925050819055507f9cf1d1a93d4bc09874aa208d080b49ac77aa9b9e64dd8bdac9f6f1f9d814fc00813360405161200e929190615314565b60405180910390a150565b60076020528060005260406000206000915090505481565b600560003373ffffffffffffffffffffffffffffffffffffffff1673ffffffffffffffffffffffffffffffffffffffff16815260200190815260200160002060008273ffffffffffffffffffffffffffffffffffffffff1673ffffffffffffffffffffffffffffffffffffffff16815260200190815260200160002060020160009054906101000a900460ff166120f4576040517fa2aa7d6500000000000000000000000000000000000000000000000000000000815260040160405180910390fd5b600560008273ffffffffffffffffffffffffffffffffffffffff1673ffffffffffffffffffffffffffffffffffffffff16815260200190815260200160002060003373ffffffffffffffffffffffffffffffffffffffff1673ffffffffffffffffffffffffffffffffffffffff16815260200190815260200160002060020160009054906101000a900460ff16156121b8576040517ff14a88ec00000000000000000000000000000000000000000000000000000000815260040160405180910390fd5b600560003373ffffffffffffffffffffffffffffffffffffffff1673ffffffffffffffffffffffffffffffffffffffff16815260200190815260200160002060008273ffffffffffffffffffffffffffffffffffffffff1673ffffffffffffffffffffffffffffffffffffffff16815260200190815260200160002060008082016000905560018201600090556002820160006101000a81549060ff02191690556002820160016101000a81549060ff0219169055600382016000905550506001600660003373ffffffffffffffffffffffffffffffffffffffff1673ffffffffffffffffffffffffffffffffffffffff16815260200190815260200160002060008282546122c7919061536c565b925050819055507fcd3475a4ad944ce13610e120913425666d26ba8dcd71547c5180173424a8287c33826040516122ff929190615314565b60405180910390a150565b61231785858585856137cf565b5050505050565b60608151835114612364576040517f08c379a000000000000000000000000000000000000000000000000000000000815260040161235b90615565565b60405180910390fd5b6000835167ffffffffffffffff81111561238157612380614a09565b5b6040519080825280602002602001820160405280156123af5781602001602082028036833780820191505090505b50905060005b845181101561242c576123fc8582815181106123d4576123d3615585565b5b60200260200101518583815181106123ef576123ee615585565b5b602002602001015161050c565b82828151811061240f5761240e615585565b5b60200260200101818152505080612425906155b4565b90506123b5565b508091505092915050565b60008060008061244885600061050c565b61245386600161050c565b61245e87600261050c565b61246988600361050c565b93509350935093509193509193565b612480613af0565b61248a6000613b6e565b565b60008060008061249b33612437565b935093509350935090919293565b60006124b433612657565b11156124ec576040517f7ce8de2400000000000000000000000000000000000000000000000000000000815260040160405180910390fd5b60036124f933600061050c565b1015612531576040517fbfe0f5c600000000000000000000000000000000000000000000000000000000815260040160405180910390fd5b61254733600061254233600061050c565b6133ea565b6000600460003373ffffffffffffffffffffffffffffffffffffffff1673ffffffffffffffffffffffffffffffffffffffff16815260200190815260200160002060006101000a81548160ff0219169083151502179055507f3e73e523f34a5ca25bee44a76e449c7de4b5c06dbdfc679c07f27f27a2e42261336040516125ce9190614f3a565b60405180910390a17f282b6298c0318f5d7d7f2483a6823972bdbe9d2798bcfe461159151be7d7b969336040516126059190614f3a565b60405180910390a1565b600047905090565b6000600360009054906101000a900473ffffffffffffffffffffffffffffffffffffffff16905090565b61265361264c613c34565b8383613c3c565b5050565b600061266482600361050c565b61266f83600261050c565b61267a84600161050c565b61268491906153a0565b61268e91906153a0565b9050919050565b600081565b600060018410806126ab5750600384115b156126e2576040517f5968cdba00000000000000000000000000000000000000000000000000000000815260040160405180910390fd5b338484846040516020016126f99493929190615695565b6040516020818303038152906040528051906020012090509392505050565b600381565b600181565b600281565b60001515600460003373ffffffffffffffffffffffffffffffffffffffff1673ffffffffffffffffffffffffffffffffffffffff16815260200190815260200160002060009054906101000a900460ff161515036127b1576040517f2a645edb00000000000000000000000000000000000000000000000000000000815260040160405180910390fd5b8173ffffffffffffffffffffffffffffffffffffffff163373ffffffffffffffffffffffffffffffffffffffff1603612816576040517f6fcb561000000000000000000000000000000000000000000000000000000000815260040160405180910390fd5b600061282333600061050c565b0361285a576040517f32a07fb500000000000000000000000000000000000000000000000000000000815260040160405180910390fd5b600061286533612657565b0361289c576040517ff0b8343800000000000000000000000000000000000000000000000000000000815260040160405180910390fd5b60006128a983600061050c565b036128e0576040517f32a07fb500000000000000000000000000000000000000000000000000000000815260040160405180910390fd5b60006128eb83612657565b03612922576040517ff0b8343800000000000000000000000000000000000000000000000000000000815260040160405180910390fd5b6001600660003373ffffffffffffffffffffffffffffffffffffffff1673ffffffffffffffffffffffffffffffffffffffff1681526020019081526020016000205461296d33612657565b612977919061536c565b10156129af576040517f3fb13d7100000000000000000000000000000000000000000000000000000000815260040160405180910390fd5b6001600660003373ffffffffffffffffffffffffffffffffffffffff1673ffffffffffffffffffffffffffffffffffffffff168152602001908152602001600020546129fc33600061050c565b612a06919061536c565b1015612a3e576040517f6ac7a1ce00000000000000000000000000000000000000000000000000000000815260040160405180910390fd5b6001600660008473ffffffffffffffffffffffffffffffffffffffff1673ffffffffffffffffffffffffffffffffffffffff16815260200190815260200160002054612a8984612657565b612a93919061536c565b1015612acb576040517f3fb13d7100000000000000000000000000000000000000000000000000000000815260040160405180910390fd5b6001600660008473ffffffffffffffffffffffffffffffffffffffff1673ffffffffffffffffffffffffffffffffffffffff16815260200190815260200160002054612b1884600061050c565b612b22919061536c565b1015612b5a576040517f6ac7a1ce00000000000000000000000000000000000000000000000000000000815260040160405180910390fd5b600560008373ffffffffffffffffffffffffffffffffffffffff1673ffffffffffffffffffffffffffffffffffffffff16815260200190815260200160002060003373ffffffffffffffffffffffffffffffffffffffff1673ffffffffffffffffffffffffffffffffffffffff16815260200190815260200160002060020160009054906101000a900460ff1615612c1e576040517f0becbe0d00000000000000000000000000000000000000000000000000000000815260040160405180910390fd5b600560003373ffffffffffffffffffffffffffffffffffffffff1673ffffffffffffffffffffffffffffffffffffffff16815260200190815260200160002060008373ffffffffffffffffffffffffffffffffffffffff1673ffffffffffffffffffffffffffffffffffffffff16815260200190815260200160002060020160009054906101000a900460ff1615612ce2576040517f0becbe0d00000000000000000000000000000000000000000000000000000000815260040160405180910390fd5b80600560003373ffffffffffffffffffffffffffffffffffffffff1673ffffffffffffffffffffffffffffffffffffffff16815260200190815260200160002060008473ffffffffffffffffffffffffffffffffffffffff1673ffffffffffffffffffffffffffffffffffffffff168152602001908152602001600020600001819055506001600560003373ffffffffffffffffffffffffffffffffffffffff1673ffffffffffffffffffffffffffffffffffffffff16815260200190815260200160002060008473ffffffffffffffffffffffffffffffffffffffff1673ffffffffffffffffffffffffffffffffffffffff16815260200190815260200160002060020160006101000a81548160ff0219169083151502179055506001600660003373ffffffffffffffffffffffffffffffffffffffff1673ffffffffffffffffffffffffffffffffffffffff1681526020019081526020016000206000828254612e4e91906153a0565b925050819055507fa3bf888d12bc12843a9f7e2696a235c1965193c71ae15cf751e5abcf05d709c23383604051612e86929190615314565b60405180910390a15050565b60011515600460003373ffffffffffffffffffffffffffffffffffffffff1673ffffffffffffffffffffffffffffffffffffffff16815260200190815260200160002060009054906101000a900460ff16151503612f1c576040517fb4b038b200000000000000000000000000000000000000000000000000000000815260040160405180910390fd5b6001600460003373ffffffffffffffffffffffffffffffffffffffff1673ffffffffffffffffffffffffffffffffffffffff16815260200190815260200160002060006101000a81548160ff0219169083151502179055506000600660003373ffffffffffffffffffffffffffffffffffffffff1673ffffffffffffffffffffffffffffffffffffffff168152602001908152602001600020819055507fb46af3c568709a25575d501b270c4768aef802b1e39fb922a8f21cb385e2ae9b3382604051612fea9291906156d0565b60405180910390a161308a3360016004600880546130079061547d565b80601f01602080910402602001604051908101604052809291908181526020018280546130339061547d565b80156130805780601f1061305557610100808354040283529160200191613080565b820191906000526020600020905b81548152906001019060200180831161306357829003601f168201915b5050505050613630565b61312233600260046008805461309f9061547d565b80601f01602080910402602001604051908101604052809291908181526020018280546130cb9061547d565b80156131185780601f106130ed57610100808354040283529160200191613118565b820191906000526020600020905b8154815290600101906020018083116130fb57829003601f168201915b5050505050613630565b6131ba3360036004600880546131379061547d565b80601f01602080910402602001604051908101604052809291908181526020018280546131639061547d565b80156131b05780601f10613185576101008083540402835291602001916131b0565b820191906000526020600020905b81548152906001019060200180831161319357829003601f168201915b5050505050613630565b6132523360006003600880546131cf9061547d565b80601f01602080910402602001604051908101604052809291908181526020018280546131fb9061547d565b80156132485780601f1061321d57610100808354040283529160200191613248565b820191906000526020600020905b81548152906001019060200180831161322b57829003601f168201915b5050505050613630565b50565b6000600160008473ffffffffffffffffffffffffffffffffffffffff1673ffffffffffffffffffffffffffffffffffffffff16815260200190815260200160002060008373ffffffffffffffffffffffffffffffffffffffff1673ffffffffffffffffffffffffffffffffffffffff16815260200190815260200160002060009054906101000a900460ff16905092915050565b6132f68585858585613da8565b5050505050565b613305613af0565b600073ffffffffffffffffffffffffffffffffffffffff168173ffffffffffffffffffffffffffffffffffffffff1603613374576040517f08c379a000000000000000000000000000000000000000000000000000000000815260040161336b90615772565b60405180910390fd5b61337d81613b6e565b50565b60007f01ffc9a7000000000000000000000000000000000000000000000000000000007bffffffffffffffffffffffffffffffffffffffffffffffffffffffff1916827bffffffffffffffffffffffffffffffffffffffffffffffffffffffff1916149050919050565b600073ffffffffffffffffffffffffffffffffffffffff168373ffffffffffffffffffffffffffffffffffffffff1603613459576040517f08c379a000000000000000000000000000000000000000000000000000000000815260040161345090615804565b60405180910390fd5b6000613463613c34565b9050600061347084614043565b9050600061347d84614043565b905061349d838760008585604051806020016040528060008152506140bd565b600080600087815260200190815260200160002060008873ffffffffffffffffffffffffffffffffffffffff1673ffffffffffffffffffffffffffffffffffffffff16815260200190815260200160002054905084811015613534576040517f08c379a000000000000000000000000000000000000000000000000000000000815260040161352b90615896565b60405180910390fd5b84810360008088815260200190815260200160002060008973ffffffffffffffffffffffffffffffffffffffff1673ffffffffffffffffffffffffffffffffffffffff16815260200190815260200160002081905550600073ffffffffffffffffffffffffffffffffffffffff168773ffffffffffffffffffffffffffffffffffffffff168573ffffffffffffffffffffffffffffffffffffffff167fc3d58168c5ae7397731d063d5bbf3d657854427343f4c083240f7aacaa2d0f6289896040516136019291906158b6565b60405180910390a4613627848860008686604051806020016040528060008152506140c5565b50505050505050565b61363c848484846140cd565b8160076000858152602001908152602001600020600082825461365f91906153a0565b9250508190555050505050565b600061367982600061050c565b036137cc57600061368b82600061050c565b11156136c3576040517f0ad200f800000000000000000000000000000000000000000000000000000000815260040160405180910390fd5b6136d98160016136d484600161050c565b6133ea565b6136ef8160026136ea84600261050c565b6133ea565b61370581600361370084600361050c565b6133ea565b6000600460008373ffffffffffffffffffffffffffffffffffffffff1673ffffffffffffffffffffffffffffffffffffffff16815260200190815260200160002060006101000a81548160ff0219169083151502179055507f9ab74d043ba19fd15c3afcaf30decddeff525822b002d45e80c80ac800d41a298160405161378c9190614f3a565b60405180910390a17f282b6298c0318f5d7d7f2483a6823972bdbe9d2798bcfe461159151be7d7b969816040516137c39190614f3a565b60405180910390a15b50565b8151835114613813576040517f08c379a000000000000000000000000000000000000000000000000000000000815260040161380a90615951565b60405180910390fd5b600073ffffffffffffffffffffffffffffffffffffffff168473ffffffffffffffffffffffffffffffffffffffff1603613882576040517f08c379a0000000000000000000000000000000000000000000000000000000008152600401613879906159e3565b60405180910390fd5b600061388c613c34565b905061389c8187878787876140bd565b60005b8451811015613a4d5760008582815181106138bd576138bc615585565b5b6020026020010151905060008583815181106138dc576138db615585565b5b60200260200101519050600080600084815260200190815260200160002060008b73ffffffffffffffffffffffffffffffffffffffff1673ffffffffffffffffffffffffffffffffffffffff1681526020019081526020016000205490508181101561397d576040517f08c379a000000000000000000000000000000000000000000000000000000000815260040161397490615a75565b60405180910390fd5b81810360008085815260200190815260200160002060008c73ffffffffffffffffffffffffffffffffffffffff1673ffffffffffffffffffffffffffffffffffffffff168152602001908152602001600020819055508160008085815260200190815260200160002060008b73ffffffffffffffffffffffffffffffffffffffff1673ffffffffffffffffffffffffffffffffffffffff1681526020019081526020016000206000828254613a3291906153a0565b9250508190555050505080613a46906155b4565b905061389f565b508473ffffffffffffffffffffffffffffffffffffffff168673ffffffffffffffffffffffffffffffffffffffff168273ffffffffffffffffffffffffffffffffffffffff167f4a39dc06d4c0dbc64b70af90fd698a233a518aa5d07e595d983b8c0526c8f7fb8787604051613ac4929190615a95565b60405180910390a4613ada8187878787876140c5565b613ae881878787878761427d565b505050505050565b613af8613c34565b73ffffffffffffffffffffffffffffffffffffffff16613b16612617565b73ffffffffffffffffffffffffffffffffffffffff1614613b6c576040517f08c379a0000000000000000000000000000000000000000000000000000000008152600401613b6390615b18565b60405180910390fd5b565b6000600360009054906101000a900473ffffffffffffffffffffffffffffffffffffffff16905081600360006101000a81548173ffffffffffffffffffffffffffffffffffffffff021916908373ffffffffffffffffffffffffffffffffffffffff1602179055508173ffffffffffffffffffffffffffffffffffffffff168173ffffffffffffffffffffffffffffffffffffffff167f8be0079c531659141344cd1fd0a4f28419497f9722a3daafe3b4186f6b6457e060405160405180910390a35050565b600033905090565b8173ffffffffffffffffffffffffffffffffffffffff168373ffffffffffffffffffffffffffffffffffffffff1603613caa576040517f08c379a0000000000000000000000000000000000000000000000000000000008152600401613ca190615baa565b60405180910390fd5b80600160008573ffffffffffffffffffffffffffffffffffffffff1673ffffffffffffffffffffffffffffffffffffffff16815260200190815260200160002060008473ffffffffffffffffffffffffffffffffffffffff1673ffffffffffffffffffffffffffffffffffffffff16815260200190815260200160002060006101000a81548160ff0219169083151502179055508173ffffffffffffffffffffffffffffffffffffffff168373ffffffffffffffffffffffffffffffffffffffff167f17307eab39ab6107e8899845ad3d59bd9653f200f220920489ca2b5937696c3183604051613d9b9190614800565b60405180910390a3505050565b600073ffffffffffffffffffffffffffffffffffffffff168473ffffffffffffffffffffffffffffffffffffffff1603613e17576040517f08c379a0000000000000000000000000000000000000000000000000000000008152600401613e0e906159e3565b60405180910390fd5b6000613e21613c34565b90506000613e2e85614043565b90506000613e3b85614043565b9050613e4b8389898585896140bd565b600080600088815260200190815260200160002060008a73ffffffffffffffffffffffffffffffffffffffff1673ffffffffffffffffffffffffffffffffffffffff16815260200190815260200160002054905085811015613ee2576040517f08c379a0000000000000000000000000000000000000000000000000000000008152600401613ed990615a75565b60405180910390fd5b85810360008089815260200190815260200160002060008b73ffffffffffffffffffffffffffffffffffffffff1673ffffffffffffffffffffffffffffffffffffffff168152602001908152602001600020819055508560008089815260200190815260200160002060008a73ffffffffffffffffffffffffffffffffffffffff1673ffffffffffffffffffffffffffffffffffffffff1681526020019081526020016000206000828254613f9791906153a0565b925050819055508773ffffffffffffffffffffffffffffffffffffffff168973ffffffffffffffffffffffffffffffffffffffff168573ffffffffffffffffffffffffffffffffffffffff167fc3d58168c5ae7397731d063d5bbf3d657854427343f4c083240f7aacaa2d0f628a8a6040516140149291906158b6565b60405180910390a461402a848a8a86868a6140c5565b614038848a8a8a8a8a614454565b505050505050505050565b60606000600167ffffffffffffffff81111561406257614061614a09565b5b6040519080825280602002602001820160405280156140905781602001602082028036833780820191505090505b50905082816000815181106140a8576140a7615585565b5b60200260200101818152505080915050919050565b505050505050565b505050505050565b600073ffffffffffffffffffffffffffffffffffffffff168473ffffffffffffffffffffffffffffffffffffffff160361413c576040517f08c379a000000000000000000000000000000000000000000000000000000000815260040161413390615c3c565b60405180910390fd5b6000614146613c34565b9050600061415385614043565b9050600061416085614043565b9050614171836000898585896140bd565b8460008088815260200190815260200160002060008973ffffffffffffffffffffffffffffffffffffffff1673ffffffffffffffffffffffffffffffffffffffff16815260200190815260200160002060008282546141d091906153a0565b925050819055508673ffffffffffffffffffffffffffffffffffffffff16600073ffffffffffffffffffffffffffffffffffffffff168473ffffffffffffffffffffffffffffffffffffffff167fc3d58168c5ae7397731d063d5bbf3d657854427343f4c083240f7aacaa2d0f62898960405161424e9291906158b6565b60405180910390a4614265836000898585896140c5565b61427483600089898989614454565b50505050505050565b61429c8473ffffffffffffffffffffffffffffffffffffffff1661462b565b1561444c578373ffffffffffffffffffffffffffffffffffffffff1663bc197c8187878686866040518663ffffffff1660e01b81526004016142e2959493929190615cb1565b6020604051808303816000875af192505050801561431e57506040513d601f19601f8201168201806040525081019061431b9190615d2e565b60015b6143c35761432a615d68565b806308c379a003614386575061433e615d8a565b806143495750614388565b806040517f08c379a000000000000000000000000000000000000000000000000000000000815260040161437d91906149ba565b60405180910390fd5b505b6040517f08c379a00000000000000000000000000000000000000000000000000000000081526004016143ba90615e8c565b60405180910390fd5b63bc197c8160e01b7bffffffffffffffffffffffffffffffffffffffffffffffffffffffff1916817bffffffffffffffffffffffffffffffffffffffffffffffffffffffff19161461444a576040517f08c379a000000000000000000000000000000000000000000000000000000000815260040161444190615f1e565b60405180910390fd5b505b505050505050565b6144738473ffffffffffffffffffffffffffffffffffffffff1661462b565b15614623578373ffffffffffffffffffffffffffffffffffffffff1663f23a6e6187878686866040518663ffffffff1660e01b81526004016144b9959493929190615f3e565b6020604051808303816000875af19250505080156144f557506040513d601f19601f820116820180604052508101906144f29190615d2e565b60015b61459a57614501615d68565b806308c379a00361455d5750614515615d8a565b80614520575061455f565b806040517f08c379a000000000000000000000000000000000000000000000000000000000815260040161455491906149ba565b60405180910390fd5b505b6040517f08c379a000000000000000000000000000000000000000000000000000000000815260040161459190615e8c565b60405180910390fd5b63f23a6e6160e01b7bffffffffffffffffffffffffffffffffffffffffffffffffffffffff1916817bffffffffffffffffffffffffffffffffffffffffffffffffffffffff191614614621576040517f08c379a000000000000000000000000000000000000000000000000000000000815260040161461890615f1e565b60405180910390fd5b505b505050505050565b6000808273ffffffffffffffffffffffffffffffffffffffff163b119050919050565b6000604051905090565b600080fd5b600080fd5b600073ffffffffffffffffffffffffffffffffffffffff82169050919050565b600061468d82614662565b9050919050565b61469d81614682565b81146146a857600080fd5b50565b6000813590506146ba81614694565b92915050565b6000819050919050565b6146d3816146c0565b81146146de57600080fd5b50565b6000813590506146f0816146ca565b92915050565b6000806040838503121561470d5761470c614658565b5b600061471b858286016146ab565b925050602061472c858286016146e1565b9150509250929050565b61473f816146c0565b82525050565b600060208201905061475a6000830184614736565b92915050565b60007fffffffff0000000000000000000000000000000000000000000000000000000082169050919050565b61479581614760565b81146147a057600080fd5b50565b6000813590506147b28161478c565b92915050565b6000602082840312156147ce576147cd614658565b5b60006147dc848285016147a3565b91505092915050565b60008115159050919050565b6147fa816147e5565b82525050565b600060208201905061481560008301846147f1565b92915050565b600080fd5b600080fd5b600080fd5b60008083601f8401126148405761483f61481b565b5b8235905067ffffffffffffffff81111561485d5761485c614820565b5b60208301915083600182028301111561487957614878614825565b5b9250929050565b6000806000806060858703121561489a57614899614658565b5b60006148a8878288016146ab565b94505060206148b9878288016146e1565b935050604085013567ffffffffffffffff8111156148da576148d961465d565b5b6148e68782880161482a565b925092505092959194509250565b60006020828403121561490a57614909614658565b5b6000614918848285016146e1565b91505092915050565b600081519050919050565b600082825260208201905092915050565b60005b8381101561495b578082015181840152602081019050614940565b8381111561496a576000848401525b50505050565b6000601f19601f8301169050919050565b600061498c82614921565b614996818561492c565b93506149a681856020860161493d565b6149af81614970565b840191505092915050565b600060208201905081810360008301526149d48184614981565b905092915050565b6000602082840312156149f2576149f1614658565b5b6000614a00848285016146ab565b91505092915050565b7f4e487b7100000000000000000000000000000000000000000000000000000000600052604160045260246000fd5b614a4182614970565b810181811067ffffffffffffffff82111715614a6057614a5f614a09565b5b80604052505050565b6000614a7361464e565b9050614a7f8282614a38565b919050565b600067ffffffffffffffff821115614a9f57614a9e614a09565b5b602082029050602081019050919050565b6000614ac3614abe84614a84565b614a69565b90508083825260208201905060208402830185811115614ae657614ae5614825565b5b835b81811015614b0f5780614afb88826146e1565b845260208401935050602081019050614ae8565b5050509392505050565b600082601f830112614b2e57614b2d61481b565b5b8135614b3e848260208601614ab0565b91505092915050565b600080fd5b600067ffffffffffffffff821115614b6757614b66614a09565b5b614b7082614970565b9050602081019050919050565b82818337600083830152505050565b6000614b9f614b9a84614b4c565b614a69565b905082815260208101848484011115614bbb57614bba614b47565b5b614bc6848285614b7d565b509392505050565b600082601f830112614be357614be261481b565b5b8135614bf3848260208601614b8c565b91505092915050565b600080600080600060a08688031215614c1857614c17614658565b5b6000614c26888289016146ab565b9550506020614c37888289016146ab565b945050604086013567ffffffffffffffff811115614c5857614c5761465d565b5b614c6488828901614b19565b935050606086013567ffffffffffffffff811115614c8557614c8461465d565b5b614c9188828901614b19565b925050608086013567ffffffffffffffff811115614cb257614cb161465d565b5b614cbe88828901614bce565b9150509295509295909350565b600067ffffffffffffffff821115614ce657614ce5614a09565b5b602082029050602081019050919050565b6000614d0a614d0584614ccb565b614a69565b90508083825260208201905060208402830185811115614d2d57614d2c614825565b5b835b81811015614d565780614d4288826146ab565b845260208401935050602081019050614d2f565b5050509392505050565b600082601f830112614d7557614d7461481b565b5b8135614d85848260208601614cf7565b91505092915050565b60008060408385031215614da557614da4614658565b5b600083013567ffffffffffffffff811115614dc357614dc261465d565b5b614dcf85828601614d60565b925050602083013567ffffffffffffffff811115614df057614def61465d565b5b614dfc85828601614b19565b9150509250929050565b600081519050919050565b600082825260208201905092915050565b6000819050602082019050919050565b614e3b816146c0565b82525050565b6000614e4d8383614e32565b60208301905092915050565b6000602082019050919050565b6000614e7182614e06565b614e7b8185614e11565b9350614e8683614e22565b8060005b83811015614eb7578151614e9e8882614e41565b9750614ea983614e59565b925050600181019050614e8a565b5085935050505092915050565b60006020820190508181036000830152614ede8184614e66565b905092915050565b6000608082019050614efb6000830187614736565b614f086020830186614736565b614f156040830185614736565b614f226060830184614736565b95945050505050565b614f3481614682565b82525050565b6000602082019050614f4f6000830184614f2b565b92915050565b614f5e816147e5565b8114614f6957600080fd5b50565b600081359050614f7b81614f55565b92915050565b60008060408385031215614f9857614f97614658565b5b6000614fa6858286016146ab565b9250506020614fb785828601614f6c565b9150509250929050565b600080600060408486031215614fda57614fd9614658565b5b6000614fe8868287016146e1565b935050602084013567ffffffffffffffff8111156150095761500861465d565b5b6150158682870161482a565b92509250509250925092565b6000819050919050565b61503481615021565b82525050565b600060208201905061504f600083018461502b565b92915050565b61505e81615021565b811461506957600080fd5b50565b60008135905061507b81615055565b92915050565b6000806040838503121561509857615097614658565b5b60006150a6858286016146ab565b92505060206150b78582860161506c565b9150509250929050565b600067ffffffffffffffff8211156150dc576150db614a09565b5b6150e582614970565b9050602081019050919050565b6000615105615100846150c1565b614a69565b90508281526020810184848401111561512157615120614b47565b5b61512c848285614b7d565b509392505050565b600082601f8301126151495761514861481b565b5b81356151598482602086016150f2565b91505092915050565b60006020828403121561517857615177614658565b5b600082013567ffffffffffffffff8111156151965761519561465d565b5b6151a284828501615134565b91505092915050565b600080604083850312156151c2576151c1614658565b5b60006151d0858286016146ab565b92505060206151e1858286016146ab565b9150509250929050565b600080600080600060a0868803121561520757615206614658565b5b6000615215888289016146ab565b9550506020615226888289016146ab565b9450506040615237888289016146e1565b9350506060615248888289016146e1565b925050608086013567ffffffffffffffff8111156152695761526861465d565b5b61527588828901614bce565b9150509295509295909350565b7f455243313135353a2061646472657373207a65726f206973206e6f742061207660008201527f616c6964206f776e657200000000000000000000000000000000000000000000602082015250565b60006152de602a8361492c565b91506152e982615282565b604082019050919050565b6000602082019050818103600083015261530d816152d1565b9050919050565b60006040820190506153296000830185614f2b565b6153366020830184614f2b565b9392505050565b7f4e487b7100000000000000000000000000000000000000000000000000000000600052601160045260246000fd5b6000615377826146c0565b9150615382836146c0565b9250828210156153955761539461533d565b5b828203905092915050565b60006153ab826146c0565b91506153b6836146c0565b9250827fffffffffffffffffffffffffffffffffffffffffffffffffffffffffffffffff038211156153eb576153ea61533d565b5b828201905092915050565b7f4e487b7100000000000000000000000000000000000000000000000000000000600052602160045260246000fd5b600060408201905061543a6000830185614f2b565b6154476020830184614736565b9392505050565b7f4e487b7100000000000000000000000000000000000000000000000000000000600052602260045260246000fd5b6000600282049050600182168061549557607f821691505b6020821081036154a8576154a761544e565b5b50919050565b60006080820190506154c36000830187614f2b565b6154d06020830186614736565b6154dd6040830185614f2b565b6154ea6060830184614736565b95945050505050565b7f455243313135353a206163636f756e747320616e6420696473206c656e67746860008201527f206d69736d617463680000000000000000000000000000000000000000000000602082015250565b600061554f60298361492c565b915061555a826154f3565b604082019050919050565b6000602082019050818103600083015261557e81615542565b9050919050565b7f4e487b7100000000000000000000000000000000000000000000000000000000600052603260045260246000fd5b60006155bf826146c0565b91507fffffffffffffffffffffffffffffffffffffffffffffffffffffffffffffffff82036155f1576155f061533d565b5b600182019050919050565b60008160601b9050919050565b6000615614826155fc565b9050919050565b600061562682615609565b9050919050565b61563e61563982614682565b61561b565b82525050565b6000819050919050565b61565f61565a826146c0565b615644565b82525050565b600081905092915050565b600061567c8385615665565b9350615689838584614b7d565b82840190509392505050565b60006156a1828761562d565b6014820191506156b1828661564e565b6020820191506156c2828486615670565b915081905095945050505050565b60006040820190506156e56000830185614f2b565b81810360208301526156f78184614981565b90509392505050565b7f4f776e61626c653a206e6577206f776e657220697320746865207a65726f206160008201527f6464726573730000000000000000000000000000000000000000000000000000602082015250565b600061575c60268361492c565b915061576782615700565b604082019050919050565b6000602082019050818103600083015261578b8161574f565b9050919050565b7f455243313135353a206275726e2066726f6d20746865207a65726f206164647260008201527f6573730000000000000000000000000000000000000000000000000000000000602082015250565b60006157ee60238361492c565b91506157f982615792565b604082019050919050565b6000602082019050818103600083015261581d816157e1565b9050919050565b7f455243313135353a206275726e20616d6f756e7420657863656564732062616c60008201527f616e636500000000000000000000000000000000000000000000000000000000602082015250565b600061588060248361492c565b915061588b82615824565b604082019050919050565b600060208201905081810360008301526158af81615873565b9050919050565b60006040820190506158cb6000830185614736565b6158d86020830184614736565b9392505050565b7f455243313135353a2069647320616e6420616d6f756e7473206c656e6774682060008201527f6d69736d61746368000000000000000000000000000000000000000000000000602082015250565b600061593b60288361492c565b9150615946826158df565b604082019050919050565b6000602082019050818103600083015261596a8161592e565b9050919050565b7f455243313135353a207472616e7366657220746f20746865207a65726f20616460008201527f6472657373000000000000000000000000000000000000000000000000000000602082015250565b60006159cd60258361492c565b91506159d882615971565b604082019050919050565b600060208201905081810360008301526159fc816159c0565b9050919050565b7f455243313135353a20696e73756666696369656e742062616c616e636520666f60008201527f72207472616e7366657200000000000000000000000000000000000000000000602082015250565b6000615a5f602a8361492c565b9150615a6a82615a03565b604082019050919050565b60006020820190508181036000830152615a8e81615a52565b9050919050565b60006040820190508181036000830152615aaf8185614e66565b90508181036020830152615ac38184614e66565b90509392505050565b7f4f776e61626c653a2063616c6c6572206973206e6f7420746865206f776e6572600082015250565b6000615b0260208361492c565b9150615b0d82615acc565b602082019050919050565b60006020820190508181036000830152615b3181615af5565b9050919050565b7f455243313135353a2073657474696e6720617070726f76616c2073746174757360008201527f20666f722073656c660000000000000000000000000000000000000000000000602082015250565b6000615b9460298361492c565b9150615b9f82615b38565b604082019050919050565b60006020820190508181036000830152615bc381615b87565b9050919050565b7f455243313135353a206d696e7420746f20746865207a65726f2061646472657360008201527f7300000000000000000000000000000000000000000000000000000000000000602082015250565b6000615c2660218361492c565b9150615c3182615bca565b604082019050919050565b60006020820190508181036000830152615c5581615c19565b9050919050565b600081519050919050565b600082825260208201905092915050565b6000615c8382615c5c565b615c8d8185615c67565b9350615c9d81856020860161493d565b615ca681614970565b840191505092915050565b600060a082019050615cc66000830188614f2b565b615cd36020830187614f2b565b8181036040830152615ce58186614e66565b90508181036060830152615cf98185614e66565b90508181036080830152615d0d8184615c78565b90509695505050505050565b600081519050615d288161478c565b92915050565b600060208284031215615d4457615d43614658565b5b6000615d5284828501615d19565b91505092915050565b60008160e01c9050919050565b600060033d1115615d875760046000803e615d84600051615d5b565b90505b90565b600060443d10615e1757615d9c61464e565b60043d036004823e80513d602482011167ffffffffffffffff82111715615dc4575050615e17565b808201805167ffffffffffffffff811115615de25750505050615e17565b80602083010160043d038501811115615dff575050505050615e17565b615e0e82602001850186614a38565b82955050505050505b90565b7f455243313135353a207472616e7366657220746f206e6f6e2d4552433131353560008201527f526563656976657220696d706c656d656e746572000000000000000000000000602082015250565b6000615e7660348361492c565b9150615e8182615e1a565b604082019050919050565b60006020820190508181036000830152615ea581615e69565b9050919050565b7f455243313135353a204552433131353552656365697665722072656a6563746560008201527f6420746f6b656e73000000000000000000000000000000000000000000000000602082015250565b6000615f0860288361492c565b9150615f1382615eac565b604082019050919050565b60006020820190508181036000830152615f3781615efb565b9050919050565b600060a082019050615f536000830188614f2b565b615f606020830187614f2b565b615f6d6040830186614736565b615f7a6060830185614736565b8181036080830152615f8c8184615c78565b9050969550505050505056fea264697066735822122095652e4e1a0f3ebdbde1c9493f79c35af1680fef78b78492d77533adac01d59764736f6c634300080d0033",
  "immutableReferences": {},
  "source": "// SPDX-License-Identifier: MIT\npragma solidity ^0.8.9;\n\nimport \"@openzeppelin/contracts/token/ERC1155/ERC1155.sol\";\nimport \"@openzeppelin/contracts/access/Ownable.sol\";\nimport \"@openzeppelin/contracts/token/ERC1155/extensions/ERC1155Burnable.sol\";\nimport \"./BalanceCheckers.sol\";\n\n\n/*\nTODO LIST:\n\n- Make the standard ERC1155 \"SafeTransfer\" function private/internal and create a wrapper\n  that allows players to trade stars but does not allow for players to trade their last star.\n    - **OR**, as an alternative to the above; allow players to trade away their last star, \n      but every trade checks for 0 stars and calls gameOver() if any player ends up with 0.\n\n- Add block number logging and logic for allowing chalengees to automatically win if the \n  challenger doesn't reveal in a reasonable timeframe\n\n- Create separate commit trackers for each kind of card (rock, paper, scissors) so that \n  players can't commit to a challenge with a card they don't have, and so that players\n  can't trade away cards they (might) have committed to a challenge.\n\n*/\n\n\ncontract RRPS is ERC1155, Ownable, BalanceCheckers {\n    constructor() ERC1155(emptyString) {}\n\n    struct commit {\n        bytes32 hash;\n        uint cardType;\n        bool exists;\n        bool hashStrike; \n        uint blockNum;\n    }\n\n    enum GameResult {\n        Challenger_Loses,\n        Tie,\n        Challenger_Wins,\n        Misplay_Challenger_Loses,   // Result if the challenger doesn't possess a card of the type they committed\n        Misplay_Tie,                // Result if neither player posesses the card they committed\n        Misplay_Challenger_Wins     // Result if the challengee doesn't possess a card of the type they committed\n    }\n\n    mapping (address => bool) players;\n    mapping (address => mapping (address => commit)) challenges;\n    mapping (address => uint) challengesCount;\n    mapping (uint => uint) public totals;\n    \n    error AddressAlreadyPlaying();\n    error PlayerNotFound();\n    error PlayerHasNoStars();\n    error PlayerHasNoCards();\n    error PlayerHasNoUncommittedCards();\n    error PlayerHasNoUncommittedStars();\n    error PlayerStillHasStars();\n    error PlayerStillHasCards();\n    error InsufficientStars();\n    error NoSelfChallenge();\n    error PlayerAlreadyChallenged();\n    error NotYetChallenged();\n    error MustBeRockPaperOrScissors();\n    error NeedCopyOfCard();\n    error NoOpenCommit();\n    error InvalidCardCombination();\n    error OtherPlayerAlreadyCommitted();\n\n    event PlayerJoined(address playerAddress, string nickname);\n    event PlayerLeft(address playerAddress); // A player has left the game for any reason\n    event PlayerEliminated(address playerAddress);  // Player has lost all of their stars\n    event PlayerCashedOut(address playerAddress); // Player voluntarily cashes out\n    \n    event ChallengeCommit(address challenger, address challengee); // Challenger has issued a challenge to challengee\n    event OpenCommit(address challenger, address challengee); // Challengee has made an open commit to challenger's challenge\n\n    event ChallengerWins(address challenger, uint challengerCard, address challengee, uint challengeeCard); // Challenger has won the challenge against challengee\n    event ChallengerLoses(address challenger, uint challengerCard, address challengee, uint challengeeCard); // Challengee has won the challenge against challenger\n    event Tie(address challenger, uint challengerCard, address challengee, uint challengeeCard); // Challenger and challengee have tied\n    event Misplay(address player, uint card); // Player has misplayed a card\n\n    event WithdrawnChallengeCommit(address challenger, address challengee); // Challenger has withdrawn their challenge to challengee\n    event WithdrawnOpenCommit(address challenger, address challengee); // Challengee has withdrawn their open commit to challenger\n    \n    event OrphanedChallenge(address challenger, address challengee); // Player left unresolved challenges behind\n    event ChallengerFailedHashOnce(address challenger, address challengee); // Challenger failed to solve hash once\n    event ChallengerFailedHashTwice(address challenger, address challengee); // Challenger failed to solve hash twice (auto-loss of star with no card burnt)\n\n    event TokenTransfer(address from, address to, uint256 id, uint256 amount); // ERC1155 Transfer event\n\n    bytes emptyData = \"\";\n    string emptyString = \"\";\n\n    function startGame(string memory nickname) public /* payable */ {\n        // Check payment\n        // require(msg.value >= 0.1 ether);\n        // Ensure that address is not currently playing the game\n        if (players[msg.sender] == true) {revert AddressAlreadyPlaying();}\n        // Log the address as playing the game\n        players[msg.sender] = true; \n        // Set challenges count to zero;\n        challengesCount[msg.sender] = 0;\n\n\n        // Emit event\n        emit PlayerJoined(msg.sender, nickname);\n\n        // Mint new set of cards\n        mint(msg.sender, ROCK, 4, emptyData);\n        mint(msg.sender, PAPER, 4, emptyData);\n        mint(msg.sender, SCISSORS, 4, emptyData);\n        \n        // Mint new set of stars\n        mint(msg.sender, STAR, 3, emptyData);\n    }\n\n    function gameOverCheck(address player) internal {\n        //Check if player has no stars remaining\n        if (balanceOf(player, STAR) == 0){\n            // DOUBLE check!\n            if (balanceOf(player, STAR) > 0) {revert PlayerStillHasStars();}\n\n            //Burn remaining cards\n            _burn(player, ROCK, balanceOf(player, ROCK));\n            _burn(player, PAPER, balanceOf(player, PAPER));\n            _burn(player, SCISSORS, balanceOf(player, SCISSORS));\n\n\n            players[player] = false;\n            emit PlayerEliminated(player);\n            emit PlayerLeft(player);\n        }\n    }\n\n    function cashOut() public {\n        // Check that player has no cards remaining\n        if (totalCards(msg.sender) > 0) {revert PlayerStillHasCards();}\n        // Check that player has 3 or more stars remaining\n        if (balanceOf(msg.sender, STAR) < 3) {revert InsufficientStars();}\n\n        // TODO: Implement cashing out stars from the contract's account -- 0.03 Eth per star on a 0.1 Eth buyin?\n        // For now, just burn the remaining stars\n        _burn(msg.sender, STAR, balanceOf(msg.sender, STAR)); \n\n        players[msg.sender] = false;\n        emit PlayerCashedOut(msg.sender);\n        emit PlayerLeft(msg.sender);\n    }\n\n    // This function is written from the perspective of the challenger\n    function challengeCommit(address challengee, bytes32 hash) public {\n\n        // Check that player is in the game \n        if (players[msg.sender] == false) {revert PlayerNotFound();}\n\n        // Check that challenger and challengee are different accounts\n        if (msg.sender == challengee) {revert NoSelfChallenge();}\n\n        // Check that challenger has at least one star and at least one card remaining\n        if (balanceOf(msg.sender, STAR) == 0) {revert PlayerHasNoStars();}\n        if (totalCards(msg.sender) == 0) {revert PlayerHasNoCards();}\n        \n        // Check that challengee has at least one star and at least one card remaining\n        if (balanceOf(challengee, STAR) == 0) {revert PlayerHasNoStars();}\n        if (totalCards(challengee) == 0) {revert PlayerHasNoCards();}\n\n        // Check that challenger has at least one card and at least one star not already committed to a challenge\n        if ((totalCards(msg.sender) - challengesCount[msg.sender]) < 1) {revert PlayerHasNoUncommittedCards();}\n        if ((balanceOf(msg.sender, STAR) - challengesCount[msg.sender]) < 1) {revert PlayerHasNoUncommittedStars();}\n\n        // Check that challengee has at least one card and at least one star not already committed to a challenge\n        if ((totalCards(challengee) - challengesCount[challengee]) < 1) {revert PlayerHasNoUncommittedCards();}\n        if ((balanceOf(challengee, STAR) - challengesCount[challengee]) < 1) {revert PlayerHasNoUncommittedStars();}\n\n        // Check that challengee doesn't have an open challenge against challenger and vise versa\n        if (challenges[challengee][msg.sender].exists) {revert PlayerAlreadyChallenged();}\n        if (challenges[msg.sender][challengee].exists) {revert PlayerAlreadyChallenged();}\n\n        // Set challenges mapping challenger -> challengee -> cardType and increment challengeCount for challenger \n        challenges[msg.sender][challengee].hash = hash;\n        challenges[msg.sender][challengee].exists = true;\n        challengesCount[msg.sender] += 1;\n\n        emit ChallengeCommit(msg.sender, challengee);\n    }\n\n    // This function is written from the perspective of the challengee\n    function openCommit(address challenger, uint cardType) public{\n\n        // Check that player is in the game \n        if (players[msg.sender] == false) {revert PlayerNotFound();}\n\n        // Check that challengee has been challenged by challenger\n        if (!challenges[challenger][msg.sender].exists) {revert NotYetChallenged();}\n\n        // Check to see if challenger is still in the game. If they are not, withdraw the challenge and end function early\n        if (players[challenger] == false){\n            delete challenges[challenger][msg.sender];\n            emit OrphanedChallenge(challenger, msg.sender);\n            return ();\n        }\n\n        // Check that cardType is one of ROCK (1), PAPER (2), SCISSORS (3)\n        if(cardType < 1 || cardType > 3) {revert MustBeRockPaperOrScissors();}\n\n        // Check that challenger and challengee are different accounts\n        if (msg.sender == challenger) {revert NoSelfChallenge();}\n\n        // Check that challengee has at least one card and at least one star not already committed to a challenge\n        if ((totalCards(msg.sender) - challengesCount[msg.sender]) < 1) {revert PlayerHasNoUncommittedCards();}\n        if ((balanceOf(msg.sender, STAR) - challengesCount[msg.sender]) < 1) {revert PlayerHasNoUncommittedStars();}\n\n        // Check that challengee has at least one copy of the card they're trying to commit\n        if(balanceOf(msg.sender, cardType) < 1) {revert NeedCopyOfCard();}\n\n        // Set challenges mapping challengee -> challenger -> cardType\n        challenges[msg.sender][challenger].cardType = cardType;\n        challenges[msg.sender][challenger].exists = true;\n\n        // Increment challengeCount for challengee \n        challengesCount[msg.sender] += 1;\n\n        emit OpenCommit(challenger, msg.sender);\n    }\n\n    // Written from the perspective of the challenger, who must now reveal their card by proving their hash\n    function reveal(address challengee, uint cardType, string calldata salt) public {\n\n        // Check that player is in the game \n        if (players[msg.sender] == false) {revert PlayerNotFound();}\n\n        // Check that cardType is one of ROCK (1), PAPER (2), SCISSORS (3)\n        if(cardType < 1 || cardType > 3) {revert MustBeRockPaperOrScissors();}\n\n        // Check to ensure that an open commit from the challengee exists against the challenger's challenge (which also needs to exist)\n        if(!challenges[challengee][msg.sender].exists) {revert NotYetChallenged();}\n        if(!challenges[msg.sender][challengee].exists) {revert NoOpenCommit();}\n\n        // Check to see if challengee is still in the game. If they are not, withdraw the challenge and end function early\n        if (players[challengee] == false){\n            delete challenges[challengee][msg.sender];\n            delete challenges[msg.sender][challengee];\n            challengesCount[msg.sender] -= 1;\n            emit OrphanedChallenge(msg.sender, challengee);\n            return ();\n        }\n\n        // Check that challenger isn't revealing against themselves\n        if (msg.sender == challengee) {revert NoSelfChallenge();}\n\n        // Check that challenger's hash is solved using the card type and salt.\n        // If they fail to do so, they get a hash strike and the function returns.\n        uint challengerCard;\n\n        if (hashCommit(cardType, salt) == challenges[msg.sender][challengee].hash && balanceOf(msg.sender, cardType) > 0){\n            challengerCard = cardType;\n        } else if (!challenges[msg.sender][challengee].hashStrike) {\n            challenges[msg.sender][challengee].hashStrike = true;\n            emit ChallengerFailedHashOnce(msg.sender, challengee);\n            return ();\n        } else {\n            emit ChallengerFailedHashTwice(msg.sender, challengee);\n            challengerCard = 0;\n        }\n        \n        uint challengeeCard = challenges[challengee][msg.sender].cardType;\n        \n        GameResult gameResult;\n\n        // Ensure that challengee is in possession of the card they committed; \n        // if they're not, change card type to 0, representing a misplay.\n        if (balanceOf(msg.sender, challengerCard) < 1)  {challengerCard = 0;}\n        if (balanceOf(challengee, challengeeCard) < 1)  {challengeeCard = 0;}\n\n        // Determine Winner\n        if      (challengerCard == 0 && challengeeCard == 0)            {gameResult = GameResult.Misplay_Tie;}\n        else if (challengerCard == 0)                                   {gameResult = GameResult.Misplay_Challenger_Loses;}\n        else if (challengeeCard == 0)                                   {gameResult = GameResult.Misplay_Challenger_Wins;}\n        else if (challengerCard == challengeeCard)                      {gameResult = GameResult.Tie;}\n        else if (challengerCard == ROCK && challengeeCard == SCISSORS)  {gameResult = GameResult.Challenger_Wins;}\n        else if (challengerCard == SCISSORS && challengeeCard == PAPER) {gameResult = GameResult.Challenger_Wins;}\n        else if (challengerCard == PAPER && challengeeCard == ROCK)     {gameResult = GameResult.Challenger_Wins;}\n        else if (challengerCard == ROCK && challengeeCard == PAPER)     {gameResult = GameResult.Challenger_Loses;}\n        else if (challengerCard == PAPER && challengeeCard == SCISSORS) {gameResult = GameResult.Challenger_Loses;}\n        else if (challengerCard == SCISSORS && challengeeCard == ROCK)  {gameResult = GameResult.Challenger_Loses;}\n        else {revert InvalidCardCombination();}\n\n        // If the outcome is legitimate, burn both cards used, otherwise, only burn the legit cards.\n\n        if      (gameResult == GameResult.Misplay_Challenger_Loses)     {_burn(challengee, challengeeCard, 1); emit Misplay(msg.sender, challengerCard);}\n        else if (gameResult == GameResult.Misplay_Challenger_Wins)      {_burn(msg.sender, challengerCard, 1); emit Misplay(challengee, challengeeCard);}\n        else {\n            _burn(msg.sender, challengerCard, 1);\n            _burn(challengee, challengeeCard, 1);\n        }\n\n        // If there's a winner, move one star from loser to winner\n        if (gameResult == GameResult.Challenger_Loses || gameResult == GameResult.Misplay_Challenger_Loses){\n            _burn(msg.sender, STAR, 1);\n            mint(challengee, STAR, 1, emptyData);\n            emit ChallengerLoses(msg.sender, challengerCard, challengee, challengeeCard);\n        }\n        if (gameResult == GameResult.Challenger_Wins || gameResult == GameResult.Misplay_Challenger_Wins){\n            _burn(challengee, STAR, 1);\n            mint(msg.sender, STAR, 1, emptyData);\n            emit ChallengerWins(msg.sender, challengerCard, challengee, challengeeCard);\n        }\n        // If the result is a double misplay, burn one star from both participants.\n        if (gameResult == GameResult.Misplay_Tie) {\n            _burn(msg.sender, STAR, 1);\n            _burn(challengee, STAR, 1);\n            emit Misplay(msg.sender, challengerCard);\n            emit Misplay(challengee, challengeeCard);\n        }\n        // If the result is a legitimate tie, no stars change hands\n        if (gameResult == GameResult.Tie) {\n            emit Tie(msg.sender, challengerCard, challengee, challengeeCard);\n        }\n\n        // Set challenges mapping for both address orderings to false or 0??\n        delete challenges[msg.sender][challengee];\n        delete challenges[challengee][msg.sender];\n\n        // Decrement challengeCount for both participants\n        challengesCount[msg.sender] -= 1;\n        challengesCount[challengee] -= 1;\n\n        // Check for Game Over for both players\n        gameOverCheck(msg.sender);\n        gameOverCheck(challengee);\n    }\n\n    function withdrawChallenge(address challengee) public {\n        \n        // Check that player has an ongoing challenge against another player\n        if (!challenges[msg.sender][challengee].exists) {revert NotYetChallenged();}\n\n        // Ensure that the other player hasn't yet made an open commit to the challenge\n        if(challenges[challengee][msg.sender].exists) {revert OtherPlayerAlreadyCommitted();}\n\n        // Withdraw the challenge by deregistering and decrementing challengesCount\n        delete challenges[msg.sender][challengee];\n        challengesCount[msg.sender] -= 1;\n        emit WithdrawnChallengeCommit(msg.sender, challengee);\n    }\n\n    function withdrawOpenCommit(address challenger) public {\n\n        // Check that sender (challengee) has made an open commit against another player's ongoing challenge\n        if(!challenges[msg.sender][challenger].exists) {revert NotYetChallenged();}\n\n        // Withdraw the open commit by deregistering and decrementing challengesCount\n        delete challenges[msg.sender][challenger];\n        challengesCount[msg.sender] -= 1;\n        emit WithdrawnOpenCommit(challenger, msg.sender);\n    }\n\n    function setURI(string memory newuri) internal {\n        _setURI(newuri);\n    }\n\n    function mint(address account, uint256 id, uint256 amount, bytes memory data) internal {\n        _mint(account, id, amount, data);\n        totals[id] += amount;\n    }\n\n    function burn(address from, uint256 id, uint256 amount) internal {\n        _burn(from, id, amount);\n        totals[id] -= amount;\n    }\n\n    // Pure hash function\n    function hashCommit(uint cardType, string calldata salt) public view returns(bytes32) {\n        if(cardType < 1 || cardType > 3) {revert MustBeRockPaperOrScissors();}\n        return keccak256(abi.encodePacked(msg.sender, cardType, salt));\n    }\n\n    // Transfer Overrides\n\n    function safeTransferFrom(address from, address to, uint256 id, uint256 amount, bytes memory data) public override {\n        _safeTransferFrom(from, to, id, amount, data);\n    }\n    function safeBatchTransferFrom(address from, address to, uint256[] memory ids, uint256[] memory amounts, bytes memory data) public override {\n        _safeBatchTransferFrom(from, to, ids, amounts, data);\n    }\n}\n",
  "sourcePath": "/home/pierson/Desktop/restricted_rock_paper_scissors/rrps_contracts/contracts/rrps.sol",
  "compiler": {
    "name": "solc",
    "version": "0.8.13+commit.abaa5c0e.Emscripten.clang"
  },
  "schemaVersion": "3.4.16",
  "updatedAt": "2023-10-03T15:13:10.444Z",
  "networkType": "ethereum",
  "devdoc": {
    "kind": "dev",
    "methods": {
      "balanceOf(address,uint256)": {
        "details": "See {IERC1155-balanceOf}. Requirements: - `account` cannot be the zero address."
      },
      "balanceOfBatch(address[],uint256[])": {
        "details": "See {IERC1155-balanceOfBatch}. Requirements: - `accounts` and `ids` must have the same length."
      },
      "isApprovedForAll(address,address)": {
        "details": "See {IERC1155-isApprovedForAll}."
      },
      "owner()": {
        "details": "Returns the address of the current owner."
      },
      "renounceOwnership()": {
        "details": "Leaves the contract without owner. It will not be possible to call `onlyOwner` functions. Can only be called by the current owner. NOTE: Renouncing ownership will leave the contract without an owner, thereby disabling any functionality that is only available to the owner."
      },
      "safeBatchTransferFrom(address,address,uint256[],uint256[],bytes)": {
        "details": "See {IERC1155-safeBatchTransferFrom}."
      },
      "safeTransferFrom(address,address,uint256,uint256,bytes)": {
        "details": "See {IERC1155-safeTransferFrom}."
      },
      "setApprovalForAll(address,bool)": {
        "details": "See {IERC1155-setApprovalForAll}."
      },
      "supportsInterface(bytes4)": {
        "details": "See {IERC165-supportsInterface}."
      },
      "transferOwnership(address)": {
        "details": "Transfers ownership of the contract to a new account (`newOwner`). Can only be called by the current owner."
      },
      "uri(uint256)": {
        "details": "See {IERC1155MetadataURI-uri}. This implementation returns the same URI for *all* token types. It relies on the token type ID substitution mechanism https://eips.ethereum.org/EIPS/eip-1155#metadata[defined in the EIP]. Clients calling this function must replace the `\\{id\\}` substring with the actual token type ID."
      }
    },
    "version": 1
  },
  "userdoc": {
    "kind": "user",
    "methods": {},
    "version": 1
  }
}